:020000040800F2
:10000000E0140020450100088D250008011E0008AD
:1000100089250008A10C00088F3D000800000000A1
:10002000000000000000000000000000C3340008D1
:10003000DD0D0008000000005D2600085D380008A6
:100040005F0100085F0100085F0100085F01000810
:100050005F0100085F0100085F0100085F01000800
:10006000D10E00085F0100085F0100085F01000871
:100070005F0100085F0100085F0100085F010008E0
:100080005F0100085F0100085F0100085F010008D0
:100090005F0100085F0100085F010008250F0008EC
:1000A0005F0100085F0100085F0100085F010008B0
:1000B000D93800080D3900085F0100085F01000809
:1000C0005F0100085F0100085F0100085F01000890
:1000D0005F010008193B00085D3B00085F01000854
:1000E0005F0100085F0100085F0100085F01000870
:1000F0005F0100085F0100085F0100085F01000860
:100100005F0100085F0100085F0100085F0100084F
:100110005F0100085F0100085F0100085F0100083F
:100120005F0100085F0100085F0100085F0100082F
:10013000DFF80CD000F0F0FB00480047C552000883
:10014000E01400200648804706480047FEE7FEE727
:10015000FEE7FEE7FEE7FEE7FEE7FEE7FEE7FEE777
:10016000613800083101000840EA01039B0703D011
:1001700009E008C9121F08C0042AFAD203E011F8E6
:10018000013B00F8013B521EF9D27047F0B480EAFF
:100190000102D40F4200B2EB410F02D202460846E0
:1001A00011464A0042D0C30DDDB2C1F3C752AD1AA9
:1001B000202D35DAC1F3160141F4000204B1524298
:1001C000C5F1200602FA06F12A411044B3EBD05FD4
:1001D00023D0C4B1012DA0EBC35009DCF0BC4FF01B
:1001E000004202EAC352DBB200F5000000F031BA6F
:1001F000400000F1807000EBC350A0F1807040EA35
:10020000D170490009E0490841EAC071A0EBC35030
:1002100000F50000400800EBC350F0BC00F010BA3D
:100220006142012202EB4101001BF6E7F0BC70477E
:1002300081F00041AAE780F00040A7E780EA0102D0
:1002400010B502F00043400022D04A001FD0010E3A
:1002500001EB1261C0F35600C2F3560240F40000F5
:1002600042F40002A0FB022000047F39140400D0F5
:10027000401C50EA124001D44000491EC2B20C0694
:1002800004EBD010401C4008802A02D003E000207C
:1002900010BD20F00100002900DA0020184310BD35
:1002A00030B480EA010202F0004530F0004221F053
:1002B000004013D090B1C30DD40DC2F31601C0F3AA
:1002C0001600E41A41F4000140F400027D3491422A
:1002D00001D3641C00E04900002C02DA30BC00208D
:1002E00070474FF400000023914201D3891A034361
:1002F00040084FEA4101F7D151B1914202D14FF08C
:10030000004105E002D24FF0010101E06FF0010170
:1003100003EBC450284430BC00F092B92DE9FE4FE5
:1003200081EA030404F0004421F0004100944FF0FE
:10033000000B23F0004350EA01045ED052EA0304AC
:100340005BD0C3F30A54C1F30A552C44A4F2F3342E
:100350000194A0FB0254C1F3130141F48011C3F3D3
:10036000130343F4801301FB024400FB034E840A91
:10037000970A44EA815447EA8357A4FB0768029529
:100380008D0A05FB07854FEA932C04FB0C542705C7
:10039000029D4FEA065847EA1637B5EB08056EEBA3
:1003A000070C870E920E47EA811742EA8312A7FBD9
:1003B0000201B6EB0B0164EB00042B0D43EA0C3396
:1003C0005E1844EB1C50DA465146E7FB0201C5F3C8
:1003D00013044FEA0B3343EA14534FEA0432019CEF
:1003E00043EA0603A4F10C040294009CCDE900B496
:1003F00000F06CF903B0BDE8F08F00200146F9E78A
:100400002DE9F04D81EA030404F0004B21F0004592
:1004100014464FF0000A23F0004150EA050220D0B4
:1004200054EA01021DD0C5F30A570246C5F313036F
:10043000C1F31300C1F30A5640F4801543F480134E
:10044000A7EB0608101BD64608F2FD3873EB050033
:1004500002D308F1010801E092185B41B8F1000FE6
:1004600003DA00200146BDE8F08D00204FF4801132
:10047000064684460EE0171B73EB050705D3121BD7
:1004800063EB050306434CEA010C49084FEA3000D0
:1004900092185B4150EA0107EDD152EA030012D0F5
:1004A00082EA040083EA0501084305D0101BAB4132
:1004B00006D20122002306E000224FF0004302E0B2
:1004C0006FF0010253101AEB06004CEB085110EBD1
:1004D0000A0041EB0B01BDE8F04D00F0E8B8C10F98
:1004E00080EAE0700844CA079623002100F0B1B802
:1004F00096230022114600F0ACB800F0004220F034
:100500000040C10DC0F3160040F400007F2901DA5D
:1005100000207047962903DCC1F19601C84001E034
:1005200096398840002AF4D04042704720F00040BD
:10053000C10DC0F3160040F400007F2901DA00204D
:100540007047962903DCC1F19601C840704796397F
:100550008840704700F0004230F000400AD0C10DE2
:1005600001F56071C0F3160042EA0151C20840076C
:100570001143704700200146704701F0004330B43A
:1005800021F0004150EA010206D00A0DA2F5607286
:10059000C1F31301002A02DC30BC00207047440F75
:1005A00044EAC104C100E01830BC00EBC25000F0C6
:1005B00047B830B50B46014600202022012409E04F
:1005C00021FA02F59D4205D303FA02F5491B04FA0C
:1005D00002F52844151EA2F10102F1DC30BD2DE91F
:1005E000F05F0546002092469B46884606468146B7
:1005F00040241BE0284641464746224600F0ADF91C
:1006000053465A46C01A914110D311461846224605
:1006100000F094F92D1A67EB01084F46224601209D
:10062000002100F08BF917EB00094E41201EA4F1C8
:100630000104DFDC484631462A464346BDE8F09FC8
:100640000029A8BF7047401C490008BF20F00100E6
:10065000704710B4B0FA80FC00FA0CF050EA0104C4
:1006600004BF10BC704749B1CCF1200421FA04F456
:1006700011FA0CF118BF012121430843A3EB0C012F
:10068000CB1D4FEA00614FEA102042BF002010BC92
:10069000704700EBC35010440029A4BF10BC704742
:1006A000401C490008BF20F0010010BC704710B585
:1006B000141E73F1000408DA401C41F10001921885
:1006C0005B411A4301D120F0010010BD2DE9F04D2E
:1006D00092469B4611B1B1FA81F202E0B0FA80F283
:1006E0002032904600F02AF904460F4640EA0A00FC
:1006F00041EA0B0153465A46084313D0114653EAC8
:10070000010019D0C8F14002504600F026F9054614
:100710000E4650465946424600F010F9084305D0AF
:10072000012004E020463946BDE8F08D0020054355
:1007300046EAE0762C4337430A986305E40AA0EBC7
:1007400008000022FD0A44EA47540A3002D500207E
:100750000146E9E7010510196941DDE9084500197D
:100760006941BDE8F04DA2E72DE9FE4F804681EAE0
:100770000300C00F0C46009021F0004123F000451B
:10078000B8EB0200A94105D24046214690461C46DE
:100790000B46024623F00040104347D0270DC7F315
:1007A0000A00C3F30A510290401A019040286BDA04
:1007B000C3F3130040F4801B0098924620B100233D
:1007C000D2EB030A63EB0B0B01985946C0F14002D0
:1007D000504600F0B3F806460D4650465946019A79
:1007E00000F0CBF810EB08006141002487EA1152B9
:1007F00084EAE7731A4340D0009A62B3019A012A4F
:100800004FEA075215DC001B61EB02014FF000427A
:1008100002EA0752CDE90042001C41F58011324640
:100820002B46FFF753FF03B0BDE8F08F404621464B
:10083000F9E7001B61EB0201001C41F58013001871
:100840005B412018A2F5001747EB030140EAD57081
:10085000B6196D4111E06D084FEA360645EAC075DC
:100860004FEA0752001B61EB0201001C41F58011A9
:1008700049084FEA30000019514132462B4603B077
:10088000BDE8F04FFFF713BF00980122400000239E
:10089000D0EB020263EBE073009821464FEAE0746C
:1008A000B8EB000061EB0401E9E783F000435BE78C
:1008B00081F0004158E7C1F30A52C1F3130140F23D
:1008C000FF3341F480119A4202DA0020014670475A
:1008D00040F233439A42A2F2334202DC524200F029
:1008E0003CB800F02BB8000030B5041E71F10004D4
:1008F00004DB4FF00044404264EB0101141E73F12D
:10090000000405DB1C464FF00043524263EB040336
:10091000994208BF904230BD064C074D06E0E068A2
:1009200040F0010394E8070098471034AC42F6D336
:10093000FFF702FCBC7E0008DC7E0008202A04DBF6
:10094000203A00FA02F1002070479140C2F12003E2
:1009500020FA03F3194390407047202A04DB203A21
:1009600021FA02F00021704721FA02F3D040C2F1CF
:1009700020029140084319467047202A06DBCB1716
:10098000203A41FA02F043EAE07306E041FA02F34A
:10099000D040C2F12002914008431946704721B16E
:1009A000826842F00102826003E0826822F0010264
:1009B00082607047014600208A6802F004020AB192
:1009C000012000E0002070470146C86C80B27047EB
:1009D0000246002013680B400BB1012000E000200C
:1009E0007047014600208A6802F008020AB101201F
:1009F00000E000207047000030B5024600200023D0
:100A000050680F4C20400D790C6844EA05242043BF
:100A1000506090680B4C2040D1E902542C434D7932
:100A200044EA450420439060D06A20F470000C7CB6
:100A3000641EE4B2234340EA0350D06230BD00009C
:100A4000FFFEF0FFFDF7F1FFF0B593B0054614226D
:100A5000144904A8FFF788FB00241FE055F8240080
:100A6000FFF778FD064604A832460B460EA100901B
:100A700009A803F0FBFD00200C2109AACDE9002103
:100A8000029004EB8400382202EB80014FF6FF73E2
:100A90000022822002F08AFD601CC4B2032CDDDB40
:100AA00013B0F0BD607E00082566252E323073003D
:100AB000F0B504460D4600200021092D11DDE06847
:100AC000A5F10A0606EB4607072606FA07F1884352
:100AD000A5F10A0606EB460603FA06F10843E060B4
:100AE0000CE0206905EB4507072606FA07F1884365
:100AF00005EB450603FA06F108432061072A0FDAE1
:100B0000606B561E06EB86071F2606FA07F1884320
:100B1000561E06EB860605FA06F10843606322E0DE
:100B20000D2A0FDA206BD61F06EB86071F2606FA62
:100B300007F18843D61F06EB860605FA06F108433F
:100B4000206310E0E06AA2F10D0606EB86071F267F
:100B500006FA07F18843A2F10D0606EB860605FAB0
:100B600006F10843E062F0BD816841F00801816050
:100B7000704721B1826842F4A002826003E082687B
:100B800022F4A00282607047816841F00401816014
:100B9000704770472DE9F05F82465046FFF7DAFC58
:100BA00080460022074BFFF7B9FB06460022064BA2
:100BB000FFF726FC0446FFF7E0FC83465846BDE8F5
:100BC000F09F000000A07040008043402DE9F05FDE
:100BD00082465046FFF7BEFC80460022074BFFF7D7
:100BE0009DFB06460022064BFFF70AFC0446FFF772
:100BF000C4FC83465846BDE8F09F000000A070404A
:100C0000008043402DE9F04F85B0234903C9CDE969
:100C1000000101210A2000F0E9FE804601210B209D
:100C200000F0E4FE814601210C2000F0DFFE824648
:100C30004046FFF75DFC8346FFF78CFC06464FF00D
:100C40006632164BFFF76AFB0446FFF796FC0290EC
:100C50004846FFF74DFC8346FFF77CFC06464FF005
:100C600066320E4BFFF75AFB0446FFF786FC0390F3
:100C70005046FFF73DFC8346FFF76CFC06464FF0FD
:100C80006632064BFFF74AFB0446FFF776FC0490FA
:100C900002A805B0BDE8F08F2C5B000866664A3FED
:100CA00000BFFEE739B1084A1268012383401A43A6
:100CB000054B1A6006E0044A1268012383409A43F8
:100CC000014B1A60704700000074004030B50022EC
:100CD00000230A4C226840F6FE748440A243D1E906
:100CE00000452C438D682C43CD6844EA050303FA84
:100CF00000F42243014C226030BD0000007400402B
:100D000008B500220092054A009200F10802009BFB
:100D10001A440092009A116008BD0000007400405F
:100D200000B585B00121042002F000F80121480738
:100D300001F0ECFF1020ADF8100000208DF813003A
:100D400003208DF8120004A90D4800F0EDF91021E0
:100D50000B4800F0D1FA0020009001900290022090
:100D6000039069460020FFF7B1FF01210020FFF743
:100D700099FF00210846FFF7C3FF05B000BD000042
:100D8000000801402DE9F04704462046FFF7B0FB7C
:100D9000814610494846FFF783FA81464FF08B4160
:100DA0004846FFF74BFA8246FFF7D4FB07464FF061
:100DB0006632094BFFF724FB0546FFF7DEFB814651
:100DC0004846FFF7B3FB85B229460020FFF798FF9E
:100DD000BDE8F08700007A4466660A40704700006C
:100DE0000021044A116000BF024909688142FBD317
:100DF00070470000AC00002038B532480078401C35
:100E0000C0B28DF800002F484078401CC0B28DF869
:100E100001002C488078401CC0B28DF8020029489F
:100E2000C078401CC0B28DF803006A460C21002037
:100E300003F0BCFB01220021084603F077FB0122EE
:100E40001146002003F072FB0520FFF7C9FF0321C4
:100E5000002002F0B7F913280BD010220121002046
:100E600003F064FB0020184908601849C1F8B80174
:100E700038BD04220121002003F058FB00BF0024EC
:100E80000221002002F09EF9044624B122460221EC
:100E9000002003F04BFB0520FFF7A2FF04F0080041
:100EA000082801D10020E3E70621002002F08AF99A
:100EB000FF2806D010220121002003F037FBFF207D
:100EC000D6E7DCE796000020BC0122420000224267
:100ED00010B5042000F03CF801281ED100F032F8D3
:100EE0000A2004F063F904210C4800F0F1F968B914
:100EF00001210B4800F0F5F920B90121084800F064
:100F0000FBF903E00121064800F0F4F900BF0421D9
:100F1000024800F0DDF90028F9D010BD00180140AA
:100F20000010014010B54FF4007000F011F830B11E
:100F30004FF4007000F006F801200149087010BD60
:100F4000AB00002001490860704700001404014014
:100F5000014600200022074B1B6803EA0102054BF3
:100F600014331B680B4013B10AB1012000E00020CC
:100F70007047000000040140002123498279002AC3
:100F80003AD00A46126803689A430B461A600A1D53
:100F9000126803689A430B1D1A60027911440A68AB
:100FA00003681A430A60184A0832126803689A43B1
:100FB000154B08331A601A1D126803689A43124BC6
:100FC0000C331A604279102A0ED11A1F1268036876
:100FD0001A430D4B08331A601A1D126803681A432E
:100FE000094B0C331A600DE00749427911440A6835
:100FF00003681A430A6005E0027911440A6803682D
:101000009A430A60704700000004014005490968DE
:1010100021F01001034A1160114609680143116073
:10102000704700000020024001460020034A10687B
:1010300000F03800084310607047000000200240B4
:10104000704700002DE9F04104462046FFF782FA80
:10105000064632460B4612A003F0F8FA2046FFF788
:10106000EFFF054616492046FFF7E8F80746FFF769
:1010700044FA0646FFF733FA05462846FFF76AFAB0
:10108000064632460B460FA003F0E0FA2846FFF76B
:101090004DFA86B23046FFF775FEBDE8F0810000DC
:1010A00053657420466C6F775F56616C7565207070
:1010B0006172616D657465723A25660D0A00000003
:1010C0000000C8425365742041637475616C6C20E4
:1010D00076616C756520706172616D657465723AD8
:1010E00025660D0A0000000030B500228B071C0F9A
:1010F0000F2303FA04F20B4B8C1053F82430934364
:10110000084C8D1044F8253023468C1053F82430B9
:101110008C07240F00FA04F42343024C8D1044F88A
:10112000253030BD080001402DE9F0410246002580
:101130000026002000230024002791F803C00CF0B3
:101140000F0591F803C00CF0100CBCF1000F03D098
:1011500091F802C04CEA050591F800C0BCF1000FFF
:1011600031D0146800202BE04FF0010C0CFA00F392
:10117000B1F800C00CEA03069E4220D183004FF074
:101180000F0C0CFA03F7BC4305FA03FC4CEA040409
:1011900091F803C0BCF1280F06D14FF0010C0CFAF6
:1011A00000FCC2F814C00AE091F803C0BCF1480F7B
:1011B00005D14FF0010C0CFA00FCC2F810C0401C25
:1011C0000828D1D31460B1F800C0BCF1FF0F34DDA2
:1011D000546800202EE000F1080C4FF0010808FAD6
:1011E0000CF3B1F800C00CEA03069E4221D1830043
:1011F0004FF00F0C0CFA03F7BC4305FA03FC4CEA62
:10120000040491F803C0BCF1280F05D100F1080CCB
:1012100008FA0CF8C2F8148091F803C0BCF1480F2A
:1012200007D100F1080C4FF0010808FA0CF8C2F8D9
:101230001080401C0828CED35460BDE8F081000027
:10124000F0B50A46002300240021002500F00046E6
:10125000B6F1004F02D11D4EF16901E01B4E7168DD
:10126000C0F3034583B200F44016B6F5401F08D121
:1012700021F07061154E766826F07066134F7E601F
:1012800012E000F48016B6F5801F06D1032606FA98
:1012900005F4A14341F0706106E0460D360103FA02
:1012A00006F6B14341F0706122B1460D360103FAF2
:1012B00006F6314300F00046B6F1004F02D1034E6E
:1012C000F16101E0014E7160F0BD000000000140DD
:1012D0000246002093680B400BB1012000E0002083
:1012E000704702460020D3680B400BB1012000E09C
:1012F0000020704741617047016170472DE9FC5F34
:101300000546884691469A46DDF830B000953E2065
:10131000019000245FE004EB0410374911F810003D
:101320009BF80010884253D104EB0410324901EBC2
:10133000400040789BF80110884249D108F10F0025
:1013400083B205F10F0082B24146284600F06EFFDD
:1013500000263BE0002734E00D9890B904EB041020
:10136000254901EB4000801C805D80213941084007
:1013700018B1484601F0B2F821E0504601F0AEF84D
:101380001DE01E48A0F8009004EB04101A4901EB80
:101390004000801C805D80213941084018B14146E1
:1013A000284600F0D9FD681C85B20098281A10283C
:1013B00005D1009D08F101001FFA80F803E0781CB8
:1013C000C7B2082FC8DB00BF701CC6B2202EC1DB1D
:1013D00000BF601C84B2019884429CDB08484088AE
:1013E000401E83B206480088401E82B20021084693
:1013F00000F01CFFBDE8FC9F966500087600002009
:10140000C00000202DE9FC5F0546884691469A46BB
:10141000DDF830B0009507200190002467E004EB70
:10142000840000EB44103A4911F810009BF80010BA
:10143000884259D104EB840000EB4410344901EB9D
:10144000400040789BF8011088424DD108F1170008
:1014500083B205F1170082B24146284600F0E6FE4D
:1014600000263FE0002738E00D98A0B904EB840087
:1014700000EB4410264901EB4000801C805D802178
:101480003941084018B1484601F028F823E0504699
:1014900001F024F81FE01F48A0F8009004EB84003E
:1014A00000EB44101A4901EB4000801C805D802154
:1014B0003941084018B14146284600F04DFD681CEE
:1014C00085B20098281A182805D1009D08F101005E
:1014D0001FFA80F803E0781CC7B2082FC4DB00BFF6
:1014E000701CC6B2482EBDDB00BF601C84B20198E0
:1014F000844294DB08484088401E83B20648008836
:10150000401E82B20021084600F090FEBDE8FC9F1C
:10151000D26D000876000020C00000202DE9FC5F9D
:101520000546884691469A46DDF830B0009504207D
:10153000019000245FE004EB8410374911F810009B
:101540009BF80010884253D104EB8410324901EB20
:10155000400040789BF80110884249D108F11F00F3
:1015600083B205F11F0082B24146284600F05EFEBC
:1015700000263BE0002734E00D9890B904EB84107E
:10158000254901EB4000801C805D802139410840E5
:1015900018B1484600F0A2FF21E0504600F09EFF3F
:1015A0001DE01E48A0F8009004EB84101A4901EBDE
:1015B0004000801C805D80213941084018B14146BF
:1015C000284600F0C9FC681C85B20098281A20281B
:1015D00005D1009D08F101001FFA80F803E0781C96
:1015E000C7B2082FC8DB00BF701CC6B2802EC1DB9B
:1015F00000BF601C84B2019884429CDB084840888C
:10160000401E83B206480088401E82B20021084670
:1016100000F00CFEBDE8FC9FD86F000876000020AB
:10162000C000002070B505460E46144631462846D7
:1016300000F0F2FD204600F051FF70BD38B50024E7
:1016400000BF1BE0012000901048028804EB8400DA
:10165000A82303EB80010623B42003F0D5FD01206D
:1016600000900A48028804EB8400A82303EB800161
:101670000623322003F0C8FD601CC4B2062CE1DB57
:1016800040F2DC5003F092FD38BD00007C000020E9
:101690003EB50546002400BF40E0285D01281DD16D
:1016A00000904748428804EB8400A82303EB8001A4
:1016B0000623322003F0A8FD00200C2141A2CDE931
:1016C0000021029004EB8400A22202EB80014FF67D
:1016D000E0730022412001F069FF1DE0012000902D
:1016E0003748028804EB8400A82303EB800106231B
:1016F000322003F089FD00200C2133A2CDE9002126
:10170000029004EB8400A22202EB80014FF6E0730A
:101710000022412001F04AFF601CC4B2062CBCDB51
:10172000062446E0285D012820D100902448428804
:10173000A01F00EB8000A82303EB80010623B42048
:1017400003F062FD00200C211EA2CDE900210290D1
:10175000A01F00EB8000A22202EB800081B24FF6B6
:10176000E0730022C32001F021FF20E0012000905F
:1017700013480288A01F00EB8000A82303EB800120
:101780000623B42003F040FD00200C210EA2CDE979
:1017900000210290A01F00EB8000A22202EB80003B
:1017A00081B24FF6E0730022C32001F0FFFE601CFF
:1017B000C4B20C2CB6DB40F2DC5003F0F7FC3EBDAB
:1017C0007C0000204F4E20004F46460010B54FF4DD
:1017D00000514948FFF785FD012805D14748407869
:1017E00040F00100454948704FF400414248FFF77E
:1017F00078FD012805D14148407840F002003F497A
:10180000487008213C48FFF76CFD012805D13B4892
:10181000407840F004003949487002213848FFF709
:1018200060FD012805D13548407840F00800334973
:10183000487001213248FFF754FD012805D12F4897
:10184000407840F010002D4948704FF480412A48FC
:10185000FFF747FD012805D12848407840F02000D7
:101860002649487080212648FFF73BFD012805D115
:101870002248407840F0400020494870012121482A
:10188000FFF72FFD012805D11C48407840F080006B
:101890001A49487010211848FFF723FD012805D187
:1018A0001648007840F0010014490870402114489F
:1018B000FFF717FD012805D11048007840F002001D
:1018C0000E49087080210F48FFF70BFD012805D154
:1018D0000A48007840F0040008490870402109488F
:1018E000FFF7FFFC012805D10448007840F008000C
:1018F00002490870014810BD001001408600002018
:1019000000080140000C014010B54FF4005125487B
:10191000FFF7E7FC244908704FF400412148FFF726
:10192000E0FC2149487008211E48FFF7DAFC1E49F7
:10193000887002211D48FFF7D4FC1B49C8700121A3
:101940001A48FFF7CEFC184908714FF4804115483A
:10195000FFF7C7FC1449487180211448FFF7C1FC08
:101960001149887101211248FFF7BBFC0E49C8716B
:1019700010210C48FFF7B5FC0B49087240210B48B9
:10198000FFF7AFFC0849487280210948FFF7A9FC1E
:101990000549887240210648FFF7A3FC0249C87236
:1019A000084610BD00100140CE0000200008014094
:1019B000000C014070B502464FF6FF70002312E0A4
:1019C00012F8015B684000240AE000F0010525B12F
:1019D00040084AF20105684000E04008651CECB28E
:1019E000082CF2DB5B1C8B42EAD370BD2DE9F04181
:1019F00005460E4600270723012229461048FFF717
:101A000057F8002413E001210D48FFF7B2F800BF9A
:101A100002210B48FEF7DCFF0028F9D00848FEF74A
:101A2000D3FF0744052003F0C1FB601CC4B2B442DD
:101A3000E9DB601CB7FBF0F080B2BDE8F08100008C
:101A4000002401403EB54FF6FF7000F0FDF901247F
:101A500050E0022C13DC04EB840000EBC4004FF6D2
:101A6000FF7202EA400304EB840000EBC40002EAC8
:101A700040014FF48C72002000F016FA36E0062C7C
:101A800011DC022C0FDD04EB84000C2202EB800041
:101A900083B204EB840002EB800081B2FA220020C2
:101AA00000F002FA22E0072C11D104EB84000C2292
:101AB00002EB8000801D83B204EB840002EB800007
:101AC000801D81B2FA22002000F0EEF90EE004EB56
:101AD0008400122202EB800083B204EB840002EB4C
:101AE000800081B2FA22002000F0DEF98AA002F024
:101AF000ADFD641C0E2CACDB842378221A21104629
:101B000000F0D2F94FF48B7378229E21104600F03A
:101B1000CBF900200C2182A24FF6FF73CDE9002102
:101B20000290024605210A2001F040FD01200C210F
:101B300084A24FF6FF73CDE90021029000222121FB
:101B40003C2001F033FD01200C2181A24FF6FF73F0
:101B5000CDE900210290002221218C2001F026FDF8
:101B600000200C217EA24FF6E073CDE90021029007
:101B70000246382101F01AFD00200C217BA24FF60D
:101B8000E073CDE90021029002464E2101F00EFDE6
:101B900000200C2178A24FF6E073CDE900210290DD
:101BA0000246622101F002FD00200C2175A24FF6D1
:101BB000E073CDE9002102900246762101F0F6FCA7
:101BC00000200C2172A24FF6FF73CDE90021029094
:101BD00002468B21502001F0E9FC00200C2170A26C
:101BE0004FF6E073CDE9002102900246A2210A20BF
:101BF00001F0DCFC00200C216BA24FF6E073CDE974
:101C0000002102900246B6210A2001F0CFFC0020FC
:101C10000C2167A24FF6E073CDE900210290024645
:101C2000CA210A2001F0C2FC00200C2162A24FF65A
:101C3000E073CDE9002102900246DE210A2001F086
:101C4000B5FC00200C215EA24FF6E073CDE9002127
:101C500002900246F2210A2001F0A8FC00200C218B
:101C600059A24FF6E073CDE90021029002464FF4ED
:101C700083710A2001F09AFC00200C2154A24FF637
:101C8000E073CDE9002102900246A221822001F0FA
:101C90008DFC00200C2150A24FF6E073CDE900210D
:101CA00002900246B621822001F080FC00200C2127
:101CB0004BA24FF6E073CDE9002102900246CA2103
:101CC000822001F073FC00200C2147A24FF6E07344
:101CD000CDE9002102900246DE21822001F066FC5F
:101CE00000200C2142A24FF6E073CDE900210290C2
:101CF0000246F221822001F059FC00200C213EA274
:101D00004FF6E073CDE90021029002464FF4837153
:101D1000822001F04BFC3EBD68656C6C6F000000DA
:101D20004761732053757070706C7920416E642028
:101D300044656374656374696F6E20537973746569
:101D40006D0000005365742056616C7565000000DD
:101D50004D6561737572652056616C756500000094
:101D6000203134373941203A000000002036323724
:101D70004420203A00000000434447303235443AC2
:101D800000000000202020505620203A00000000D3
:101D90004761732056616C756520537461746500EA
:101DA0004E6F2E31000000004E6F2E3200000000FA
:101DB0004E6F2E33000000004E6F2E3400000000E6
:101DC0004E6F2E35000000004E6F2E3600000000D2
:101DD0004E6F2E37000000004E6F2E3800000000BE
:101DE0004E6F2E39000000004E6F2E313000000083
:101DF0004E6F2E31310000004E6F2E313200000048
:101E000000BFFEE74CF6CC40014908607047000077
:101E1000003000404AF6AA200149086070470000DF
:101E20000030004001494860704700000030004029
:101E30000149886070470000003000400149086097
:101E4000704700000030004070B5064614484088D6
:101E5000401E83B212480088401E82B2002108460C
:101E600000F0E4F94FF400600E4908604010091FCB
:101E7000086000240AE0002503E0304600F02EFB55
:101E80006D1C07480088A842F7D8641C04484088A5
:101E9000A042F0D84FF400600249091F086070BDED
:101EA000C0000020140C01402DE9FF4F85B0814691
:101EB0008A460020049003900798A0EB0905089833
:101EC000A0EB0A06CDF80890CDF804A0002D01DDA6
:101ED000012705E00DB9002702E04FF0FF376D4202
:101EE000002E02DD4FF0010806E016B94FF00008A1
:101EF00002E04FF0FF387642B54201DD2C4600E0AB
:101F000034464FF0000B21E0019A91B2029A90B250
:101F100000F022F804982844049003983044039079
:101F20000498A04205DD0498001B049002983844F0
:101F300002900398A04205DD0398001B03900198CE
:101F4000404401900BF101001FFA80FB601C8345A7
:101F5000DADD09B0BDE8F08F70B504460D462946BC
:101F6000204600F059F90248008800F0B7FA70BD29
:101F70007600002008B50121082000F0D7FE4FF4BC
:101F8000F050ADF8000003208DF8020010208DF80D
:101F9000030069460148FFF7C7F808BD000C01407F
:101FA00010B501F06FF9FFF7E5FF00F021F9CF2040
:101FB00000F012FA002000F0F7F9C12000F0F4F967
:101FC000302000F0F1F9ED2000F006FA642000F076
:101FD000EBF9032000F0E8F9122000F0E5F9812088
:101FE00000F0E2F9E82000F0F7F9852000F0DCF9D4
:101FF000102000F0D9F97A2000F0D6F9CB2000F0BB
:10200000EBF9392000F0D0F92C2000F0CDF90020B8
:1020100000F0CAF9342000F0C7F9022000F0C4F93A
:10202000F72000F0D9F9202000F0BEF9EA2000F0F6
:10203000D3F9002000F0B8F9002000F0B5F9C02075
:1020400000F0CAF91B2000F0AFF9C12000F0C4F97C
:10205000012000F0A9F9C52000F0BEF9302000F001
:10206000A3F9302000F0A0F9C72000F0B5F9B7209F
:1020700000F09AF9362000F0AFF9482000F094F90A
:102080003A2000F0A9F9552000F08EF9B12000F0B7
:10209000A3F9002000F088F91A2000F085F9B62095
:1020A00000F09AF90A2000F07FF9A22000F07CF9F4
:1020B000F22000F091F9002000F076F9262000F0DF
:1020C0008BF9012000F070F9E02000F085F90F2075
:1020D00000F06AF92A2000F067F9282000F064F97E
:1020E000082000F061F90E2000F05EF9082000F0F1
:1020F0005BF9542000F058F9A92000F055F943206D
:1021000000F052F90A2000F04FF90F2000F04CF9CE
:10211000002000F049F9002000F046F9002000F00E
:1021200043F9002000F040F9E12000F055F90020CB
:1021300000F03AF9152000F037F9172000F034F9D3
:10214000072000F031F9112000F02EF9062000F0F0
:102150002BF92B2000F028F9562000F025F93C201F
:1021600000F022F9052000F01FF9102000F01CF902
:102170000F2000F019F93F2000F016F93F2000F081
:1021800013F90F2000F010F92B2000F025F90020A2
:1021900000F00AF9002000F007F9012000F004F92E
:1021A0003F2000F001F92A2000F016F9002000F08D
:1021B000FBF8002000F0F8F8002000F0F5F8EF2020
:1021C00000F0F2F8112000F007F9782002F0EEFF9D
:1021D000292000F001F9002000F026F90120034930
:1021E00008604FF6FF70FFF72FFE10BDA48121425B
:1021F00010B54FF4805007490860642002F0D6FF04
:102200004FF480500349091F0860322002F0CEFFCE
:1022100010BD0000140C014070B504460D462B465D
:1022200022462946204600F001F870BD2DE9F04114
:1022300004460D4616461F461149887A00F0CCF830
:10224000201200F0B1F8E0B200F0AEF8301200F069
:10225000ABF8F0B200F0A8F80949087B00F0BCF830
:10226000281200F0A1F8E8B200F09EF8381200F051
:102270009BF8F8B200F098F800F0C4F8BDE8F081DF
:10228000C00000202DE9FF4F83B081468A46934667
:10229000DDE91064404800880290A6F12000C6B233
:1022A00004EBD47009EB6000401E82B20AEB04001C
:1022B000401E83B2514648460194FFF7B7FF12987B
:1022C00050BB002525E00C2C07D106EB4600334916
:1022D00001EB800010F8058004E0314800EB0610A7
:1022E00010F8058000270DE008F0010018B15846ED
:1022F00000F0F4F802E0069800F0F0F84FEA680801
:10230000781CC7B204EBD471B7EB610FECDB681C2F
:10231000C5B2A542D7DB2DE0002529E00C2C07D162
:1023200006EB46001D4901EB800010F8058004E033
:102330001B4800EB061010F80580002711E0164836
:10234000A0F800B008F0010038B10AEB050291B224
:1023500009EB070290B2FFF7FFFD4FEA6808781C0F
:10236000C7B204EBD471B7EB610FE8DB681CC5B2F0
:10237000A542D3DB0849029808800A484088401EDD
:1023800083B208480088401E82B200210846FFF749
:102390004DFF07B0BDE8F08F76000020325B0008EB
:1023A000A65F0008C000002010B504464FF400608E
:1023B000074908604010091F08602146054801F0E0
:1023C0006FF84FF400600249091F086010BD00005B
:1023D000140C01400038004010B504464FF4006072
:1023E00006490860401008602146054801F058F889
:1023F0004FF400600149091F086010BD140C014032
:102400000038004010B50249087AFFF7E5FF10BD1B
:10241000C000002070B505460C462846FFF7DCFFDB
:10242000E0B2FFF7C1FF70BD10B504462A201E4977
:1024300048812B2088812C20088134B1012C0FD0B9
:10244000022C18D0032C2CD120E0F0201649088053
:102450004FF4A070488008213620FFF7DBFF21E011
:102460004FF4A07010490880F02048806821362081
:10247000FFF7D0FF16E0F0200B4908804FF4A07062
:102480004880C8213620FFF7C5FF0BE04FF4A0704D
:1024900005490880F0204880A8213620FFF7BAFFC0
:1024A00000E000BF00BF10BDC000002008B501F073
:1024B000D7F90121102000F039FC4FF46040ADF84D
:1024C000000010208DF8030003208DF802006946FB
:1024D0000148FEF729FE08BD0010014010B5044672
:1024E0004FF40060094908604010091F086021127C
:1024F000074800F0D5FFE1B2054800F0D1FF4FF4E6
:1025000000600249091F086010BD0000140C014062
:1025100000380040C02016490870A82048700120EB
:102520008870C870FF2013490870487088700020B8
:10253000C8700C201049087029204870AB208870A2
:102540007C20C8700020087101204871C0200B4910
:102550000870A820487001208870C620C870132019
:1025600007490870882048700020064908707047A5
:10257000880000208C0000209000002096000020A1
:102580009A000020A800002000BFFEE7704708B5B1
:1025900000214FF0006000F057F84FF4C06000F0E9
:1025A00049F81C208DF8000000208DF801008DF8FE
:1025B000020001208DF80300684600F003F801F0E6
:1025C000B1FE08BD70B5002100230F22C47804B30A
:1025D000154C246804F4E064C4F5E064210AC1F1F8
:1025E0000403CA40447804FA03F184781440214378
:1025F00009010E4C0678A155047804F01F0501244A
:10260000AC4005786D11AD0005F1E025C5F800413D
:1026100009E0047804F01F050124AC40044D06785D
:10262000761145F8264070BD0CED00E000E400E0B6
:1026300080E100E002490143024A11607047000056
:102640000000FA050CED00E0024A0A400243024B8A
:102650001A60704780FFFF1F08ED00E07047000020
:102660002DE9FC4107460026F649384600F0EEFC0D
:102670008046F448007805287ED1F2484078032847
:1026800004D0052879D0062878D123E1ED48807858
:10269000012806D0022831D003285CD004282CD190
:1026A00089E00520E84908700320487001208870FF
:1026B000FEF7A8FA04462068FEF76BFA0646019674
:1026C0009DF80700E049C8709DF8060008719DF864
:1026D000050048719DF8040088710721DA48FFF76A
:1026E00069F900909DF80100D749C8719DF8000074
:1026F00008720922384601F05BFE82E00520D249CB
:1027000008700320487002208870FEF77BFA0446A8
:102710006068FEF75BFA064601969DF80700CA4915
:10272000C8709DF8060008719DF8050048719DF875
:10273000040088710721C448FFF73CF900909DF818
:102740000100C149C8719DF800000872092238468D
:1027500001F02EFE55E00520BB49087003204870AB
:102760008870FEF74FFA0446A068FEF713FA064693
:1027700001969DF8070002E07CE244E078E2B2496D
:10278000C8709DF8060008719DF8050048719DF815
:10279000040088710721AC48FFF70CF900909DF800
:1027A0000100A949C8719DF8000008720922384645
:1027B00001F0FEFD25E00520A349087003204870C4
:1027C00004208870A1A001F041FFFEF7FFFF05463D
:1027D00028789D49C87068780871A3A001F036FF79
:1027E00005219948FFF7E6F800909DF80100964909
:1027F00048719DF8000088710722384601F0D8FD25
:1028000000BF00BF35E28F488078401F05285ED2A8
:10281000DFE800F0031527394B008A48C0783128DB
:1028200006D1FF209749087097A001F00FFF05E03F
:102830000020944908709BA001F008FF48E08148FF
:10284000C078312806D1FF209F4908709FA001F071
:10285000FDFE05E000209C490870A3A001F0F6FEF3
:1028600036E07848C078312806D1FF20A5490870A5
:10287000A5A001F0EBFE05E00020A2490870ABA086
:1028800001F0E4FE24E06F48C078312806D1FF2033
:10289000AE490870AEA001F0D9FE05E00020AB49BA
:1028A0000870B3A001F0D2FE12E06648C07831286B
:1028B00006D1FF20B6490870B6A001F0C7FE05E0BA
:1028C0000020B3490870B9A001F0C0FE00E000BFCD
:1028D00000BFCEE15B4880780A38062829D2DFE8BD
:1028E00000F003294F75B0AF5649384600F0AEFBF3
:1028F00080465448C0788DF80700524800798DF81A
:102900000600504840798DF805004E4880798DF8D2
:102910000400AC4901980860ABA001F097FE424664
:1029200048494948FDF720FC42464749384601F0EE
:102930003FFD9BE14349384600F088FB8046414813
:10294000C0788DF807003F4800798DF806003D48B3
:1029500040798DF805003B4880798DF80400A24944
:1029600001980860A1A001F071FE42463549364841
:10297000FDF7FAFB42463449384601F019FD75E18E
:102980003049384600F062FB80462E48C0788DF80A
:1029900007002C4800798DF806002A4840798DF808
:1029A0000500284880798DF8040096490198086050
:1029B00095A001F04BFE424622492348FDF7D4FB87
:1029C00042462149384601F0F3FC4FE11D48C078EA
:1029D0008DF807001B4800798DF8060019484079EA
:1029E0008DF80500174880798DF804008F4901980B
:1029F00008601448C0798DF807001248007A8DF8F5
:102A000006001048407A8DF805000E48807A8DF84F
:102A100004008749019808600A48C07A8DF80700C9
:102A20000848007B8DF806000648407B8DF80500BD
:102A30000448807B8DF804007E4901980860FBE023
:102A400009E1FDE0DA000020DA0800206265666F27
:102A500072652074686520676173207374617465A2
:102A6000207265616400000061667465722074689C
:102A70006520676173207374617465207265616499
:102A800000000000330000204361736520303520D2
:102A9000746F206F70656E204465627567204D6F9E
:102AA00064650A0061736520303520746F206F7093
:102AB000656E204E6F726D616C2052756E6E696E20
:102AC00067204D6F64650A00300000204361736524
:102AD00020303620746F206F70656E2076616C76C2
:102AE00065730D0A000000006361736520303620B5
:102AF000746F20636C6F7365207661766C65730DFF
:102B00000A00000036000020436173652030373A28
:102B100020746F20313437394120636F6E74726FC7
:102B20006C204D6F64650D0A000000006173652024
:102B3000303620746F2050455620636F6E74726F6C
:102B40006C206D6F64650D0A0000000034000020E9
:102B5000436173652030382054696D696E67205475
:102B6000726967676572204D6F64650D0A00000029
:102B70004361736520303820436F6D6D616E642052
:102B800054726967676572204D6F64650D0A0000B5
:102B9000350000204361736520303720707566660C
:102BA000206D6F6465206F6E0D0A000043617365D0
:102BB0002030372070756666206D6F6465206F6603
:102BC000660D0A00080000204361736520307830EC
:102BD000413A207365742036323744207072657331
:102BE000737572650D0A00000C0000205365742097
:102BF000313437394120466C6F7720446174610D60
:102C00000A00000014000020436173652030783012
:102C1000633A207365742070756666207072657300
:102C200073757265207365740D0A00001C00002026
:102C300020000020240000200FA001F007FD15E077
:102C40001648C0781649087014480079487015A0D5
:102C500001F0FCFC0AE01148C0781A4908700F48DE
:102C60000079487018A001F0F1FC00BF00BF00E03F
:102C700000BF00BFBDE8FC81436173652030783040
:102C800064205365742050494420706172616D6501
:102C9000746572206F6B0D0A00000000DA000020DE
:102CA0001A0000204361736520307830453A207364
:102CB000657420363237442070726573737572659F
:102CC0000D0A000018000020436173652030783041
:102CD000663A5365742050756666204D6F646520B2
:102CE000617578696C696172792056616C76650DE1
:102CF0000A00000001460020034A506820F44040CA
:102D000008435060704700000010024029B1064A95
:102D1000D2690243044BDA6104E0034AD269824378
:102D2000014BDA61704700000010024029B1064AE9
:102D300092690243044B9A6104E0034A9269824318
:102D4000014B9A6170470000001002400149C864BD
:102D5000704700000000424210B500F03BF84FF40D
:102D6000803000F0F9F800F055F90446012C2FD11D
:102D70001020FEF74BF90220FEF756F9002000F074
:102D8000DFF8002000F01AF9A00200F00BF94FF470
:102D9000E011200400F024F9012000F01BF900BF2D
:102DA000392000F0A7F80028FAD0022000F026F918
:102DB00000BF00F0BDF80828FBD10120FFF7C6FFD7
:102DC00001210846FFF7A2FF01213D20FFF7AEFFDA
:102DD00010BD00000F48006840F001000D49086078
:102DE000084640680C4908400A494860084600689F
:102DF0000A490840074908600846006820F4802016
:102E000008600846406820F4FE0048604FF41F0048
:102E100088607047001002400000FFF8FFFFF6FED8
:102E200030B500210022002400232D4D6D6805F0EF
:102E30000C0121B1042905D0082923D105E0294D31
:102E4000056022E0274D05601FE0254D6D6805F403
:102E50007012234D6D6805F48034022505EB924213
:102E60001CB9214D554305600BE01D4D6D6805F4FF
:102E700000351DB11C4D5543056002E0194D554309
:102E8000056002E0174D056000BF00BF144D6D687E
:102E900005F0F0010909154D6B5C0568DD404560E2
:102EA0000F4D6D6805F4E061090A104D6B5C4568D3
:102EB000DD4085600A4D6D6805F46051C90A0B4D0F
:102EC0006B5C4568DD40C560054D6D6805F44041AB
:102ED000890B074D6B5CC568B5FBF3F5056130BD2B
:102EE0000010024000127A0000093D005E00002040
:102EF0006E00002010B501460022002300204A1178
:102F0000012A02D1094C236806E0022A02D1074CAB
:102F1000236A01E0054C636A01F01F02012494401A
:102F20001C400CB1012000E0002010BD0010024048
:102F30000248406800F00C0070470000001002409A
:102F400001460020034A506820F0F000084350601A
:102F500070470000001002401149096821F48031D7
:102F60000F4A11601146096821F480211160B0F503
:102F7000803F03D0B0F5802F0ED106E008490968E4
:102F800041F48031064A116007E00549096841F4BF
:102F9000A021034A116000E000BF00BF704700009D
:102FA0000010024001460020034A506820F4E0600F
:102FB00008435060704700000010024001460020A6
:102FC000034A506820F4605040EAC10050607047E6
:102FD00000100240014908667047000000004242AC
:102FE00002460020044B586820F47C1042EA01039A
:102FF0001843014B58607047001002400146002002
:10300000034A506820F003000843506070470000F6
:103010000010024038B5002000900024002500BFB9
:103020003120FFF767FF05460098401C009000988C
:10303000B0F5A06F01D0002DF2D03120FFF75AFF7C
:1030400008B1012400E00024204638BD2DE9F047F6
:1030500080460D462621404600F0DEF8064616B9A9
:103060000020BDE8F08740F2B450864200DD0646FD
:103070002821404600F0D0F80746B946C7F30A07B2
:103080004FF400413B48FEF735F9384600F058F957
:10309000182101EB4811C8B200F042F9364800F09F
:1030A000DCF900F0FF0AB819B0F5006F11DA00245E
:1030B0000CE0002000F034F92F4800F0CEF900F0C9
:1030C000FF0A85F800A06D1C601C84B2B442F0DBDE
:1030D0003BE0C7F5006087B200240CE0002000F060
:1030E0001FF9254800F0B9F900F0FF0A85F800A0A3
:1030F0006D1C601C84B2BC42F0DB4FF400411D48E3
:10310000FEF7FAF84FF400411A48FEF7F3F80020F2
:1031100000F016F9182101EB4811C8B200F000F9CF
:10312000154800F09AF900F0FF0A0CE0002000F0CA
:10313000F7F8114800F091F900F0FF0A85F800A0B7
:103140006D1C601C84B2B442F0DB4FF400410948AE
:10315000FEF7D2F809EB06001FFA80F94A4628214B
:10316000404601F003FA40220121404601F0DEF919
:10317000304676E700080140003C004070B5044648
:103180004FF400410D48FEF7B5F8204600F0D8F89E
:10319000012000F0C5F80A4800F05FF9C5B2002030
:1031A00000F0BEF8064800F058F9C5B24FF40041EF
:1031B0000248FEF7A1F8284670BD00000008014053
:1031C000003C004070B504460D464FF400411048E5
:1031D000FEF790F8284600F0B3F8082101EB4411FF
:1031E000C9B241F0010000F09BF80A4800F035F93F
:1031F000C6B2002000F094F8064800F02EF9C6B2DE
:103200004FF400410248FEF777F8304670BD0000E9
:1032100000080140003C004070B505460E464FF4E2
:1032200000411648FEF766F8304600F089F808219C
:1032300001EB4511C9B241F0020000F071F81048ED
:1032400000F00BF90446002000F06AF80C4800F08A
:1032500004F90446002000F063F84FF6FF7000EA1E
:103260000424074800F0F9F8204484B24FF40041E8
:103270000248FEF741F8204670BD000000080140FA
:10328000003C004000B587B001210920FFF74EFD4A
:103290004FF42040ADF8040003208DF806001820FC
:1032A0008DF8070001A91C48FDF73EFF4FF4804050
:1032B000ADF8040048208DF8070003208DF80600C3
:1032C00001A91548FDF730FF01218803FFF71EFD16
:1032D0000020ADF808004FF48270ADF80A0000201D
:1032E000ADF80C00ADF80E00ADF810004FF4007012
:1032F000ADF812000020ADF81400ADF8160007205C
:10330000ADF8180002A9054800F0ACF80121034807
:1033100000F024F807B000BD000C01400038004068
:1033200010B504462146054800F09AF800BF8021F8
:10333000024800F089F80128F9D010BD003C004097
:1033400070B504462546E11704EB1161C1F307206F
:10335000FFF7E6FFE0B2FFF7E3FF70BD21B102889F
:1033600042F04002028004E002884FF6BF731A4028
:103370000280704700B587B00121C803FFF7C6FC83
:1033800001210920FFF7D2FC01212B48FDF758FF4E
:103390000820ADF8180003208DF81A0018208DF8C9
:1033A0001B0006A92548FDF7BFFE1020ADF8180048
:1033B00006A92248FDF7B8FE2020ADF8180006A99E
:1033C0001E48FDF7B1FE4FF40040ADF81800032091
:1033D0008DF81A0010208DF81B0006A91848FDF77B
:1033E000A3FE4FF400411648FDF786FF0020ADF81C
:1033F00004004FF48270ADF806000020ADF808001C
:10340000ADF80A00ADF80C004FF40070ADF80E00F6
:103410000820ADF810000020ADF812000720ADF82C
:10342000140001A9074800F01DF801210548FFF725
:1034300095FF07B000BD000000023000000C014005
:1034400000080140003C00400246002013890B4068
:103450000BB1012000E000207047014688897047C9
:103460008181704710B50022028802F441520B8816
:103470004C8823438C882343CC8823430C892343E3
:103480004C8923438C892343CC8923431A430280EC
:10349000838B4FF2FF74234083830B8A038210BD1A
:1034A000024600BF108900F002000028FAD0918186
:1034B00000BF108900F001000028FAD09089C0B246
:1034C0007047704710B500F001F810BD0CB5002032
:1034D000019000903348006840F480303149086022
:1034E00000BF3048006800F4003000900198401C94
:1034F0000190009818B90198B0F5A06FF1D1294852
:10350000006800F4003010B10120009001E00020BC
:1035100000900098012843D12348006840F0100033
:10352000214908600846006820F00300086008464A
:10353000006840F0020008601A4840681949486075
:103540000846406848600846406840F4806048602B
:103550000846406820F47C1048600846406840F403
:10356000E81048600846006840F08070086000BFBE
:103570000C48006800F000700028F9D00948406845
:1035800020F00300074948600846406840F0020008
:10359000486000BF0348406800F00C000828F9D1DB
:1035A0000CBD000000100240002002402DE9FF4F3A
:1035B00083B0064688469146DDE91147109DB24624
:1035C0004FF0000B71E0BBF1000F40D104EBD47160
:1035D000384A1288A2EB6101B14204DB35494988BF
:1035E000091B414502DA07B0BDE8F08F2878802832
:1035F00002DD4FF0010B58E028780D2806D108EBCA
:1036000004001FFA80F856466D1C1EE0102C0DDDDC
:10361000102128788DE883004A4641463046069BB3
:10362000FEF730FE06F1080086B20EE028788DE83D
:1036300091004A4641463046069BFEF723FE20464F
:1036400004EBD07106EB61018EB26D1C2DE01948C0
:103650000088001BB04204DB16484088001B404530
:1036600000DAC0E74FF0000B202C08D1CDE900575D
:103670004A4641463046069BFDF750FF12E0182CA3
:1036800008D1CDE900574A4641463046069BFDF732
:10369000B9FE07E0CDE900574A4641463046069B51
:1036A000FDF72CFEAD1C301986B2287800288AD18F
:1036B00000BF98E7C000002010B504460122002199
:1036C000204600F033FF01221146204600F02EFF75
:1036D0000520FDF785FB03212046FFF773FD132826
:1036E00006D010220121204600F020FF002010BD4E
:1036F00004220121204600F019FFFF20F7E7000017
:1037000010B5044640F2B4521221002000F02EFF02
:10371000082C17D2DFE804F0040F1011121314154F
:103720000A484178007801EB002082B20421002091
:1037300000F01CFF07E006E005E004E003E002E023
:1037400001E000E000BF00BF10BD00009A000020B3
:1037500010B5044601220021204600F0E7FE0122B8
:103760001146204600F0E2FE0520FDF739FB03215B
:103770002046FFF727FD132806D0102201212046FE
:1037800000F0D4FE002010BD02220121204600F0EE
:10379000CDFE0520FDF724FB03212046FFF712FD97
:1037A000142806D010220121204600F0BFFE002080
:1037B000E9E7FF20E7E710B5044602220021204692
:1037C00000F0B4FE01221146204600F0AFFE0520B5
:1037D000FDF706FB03212046FFF7F4FC222806D064
:1037E00010220121204600F0A1FE002010BDFF2084
:1037F000FCE7000070B5FDF7E9FF0646FEF784F828
:1038000005462846FDF744FFFDF7FCF9044620462F
:10381000FDF71AF92068FDF7BCF9044908606068F3
:10382000FDF7D4F90249086070BD00003C0000209B
:1038300038000020042808D14FF0E021096941F048
:1038400004014FF0E022116107E04FF0E021096927
:1038500021F004014FF0E022116170477047000031
:1038600010B51348006840F001001149086008468F
:103870004068104908400E494860084600680E49F3
:1038800008400B4908600846006820F48020086062
:103890000846406820F4FE0048604FF41F0088602E
:1038A000FFF710FE4FF000600449086010BD0000F3
:1038B000001002400000FFF8FFFFF6FE08ED00E0F8
:1038C00010B5FFF749FAFEF762FEFFF753FD00F06F
:1038D00003F900F01DFC10BD10B50121880700F0B0
:1038E0002CF801280DD10121800700F017F80548B8
:1038F0000068401C0349086003480068401C0249F6
:10390000086010BDAC000020B000002010B50121FF
:10391000014800F003F810BD00040040CA430282D1
:10392000704721B1028842F00102028004E002885F
:103930004FF6FE731A400280704730B502460020F1
:1039400000230024158A05EA0103958905EA01048C
:1039500013B10CB1012000E0002030BD1AB1838901
:103960000B43838102E083898B438381704700008E
:1039700070B5002400220023058C4FF6EF76354009
:103980000584028C8388048B48F6FF752C404FF623
:10399000FF452C400D884FF6FF7606EA05252C439F
:1039A0004FF6DF752A400D8906EA05152A434D8832
:1039B00006EA05152A43154DA84202D0144DA84227
:1039C0001DD14FF67F752A404D894FF6FF7606EAE6
:1039D00005152A434FF6BF752A408D8806EA05155E
:1039E0002A434FF6FF352B404FF2FF752B408D8950
:1039F00006EA85052B43CD8906EA85052B4383809E
:103A00000483CD880587028470BD0000002C01402E
:103A1000003401400A460021018B4FF2FF73194028
:103A20004FF6FF7303EA02231943018370470187AE
:103A300070470000002202881D4B98420ED01D4B9B
:103A400098420BD0B0F1804F08D01B4B984205D064
:103A50001A4B984202D01A4B984204D14FF68F73FA
:103A60001A404B881A43174B984207D0164B98427E
:103A700004D04FF6FF431A40CB881A4302808B884C
:103A800083850B8803850A4B98420BD0094B9842DB
:103A900008D00E4B984205D00D4B984202D00D4BEA
:103AA000984201D10B7A038601238382704700007C
:103AB000002C014000340140000400400008004098
:103AC000000C004000100040001400400040014085
:103AD00000440140004801400EB501210846FFF7AF
:103AE00015F90920ADF8040041F61F40ADF80000BB
:103AF0000020ADF80600ADF8020069464FF08040A6
:103B0000FFF798FF012211469007FFF727FF0121D9
:103B10008807FFF706FF0EBD10B540210D4800F0E5
:103B20004FF840F225510B4800F06CF880B109487D
:103B300000F024F90849087008460178054800F0AB
:103B400022F900BF8021034800F04FF80028F9D087
:103B500010BD0000003801405C00002010B540217D
:103B6000144800F02DF840F22551124800F04AF8B0
:103B7000F0B1104800F002F90F49087008210F4811
:103B8000FDF7BAFB012001F011FB0B480178094851
:103B900000F0F9F800BF8021064800F026F8002860
:103BA000F9D0022001F002FB08210448FDF7A2FB36
:103BB00010BD0000004400405D00002000200140D6
:103BC00001F40072B2F5007F00D100BFCA43028049
:103BD000704721B1828942F40052828104E08289D7
:103BE0004DF6FF731A408281704702460020B1F5FE
:103BF000007F00D100BF13880B400BB1012000E013
:103C00000020704770B502460024002300250020E4
:103C100040F66A16B14200D100BFC1F3421501F06F
:103C20001F03012606FA03F3012D02D196893340C2
:103C300006E0022D02D1168A334001E0968A334015
:103C40000C12012606FA04F41688344013B10CB1A4
:103C5000012000E0002070BDF0B5034600240026DE
:103C60000025002040F66A17B94200D100BF18466F
:103C7000C1F3421401F01F06012707FA06F5012CD3
:103C800001D10C3004E0022C01D1103000E01430DE
:103C90001AB107682F43076002E00768AF43076067
:103CA000F0BD00002DE9F04786B005460E46002421
:103CB000A24600BFA1460027B08900B100BF2F4631
:103CC0002C8A4CF6FF700440F08804432C82AC89A7
:103CD0004EF6F3100440B0883189084371890843D7
:103CE0000443AC81AC8A4FF6FF400440B0890443E2
:103CF000AC8201A8FFF794F81F48874202D1DDF893
:103D000010A001E0DDF80CA0A88900F4004040B14B
:103D10000AEBCA0000EB0A1031684900B0FBF1F869
:103D200007E00AEBCA0000EB0A1031688900B0FB1B
:103D3000F1F86420B8FBF0F004012009642101FBD4
:103D40001089A88900F4004040B1322000EBC9007E
:103D5000B0FBF1F000F00700044308E0322000EB74
:103D600009106421B0FBF1F000F00F0004432C8136
:103D700006B0BDE8F08700000038014001468888A1
:103D8000C0F308007047C1F308028280704700BF8B
:103D9000FEE700002DE9F04F87B081460C4615463E
:103DA0001E46DDF840A04FF0000B002005904FF0BC
:103DB0007E55002682462846FCF7CCFB07463A464D
:103DC0000B4636A000F042FC3046FCF7C3FB07462A
:103DD0003A460B4637A000F039FC5046FCF7BAFBD8
:103DE00007463A460B4639A000F030FC4846FCF73F
:103DF000B1FB07463A460B463AA000F027FC3F4C81
:103E00003F48049021464846FCF712FA06902146A6
:103E10004846FCF70DFA07465946FCF7B7F98346C2
:103E2000384801682046FCF703FA059035480460DD
:103E300050460599FCF702FA594601903046FCF7C6
:103E4000FDF9804628460699FCF7F8F941460090AE
:103E5000FCF79CF907460199FCF798F903902A4969
:103E60000398FCF7EBF907462849FCF78FF9029015
:103E70000298FCF76FFB07463A460B4624A000F079
:103E8000E5FB0298FCF752FB87B239462648FFF75C
:103E9000CEFD039807B0BDE8F08F00005365742095
:103EA0005020706172616D657465723A25660D0A05
:103EB00000000000536574204920706172616D65D7
:103EC0007465723A25660D0A00000000536574207F
:103ED0004420706172616D657465723A25660D0AE1
:103EE000000000005365742050726573737572652D
:103EF0002076616C75653A25660D0A009A99993E9F
:103F0000CDCCCC3DB8000020000034430000E1449B
:103F1000536574204475747920706172616D6574A5
:103F200065723A25660D0A00000400403EB5014660
:103F3000002200200DE04B78034103F001031BB188
:103F400001230DF8003002E000230DF80030431C7F
:103F5000D8B20828EFDB002011E00B78034103F012
:103F600001032BB1012400F108030DF8034004E024
:103F7000002400F108030DF80340431CD8B20428C4
:103F8000EBDB9DF80030012B02D1434C236002E0B3
:103F90000023414C23609DF80130012B03D13E4C9E
:103FA0000834236003E000233B4C083423609DF871
:103FB0000230012B03D1384C283C236003E000235E
:103FC000354C283C23609DF80330012B02D1334C43
:103FD000236002E00023314C23609DF80430012B64
:103FE00003D12E4C241F236003E000232B4C241FFD
:103FF00023609DF80530012B03D1274C241D23603D
:1040000003E00023244C241D23609DF80630012B7F
:1040100003D1224C1834236003E000231F4C1834D2
:1040200023609DF80730012B02D11D4C236002E074
:1040300000231B4C23609DF80830012B03D1164C44
:10404000243C236003E00023134C243C23609DF8B0
:104050000930012B03D1114C1434236003E00023F9
:104060000E4C143423609DF80A30012B03D10C4C04
:104070001C34236003E00023094C1C3423609DF8AA
:104080000B30012B03D1064C1834236003E00023CE
:10409000034C183423603EBDB40122428401214206
:1040A0008081214208B5FFF7DBFB01211C20FEF7D0
:1040B0003DFEC320ADF8000010208DF80300032062
:1040C0008DF8020069460F48FDF72EF8C120ADF8C3
:1040D000000010208DF8030003208DF802006946CF
:1040E0000948FDF721F84EF21800ADF80000102045
:1040F0008DF8030003208DF8020069460348FDF7A0
:1041000013F808BD00080140000C014000100140F8
:104110000EB54FF48070ADF8080001208DF80A004C
:1041200010208DF80B0002A91448FCF7FDFF4FF496
:1041300080711248FDF7DEF84FF40070ADF808000A
:1041400003208DF80A0048208DF80B0002A90B48C7
:10415000FCF7EAFF09210120FCF7C6FF4FF40070CD
:10416000009000208DF804000C208DF8050001203F
:104170008DF806006846FCF7FFFE0EBD000C0140FE
:1041800010B54FF480710B48FDF7B4F83220FCF7FE
:1041900027FE4FF480710748FDF7AEF8C820FCF702
:1041A0001FFE00BF2E20FEF7E9FF00F001000028EF
:1041B000F8D010BD000C014010B500248021002073
:1041C00000F080F90A20FCF70BFE04221C490120B4
:1041D00000F018FA04221B49052000F013FA062209
:1041E0001949092000F00EFA042218490F2000F0A6
:1041F00009FA00BF0BE002221E21204600F096F9CA
:1042000002221F21204600F091F9601CC4B2082C44
:10421000F1DB4FF4FA61192000F06EF908211B2040
:1042200000F050F9C021162000F04CF901211820AF
:1042300000F048F91F222C21002000F077F910BD72
:10424000880000208C0000209000002096000020B4
:1042500010B5FFF7B1FFFCF7CFFD0020FFF750FAD4
:1042600010BD000070B500BF00202B49087015205C
:10427000FEF784FF054605F0F001152000F022F955
:104280001720FEF77BFF054605F0010000283DD012
:1042900002210020FEF796FF04462246022100205C
:1042A00000F044F904F0010028B11C48007840F007
:1042B00002001A49087004F0020050B110220121D6
:1042C000002000F033F90020FFF71AFA002013490C
:1042D000087004F0100028B11148007840F0020086
:1042E0000F49087004F0040028B10D48007840F030
:1042F00001000B49087004F0080038B110220121B8
:10430000002000F013F90020044908701720FEF780
:1043100035FF00B1A8E770BDAB000020A900002068
:10432000AA00002008B517208DF8000000208DF8A5
:10433000010001208DF802008DF803006846FEF7A9
:1043400041F908BD10B518480078F8B91748007849
:1043500060B90020FFF7FCF9FF2803D101201249C2
:10436000087020E00020104908701CE00F48007819
:1043700001280CD10020FFF79FF9FF2803D101206D
:10438000094908700FE00020074908700BE0002081
:10439000FFF711FAFF2803D103200349087002E058
:1043A00000200149087010BDA9000020A8000020CD
:1043B0002DE9F04707460D46904600213846FEF7A6
:1043C00001FF00F00F0022280ED03B4A0C21384696
:1043D00000F0ECF839484178007801EB002082B217
:1043E0001021384600F0C2F824213846FEF714FFA9
:1043F0000646B146C6F30A064FF400413048FCF7C2
:1044000079FF3046FEF79CFF102101EB4711C9B23E
:1044100041F00400FEF784FF06EB0800B0F5006FE2
:104420000ADA002405E015F8010BFEF779FF601C9D
:1044300084B24445F7DB2AE0C6F5006086B200246A
:1044400005E015F8010BFEF76BFF601C84B2B44267
:10445000F7DB4FF400411A48FCF74EFF4FF40041E0
:104460001748FCF747FF0020FEF76AFF102101EB19
:104470004711C9B241F00400FEF752FF05E015F8FC
:10448000010BFEF74DFF601C84B24445F7DB4FF48F
:1044900000410B48FCF730FF09EB08001FFA80F9D8
:1044A0004A462421384600F061F82022012138468E
:1044B00000F03CF8BDE8F087A2000020A600002034
:1044C0000008014070B505460C464FF4004109480C
:1044D000FCF710FF2846FEF733FF0520FEF720FF0C
:1044E0002046FEF71DFF4FF400410248FCF704FF91
:1044F00070BD00000008014070B505460C464FF441
:1045000000410948FCF7F6FE2846FEF719FF062091
:10451000FEF706FF2046FEF713FF4FF40041024866
:10452000FCF7EAFE70BD00000008014070B50446CB
:104530000D4616464FF400410B48FCF7DBFE2846BB
:10454000FEF7FEFE082101EB4411C9B241F005005F
:10455000FEF7E6FE3046FEF7E3FE4FF40041024868
:10456000FCF7CAFE70BD00000008014070B50446AB
:104570000D4616464FF400410B48FCF7BBFE28469B
:10458000FEF7DEFE082101EB4411C9B241F006003E
:10459000FEF7C6FE3046FEF7D3FE4FF40041024858
:1045A000FCF7AAFE70BD00000008014070B505468A
:1045B0000E4614464FF400411148FCF79BFE30466E
:1045C000FEF7BEFE082101EB4511C9B241F007001C
:1045D000FEF7A6FE14F8010BFEF7A2FE14F8010B7D
:1045E000FEF79EFE14F8010BFEF79AFE14F8010B7D
:1045F000FEF796FE4FF400410148FCF77DFE70BDCA
:10460000000801402DE9F04107460C4615464FF4DD
:1046100000410D48FCF76EFE3846FEF791FE04207F
:10462000FEF77EFE002605E014F8010BFEF778FE8B
:10463000701C86B2AE42F7DB4FF400410248FCF733
:104640005BFEBDE8F0810000000801400FB4054B9F
:1046500010B503A9044A029800F020F910BC5DF8D7
:1046600014FB0000E5510008BC0000200FB4084B0B
:1046700010B504A902AA039800F010F9044602A993
:10468000002000F0A2FC204610BC5DF814FB0000E6
:10469000CB4F000802E008C8121F08C1002AFAD157
:1046A00070477047002001E001C1121F002AFBD1B2
:1046B00070472DE9F04104460D4616461F46DDF8C9
:1046C0001880EA1991B2A21990B24246FCF7AAFFEB
:1046D000EA1991B2A21B90B24246FCF7A3FFEA1B73
:1046E00091B2A21990B24246FCF79CFFEA1B91B22C
:1046F000A21B90B24246FCF795FFAA1991B2E219AB
:1047000090B24246FCF78EFFAA1991B2E21B90B21A
:104710004246FCF787FFAA1B91B2E21990B24246CB
:10472000FCF780FFAA1B91B2E21B90B24246FCF755
:1047300079FFBDE8F08100002DE9FF5FDDE902208F
:10474000010DDDF838B0024318D044F61050A1F244
:10475000FF3141430D140F98012820D0A5EB0B0029
:10476000401C5FEA000A4FF00004474EDFF81C913E
:10477000A046504616D5CAF1000728E00F9801243C
:1047800043A2012808D0002100980F9BC0E9002116
:10479000C0E90243BDE8FF9F6FEA0B01F4E7CBF1EC
:1047A0000000DEE7074612E0F80707D0224633464E
:1047B00040464946FBF7B2FD8046894622463346CD
:1047C00010461946FBF7AAFD04460E467F10002F3F
:1047D000EAD1DDE90201BAF1000F42464B4602DAA6
:1047E000FBF79CFD01E0FBF70BFE04460E460022A2
:1047F000284BFCF779F803D84FF0FF30014607E06B
:104800000022254B20463146FBF7AEFFFCF753F85C
:10481000102409E0002C0ADB0A220023FBF7DFFE4C
:10482000019B30321A55641E50EA0102F2D1641C19
:10483000019AC4F1110314440F9A012A03D00122F2
:1048400008430DD10AE0084304D000204FF0110BBB
:104850000F9080E7A3EB0B056D1E0DE05B4504DDBB
:104860004FF0000205F1010504E003DA4FF0000209
:10487000A5F10105002AECD000980F99C0E902319A
:10488000C0E9004586E70000000024400000F03F3A
:10489000300000000000F0430000E03F2DE9FF4F32
:1048A00095B09B468946064600250FE2252877D11C
:1048B00000242746F84A0121059400E0044316F835
:1048C000013F203B01FA03F01042F7D130782A284B
:1048D00011D06FF02F033078A0F13002092A16D8DA
:1048E000059A44F0020402EB820203EB42021044F8
:1048F000761C0590EFE759F8042B0592002A03DA9D
:10490000504244F40054059044F00204761C307880
:104910002E2816D116F8010F44F004042A280DD0D1
:104920006FF02F023078A0F13003092B09D807EB84
:10493000870302EB4303C718761CF3E759F8047B9F
:10494000761C30786C280FD006DC4C2817D06828ED
:104950000DD06A2814D104E0742810D07A280FD121
:104960000DE044F400140AE044F4801401E044F43F
:1049700040147278824202D104F58014761C761CB1
:10498000307866280BD013DC582877D009DC002853
:1049900075D04528F6D04628F4D047281AD19DE195
:1049A00018E0632835D0642879D0652812D195E1C4
:1049B000702873D008DC6728F1D069286FD06E2882
:1049C0000DD06F2806D1B5E073282CD0752875D08E
:1049D000782874D05A46179990476D1C75E1C4F336
:1049E0000250022809D003280DD0D9F8001004285D
:1049F0000DD00D6009F1040967E1D9F80010EA173C
:104A0000C1E90052F6E7D9F800100D80F2E70D7009
:104A1000F0E719F8041B8DF8001000208DF8010054
:104A2000EA46012003E059F804AB4FF0FF3061077C
:104A30004FF0000102D40DE008F101018846B942AF
:104A40000FDA8045F8DB1AF808100029F4D108E0E5
:104A500008F1010188468142FADB1AF808100029A2
:104A6000F6D105985B46A0EB080721463846179A11
:104A700000F094FA284400EB080507E04DE029E136
:104A80000DE01AF8010B5A4617999047B8F1010842
:104A9000F7D25B4621463846179A13E142E00A22D4
:104AA0000092C4F302524FF0000A022A08D059F8CB
:104AB00004CB032A4FEAEC710AD00DE029E02AE08A
:104AC00009F1070121F00702F2E802C1914609E06D
:104AD0000FFA8CFC4FEAEC71042A03D14FFA8CFCDC
:104AE0004FEAEC71002907DA0A460021DCF1000CDC
:104AF00061EB02012D2202E0220504D52B228DF864
:104B00000420012203E0E20701D02022F7E79046CB
:104B100059E00A2102E010220DE010214FF0000AB6
:104B200000910BE010224FF0000A44F00404082723
:104B3000009203E008224FF0000A0092C4F30252F0
:104B4000022A05D059F804CB0021032A08D009E035
:104B500009F1070121F00702F2E802C1914605E0E0
:104B60001FFA8CFC042A01D10CF0FF0C4FF0000856
:104B7000220728D5702806D0009B83F0100353EA43
:104B80000A0305D00EE040228DF80420012208E03F
:104B90005CEA010206D030228DF804208DF8050071
:104BA00002229046009B83F0080353EA0A030AD1CD
:104BB0005CEA010201D1620705D530228DF804209C
:104BC0004FF001087F1E582804D034A003900EA88F
:104BD00002900DE036A0F9E753466046009AFBF7D5
:104BE000FEFC84460398825C0298401E029002708C
:104BF0005CEA0100F0D1029806A9081A00F1200A27
:104C0000600702D524F4803400E00127574502DD17
:104C1000A7EB0A0000E0002000EB0A0100900598D5
:104C20004144401A0590E00306D45B462146179A9A
:104C3000059800F0B3F90544002706E001A85A469C
:104C4000C05D179990476D1C7F1C4745F6DBE0035C
:104C50000CD55B462146179A059800F09FF905444C
:104C600004E030205A46179990476D1C0099481E61
:104C700000900029F5DC08E0029802995A46007875
:104C8000491C0291179990476D1CBAF10001AAF1D5
:104C9000010AF1DC65E100000928010030313233FE
:104CA0003435363738396162636465660000000068
:104CB0003031323334353637383941424344454652
:104CC0000000000000F058F90544761C30780028F8
:104CD0007FF4ECAD19B02846BDE8F08F620700D430
:104CE000062709F1070222F0070CFCE80223E1463F
:104CF00003F000485FEA080C02D00FF2702C0DE0C0
:104D00005FEA045C02D50FF2682C07E05FEAC47C1E
:104D100002D00FF2602C01E0AFF2700C4FF0FF38C0
:104D200023F00043CDF850C065280CD006DC4528A0
:104D300009D046281DD047283DD13DE0662818D02F
:104D400067287ED138E00021112F01DB112000E01F
:104D5000781CCDE9000106A90EA8FFF7EDFCDDE9FE
:104D60000F010E9A03910021009207F1010A0491AC
:104D70004DE04FF000400097CDE9011006A90EA8C4
:104D8000FFF7DAFCDDE90F0203920E9B1199002276
:104D9000DDF80CA00093049211B9791C00EB010A14
:104DA000B7EB0A0004D4C0F1FF3007F1010A049008
:104DB000AAEB0700019044E0012F00DA012700214F
:104DC000112F01DD112000E03846CDE9000106A9D0
:104DD0000EA8FFF7B1FCDDE90F010E9A0391002147
:104DE00004910092BA4621070CD40399514500DA88
:104DF0008A46BAF1010F05DD009AAAF10101515C62
:104E0000302908D0B84202DA10F1040F06DA012185
:104E1000CDE9011015E0AAF10101E9E7002805DC60
:104E2000049901440491AAEB000102E0411C5145A0
:104E300000DD8A460499401A401C01904FF0004062
:104E40000290200704D40198504501DBCDF804807E
:104E500000208DF84F0002980DF14F07B0F1004F80
:104E600025D02B200E9002984FF0020800280CDA73
:104E7000404202902D200E9007E00A210298FBF795
:104E800098FB3031029007F8011DB8F10001A8F13C
:104E90000108F2DC02980028EFD1791E0E98087004
:104EA000307800F0200040F0450007F8020D12A80D
:104EB000C01B00F107081498007800B1012000EB36
:104EC0000A01019801EBE07105984144401A401E27
:104ED0000590E00306D45B462146179A059800F03A
:104EE0005DF805441498007818B15A461799904710
:104EF0006D1CE00324D55B462146179A059800F007
:104F00004DF805441CE00498002807DBDDE90301A7
:104F1000884203DD0098405C179901E01799302022
:104F20005A469047049805F10105401C04900198E9
:104F3000401E019004D12E205A46179990476D1CAF
:104F4000BAF10001AAF1010ADDDC05E017F8010B56
:104F50005A46179990476D1CB8F10001A8F1010855
:104F6000F4DC5B462146179A0598ABE62D0000005D
:104F70002B000000200000002DE9F0410446002530
:104F80001E461746880404D405E039462020B04761
:104F90006D1C641EF9D52846BDE8F0812DE9F0416D
:104FA000044600251E469046C80301D5302700E080
:104FB0002027880404D505E041463846B0476D1CDB
:104FC000641EF9D52846BDE8F0810A68531C0B60C1
:104FD0001070704700B587B0012140F20520FDF741
:104FE000A5FE4FF40040FDF785FE0120ADF8180046
:104FF00000208DF81B0003208DF81A0006A95A48DE
:10500000FCF792F8002001908DF808008DF8090057
:105010004FF4602003900020049001208DF81400CC
:1050200001A95248FBF7E8FC01215048FBF7B7FC07
:105030004E48FBF799FD00BF4C48FBF7D2FC002817
:10504000FAD14A48FBF7A0FD00BF4848FBF7B2FC85
:105050000028FAD1072301220A214448FBF728FD42
:1050600001214248FBF785FD0220ADF81800002021
:105070008DF81B0003208DF81A0006A93A48FCF7AA
:1050800053F8002001908DF808008DF809004FF4C6
:10509000602003900020049001208DF8140001A9E5
:1050A0003248FBF7A9FC01213048FBF778FC2F4878
:1050B000FBF75AFD00BF2D48FBF793FC0028FAD1FF
:1050C0002A48FBF761FD00BF2848FBF773FC002866
:1050D000FAD1072301220A212448FBF7E9FC012128
:1050E0002248FBF746FD0420ADF8180000208DF89B
:1050F0001B0003208DF81A0006A91B48FCF714F8C2
:10510000002001908DF808008DF809004FF4602010
:1051100003900020049001208DF8140001A9134889
:10512000FBF76AFC01211148FBF739FC0F48FBF73C
:105130001BFD00BF0D48FBF754FC0028FAD10B48BB
:10514000FBF722FD00BF0948FBF734FC0028FAD129
:10515000072301220A210548FBF7AAFC0121034885
:10516000FBF707FD07B000BD00100140002401401F
:1051700010B504466FF00400FEF75CFBE11704EB8A
:105180005171C1F3C701074A11701046007800EB56
:105190004001C1EBC0104FF6FF7101EAC0000249A7
:1051A000088010BD7200002074000020014642F209
:1051B00028324A434FF0E0235A6101221A6100224B
:1051C0009A6100BF4FF0E022106900F001021AB1AD
:1051D00000F48032002AF5D000224FF0E0231A615B
:1051E0009A61704770B504460D46E1B20548FEF776
:1051F000CAFD00BF80210348FEF7F7FC0028F9D064
:10520000204670BD003801402DE9FF4F81B0824635
:1052100017469846DDF838B0002445464FEA480066
:10522000C0F10306BBF1000F1FD01BE0A14608E050
:105230004B462246009750460299FFF73AFA09F189
:105240000109A945F4DD002E04DA042000FB046006
:10525000861D06E0601B042101FB006000F10A06C8
:105260006D1E641CAC42E1DD18E015E02B462246C1
:10527000009750460299FFF71CFA002E04DA04202A
:1052800000FB0460861D06E0601B042101FB00603A
:1052900000F10A066D1E641CAC42E7DD05B0BDE8F6
:1052A000F08F10B545F25550FCF7C8FD0420FCF70F
:1052B000B9FD4FF47A60FCF7BBFDFCF7ABFDFCF7E2
:1052C000A1FD10BD88B04FF47A744FF07C5ADFF81E
:1052D00010B45846079000BF00BF5046059000200C
:1052E00004904FF07E5681460290FE48C0F800A020
:1052F000FD4905980860FD480660FD48C0F800902B
:10530000FC4902980860F7480568F748006806906D
:10531000FEF7A6FA4820FFF72BFFFCF741FEFDF74A
:10532000C5F8FFF757FE00F05BFBFBF7F9FC002127
:105330000846FBF7E5FC002140F60F6000F0AAFBF1
:10534000FEF7B0FEFCF77EFBFCF778F9FEF7B8FA43
:10535000FDF7E0F8FEF714FFFEF77AFFFEF7F2FF25
:10536000FFF79FFFE4A0FFF771F907E3FCF752FD99
:10537000E6A0FFF76BF9EB48007808B1FEF772FF83
:10538000E948007800F0010040B1E748007820F0DB
:105390000100E54908700020FDF762F9E348007854
:1053A00000287DD1E2A0FFF751F9E7480068012805
:1053B0000FD1E6A0FFF74AF900208DF80C008DF818
:1053C0000D0003A8FEF7B2FD0020EB490870DE498E
:1053D00008600120E9490860E748007858B90020D2
:1053E0008DF80C008DF80D0003A8FEF79FFDE4A0DA
:1053F000FFF72CF9B8E2E6A0FFF728F9E7480078B4
:105400008DF80C00E54840788DF80D0003A8FEF7F4
:105410008DFDE3480078002872D1E2A0FFF716F96D
:105420000798FBF70FFEE5A0FFF710F9B1480068F9
:105430000090AF480368AD480268E5480168284617
:10544000FEF7A8FCE348007800283FD1E2A0FFF770
:10545000FDF8E748007898B9E6A0FFF7F7F8CF48DD
:1054600000788DF80C00CD4840788DF80D0003A829
:10547000FEF75CFD9C48006806909A48056873E258
:10548000E0A0FFF7E3F8C5480078E1490978084350
:105490008DF80C00C1484078DD494978084300E0A8
:1054A000F8E08DF80D0003A8FEF740FDBC48007839
:1054B00028B9D8A0FFF7CAF8DB48056854E2DBA09A
:1054C000FFF7C4F8DF48006806904DE2DEA0FFF762
:1054D000BDF8C7480078A0B9E1A0FFF7B7F8AF481A
:1054E00000788DF80C00AD4840788DF80D0003A8C9
:1054F000FEF71CFD7C48006806907A48056833E298
:1055000023E0C0A0FFF7A2F8A4480078C0490978BA
:1055100008438DF80C00A1484078BD4949780843FC
:105520008DF80D0003A8FEF701FD9D48007828B90D
:10553000CEA0FFF78BF8BC48056815E2D1A0FFF7B5
:1055400085F8C048006806900EE2D4A0FFF77EF808
:1055500068480068009066480368644802689C4890
:1055600001685846FEF716FCD2480068FAF7F2FFC9
:1055700007463A460B46D0A0FFF768F80698FAF7B8
:10558000E9FF07463A460B46D0A0FFF75FF80698BA
:10559000FBF758FD8F48007800283DD1D1A0FFF7D8
:1055A00055F89348007898B992A0FFF74FF87B48D8
:1055B00000788DF80C00794840788DF80D0003A82C
:1055C000FEF7B4FC48480068069046480568CBE101
:1055D0008CA0FFF73BF8714800788D4909780843A3
:1055E0008DF80C006D4840788949497808438DF85A
:1055F0000D0003A8FEF79AFC6948007828B985A039
:10560000FFF724F888480568AEE188A0FFF71EF888
:105610008C4800680690A7E18BA0FFF717F8744844
:10562000007898B98EA0FFF711F85C4800788DF8E3
:105630000C005A4840788DF80D0003A8FEF776FC60
:10564000294800680690274805688DE16DA0FEF79F
:10565000FDFF524800786E49097808438DF80C0028
:105660004E4840786A49497808438DF80D0003A8F0
:10567000FEF75CFC4A48007828B97CA0FEF7E6FFFC
:105680006948056870E17FA0FEF7E0FF6D4800689B
:10569000069069E13948006801280FD197A0FEF70C
:1056A000D5FF00208DF80C008DF80D0003A8FEF743
:1056B0003DFC002030490870304908600120224933
:1056C00008602D480078FF2808D1344800788DF80C
:1056D0000C00324840788DF80D0027E13EE10000D3
:1056E000CDCC5441080000200C0000201C000020FC
:1056F0002000002024000020776174636820646F1C
:105700006720776F726B696E672000005761746362
:105710006820646F6720696E207768696C650D0A80
:1057200000000000AB000020AA0000203300002091
:105730004E6F726D616C2052756E6E696E67204D92
:105740006F64650A0000000028000020496E206E8A
:105750006F726D616C2072756E6E696E67206D6F11
:1057600064652C66726F6D206465627567206D6F6D
:1057700064650D0A00000000300000202C000020AD
:1057800056616C766520636C6F73650A00000000DB
:1057900056616C7665204F70656E0A001A00002015
:1057A000360000205045565F436F6E74726F6C2058
:1057B0004D6F64652031200A0000000043616C6C6D
:1057C000205049442066756E74696F6E0A0A0A009B
:1057D0003800002034000020436F6D6D616E64203E
:1057E0002054726967676572204D6F64650A000016
:1057F00035000020556E70756666204D6F64650A31
:105800000000000070756666204D6F64650A000038
:105810001800002050657620636F6E74726F6C20E4
:105820006D6F646520320A0014000020313437396E
:105830004120636F6E74726F6C206D6F64652032EF
:105840000A0000001000002054696D696E67205442
:10585000726967676572204D6F6465200A000000F9
:10586000556E70756666206D6F64650050657620B4
:10587000636F6E74726F6C206D6F64652032200AE6
:1058800000000000313437394120636F6E74726F4D
:105890006C206D6F64652032200A00003134373986
:1058A000415F436F6E74726F6C204D6F6465203181
:1058B0000A0A00003C000020466C6F772053746198
:1058C0007475733A25660A0A000000005461726715
:1058D000657420466C6F772056616C75653A256655
:1058E0000A0A0000436F6D6D616E64095472696746
:1058F000676572204D6F64650A000000496E207470
:105900006865206465627567206D6F64652C6672DA
:105910006F6D206E6F726D616C2072756E6E696E48
:1059200067206D6F64650D0A0000000003A8FEF794
:10593000FDFA1348006806900698FBF783FB1148B0
:105940000568114800680090104803681048026814
:10595000104801682846FEF71DFA02E00EA0FEF787
:1059600075FE14A0FEF772FE34B918A0FEF76EFEA5
:105970004FF47A74FDF73EFF601E84B2F6E4000037
:105980000C0000200800002024000020200000203F
:105990001C000020380000206465627567206D6F70
:1059A00064652C2076616C766520636C6F7365642A
:1059B0000000000077652061726520696E206475C3
:1059C000627567206D6F6465000000006166746534
:1059D0007220313030302074696D65730000000032
:1059E00000B587B0012144F20500FDF79FF94FF49F
:1059F0000070ADF8180003208DF81A0018208DF8FB
:105A00001B0006A92148FBF78FFB4FF48060ADF81F
:105A1000180004208DF81B0006A91C48FBF784FB26
:105A20004FF4C060FCF706FE25208DF8140000201E
:105A30008DF8150001208DF816008DF8170005A8C7
:105A4000FCF7C0FD4FF4165001900020ADF808009F
:105A5000ADF80A00ADF80C00ADF810000C20ADF860
:105A60000E0001A90A48FEF71DF901210848FEF7BA
:105A7000B0F8012240F225510548FEF7EDF840212B
:105A80000348FEF79DF807B000BD00000008014084
:105A90000038014030B589B005460C460121102080
:105AA000FDF744F901210220FDF730F901210846F4
:105AB000FDF73CF98020ADF8200003208DF822008E
:105AC00018208DF8230008A91548FBF72DFBADF829
:105AD0001850ADF814400020ADF81A00ADF81600CB
