:020000040800F2
:100000005015002045010008C127000835200008D0
:10001000BD270008BD0E00088F4400080000000046
:10002000000000000000000000000000C33A0008CB
:10003000F90F00080000000091280008E13E0008C8
:100040005F0100085F0100085F0100085F01000810
:100050005F0100085F0100085F010008ED10000863
:10006000711100085F0100085F0100085F010008CE
:100070005F0100085F0100085F0100085F010008E0
:100080005F0100085F0100085F0100085F010008D0
:100090005F0100085F0100085F010008C51100084A
:1000A0005F0100085F0100085F0100085F010008B0
:1000B0005D3F0008913F00085F0100085F010008F4
:1000C0005F0100085F0100085F0100085F01000890
:1000D0005F010008194200085D4200085F01000846
:1000E0005F0100085F0100085F0100085F01000870
:1000F0005F0100085F0100085F0100085F01000860
:100100005F0100085F0100085F0100085F0100084F
:100110005F0100085F0100085F0100085F0100083F
:100120005F0100085F0100085F0100085F0100082F
:10013000DFF80CD000F01CFC00480047555A0008BE
:10014000501500200648804706480047FEE7FEE7B6
:10015000FEE7FEE7FEE7FEE7FEE7FEE7FEE7FEE777
:10016000E53E00083101000840EA01039B0703D087
:1001700009E008C9121F08C0042AFAD203E011F8E6
:10018000013B00F8013B521EF9D27047F0B480EAFF
:100190000102D40F4200B2EB410F02D202460846E0
:1001A00011464A0042D0C30DDDB2C1F3C752AD1AA9
:1001B000202D35DAC1F3160141F4000204B1524298
:1001C000C5F1200602FA06F12A411044B3EBD05FD4
:1001D00023D0C4B1012DA0EBC35009DCF0BC4FF01B
:1001E000004202EAC352DBB200F5000000F076BA2A
:1001F000400000F1807000EBC350A0F1807040EA35
:10020000D170490009E0490841EAC071A0EBC35030
:1002100000F50000400800EBC350F0BC00F055BAF8
:100220006142012202EB4101001BF6E7F0BC70477E
:1002300081F00041AAE780F00040A7E780EA0102D0
:1002400010B502F00043400022D04A001FD0010E3A
:1002500001EB1261C0F35600C2F3560240F40000F5
:1002600042F40002A0FB022000047F39140400D0F5
:10027000401C50EA124001D44000491EC2B20C0694
:1002800004EBD010401C4008802A02D003E000207C
:1002900010BD20F00100002900DA0020184310BD35
:1002A00030B480EA010202F0004530F0004221F053
:1002B000004013D090B1C30DD40DC2F31601C0F3AA
:1002C0001600E41A41F4000140F400027D3491422A
:1002D00001D3641C00E04900002C02DA30BC00208D
:1002E00070474FF400000023914201D3891A034361
:1002F00040084FEA4101F7D151B1914202D14FF08C
:10030000004105E002D24FF0010101E06FF0010170
:1003100003EBC450284430BC00F0D7B92DE9FE4FA0
:1003200081EA030404F0004421F0004100944FF0FE
:10033000000B23F0004350EA01045ED052EA0304AC
:100340005BD0C3F30A54C1F30A552C44A4F2F3342E
:100350000194A0FB0254C1F3130141F48011C3F3D3
:10036000130343F4801301FB024400FB034E840A91
:10037000970A44EA815447EA8357A4FB0768029529
:100380008D0A05FB07854FEA932C04FB0C542705C7
:10039000029D4FEA065847EA1637B5EB08056EEBA3
:1003A000070C870E920E47EA811742EA8312A7FBD9
:1003B0000201B6EB0B0164EB00042B0D43EA0C3396
:1003C0005E1844EB1C50DA465146E7FB0201C5F3C8
:1003D00013044FEA0B3343EA14534FEA0432019CEF
:1003E00043EA0603A4F10C040294009CCDE900B496
:1003F00000F0B1F903B0BDE8F08F00200146F9E745
:100400002DE9F04D81EA030404F0004B21F0004592
:1004100014464FF0000A23F0004150EA050220D0B4
:1004200054EA01021DD0C5F30A570246C5F313036F
:10043000C1F31300C1F30A5640F4801543F480134E
:10044000A7EB0608101BD64608F2FD3873EB050033
:1004500002D308F1010801E092185B41B8F1000FE6
:1004600003DA00200146BDE8F08D00204FF4801132
:10047000064684460EE0171B73EB050705D3121BD7
:1004800063EB050306434CEA010C49084FEA3000D0
:1004900092185B4150EA0107EDD152EA030012D0F5
:1004A00082EA040083EA0501084305D0101BAB4132
:1004B00006D20122002306E000224FF0004302E0B2
:1004C0006FF0010253101AEB06004CEB085110EBD1
:1004D0000A0041EB0B01BDE8F04D00F02DB9C10F52
:1004E00080EAE0700844CA079623002100F0F6B8BD
:1004F00096230022114600F0F1B800F0004220F0EF
:100500000040C10DC0F3160040F400007F2901DA5D
:1005100000207047962903DCC1F19601C84001E034
:1005200096398840002AF4D04042704720F00040BD
:10053000C10DC0F3160040F400007F2901DA00204D
:100540007047962903DCC1F19601C840704796397F
:100550008840704700F0004230F000400AD0C10DE2
:1005600001F56071C0F3160042EA0151C20840076C
:1005700011437047002001467047000030B5041E4B
:1005800071F1000404DB4FF00044404264EB0101D0
:10059000141E73F1000405DB1C464FF00043524269
:1005A00063EB04038B4208BF824230BD30B5041EAA
:1005B00071F1000404DB4FF00044404264EB0101A0
:1005C000141E73F1000405DB1C464FF00043524239
:1005D00063EB0403994208BF904230BD01F0004331
:1005E00030B421F0004150EA010206D00A0DA2F514
:1005F0006072C1F31301002A02DC30BC0020704796
:10060000440F44EAC104C100E01830BC00EBC25002
:1006100000F05BB8002801DBC0F10040002901DBDD
:10062000C1F1004181427047002801DBC0F1004068
:10063000002901DBC1F100418842704730B50B460B
:10064000014600202022012409E021FA02F59D4202
:1006500005D303FA02F5491B04FA02F52844151ED6
:10066000A2F10102F1DC30BD2DE9F05F054600206A
:1006700092469B4688460646814640241BE0284613
:1006800041464746224600F094F953465A46C01A5E
:10069000914110D311461846224600F07BF92D1ADD
:1006A00067EB01084F4622460120002100F072F955
:1006B00017EB00094E41201EA4F10104DFDC48467F
:1006C00031462A464346BDE8F09F0029A8BF70473F
:1006D000401C490008BF20F00100704710B4B0FA78
:1006E00080FC00FA0CF050EA010404BF10BC704713
:1006F00049B1CCF1200421FA04F411FA0CF118BF2D
:10070000012121430843A3EB0C01CB1D4FEA0061FB
:100710004FEA102042BF002010BC704700EBC350CE
:1007200010440029A4BF10BC7047401C490008BFFA
:1007300020F0010010BC704710B5141E73F10004C6
:1007400008DA401C41F1000192185B411A4301D1C3
:1007500020F0010010BD2DE9F04D92469B4611B1ED
:10076000B1FA81F202E0B0FA80F22032904600F055
:1007700011F904460F4640EA0A0041EA0B015346CC
:100780005A46084313D0114653EA010019D0C8F164
:100790004002504600F00DF905460E4650465946B7
:1007A000424600F0F7F8084305D0012004E0204657
:1007B0003946BDE8F08D0020054346EAE0762C433B
:1007C00037430A986305E40AA0EB08000022FD0AFB
:1007D00044EA47540A3002D500200146E9E7010502
:1007E00010196941DDE9084500196941BDE8F04D7E
:1007F000A2E72DE9FE4F804681EA0300C00F0C46B8
:10080000009021F0004123F00045B8EB0200A9411F
:1008100005D24046214690461C460B46024623F030
:100820000040104347D0270DC7F30A00C3F30A5115
:100830000290401A019040286BDAC3F3130040F491
:10084000801B0098924620B10023D2EB030A63EB91
:100850000B0B01985946C0F14002504600F09AF83F
:1008600006460D4650465946019A00F0B2F810EB84
:1008700008006141002487EA115284EAE7731A43B1
:1008800040D0009A62B3019A012A4FEA075215DC60
:10089000001B61EB02014FF0004202EA0752CDE972
:1008A0000042001C41F5801132462B46FFF753FFF2
:1008B00003B0BDE8F08F40462146F9E7001B61EB2D
:1008C0000201001C41F5801300185B412018A2F5BD
:1008D000001747EB030140EAD570B6196D4111E0EE
:1008E0006D084FEA360645EAC0754FEA0752001B0D
:1008F00061EB0201001C41F5801149084FEA30000C
:100900000019514132462B4603B0BDE8F04FFFF7C6
:1009100013BF0098012240000023D0EB020263EBDA
:10092000E073009821464FEAE074B8EB000061EBF9
:100930000401E9E783F000435BE781F0004158E7F9
:10094000C1F30A52C1F3130140F2FF3341F48011A5
:100950009A4202DA00200146704740F233439A423D
:10096000A2F2334202DC524200F023B800F012B887
:10097000064C074D06E0E06840F0010394E80700EC
:1009800098471034AC42F6D3FFF7D6FBD487000863
:10099000F4870008202A04DB203A00FA02F1002044
:1009A00070479140C2F1200320FA03F319439040AD
:1009B0007047202A04DB203A21FA02F00021704718
:1009C00021FA02F3D040C2F12002914008431946B7
:1009D0007047202A06DBCB17203A41FA02F043EA9F
:1009E000E07306E041FA02F3D040C2F120029140E8
:1009F00008431946704770B58C1810F8015B15F064
:100A0000070301D110F8013B2A1106D110F8012B80
:100A100003E010F8016B01F8016B5B1EF9D12B07A5
:100A200005D40023521E0DD401F8013BFAE710F85B
:100A3000013BCB1A921C03E013F8015B01F8015B48
:100A4000521EF9D5A142D8D3002070BD21B18268D1
:100A500042F00102826003E0826822F001028260BB
:100A60007047000010B504461248844208D10121A5
:100A7000401502F05BFC0021601502F057FC17E006
:100A80000D48844208D10121001502F04FFC0021DD
:100A9000201502F04BFC0BE00848844208D10121EC
:100AA000C80302F043FC00214FF4004002F03EFC7A
:100AB00010BD00000024014000280140003C01401E
:100AC000014600208A6802F004020AB1012000E019
:100AD000002070470146C86C80B270470246002073
:100AE00013680B400BB1012000E000207047014665
:100AF00000208A6802F008020AB1012000E000200C
:100B00007047000030B502460020002350680F4CAB
:100B100020400D790C6844EA052420435060906819
:100B20000B4C2040D1E902542C434D7944EA450452
:100B300020439060D06A20F470000C7C641EE4B204
:100B4000234340EA0350D06230BD0000FFFEF0FFB7
:100B5000FDF7F1FF2DE9F04192B005460E46142253
:100B6000274903A8FFF700FB00241FE055F82400E5
:100B7000FFF7F0FC074603A83A460B4621A1009078
:100B800008A804F019F900200C2108AACDE90021D9
:100B9000029004EB8400382202EB80014FF6FF73D1
:100BA0000022822003F002F8601CC4B2032CDDDBBB
:100BB00000241FE056F82400FFF7CCFC074603A8EA
:100BC0003A460B460FA1009008A804F0F5F8002063
:100BD0000C2108AACDE90021029004EB8400382200
:100BE00002EB80014FF6FF7300223C2002F0DEFF93
:100BF000601CC4B2032CDDDB12B0BDE8F081000044
:100C0000788700082566252E32307300F0B504463B
:100C10000D4600200021092D11DDE068A5F10A062E
:100C200006EB4607072606FA07F18843A5F10A06F0
:100C300006EB460603FA06F10843E0600CE0206983
:100C400005EB4507072606FA07F1884305EB45063D
:100C500003FA06F108432061072A0FDA606B561E7B
:100C600006EB86071F2606FA07F18843561E06EB99
:100C7000860605FA06F10843606322E00D2A0FDAC2
:100C8000206BD61F06EB86071F2606FA07F188435E
:100C9000D61F06EB860605FA06F10843206310E02E
:100CA000E06AA2F10D0606EB86071F2606FA07F199
:100CB0008843A2F10D0606EB860605FA06F1084305
:100CC000E062F0BD816841F008018160704721B1A8
:100CD000826842F4A002826003E0826822F4A002EB
:100CE00082607047816841F00401816070477047FD
:100CF0002DE9F04704462046FFF72CFC0746054A3D
:100D0000054BFFF70BFB0546FFF768FC814648469D
:100D1000BDE8F0872793508334481B402DE9F04706
:100D200004462046FFF716FC0746054A054BFFF729
:100D3000F5FA0546FFF752FC81464846BDE8F087C4
:100D40002793508334481B402DE9F04F85B0234949
:100D500003C9CDE9000101210A2000F063FF8046AC
:100D600001210B2000F05EFF814601210C2000F0E4
:100D700059FF82464046FFF7BBFB8346FFF7EAFB7D
:100D800006464FF06632164BFFF7C8FA0446FFF7E7
:100D900025FC02904846FFF7ABFB8346FFF7DAFBE2
:100DA00006464FF066320E4BFFF7B8FA0446FFF7DF
:100DB00015FC03905046FFF79BFB8346FFF7CAFBE9
:100DC00006464FF06632064BFFF7A8FA0446FFF7D7
:100DD00005FC049002A805B0BDE8F08F446400084B
:100DE00066664A3F2DE9F0470E48FFF73BFE04F0E8
:100DF00037FD0A210C2000F015FF81464846FFF719
:100E000077FB8246FFF7A6FB07464FF06632064B9C
:100E1000FFF784FA0546FFF7E1FB04462046BDE8EC
:100E2000F08700000024014066664A3F2DE9F04744
:100E30000E48FFF717FE04F073FC0A21084600F085
:100E4000F1FE81464846FFF753FB8246FFF782FBDF
:100E500007464FF06632064BFFF760FA0546FFF78C
:100E6000BDFB04462046BDE8F08700000024014099
:100E700066664A3F2DE9F0470E48FFF7F3FD04F0A0
:100E80009FFC0A210B2000F0CDFE81464846FFF76B
:100E90002FFB8246FFF75EFB07464FF06632064B9C
:100EA000FFF73CFA0546FFF799FB04462046BDE8EC
:100EB000F08700000024014066664A3F00BFFEE75D
:100EC00039B1084A1268012383401A43054B1A605E
:100ED00006E0044A1268012383409A43014B1A60DA
:100EE000704700000074004030B5002200230A4C17
:100EF000226840F6FE748440A243D1E900452C43A9
:100F00008D682C43CD6844EA050303FA00F42243BC
:100F1000014C226030BD00000074004008B5002282
:100F20000092054A009200F10802009B1A440092C8
:100F3000009A116008BD00000074004000B585B043
:100F40000121042002F0E2F90121480702F0CEF964
:100F50001020ADF8100000208DF8130003208DF84C
:100F6000120004A90D4800F0FBF910210B4800F015
:100F7000DFFA002000900190029002200390694661
:100F80000020FFF7B1FF01210020FFF799FF0021AA
:100F90000846FFF7C3FF05B000BD00000008014090
:100FA0002DE9F04704462046FFF7A2FA8146104992
:100FB0004846FFF775F981464FF08B414846FFF7E9
:100FC0003DF98246FFF7C6FA07464FF06632094BF5
:100FD000FFF716FA0546FFF701FB81464846FFF783
:100FE000A5FA85B229460020FFF798FFBDE8F087F3
:100FF00000007A4466660A40704700000021044AF7
:10100000116000BF024909688142FBD370470000AC
:101010001801002038B532480078401CC0B28DF865
:1010200000002F484078401CC0B28DF801002C48C9
:101030008078401CC0B28DF802002948C078401C5E
:10104000C0B28DF803006A460C21002003F054FE64
:1010500001220021084603F00FFE01221146002064
:1010600003F00AFE0520FFF7C9FF0321002002F06C
:10107000A9FB13280BD010220121002003F0FCFD56
:101080000020184908601849C1F8B80138BD042289
:101090000121002003F0F0FD00BF00240221002008
:1010A00002F090FB044624B122460221002003F006
:1010B000E3FD0520FFF7A2FF04F00800082801D196
:1010C0000020E3E70621002002F07CFBFF2806D089
:1010D00010220121002003F0CFFDFF20D6E7DCE73E
:1010E00002010020BC0122420000224210B50EA0E5
:1010F00003F052FE022000F07BF8012813D10220F9
:1011000000F070F80A2004F019FC02210B4800F0EE
:10111000FBF940B90A2004F011FCFF2008490870CF
:1011200008A003F039FE10BD496E20746865206D7B
:10113000696420657874693100000000000C01408A
:101140004500002077652061726520696E20746813
:1011500065206D6964646C65206F662065787469CC
:1011600020696E746572727570740D0A000000005B
:1011700010B5042000F03CF801281ED100F032F830
:101180000A2004F0DBFB04210C4800F0BDF968B92B
:1011900001210B4800F0C1F920B90121084800F0F5
:1011A000C7F903E00121064800F0C0F900BF04219F
:1011B000024800F0A9F90028F9D010BD001801403C
:1011C0000010014010B54FF4007000F011F830B17C
:1011D0004FF4007000F006F801200149087010BDBE
:1011E0001701002001490860704700001404014005
:1011F000014600200022074B1B6803EA0102054B51
:1012000014331B680B4013B10AB1012000E0002029
:101210007047000000040140002123498279002A20
:101220003AD00A46126803689A430B461A600A1DB0
:10123000126803689A430B1D1A60027911440A6808
:1012400003681A430A60184A0832126803689A430E
:10125000154B08331A601A1D126803689A43124B23
:101260000C331A604279102A0ED11A1F12680368D3
:101270001A430D4B08331A601A1D126803681A438B
:10128000094B0C331A600DE00749427911440A6892
:1012900003681A430A6005E0027911440A6803688A
:1012A0009A430A607047000000040140054909683C
:1012B00021F01001034A11601146096801431160D1
:1012C000704700000020024001460020034A1068D9
:1012D00000F0380008431060704700000020024012
:1012E000704700002DE9F04104462046FFF7F8FF63
:1012F00005460A492046FEF7A1FF0746FFF7FDF81D
:101300000646FFF7ECF805462846FFF70FF986B2C8
:101310003046FFF745FEBDE8F08100000000C842FE
:1013200030B500228B071C0F0F2303FA04F20B4B7E
:101330008C1053F824309343084C8D1044F825301A
:1013400023468C1053F824308C07240F00FA04F441
:101350002343024C8D1044F8253030BD0800014075
:101360002DE9F0410246002500260020002300243C
:10137000002791F803C00CF00F0591F803C00CF0A2
:10138000100CBCF1000F03D091F802C04CEA050527
:1013900091F800C0BCF1000F31D0146800202BE0A0
:1013A0004FF0010C0CFA00F3B1F800C00CEA030690
:1013B0009E4220D183004FF00F0C0CFA03F7BC4380
:1013C00005FA03FC4CEA040491F803C0BCF1280FB1
:1013D00006D14FF0010C0CFA00FCC2F814C00AE070
:1013E00091F803C0BCF1480F05D14FF0010C0CFA85
:1013F00000FCC2F810C0401C0828D1D31460B1F81A
:1014000000C0BCF1FF0F34DD546800202EE000F175
:10141000080C4FF0010808FA0CF3B1F800C00CEA10
:1014200003069E4221D183004FF00F0C0CFA03F704
:10143000BC4305FA03FC4CEA040491F803C0BCF178
:10144000280F05D100F1080C08FA0CF8C2F8148036
:1014500091F803C0BCF1480F07D100F1080C4FF020
:10146000010808FA0CF8C2F81080401C0828CED3F6
:101470005460BDE8F0810000F0B50A460023002466
:101480000021002500F00046B6F1004F02D11D4EAC
:10149000F16901E01B4E7168C0F3034583B200F4AB
:1014A0004016B6F5401F08D121F07061154E7668E0
:1014B00026F07066134F7E6012E000F48016B6F5D9
:1014C000801F06D1032606FA05F4A14341F070619E
:1014D00006E0460D360103FA06F6B14341F07061AD
:1014E00022B1460D360103FA06F6314300F00046FC
:1014F000B6F1004F02D1034EF16101E0014E71607F
:10150000F0BD0000000001400246002093680B403F
:101510000BB1012000E00020704702460020D36894
:101520000B400BB1012000E0002070474161704783
:10153000016170472DE9FC5F0546884691469A4651
:10154000DDF830B000953E20019000245FE004EB10
:101550000410374911F810009BF80010884253D14D
:1015600004EB0410324901EB400040789BF8011075
:10157000884249D108F10F0083B205F10F0082B211
:101580004146284600F06CFF00263BE0002734E08F
:101590000D9890B904EB0410254901EB4000801C24
:1015A000805D80213941084018B1484601F0B0F80B
:1015B00021E0504601F0ACF81DE01E48A0F8009074
:1015C00004EB04101A4901EB4000801C805D80216F
:1015D0003941084018B14146284600F0D7FD681C43
:1015E00085B20098281A102805D1009D08F1010045
:1015F0001FFA80F803E0781CC7B2082FC8DB00BFD1
:10160000701CC6B2202EC1DB00BF601C84B20198E2
:1016100084429CDB08484088401E83B2064800880C
:10162000401E82B20021084600F01AFFBDE8FC9F70
:10163000AE6E0008E2000020300100202DE9FC5FC2
:101640000546884691469A46DDF830B00095072059
:101650000190002467E004EB840000EB44103A4959
:1016600011F810009BF80010884259D104EB840057
:1016700000EB4410344901EB400040789BF8011026
:1016800088424DD108F1170083B205F1170082B2EC
:101690004146284600F0E4FE00263FE0002738E0FF
:1016A0000D98A0B904EB840000EB4410264901EB2F
:1016B0004000801C805D80213941084018B14846B7
:1016C00001F026F823E0504601F022F81FE01F4801
:1016D000A0F8009004EB840000EB44101A4901EBE1
:1016E0004000801C805D80213941084018B141468E
:1016F000284600F04BFD681C85B20098281A18286F
:1017000005D1009D08F101001FFA80F803E0781C64
:10171000C7B2082FC4DB00BF701CC6B2482EBDDBA9
:1017200000BF601C84B20198844294DB0848408862
:10173000401E83B206480088401E82B2002108463F
:1017400000F08EFEBDE8FC9FEA760008E200002073
:10175000300100202DE9FC5F0546884691469A46F7
:10176000DDF830B000950420019000245FE004EB28
:101770008410374911F810009BF80010884253D1AB
:1017800004EB8410324901EB400040789BF80110D3
:10179000884249D108F11F0083B205F11F0082B2CF
:1017A0004146284600F05CFE00263BE0002734E07E
:1017B0000D9890B904EB8410254901EB4000801C82
:1017C000805D80213941084018B1484600F0A0FFF3
:1017D00021E0504600F09CFF1DE01E48A0F800905C
:1017E00004EB84101A4901EB4000801C805D8021CD
:1017F0003941084018B14146284600F0C7FC681C32
:1018000085B20098281A202805D1009D08F1010012
:101810001FFA80F803E0781CC7B2082FC8DB00BFAE
:10182000701CC6B2802EC1DB00BF601C84B2019860
:1018300084429CDB08484088401E83B206480088EA
:10184000401E82B20021084600F00AFEBDE8FC9F5F
:10185000F0780008E20000203001002070B5054655
:101860000E4614463146284600F0F0FD204600F0B2
:101870004FFF70BD38B5002400BF1BE00120009071
:101880001048028804EB8400A82303EB80010623A0
:10189000B42004F081F8012000900A48028804EB8B
:1018A0008400A82303EB80010623322004F074F89F
:1018B000601CC4B2062CE1DB40F2DC5004F03EF8C0
:1018C00038BD0000E80000203EB50546002400BFFA
:1018D00040E0285D01281DD100904748428804EB74
:1018E0008400A82303EB80010623322004F054F87F
:1018F00000200C2141A2CDE90021029004EB8400DC
:10190000A22202EB80014FF6E0730022412002F098
:101910004DF91DE0012000903748028804EB840057
:10192000A82303EB80010623322004F035F80020C1
:101930000C2133A2CDE90021029004EB8400A22205
:1019400002EB80014FF6E0730022412002F02EF9F5
:10195000601CC4B2062CBCDB062446E0285D0128CE
:1019600020D1009024484288A01F00EB8000A823CB
:1019700003EB80010623B42004F00EF800200C21B4
:101980001EA2CDE900210290A01F00EB8000A22240
:1019900002EB800081B24FF6E0730022C32002F018
:1019A00005F920E00120009013480288A01F00EBF9
:1019B0008000A82303EB80010623B42003F0ECFF92
:1019C00000200C210EA2CDE900210290A01F00EB07
:1019D0008000A22202EB800081B24FF6E073002269
:1019E000C32002F0E3F8601CC4B20C2CB6DB40F25A
:1019F000DC5003F0A3FF3EBDE80000204F4E200066
:101A00004F46460010B54FF400514948FFF785FD99
:101A1000012805D14748407840F001004549487009
:101A20004FF400414248FFF778FD012805D14148B5
:101A3000407840F002003F49487008213C48FFF7D9
:101A40006CFD012805D13B48407840F0040039493D
:101A5000487002213848FFF760FD012805D135485C
:101A6000407840F008003349487001213248FFF7C0
:101A700054FD012805D12F48407840F010002D4931
:101A800048704FF480412A48FFF747FD012805D1EF
:101A90002848407840F02000264948708021264898
:101AA000FFF73BFD012805D12248407840F0400077
:101AB0002049487001212148FFF72FFD012805D159
:101AC0001C48407840F080001A494870102118489E
:101AD000FFF723FD012805D11648007840F00100EA
:101AE0001449087040211448FFF717FD012805D15B
:101AF0001048007840F002000E49087080210F481D
:101B0000FFF70BFD012805D10A48007840F00400DA
:101B10000849087040210948FFF7FFFC012805D15A
:101B20000448007840F0080002490870014810BDE0
:101B300000100140F200002000080140000C0140AC
:101B400010B54FF400512548FFF7E7FC2449087011
:101B50004FF400412148FFF7E0FC2149487008217B
:101B60001E48FFF7DAFC1E49887002211D48FFF766
:101B7000D4FC1B49C87001211A48FFF7CEFC184954
:101B800008714FF480411548FFF7C7FC14494871AC
:101B900080211448FFF7C1FC1149887101211248C6
:101BA000FFF7BBFC0E49C87110210C48FFF7B5FCCC
:101BB0000B49087240210B48FFF7AFFC08494872F7
:101BC00080210948FFF7A9FC054988724021064891
:101BD000FFF7A3FC0249C872084610BD001001407F
:101BE0003E01002000080140000C014070B5024693
:101BF0004FF6FF70002312E012F8015B68400024EA
:101C00000AE000F0010525B140084AF201056840EC
:101C100000E04008651CECB2082CF2DB5B1C8B4238
:101C2000EAD370BD2DE9F04105460E460027072393
:101C3000012229460F48FEF7E9FF002413E00121A5
:101C40000C48FFF744F800BF02210A48FEF746FFA0
:101C50000028F9D00748FEF73DFF0744052003F0B0
:101C60006DFE601CC4B2B442E9DBB7FBF4F080B295
:101C7000BDE8F081002401403EB54FF6FF7000F052
:101C8000FDF9012450E0022C13DC04EB840000EB8E
:101C9000C4004FF6FF7202EA400304EB840000EB3D
:101CA000C40002EA40014FF48C72002000F016FAE2
:101CB00036E0062C11DC022C0FDD04EB84000C2234
:101CC00002EB800083B204EB840002EB800081B25F
:101CD000FA22002000F002FA22E0072C11D104EBD6
:101CE00084000C2202EB8000801D83B204EB840090
:101CF00002EB8000801D81B2FA22002000F0EEF994
:101D00000EE004EB8400122202EB800083B204EBAD
:101D1000840002EB800081B2FA22002000F0DEF99C
:101D20008AA003F039F8641C0E2CACDB84237822E3
:101D30001A21104600F0D2F94FF48B7378229E21BD
:101D4000104600F0CBF900200C2182A24FF6FF7361
:101D5000CDE900210290024605210A2001F026FF6C
:101D600001200C2184A24FF6FF73CDE900210290DF
:101D7000002221213C2001F019FF01200C2181A229
:101D80004FF6FF73CDE900210290002221218C2023
:101D900001F00CFF00200C217EA24FF6E073CDE98C
:101DA000002102900246382101F000FF00200C21A2
:101DB0007BA24FF6E073CDE90021029002464E214E
:101DC00001F0F4FE00200C2178A24FF6E073CDE97B
:101DD000002102900246622101F0E8FE00200C2161
:101DE00075A24FF6E073CDE90021029002467621FC
:101DF00001F0DCFE00200C2172A24FF6FF73CDE94A
:101E00000021029002468B21502001F0CFFE0020DD
:101E10000C2170A24FF6E073CDE90021029002463A
:101E2000A2210A2001F0C2FE00200C216BA24FF675
:101E3000E073CDE9002102900246B6210A2001F0AC
:101E4000B5FE00200C2167A24FF6E073CDE900211A
:101E500002900246CA210A2001F0A8FE00200C21AF
:101E600062A24FF6E073CDE9002102900246DE2126
:101E70000A2001F09BFE00200C215EA24FF6E073C9
:101E8000CDE9002102900246F2210A2001F08EFEE7
:101E900000200C2159A24FF6E073CDE900210290F9
:101EA00002464FF483710A2001F080FE00200C21CD
:101EB00054A24FF6E073CDE9002102900246A22120
:101EC000822001F073FE00200C2150A24FF6E07337
:101ED000CDE9002102900246B621822001F066FE83
:101EE00000200C214BA24FF6E073CDE900210290B7
:101EF0000246CA21822001F059FE00200C2147A28F
:101F00004FF6E073CDE9002102900246DE218220E7
:101F100001F04CFE00200C2142A24FF6E073CDE907
:101F2000002102900246F221822001F03FFE0020B3
:101F30000C213EA24FF6E073CDE90021029002464B
:101F40004FF48371822001F031FE3EBD68656C6CF8
:101F50006F0000004761732053757070706C7920BA
:101F6000416E642044656374656374696F6E2053C9
:101F7000797374656D0000005365742056616C754B
:101F8000650000004D6561737572652056616C7562
:101F900065000000203134373941203A000000004C
:101FA000203632374420203A0000000043444730B6
:101FB0003235443A00000000202020505620203ABC
:101FC000000000004761732056616C7565205374F2
:101FD000617465004E6F2E31000000004E6F2E328E
:101FE000000000004E6F2E33000000004E6F2E34B4
:101FF000000000004E6F2E35000000004E6F2E36A0
:10200000000000004E6F2E37000000004E6F2E388B
:10201000000000004E6F2E39000000004E6F2E3180
:10202000300000004E6F2E31310000004E6F2E3117
:102030003200000000BFFEE74CF6CC4001490860CA
:1020400070470000003000404AF6AA2001490860AD
:1020500070470000003000400149486070470000B0
:1020600000300040014988607047000000300040A7
:1020700001490860704700000030004070B5064616
:1020800014484088401E83B212480088401E82B225
:102090000021084600F0E4F94FF400600E490860A2
:1020A0004010091F086000240AE0002503E03046C4
:1020B00000F02EFB6D1C07480088A842F7D8641C6E
:1020C00004484088A042F0D84FF400600249091F3C
:1020D000086070BD30010020140C01402DE9FF4F55
:1020E00085B081468A460020049003900798A0EBB3
:1020F00009050898A0EB0A06CDF80890CDF804A0D1
:10210000002D01DD012705E00DB9002702E04FF0A9
:10211000FF376D42002E02DD4FF0010806E016B9D0
:102120004FF0000802E04FF0FF387642B54201DD83
:102130002C4600E034464FF0000B21E0019A91B2AA
:10214000029A90B200F022F8049828440490039870
:10215000304403900498A04205DD0498001B0490CD
:102160000298384402900398A04205DD0398001BB2
:1021700003900198404401900BF101001FFA80FB8D
:10218000601C8345DADD09B0BDE8F08F70B5044608
:102190000D462946204600F059F90248008800F013
:1021A000B7FA70BDE200002008B50121082001F057
:1021B000ADF84FF4F050ADF8000003208DF80200A8
:1021C00010208DF8030069460148FFF7C9F808BDE3
:1021D000000C014010B501F055FBFFF7E5FF00F0E2
:1021E00021F9CF2000F012FA002000F0F7F9C12009
:1021F00000F0F4F9302000F0F1F9ED2000F006FADB
:10220000642000F0EBF9032000F0E8F9122000F060
:10221000E5F9812000F0E2F9E82000F0F7F98520E7
:1022200000F0DCF9102000F0D9F97A2000F0D6F99E
:10223000CB2000F0EBF9392000F0D0F92C2000F091
:10224000CDF9002000F0CAF9342000F0C7F90220CF
:1022500000F0C4F9F72000F0D9F9202000F0BEF911
:10226000EA2000F0D3F9002000F0B8F9002000F0D7
:10227000B5F9C02000F0CAF91B2000F0AFF9C12069
:1022800000F0C4F9012000F0A9F9C52000F0BEF962
:10229000302000F0A3F9302000F0A0F9C72000F0B2
:1022A000B5F9B72000F09AF9362000F0AFF94820D0
:1022B00000F094F93A2000F0A9F9552000F08EF9C9
:1022C000B12000F0A3F9002000F088F91A2000F0F6
:1022D00085F9B62000F09AF90A2000F07FF9A220D3
:1022E00000F07CF9F22000F091F9002000F076F97E
:1022F000262000F08BF9012000F070F9E02000F0BA
:1023000085F90F2000F06AF92A2000F067F92820EB
:1023100000F064F9082000F061F90E2000F05EF989
:10232000082000F05BF9542000F058F9A92000F0D3
:1023300055F9432000F052F90A2000F04FF90F2020
:1023400000F04CF9002000F049F9002000F046F9B7
:10235000002000F043F9002000F040F9E12000F0F7
:1023600055F9002000F03AF9152000F037F9172050
:1023700000F034F9072000F031F9112000F02EF9B7
:10238000062000F02BF92B2000F028F9562000F051
:1023900025F93C2000F022F9052000F01FF910205B
:1023A00000F01CF90F2000F019F93F2000F016F999
:1023B0003F2000F013F90F2000F010F92B2000F05F
:1023C00025F9002000F00AF9002000F007F90120AB
:1023D00000F004F93F2000F001F92A2000F016F97E
:1023E000002000F0FBF8002000F0F8F8002000F0DA
:1023F000F5F8EF2000F0F2F8112000F007F978204E
:1024000003F09CFA292000F001F9002000F026F9E1
:102410000120034908604FF6FF70FFF72FFE10BD43
:10242000A481214210B54FF4805007490860642010
:1024300003F084FA4FF480500349091F08603220EA
:1024400003F07CFA10BD0000140C014070B5044686
:102450000D462B4622462946204600F001F870BD65
:102460002DE9F04104460D4616461F461149887A6B
:1024700000F0CCF8201200F0B1F8E0B200F0AEF8B5
:10248000301200F0ABF8F0B200F0A8F80949087B70
:1024900000F0BCF8281200F0A1F8E8B200F09EF8B5
:1024A000381200F09BF8F8B200F098F800F0C4F889
:1024B000BDE8F081300100202DE9FF4F83B0814657
:1024C0008A469346DDE91064404800880290A6F1F0
:1024D0002000C6B204EBD47009EB6000401E82B24B
:1024E0000AEB0400401E83B2514648460194FFF7B0
:1024F000B7FF129850BB002525E00C2C07D106EB46
:102500004600334901EB800010F8058004E03148B3
:1025100000EB061010F8058000270DE008F0010020
:1025200018B1584600F0F4F802E0069800F0F0F810
:102530004FEA6808781CC7B204EBD471B7EB610F9F
:10254000ECDB681CC5B2A542D7DB2DE0002529E0F5
:102550000C2C07D106EB46001D4901EB800010F85A
:10256000058004E01B4800EB061010F805800027EA
:1025700011E01648A0F800B008F0010038B10AEBED
:10258000050291B209EB070290B2FFF7FFFD4FEA97
:102590006808781CC7B204EBD471B7EB610FE8DBB5
:1025A000681CC5B2A542D3DB0849029808800A48D6
:1025B0004088401E83B208480088401E82B2002135
:1025C0000846FFF74DFF07B0BDE8F08FE20000209E
:1025D0004A640008BE6800083001002010B50446B7
:1025E0004FF40060074908604010091F0860214649
:1025F000054801F055FA4FF400600249091F0860D0
:1026000010BD0000140C01400038004010B5044615
:102610004FF40060064908604010086021460548F4
:1026200001F03EFA4FF400600149091F086010BD37
:10263000140C01400038004010B50249087AFFF739
:10264000E5FF10BD3001002070B505460C46284658
:10265000FFF7DCFFE0B2FFF7C1FF70BD10B5044625
:102660002A201E4948812B2088812C20088134B1E2
:10267000012C0FD0022C18D0032C2CD120E0F020FC
:10268000164908804FF4A070488008213620FFF7D3
:10269000DBFF21E04FF4A07010490880F020488053
:1026A00068213620FFF7D0FF16E0F0200B490880A4
:1026B0004FF4A0704880C8213620FFF7C5FF0BE01B
:1026C0004FF4A07005490880F0204880A8213620EA
:1026D000FFF7BAFF00E000BF00BF10BD30010020CF
:1026E00008B501F0FFFB0121102000F00FFE4FF4B0
:1026F0006040ADF8000010208DF8030003208DF835
:10270000020069460148FEF72BFE08BD001001409B
:1027100010B504464FF40060094908604010091FD5
:1027200008602112074801F0BBF9E1B2054801F049
:10273000B7F94FF400600249091F086010BD00009E
:10274000140C014000380040C02016490870A82031
:10275000487001208870C870FF20134908704870C5
:1027600088700020C8700C2010490870292048701B
:10277000AB2088707C20C87000200871012048714F
:10278000C0200B490870A820487001208870C6201E
:10279000C870132007490870882048700020064937
:1027A00008707047F4000020F8000020FC000020B2
:1027B00002010020060100201401002000BFFEE7F6
:1027C000704708B500214FF0006000F057F84FF453
:1027D000C06000F049F81C208DF8000000208DF842
:1027E00001008DF8020001208DF80300684600F01A
:1027F00003F802F03DF908BD70B5002100230F2257
:10280000C47804B3154C246804F4E064C4F5E064AF
:10281000210AC1F10403CA40447804FA03F1847820
:102820001440214309010E4C0678A155047804F0A8
:102830001F050124AC4005786D11AD0005F1E025C0
:10284000C5F8004109E0047804F01F050124AC40FC
:10285000044D0678761145F8264070BD0CED00E079
:1028600000E400E080E100E002490143024A116017
:10287000704700000000FA050CED00E0024A0A4033
:102880000243024B1A60704780FFFF1F08ED00E013
:10289000704700002DE9F84F82460C495046FDF77D
:1028A000CDFC0090FDF756FE80464FF03332084BCA
:1028B000FDF734FD06460022064BFDF7A1FD044658
:1028C000FDF78CFE83465846BDE8F88F0000204196
:1028D00033330F4000A070402DE9FC5F0646002511
:1028E000FE49304600F0B2FE8146FC4800780528DB
:1028F0007ED1FA484078032806D0052879D00628EA
:1029000078D0082877D1E9E3F448807803287DD08F
:1029100004DC012807D002283AD13AE004286CD020
:102920001428F9D1CAE00520ED4908700320487049
:1029300001208870FEF77AFA82465046FEF7D7F9F2
:1029400005462846FDF706FE07463A460B46E5A033
:1029500002F022FA01959DF80700E149C8709DF840
:10296000060008719DF8050048719DF80400887103
:102970000721DB48FFF73AF900909DF80100D8499C
:10298000C8719DF8000008720922304602F0B6F8BE
:10299000B6E00520D24908700320487002208870F4
:1029A000FEF768FA82465046FEF7B8F90546284613
:1029B000FDF7D0FD07463A460B46D3A002F0ECF9EE
:1029C00001959DF80700C649C8709DF8060008717A
:1029D0009DF8050048719DF8040088710721C048E2
:1029E000FFF704F900909DF80100BD49C87105E0AA
:1029F000C9E387E0EDE0C4E308E03FE09DF80000B4
:102A000008720922304602F079F879E00520B449CD
:102A10000870032048708870FEF796F98346FEF729
:102A2000E1F982465046FEF763F905462846FDF770
:102A300091FD07463A460B46BBA002F0ADF9019561
:102A40009DF80700A649C8709DF8060008719DF81A
:102A5000050048719DF8040088710721A048FFF720
:102A6000C5F800909DF801009D49C8719DF80000CF
:102A700008720922304602F041F841E005209849E9
:102A800008700320487004208870FEF7BBFF0446DE
:102A900020789349C8706078087105219048FFF745
:102AA000A5F800909DF801008D4948719DF800003F
:102AB00088710722304602F021F821E0052088497C
:102AC00008700320487014208870A0A002F064F9F8
:102AD000FEF798FF0446A64800788149C870042193
:102AE0007F48FFF783F800909DF801007C4908714A
:102AF0009DF8000048710622304601F0FFFF00BF3C
:102B000000BF3FE375488078401F05285ED2DFE8AC
:102B100000F0031527394B007048C078312806D1E2
:102B2000FF209449087094A002F036F905E00020D7
:102B30009049087097A002F02FF948E06748C078E4
:102B4000312806D1FF209D4908709DA002F024F98C
:102B500005E0002099490870A0A002F01DF936E0B8
:102B60005E48C078312806D1FF20A3490870A3A091
:102B700002F012F905E000209F490870A8A002F0B9
:102B80000BF924E05548C078312806D1FF20AC4924
:102B90000870ACA002F000F905E00020A849087018
:102BA000B0A002F0F9F812E04C48C078312806D104
:102BB000FF20B4490870B4A002F0EEF805E0002050
:102BC000B0490870B6A002F0E7F800E000BF00BF0F
:102BD000D8E2424880780A380A2846D2DFE800F076
:102BE00005467C7B7A79454545783C49304600F07E
:102BF0002DFD81463948C0788DF8070037480079A7
:102C00008DF80600354840798DF805003348807905
:102C10008DF80400A84901980968FDF705FD01D267
:102C2000012700E00027A54901980968FDF7F2FC9B
:102C300001D2012000E0002007431FB13120A0494C
:102C4000087012E030209E4908709E490198086083
:102C50009DA002F0A1F84A4620492148FDF784FAD8
:102C60004A461F49304601F049FF35E21B493046CC
:102C700000F0ECFC81469C4901980968FDF7D4FC02
:102C800001D2012700E00027984901980968FDF763
:102C9000C1FC01D2012000E0002007431FB1312018
:102CA0008749087035E13020854908700B48C078A5
:102CB0008DF80700094800798DF80600074840792B
:102CC0008DF80500054880798DF80400884911E1E8
:102CD000FCE1F0E1E4E15EE11CE100004A010020DA
:102CE0004A090020494E7465726E657420203134A3
:102CF0003739412041637475616C2076616C75656C
:102D00003A25660D0A000000494E7465726E6574BE
:102D100020363237442041637475616C2076616CD3
:102D200075653A25660D0A00494E7465726E6574C4
:102D30002020303235442041637475616C20766107
:102D40006C75653A25660D0A0000000052656164E5
:102D500020696620776520617265207265616479FB
:102D600020746F20696E7370697265200D0A00000F
:102D70008E00002043000020436173652030352021
:102D8000746F206F70656E204465627567204D6FAB
:102D900064650A004361736520303520746F206FCD
:102DA00070656E204E6F726D616C2052756E6E692B
:102DB0006E67204D6F64650A00000000400000202F
:102DC0004361736520303620746F206F70656E200C
:102DD00076616C7665730D0A0000000063617365AF
:102DE00020303620746F20636C6F736520766176B7
:102DF0006C65730D0A000000460000204361736596
:102E00002030373A20746F20313437394120636FD6
:102E10006E74726F6C204D6F64650D0A00000000C7
:102E20004361736520303720746F2050455620630E
:102E30006F6E74726F6C206D6F64650D0A00000018
:102E400044000020436173652030382054696D6967
:102E50006E672054726967676572204D6F64650DF7
:102E60000A0000004361736520303820436F6D6DA8
:102E7000616E642054726967676572204D6F646586
:102E80000D0A0000450000204361736520303920A1
:102E900070756666206D6F6465206F6E0D0A0000A8
:102EA000436173652030392070756666206D6F64EC
:102EB00065206F66660D0A005C000020600000203F
:102EC0008D000020080000204361736520307830B9
:102ED000413A20736574203632374420707265732E
:102EE000737572650D0A0000540000205800002020
:102EF0000C00002001980860A4A001F04DFF4A4694
:102F0000AA49AB48FDF730F94A46A949304601F0D5
:102F1000F5FDE1E0A549304600F098FB8146A54962
:102F200001980968FDF780FB01D2012700E0002726
:102F3000A14901980968FDF76DFB01D2012000E06D
:102F4000002007431FB131209C49087022E0312046
:102F50009A4908709548C0788DF807009348007921
:102F60008DF80600914840798DF805008F488079EA
:102F70008DF8040092490198086092A001F00CFFBE
:102F80004A468A498A48FDF7EFF84A46884930465A
:102F900001F0B4FDA0E08548C0788DF807008348B3
:102FA00000798DF80600814840798DF805007F484A
:102FB00080798DF804008C4901980968FDF734FB8D
:102FC00001D2012700E00027884901980968FDF730
:102FD00021FB01D2012000E000200743EFBB844920
:102FE000019808607148C0798DF807006F48007A31
:102FF0008DF806006D48407A8DF805006B48807AA0
:103000008DF804007B4901980968FDF70DFB01D29A
:10301000012700E00027784901980968FDF7FAFACE
:1030200001D2012000E000200743B7B9734901989D
:1030300008605E48C07A8DF807005C48007B8DF818
:1030400006005A48407B8DF805005848807B8DF873
:1030500004006B490198096800E020E0FDF7E4FAFC
:1030600001D2012700E00027664901980968FDF7B1
:10307000D1FA01D2012000E0002007437FB9624964
:103080000198086061A001F087FE4A464749484818
:10309000FDF76AF84A464649304601F02FFD1BE02D
:1030A0004248C0786249087040480079487061A081
:1030B00001F072FE10E03D48C078674908703B4857
:1030C0000079487065A001F067FE05E030206E4988
:1030D00008703A49087000BF00BF53E03348807859
:1030E000112802D012284AD124E068A001F054FE31
:1030F00005202F4908700820487011208870624808
:103100000078012802D13120C87002E0302028491F
:10311000C87004212648FEF769FD00909DF8010063
:10312000234948719DF8000088710722304601F05C
:10313000E5FC24E05EA001F02FFE05201C4908708C
:1031400008204870122088701C480078012802D19D
:103150003120C87002E030201549C870042114489D
:10316000FEF744FD00909DF80100114948719DF85B
:10317000000088710722304601F0C0FC00BF00BF8C
:1031800000BF00BF00BFBDE8FC9F00004361736546
:103190002030783042205365742031343739412053
:1031A000466C6F7720446174610D0A004A0100206B
:1031B0004A0900206C000020700000208D000020D3
:1031C000140000204361736520307830633A207327
:1031D00065742070756666207072657373757265AC
:1031E000207365740D0A0000740000208000002028
:1031F0001C00002078000020840000202000002017
:103200007C000020880000202400002043617365BA
:103210002030783064205365742050494420706118
:1032200072616D65746572206F6B0D0A000000009D
:103230001A0000204361736520307830453A2053EE
:103240007461626C652072756E6E696E672076615E
:103250006C7665730D0A00001800002043617365E9
:1032600020307830663A5365742050756666204D7C
:103270006F646520617578696C6961727920566147
:103280006C76650D0A0000008C00002043617365B8
:1032900020307831313A2073657420636F6D6D751D
:1032A0006E6963617465206572726F720D0A000049
:1032B0004361736520307831323A2073657420762B
:1032C000616C7565206F766572206572726F720D24
:1032D0000A00000001460020034A506820F44040E4
:1032E00008435060704700000010024029B1064AB0
:1032F000D2690243044BDA6104E0034AD269824393
:10330000014BDA61704700000010024029B1064A03
:1033100092690243044B9A6104E0034A9269824332
:10332000014B9A61704700000010024029B1064A23
:10333000D2680243044BDA6004E0034AD268824355
:10334000014BDA6070470000001002400149C86478
:10335000704700000000424210B500F03BF84FF407
:10336000803000F0F9F800F055F90446012C2FD117
:103370001020FDF79BFF0220FDF7A6FF002000F0C4
:10338000DFF8002000F01AF9A00200F00BF94FF46A
:10339000E011200400F024F9012000F01BF900BF27
:1033A000392000F0A7F80028FAD0022000F026F912
:1033B00000BF00F0BDF80828FBD10120FFF7C6FFD1
:1033C00001210846FFF792FF01213D20FFF79EFFF4
:1033D00010BD00000F48006840F001000D49086072
:1033E000084640680C4908400A4948600846006899
:1033F0000A490840074908600846006820F4802010
:1034000008600846406820F4FE0048604FF41F0042
:1034100088607047001002400000FFF8FFFFF6FED2
:1034200030B500210022002400232D4D6D6805F0E9
:103430000C0121B1042905D0082923D105E0294D2B
:10344000056022E0274D05601FE0254D6D6805F4FD
:103450007012234D6D6805F48034022505EB92420D
:103460001CB9214D554305600BE01D4D6D6805F4F9
:1034700000351DB11C4D5543056002E0194D554303
:10348000056002E0174D056000BF00BF144D6D6878
:1034900005F0F0010909154D6B5C0568DD404560DC
:1034A0000F4D6D6805F4E061090A104D6B5C4568CD
:1034B000DD4085600A4D6D6805F46051C90A0B4D09
:1034C0006B5C4568DD40C560054D6D6805F44041A5
:1034D000890B074D6B5CC568B5FBF3F5056130BD25
:1034E0000010024000127A0000093D00CA000020CE
:1034F000DA00002010B501460022002300204A1106
:10350000012A02D1094C236806E0022A02D1074CA5
:10351000236A01E0054C636A01F01F020124944014
:103520001C400CB1012000E0002010BD0010024042
:103530000248406800F00C00704700000010024094
:1035400001460020034A506820F0F0000843506014
:1035500070470000001002401149096821F48031D1
:103560000F4A11601146096821F480211160B0F5FD
:10357000803F03D0B0F5802F0ED106E008490968DE
:1035800041F48031064A116007E00549096841F4B9
:10359000A021034A116000E000BF00BF7047000097
:1035A0000010024001460020034A506820F4E06009
:1035B00008435060704700000010024001460020A0
:1035C000034A506820F4605040EAC10050607047E0
:1035D00000100240014908667047000000004242A6
:1035E00002460020044B586820F47C1042EA010394
:1035F0001843014B586070470010024001460020FC
:10360000034A506820F003000843506070470000F0
:103610000010024038B5002000900024002500BFB3
:103620003120FFF767FF05460098401C0090009886
:10363000B0F5A06F01D0002DF2D03120FFF75AFF76
:1036400008B1012400E00024204638BD2DE9F047F0
:1036500080460D462621404600F0DEF8064616B9A3
:103660000020BDE8F08740F2B450864200DD0646F7
:103670002821404600F0D0F80746B946C7F30A07AC
:103680004FF400413B48FDF751FF384600F058F930
:10369000182101EB4811C8B200F042F9364800F099
:1036A000DCF900F0FF0AB819B0F5006F11DA002458
:1036B0000CE0002000F034F92F4800F0CEF900F0C3
:1036C000FF0A85F800A06D1C601C84B2B442F0DBD8
:1036D0003BE0C7F5006087B200240CE0002000F05A
:1036E0001FF9254800F0B9F900F0FF0A85F800A09D
:1036F0006D1C601C84B2BC42F0DB4FF400411D48DD
:10370000FDF716FF4FF400411A48FDF70FFF0020A8
:1037100000F016F9182101EB4811C8B200F000F9C9
:10372000154800F09AF900F0FF0A0CE0002000F0C4
:10373000F7F8114800F091F900F0FF0A85F800A0B1
:103740006D1C601C84B2B442F0DB4FF400410948A8
:10375000FDF7EEFE09EB06001FFA80F94A46282124
:10376000404601F0A9FA40220121404601F084FAC6
:10377000304676E700080140003C004070B5044642
:103780004FF400410D48FDF7D1FE204600F0D8F877
:10379000012000F0C5F80A4800F05FF9C5B200202A
:1037A00000F0BEF8064800F058F9C5B24FF40041E9
:1037B0000248FDF7BDFE284670BD0000000801402C
:1037C000003C004070B504460D464FF400411048DF
:1037D000FDF7ACFE284600F0B3F8082101EB4411D8
:1037E000C9B241F0010000F09BF80A4800F035F939
:1037F000C6B2002000F094F8064800F02EF9C6B2D8
:103800004FF400410248FDF793FE304670BD0000C2
:1038100000080140003C004070B505460E464FF4DC
:1038200000411648FDF782FE304600F089F8082175
:1038300001EB4511C9B241F0020000F071F81048E7
:1038400000F00BF90446002000F06AF80C4800F084
:1038500004F90446002000F063F84FF6FF7000EA18
:103860000424074800F0F9F8204484B24FF40041E2
:103870000248FDF75DFE204670BD000000080140D3
:10388000003C004000B587B001210920FFF73EFD54
:103890004FF42040ADF8040003208DF806001820F6
:1038A0008DF8070001A91C48FDF75AFD4FF4804030
:1038B000ADF8040048208DF8070003208DF80600BD
:1038C00001A91548FDF74CFD01218803FFF70EFD06
:1038D0000020ADF808004FF48270ADF80A00002017
:1038E000ADF80C00ADF80E00ADF810004FF400700C
:1038F000ADF812000020ADF81400ADF81600072056
:10390000ADF8180002A9054800F0ACF80121034801
:1039100000F024F807B000BD000C01400038004062
:1039200010B504462146054800F09AF800BF8021F2
:10393000024800F089F80128F9D010BD003C004091
:1039400070B504462546E11704EB1161C1F3072069
:10395000FFF7E6FFE0B2FFF7E3FF70BD21B1028899
:1039600042F04002028004E002884FF6BF731A4022
:103970000280704700B587B00121C803FFF7B6FC8D
:1039800001210920FFF7C2FC01212B48FDF774FD3E
:103990000820ADF8180003208DF81A0018208DF8C3
:1039A0001B0006A92548FDF7DBFC1020ADF8180028
:1039B00006A92248FDF7D4FC2020ADF8180006A97E
:1039C0001E48FDF7CDFC4FF40040ADF81800032071
:1039D0008DF81A0010208DF81B0006A91848FDF775
:1039E000BFFC4FF400411648FDF7A2FD0020ADF8E2
:1039F00004004FF48270ADF806000020ADF8080016
:103A0000ADF80A00ADF80C004FF40070ADF80E00F0
:103A10000820ADF810000020ADF812000720ADF826
:103A2000140001A9074800F01DF801210548FFF71F
:103A300095FF07B000BD000000023000000C0140FF
:103A400000080140003C00400246002013890B4062
:103A50000BB1012000E000207047014688897047C3
:103A60008181704710B50022028802F441520B8810
:103A70004C8823438C882343CC8823430C892343DD
:103A80004C8923438C892343CC8923431A430280E6
:103A9000838B4FF2FF74234083830B8A038210BD14
:103AA000024600BF108900F002000028FAD0918180
:103AB00000BF108900F001000028FAD09089C0B240
:103AC0007047704710B500F001F810BD0CB500202C
:103AD000019000903348006840F48030314908601C
:103AE00000BF3048006800F4003000900198401C8E
:103AF0000190009818B90198B0F5A06FF1D129484C
:103B0000006800F4003010B10120009001E00020B6
:103B100000900098012843D12348006840F010002D
:103B2000214908600846006820F003000860084644
:103B3000006840F0020008601A484068194948606F
:103B40000846406848600846406840F48060486025
:103B50000846406820F47C1048600846406840F4FD
:103B6000E81048600846006840F08070086000BFB8
:103B70000C48006800F000700028F9D0094840683F
:103B800020F00300074948600846406840F0020002
:103B9000486000BF0348406800F00C000828F9D1D5
:103BA0000CBD000000100240002002402DE9FF4F34
:103BB00083B0064688469146DDE91147109DB2461E
:103BC0004FF0000B71E0BBF1000F40D104EBD4715A
:103BD000384A1288A2EB6101B14204DB35494988B9
:103BE000091B414502DA07B0BDE8F08F287880282C
:103BF00002DD4FF0010B58E028780D2806D108EBC4
:103C000004001FFA80F856466D1C1EE0102C0DDDD6
:103C1000102128788DE883004A4641463046069BAD
:103C2000FEF74AFC06F1080086B20EE028788DE81F
:103C300091004A4641463046069BFEF73DFC204631
:103C400004EBD07106EB61018EB26D1C2DE01948BA
:103C50000088001BB04204DB16484088001B40452A
:103C600000DAC0E74FF0000B202C08D1CDE9005757
:103C70004A4641463046069BFDF76CFD12E0182C83
:103C800008D1CDE900574A4641463046069BFDF72C
:103C9000D5FC07E0CDE900574A4641463046069B31
:103CA000FDF748FCAD1C301986B2287800288AD16F
:103CB00000BF98E73001002010B504460122002122
:103CC000204600F0D9FF01221146204600F0D4FF23
:103CD0000520FDF793F903212046FFF773FD132814
:103CE00006D010220121204600F0C6FF002010BDA2
:103CF00004220121204600F0BFFFFF20F7E700006B
:103D000010B5044640F2B4521221002000F0D4FF56
:103D1000082C17D2DFE804F0040F10111213141549
:103D20000A484178007801EB002082B2042100208B
:103D300000F0C2FF07E006E005E004E003E002E077
:103D400001E000E000BF00BF10BD00000601002040
:103D500010B5044601220021204600F08DFF01220B
:103D60001146204600F088FF0520FDF747F90321A2
:103D70002046FFF727FD132806D0102201212046F8
:103D800000F07AFF002010BD02220121204600F041
:103D900073FF0520FDF732F903212046FFF712FDDE
:103DA000142806D010220121204600F065FF0020D3
:103DB000E9E7FF20E7E710B504460222002120468C
:103DC00000F05AFF01221146204600F055FF052061
:103DD000FDF714F903212046FFF7F4FC222806D052
:103DE00010220121204600F047FF002010BDFF20D7
:103DF000FCE7000030B587B0FDF704FE0546FDF78F
:103E00009FFE04462046FDF75FFDFDF70FF8049086
:103E1000FDF730F80590FCF7E5FF06900E480068C6
:103E200001900E48006802900D4803900498FCF73A
:103E30005EFF0C4908600598FCF770FF0A490860AE
:103E40000698FCF755FF0949086001A904A8FCF78A
:103E500081FE07B030BD0000AC00002094000020BF
:103E6000000040414C00002048000020500000208D
:103E70003EB5FDF7C7FD0446FCF7D8FF0090FCF700
:103E8000F9FF0190FCF7AEFF02900098FCF72FFFBE
:103E9000064908600198FCF741FF0549086002984F
:103EA000FCF726FF034908603EBD00004C000020DF
:103EB0004800002050000020042808D14FF0E021E5
:103EC000096941F004014FF0E022116107E04FF071
:103ED000E021096921F004014FF0E02211617047EF
:103EE0007047000010B51348006840F00100114908
:103EF000086008464068104908400E494860084676
:103F000000680E4908400B4908600846006820F424
:103F1000802008600846406820F4FE0048604FF4A6
:103F20001F008860FFF7CEFD4FF000600449086075
:103F300010BD0000001002400000FFF8FFFFF6FE79
:103F400008ED00E010B5FFF707FAFEF73AFCFFF7BF
:103F500011FD00F003F900F081FC10BD10B5012146
:103F6000880700F02CF801280DD10121800700F00E
:103F700017F805480068401C0349086003480068BA
:103F8000401C0249086010BD180100201C010020DF
:103F900010B50121014800F003F810BD00040040F5
:103FA000CA430282704721B1028842F001020280B6
:103FB00004E002884FF6FE731A400280704730B565
:103FC0000246002000230024158A05EA0103958992
:103FD00005EA010413B10CB1012000E0002030BD5E
:103FE0001AB183890B43838102E083898B438381E8
:103FF0007047000070B5002400220023058C4FF6A6
:10400000EF7635400584028C8388048B48F6FF7573
:104010002C404FF6FF452C400D884FF6FF7606EA00
:1040200005252C434FF6DF752A400D8906EA051554
:104030002A434D8806EA05152A43154DA84202D0A9
:10404000144DA8421DD14FF67F752A404D894FF679
:10405000FF7606EA05152A434FF6BF752A408D887C
:1040600006EA05152A434FF6FF352B404FF2FF7540
:104070002B408D8906EA85052B43CD8906EA850507
:104080002B4383800483CD880587028470BD0000A4
:10409000002C0140003401400A460021018B4FF200
:1040A000FF7319404FF6FF7303EA0223194301839C
:1040B0007047018770470000002202881D4B98421C
:1040C0000ED01D4B98420BD0B0F1804F08D01B4B47
:1040D000984205D01A4B984202D01A4B984204D10C
:1040E0004FF68F731A404B881A43174B984207D0EC
:1040F000164B984204D04FF6FF431A40CB881A4320
:1041000002808B8883850B8803850A4B98420BD0ED
:10411000094B984208D00E4B984205D00D4B98425F
:1041200002D00D4B984201D10B7A03860123838282
:1041300070470000002C01400034014000040040A2
:1041400000080040000C0040001000400014004037
:104150000040014000440140004801400EB50121EB
:104160000846FFF7C3F80920ADF8040041F61F40E8
:10417000ADF800000020ADF80600ADF80200694679
:104180004FF08040FFF798FF012211469007FFF79C
:1041900027FF01218807FFF706FF0EBD10B54FF47A
:1041A00080710848FDF7B0F9012806D1FF200649C3
:1041B000087006A000F0F0FD02E00020024908703F
:1041C00010BD0000000801404500002054696D69E1
:1041D0006E67207369676E616C2069732068657211
:1041E00065200D0A0000000008B5FFF77BFE0121E5
:1041F0000820FFF78BF84FF48070ADF800002820FE
:104200008DF8030003208DF8020069460148FDF790
:10421000A7F808BD0008014010B540210D4800F086
:104220004FF840F225510B4800F06CF880B1094876
:1042300000F024F90849087008460178054800F0A4
:1042400022F900BF8021034800F04FF80028F9D080
:1042500010BD000000380140C800002010B540210A
:10426000144800F02DF840F22551124800F04AF8A9
:10427000F0B1104800F002F90F49087008210F480A
:10428000FDF756F9012001F059FB0B480178094868
:1042900000F0F9F800BF8021064800F026F8002859
:1042A000F9D0022001F04AFB08210448FDF73EF94D
:1042B00010BD000000440040C90000200020014063
:1042C00001F40072B2F5007F00D100BFCA43028042
:1042D000704721B1828942F40052828104E08289D0
:1042E0004DF6FF731A408281704702460020B1F5F7
:1042F000007F00D100BF13880B400BB1012000E00C
:104300000020704770B502460024002300250020DD
:1043100040F66A16B14200D100BFC1F3421501F068
:104320001F03012606FA03F3012D02D196893340BB
:1043300006E0022D02D1168A334001E0968A33400E
:104340000C12012606FA04F41688344013B10CB19D
:10435000012000E0002070BDF0B5034600240026D7
:104360000025002040F66A17B94200D100BF184668
:10437000C1F3421401F01F06012707FA06F5012CCC
:1043800001D10C3004E0022C01D1103000E01430D7
:104390001AB107682F43076002E00768AF43076060
:1043A000F0BD00002DE9F04786B005460E4600241A
:1043B000A24600BFA1460027B08900B100BF2F462A
:1043C0002C8A4CF6FF700440F08804432C82AC89A0
:1043D0004EF6F3100440B0883189084371890843D0
:1043E0000443AC81AC8A4FF6FF400440B0890443DB
:1043F000AC8201A8FFF714F81F48874202D1DDF80C
:1044000010A001E0DDF80CA0A88900F4004040B144
:104410000AEBCA0000EB0A1031684900B0FBF1F862
:1044200007E00AEBCA0000EB0A1031688900B0FB14
:10443000F1F86420B8FBF0F004012009642101FBCD
:104440001089A88900F4004040B1322000EBC90077
:10445000B0FBF1F000F00700044308E0322000EB6D
:1044600009106421B0FBF1F000F00F0004432C812F
:1044700006B0BDE8F087000000380140014688889A
:10448000C0F308007047C1F308028280704700BF84
:10449000FEE700002DE9F04F87B083460C46154635
:1044A0001E46DDF840900020049001F07BFF21467D
:1044B0005846FBF7BDFE0746FEF7ECF98246284654
:1044C000FCF748F807463A460B463EA000F064FC6D
:1044D0003046FCF73FF807463A460B463FA000F04F
:1044E0005BFC4846FCF736F807463A460B4641A0C7
:1044F00000F052FC2046FCF72DF807463A460B46E2
:1045000042A000F049FC5846FCF724F807463A461A
:104510000B4645A000F040FC29465046FBF78EFEB6
:10452000059031465046FBF789FE0746444801682E
:104530003846FBF72BFE424908608AF0004749469F
:104540003846FBF77BFE04903E4804603C48016817
:104550000598FBF71BFE07460499FBF717FE03902F
:1045600039490398FBF76AFE07463849FBF70EFE08
:1045700002900298FBF7EEFF07460022344BFBF750
:104580003FFF02460B46CDE9000132A000F004FCDB
:1045900036490298FCF748F801D234480290344971
:1045A0000298FCF737F801D2314802900298FBF7E5
:1045B000BDFF87B239462F48FFF77BFD039807B050
:1045C000BDE8F08F536574205020706172616D6595
:1045D0007465723A25660D0A000000005365742068
:1045E0004920706172616D657465723A25660D0AC5
:1045F00000000000536574204420706172616D6595
:104600007465723A25660D0A0000000041637475F6
:10461000616C2050726573737572652076616C757C
:10462000653A25660D0A0000536574205072657363
:10463000737572652076616C75653A25660D0A00A2
:104640002001002028010020000034430000E14444
:104650000020AC40536574204475747920706172F9
:10466000616D657465723A25660D0A000000344577
:104670000000B443000400403EB501460022002083
:104680000DE04B78034103F001031BB101230DF84A
:10469000003002E000230DF80030431CD8B2082897
:1046A000EFDB002011E00B78034103F001032BB195
:1046B000012400F108030DF8034004E0002400F198
:1046C00008030DF80340431CD8B20428EBDB9DF827
:1046D0000030012B02D1434C236002E00023414C07
:1046E00023609DF80130012B03D13E4C0834236038
:1046F00003E000233B4C083423609DF80230012B7B
:1047000003D1384C283C236003E00023354C283C7F
:1047100023609DF80330012B02D1334C236002E06B
:104720000023314C23609DF80430012B03D12E4C23
:10473000241F236003E000232B4C241F23609DF8DB
:104740000530012B03D1274C241D236003E00023F7
:10475000244C241D23609DF80630012B03D1224CEC
:104760001834236003E000231F4C183423609DF8A5
:104770000730012B02D11D4C236002E000231B4CAB
:1047800023609DF80830012B03D1164C243C236094
:1047900003E00023134C243C23609DF80930012BD7
:1047A00003D1114C1434236003E000230E4C143465
:1047B00023609DF80A30012B03D10C4C1C3423607C
:1047C00003E00023094C1C3423609DF80B30012BBF
:1047D00003D1064C1834236003E00023034C183443
:1047E00023603EBDB40122428401214280812142E6
:1047F00008B5FFF777FB01211C20FEF787FDC320DA
:10480000ADF8000010208DF8030003208DF80200A1
:1048100069460F48FCF7A4FDC120ADF80000102048
:104820008DF8030003208DF8020069460948FCF763
:1048300097FD4EF21800ADF8000010208DF803002F
:1048400003208DF8020069460348FCF789FD08BD86
:1048500000080140000C0140001001400EB54FF46B
:104860008070ADF8080001208DF80A0010208DF846
:104870000B0002A91448FCF773FD4FF48071124835
:10488000FCF754FE4FF40070ADF8080003208DF8DB
:104890000A0048208DF80B0002A90B48FCF760FDC8
:1048A00009210120FCF73CFD4FF40070009000202E
:1048B0008DF804000C208DF8050001208DF806000D
:1048C0006846FCF7A9FC0EBD000C014010B54FF482
:1048D00080710B48FCF72AFE3220FCF78FFB4FF467
:1048E00080710748FCF724FEC820FCF787FB00BF57
:1048F0002E20FEF743FF00F001000028F8D010BD85
:10490000000C014010B500248021002000F080F947
:104910000A20FCF773FB04221C49012000F018FA5E
:1049200004221B49052000F013FA06221949092028
:1049300000F00EFA042218490F2000F009FA00BF17
:104940000BE002221E21204600F096F902221F21D0
:10495000204600F091F9601CC4B2082CF1DB4FF442
:10496000FA61192000F06EF908211B2000F050F9BF
:10497000C021162000F04CF90121182000F048F960
:104980001F222C21002000F077F910BDF400002038
:10499000F8000020FC0000200201002010B5FFF705
:1049A000B1FFFCF737FB0020FFF7AAF910BD0000AC
:1049B00070B500BF00202B4908701520FEF7DEFE01
:1049C000054605F0F001152000F022F91720FEF74A
:1049D000D5FE054605F0010000283DD0022100204B
:1049E000FEF7F0FE044622460221002000F044F9C2
:1049F00004F0010028B11C48007840F002001A4978
:104A0000087004F0020050B110220121002000F0D3
:104A100033F90020FFF774F900201349087004F0FF
:104A2000100028B11148007840F002000F490870CA
:104A300004F0040028B10D48007840F001000B4953
:104A4000087004F0080038B110220121002000F0A5
:104A500013F90020044908701720FEF78FFE00B1FB
:104A6000A8E770BD170100201501002016010020E5
:104A700008B517208DF8000000208DF801000120F6
:104A80008DF802008DF803006846FDF7B5FE08BDFD
:104A900010B518480078F8B91748007860B90020B8
:104AA000FFF756F9FF2803D101201249087020E0D2
:104AB0000020104908701CE00F48007801280CD134
:104AC0000020FFF7F9F8FF2803D1012009490870F9
:104AD0000FE00020074908700BE00020FFF76BF99A
:104AE000FF2803D103200349087002E00020014998
:104AF000087010BD15010020140100202DE9F047B9
:104B000007460D46904600213846FEF75BFE00F052
:104B10000F0022280ED03B4A0C21384600F0ECF85A
:104B200039484178007801EB002082B210213846E4
:104B300000F0C2F824213846FEF76EFE0646B14664
:104B4000C6F30A064FF400413048FCF7EFFC30464C
:104B5000FEF7F6FE102101EB4711C9B241F0040047
:104B6000FEF7DEFE06EB0800B0F5006F0ADA00245F
:104B700005E015F8010BFEF7D3FE601C84B2444536
:104B8000F7DB2AE0C6F5006086B2002405E015F8E0
:104B9000010BFEF7C5FE601C84B2B442F7DB4FF494
:104BA00000411A48FCF7C4FC4FF400411748FCF7D9
:104BB000BDFC0020FEF7C4FE102101EB4711C9B275
:104BC00041F00400FEF7ACFE05E015F8010BFEF71E
:104BD000A7FE601C84B24445F7DB4FF400410B484C
:104BE000FCF7A6FC09EB08001FFA80F94A462421CD
:104BF000384600F061F820220121384600F03CF8E8
:104C0000BDE8F0870E0100201201002000080140DD
:104C100070B505460C464FF400410948FCF786FC88
:104C20002846FEF78DFE0520FEF77AFE2046FEF7A9
:104C300077FE4FF400410248FCF77AFC70BD00009B
:104C40000008014070B505460C464FF40041094884
:104C5000FCF76CFC2846FEF773FE0620FEF760FEAC
:104C60002046FEF76DFE4FF400410248FCF760FC61
:104C700070BD00000008014070B504460D461646A0
:104C80004FF400410B48FCF751FC2846FEF758FE54
:104C9000082101EB4411C9B241F00500FEF740FEC6
:104CA0003046FEF73DFE4FF400410248FCF740FC61
:104CB00070BD00000008014070B504460D46164660
:104CC0004FF400410B48FCF731FC2846FEF738FE54
:104CD000082101EB4411C9B241F00600FEF720FEA5
:104CE0003046FEF72DFE4FF400410248FCF720FC51
:104CF00070BD00000008014070B505460E46144620
:104D00004FF400411148FCF711FC3046FEF718FE45
:104D1000082101EB4511C9B241F00700FEF700FE82
:104D200014F8010BFEF7FCFD14F8010BFEF7F8FD7B
:104D300014F8010BFEF7F4FD14F8010BFEF7F0FD7B
:104D40004FF400410148FCF7F3FB70BD000801403F
:104D50002DE9F04107460C4615464FF400410D4839
:104D6000FCF7E4FB3846FEF7EBFD0420FEF7D8FD28
:104D7000002605E014F8010BFEF7D2FD701C86B288
:104D8000AE42F7DB4FF400410248FCF7D1FBBDE82F
:104D9000F0810000000801400FB4054B10B503A9D5
:104DA000044A029800F020F910BC5DF814FB0000E2
:104DB000755900082C0100200FB4084B10B504A948
:104DC00002AA039800F010F9044602A9002000F09E
:104DD000A2FC204610BC5DF814FB00001757000829
:104DE00002E008C8121F08C1002AFAD170477047B4
:104DF000002001E001C1121F002AFBD170472DE9FC
:104E0000F04104460D4616461F46DDF81880EA19A3
:104E100091B2A21990B24246FCF720FDEA1991B274
:104E2000A21B90B24246FCF719FDEA1B91B2A219EF
:104E300090B24246FCF712FDEA1B91B2A21B90B25F
:104E40004246FCF70BFDAA1991B2E21990B2424614
:104E5000FCF704FDAA1991B2E21B90B24246FCF79E
:104E6000FDFCAA1B91B2E21990B24246FCF7F6FC97
:104E7000AA1B91B2E21B90B24246FCF7EFFCBDE8E0
:104E8000F08100002DE9FF5FDDE90220010DDDF872
:104E900038B0024318D044F61050A1F2FF3141431C
:104EA0000D140F98012820D0A5EB0B00401C5FEAE1
:104EB000000A4FF00004474EDFF81C91A046504610
:104EC00016D5CAF1000728E00F98012443A2012853
:104ED00008D0002100980F9BC0E90021C0E90243DF
:104EE000BDE8FF9F6FEA0B01F4E7CBF10000DEE7BE
:104EF000074612E0F80707D02246334640464946A7
:104F0000FBF70CFA8046894622463346104619467E
:104F1000FBF704FA04460E467F10002FEAD1DDE9C4
:104F20000201BAF1000F42464B4602DAFBF7F6F9EE
:104F300001E0FBF765FA04460E460022284BFBF71A
:104F400035FB03D84FF0FF30014607E00022254B28
:104F500020463146FBF74DFCFBF7F2FC102409E03C
:104F6000002C0ADB0A220023FBF77EFB019B303278
:104F70001A55641E50EA0102F2D1641C019AC4F170
:104F8000110314440F9A012A03D0012208430DD1C2
:104F90000AE0084304D000204FF0110B0F9080E787
:104FA000A3EB0B056D1E0DE05B4504DD4FF0000229
:104FB00005F1010504E003DA4FF00002A5F1010557
:104FC000002AECD000980F99C0E90231C0E90045F1
:104FD00086E70000000024400000F03F30000000A1
:104FE0000000F0430000E03F2DE9FF4F95B09B46E5
:104FF0008946064600250FE2252877D1002427465A
:10500000F84A0121059400E0044316F8013F203BD3
:1050100001FA03F01042F7D130782A2811D06FF04E
:105020002F033078A0F13002092A16D8059A44F0EF
:10503000020402EB820203EB42021044761C05904C
:10504000EFE759F8042B0592002A03DA504244F4A2
:105050000054059044F00204761C30782E2816D1B6
:1050600016F8010F44F004042A280DD06FF02F0227
:105070003078A0F13003092B09D807EB870302EB46
:105080004303C718761CF3E759F8047B761C307885
:105090006C280FD006DC4C2817D068280DD06A2861
:1050A00014D104E0742810D07A280FD10DE044F414
:1050B00000140AE044F4801401E044F440147278CF
:1050C000824202D104F58014761C761C3078662862
:1050D0000BD013DC582877D009DC002875D0452880
:1050E000F6D04628F4D047281AD19DE118E063286D
:1050F00035D0642879D0652812D195E1702873D015
:1051000008DC6728F1D069286FD06E280DD06F2891
:1051100006D1B5E073282CD0752875D0782874D0C6
:105120005A46179990476D1C75E1C4F30250022846
:1051300009D003280DD0D9F8001004280DD00D6037
:1051400009F1040967E1D9F80010EA17C1E9005232
:10515000F6E7D9F800100D80F2E70D70F0E719F8C6
:10516000041B8DF8001000208DF80100EA46012094
:1051700003E059F804AB4FF0FF3061074FF0000136
:1051800002D40DE008F101018846B9420FDA8045EA
:10519000F8DB1AF808100029F4D108E008F1010141
:1051A00088468142FADB1AF808100029F6D10598E2
:1051B0005B46A0EB080721463846179A00F094FAA0
:1051C000284400EB080507E04DE029E10DE01AF85E
:1051D000010B5A4617999047B8F10108F7D25B4680
:1051E00021463846179A13E142E00A220092C4F39E
:1051F00002524FF0000A022A08D059F804CB032AC1
:105200004FEAEC710AD00DE029E02AE009F107012C
:1052100021F00702F2E802C1914609E00FFA8CFC86
:105220004FEAEC71042A03D14FFA8CFC4FEAEC717F
:10523000002907DA0A460021DCF1000C61EB0201CB
:105240002D2202E0220504D52B228DF80420012214
:1052500003E0E20701D02022F7E7904659E00A2157
:1052600002E010220DE010214FF0000A00910BE047
:1052700010224FF0000A44F004040827009203E0D3
:1052800008224FF0000A0092C4F30252022A05D00D
:1052900059F804CB0021032A08D009E009F10701DD
:1052A00021F00702F2E802C1914605E01FFA8CFCEA
:1052B000042A01D10CF0FF0C4FF00008220728D57A
:1052C000702806D0009B83F0100353EA0A0305D030
:1052D0000EE040228DF80420012208E05CEA010281
:1052E00006D030228DF804208DF805000222904669
:1052F000009B83F0080353EA0A030AD15CEA010227
:1053000001D1620705D530228DF804204FF0010845
:105310007F1E582804D034A003900EA802900DE000
:1053200036A0F9E753466046009AFBF79DF984469C
:105330000398825C0298401E029002705CEA0100B1
:10534000F0D1029806A9081A00F1200A600702D5D8
:1053500024F4803400E00127574502DDA7EB0A0062
:1053600000E0002000EB0A01009005984144401A3B
:105370000590E00306D45B462146179A059800F095
:10538000B3F90544002706E001A85A46C05D179905
:1053900090476D1C7F1C4745F6DBE0030CD55B4650
:1053A0002146179A059800F09FF9054404E0302043
:1053B0005A46179990476D1C0099481E0090002985
:1053C000F5DC08E0029802995A460078491C0291DF
:1053D000179990476D1CBAF10001AAF1010AF1DC9E
:1053E00065E10000092801003031323334353637A9
:1053F0003839616263646566000000003031323321
:1054000034353637383941424344454600000000C0
:1054100000F058F90544761C307800287FF4ECAD94
:1054200019B02846BDE8F08F620700D4062709F1BD
:10543000070222F0070CFCE80223E14603F00048D3
:105440005FEA080C02D00FF2702C0DE05FEA045CFA
:1054500002D50FF2682C07E05FEAC47C02D00FF29D
:10546000602C01E0AFF2700C4FF0FF3823F00043E6
:10547000CDF850C065280CD006DC452809D0462858
:105480001DD047283DD13DE0662818D067287ED141
:1054900038E00021112F01DB112000E0781CCDE95C
:1054A000000106A90EA8FFF7EDFCDDE90F010E9A39
:1054B00003910021009207F1010A04914DE04FF0A1
:1054C00000400097CDE9011006A90EA8FFF7DAFC0D
:1054D000DDE90F0203920E9B11990022DDF80CA06A
:1054E0000093049211B9791C00EB010AB7EB0A0092
:1054F00004D4C0F1FF3007F1010A0490AAEB0700C1
:10550000019044E0012F00DA01270021112F01DD75
:10551000112000E03846CDE9000106A90EA8FFF7EA
:10552000B1FCDDE90F010E9A039100210491009274
:10553000BA4621070CD40399514500DA8A46BAF1DC
:10554000010F05DD009AAAF10101515C302908D054
:10555000B84202DA10F1040F06DA0121CDE9011098
:1055600015E0AAF10101E9E7002805DC04990144EE
:105570000491AAEB000102E0411C514500DD8A467E
:105580000499401A401C01904FF0004002902007FF
:1055900004D40198504501DBCDF8048000208DF83B
:1055A0004F0002980DF14F07B0F1004F25D02B208E
:1055B0000E9002984FF0020800280CDA4042029048
:1055C0002D200E9007E00A210298FBF737F83031C2
:1055D000029007F8011DB8F10001A8F10108F2DC02
:1055E00002980028EFD1791E0E980870307800F0EC
:1055F000200040F0450007F8020D12A8C01B00F182
:1056000007081498007800B1012000EB0A01019806
:1056100001EBE07105984144401A401E0590E003FB
:1056200006D45B462146179A059800F05DF80544BC
:105630001498007818B15A46179990476D1CE003EA
:1056400024D55B462146179A059800F04DF805448D
:105650001CE00498002807DBDDE90301884203DD34
:105660000098405C179901E0179930205A469047FE
:10567000049805F10105401C04900198401E01901A
:1056800004D12E205A46179990476D1CBAF100019B
:10569000AAF1010ADDDC05E017F8010B5A4617995B
:1056A00090476D1CB8F10001A8F10108F4DC5B46DD
:1056B0002146179A0598ABE62D0000002B0000004C
:1056C000200000002DE9F041044600251E46174643
:1056D000880404D405E039462020B0476D1C641EC0
:1056E000F9D52846BDE8F0812DE9F04104460025B2
:1056F0001E469046C80301D5302700E020278804C5
:1057000004D505E041463846B0476D1C641EF9D506
:105710002846BDE8F0810A68531C0B601070704782
:1057200000B587B0012140F21120FDF7EFFD4FF4E5
:105730000040FDF7CFFD0120ADF8180000208DF8E6
:105740001B0003208DF81A0006A91B48FBF708FE72
:10575000002001908DF808008DF809004FF46020BA
:1057600003900020049001208DF8140001A9134833
:10577000FBF7C8F9072301220A211048FBF746FA74
:1057800001210E48FBF762F90C48FBF79BFA00BFBA
:105790000A48FBF7ACF90028FAD10848FBF7A2FA4F
:1057A00000BF0648FBF78CF90028FAD10121034815
:1057B000FBF78DFA07B000BD001001400024014046
:1057C00000B587B0012140F21120FDF79FFD4FF495
:1057D0000040FDF77FFD0220ADF8180000208DF895
:1057E0001B0003208DF81A0006A91B48FBF7B8FD23
:1057F000002001908DF808008DF809004FF460201A
:1058000003900020049001208DF8140001A9134892
:10581000FBF778F9072301220B211048FBF7F6F973
:1058200001210E48FBF712F90C48FBF74BFA00BFB9
:105830000A48FBF75CF90028FAD10848FBF752FA4E
:1058400000BF0648FBF73CF90028FAD101210348C4
:10585000FBF73DFA07B000BD0010014000240140F5
:1058600000B587B0012140F21120FDF74FFD4FF444
:105870000040FDF72FFD0420ADF8180000208DF842
:105880001B0003208DF81A0006A91B48FBF768FDD2
:10589000002001908DF808008DF809004FF4602079
:1058A00003900020049001208DF8140001A91348F2
:1058B000FBF728F9072301220C211048FBF7A6F972
:1058C00001210E48FBF7C2F80C48FBF7FBF900BFBB
:1058D0000A48FBF70CF90028FAD10848FBF702FA4E
:1058E00000BF0648FBF7ECF80028FAD10121034875
:1058F000FBF7EDF907B000BD0010014000240140A6
:1059000010B504466FF00400FEF7D6FAE11704EB79
:105910005171C1F3C701074A11701046007800EBBE
:105920004001C1EBC0104FF6FF7101EAC00002490F
:10593000088010BDDE000020E0000020014642F299
:1059400028324A434FF0E0235A6101221A610022B3
:105950009A6100BF4FF0E022106900F001021AB115
:1059600000F48032002AF5D000224FF0E0231A61C3
:105970009A61704770B504460D46E1B20548FEF7DE
:1059800082FD00BF80210348FEF7AFFC0028F9D05C
:10599000204670BD003801402DE9FF4F81B082469E
:1059A00017469846DDF838B0002445464FEA4800CF
:1059B000C0F10306BBF1000F1FD01BE0A14608E0B9
:1059C0004B462246009750460299FFF718FA09F114
:1059D0000109A945F4DD002E04DA042000FB04606F
:1059E000861D06E0601B042101FB006000F10A0631
:1059F0006D1E641CAC42E1DD18E015E02B4622462A
:105A0000009750460299FFF7FAF9002E04DA0420B5
:105A100000FB0460861D06E0601B042101FB0060A2
:105A200000F10A066D1E641CAC42E7DD05B0BDE85E
:105A3000F08F10B545F25550FCF71AFB0420FCF727
:105A40000BFB4FF47A60FCF70DFBFCF7FDFAFCF75B
:105A5000F3FA10BD08B54FF47A74FE480068FE49A9
:105A60000860FE480068FE490860FE480068FE497C
:105A70000860FE480068FE490860FE480068FE496C
:105A80000860F5480068FD490860F5480068FC4971
:105A90000860FEF727FA4820FFF732FFFCF79AFB71
:105AA000FCF71EFE00F024FCFBF748FA0021084634
:105AB000FBF734FA002140F60F6000F07BFCFEF7A4
:105AC00097FEFCF7D9F8FBF7D5FEEEA0FFF764F9D7
:105AD000FEF738FAFCF738FEFEF7F8FEFEF75EFF39
