:020000040800F2
:10000000B01400204501000871230008291C0008D5
:100010006D230008C50B0008E33A0008000000004B
:10002000000000000000000000000000173200087F
:10003000A90C00080000000041240008B1350008A8
:100040005F0100085F0100085F0100085F01000810
:100050005F0100085F0100085F0100085F01000800
:100060009D0D00085F0100085F0100085F010008A6
:100070005F0100085F0100085F0100085F010008E0
:100080005F0100085F0100085F0100085F010008D0
:100090005F0100085F0100085F010008F10D000822
:1000A0005F0100085F0100085F0100085F010008B0
:1000B0002D360008613600085F0100085F01000866
:1000C0005F0100085F0100085F0100085F01000890
:1000D0005F0100086D380008B13800085F010008B2
:1000E0005F0100085F0100085F0100085F01000870
:1000F0005F0100085F0100085F0100085F01000860
:100100005F0100085F0100085F0100085F0100084F
:100110005F0100085F0100085F0100085F0100083F
:100120005F0100085F0100085F0100085F0100082F
:10013000DFF80CD000F0BAFB00480047894F0008F8
:10014000B01400200648804706480047FEE7FEE757
:10015000FEE7FEE7FEE7FEE7FEE7FEE7FEE7FEE777
:10016000B53500083101000840EA01039B0703D0C0
:1001700009E008C9121F08C0042AFAD203E011F8E6
:10018000013B00F8013B521EF9D27047F0B480EAFF
:100190000102D40F4200B2EB410F02D202460846E0
:1001A00011464A0042D0C30DDDB2C1F3C752AD1AA9
:1001B000202D35DAC1F3160141F4000204B1524298
:1001C000C5F1200602FA06F12A411044B3EBD05FD4
:1001D00023D0C4B1012DA0EBC35009DCF0BC4FF01B
:1001E000004202EAC352DBB200F5000000F0FBB9A6
:1001F000400000F1807000EBC350A0F1807040EA35
:10020000D170490009E0490841EAC071A0EBC35030
:1002100000F50000400800EBC350F0BC00F0DAB974
:100220006142012202EB4101001BF6E7F0BC70477E
:1002300081F00041AAE780F00040A7E780EA0102D0
:1002400010B502F00043400022D04A001FD0010E3A
:1002500001EB1261C0F35600C2F3560240F40000F5
:1002600042F40002A0FB022000047F39140400D0F5
:10027000401C50EA124001D44000491EC2B20C0694
:1002800004EBD010401C4008802A02D003E000207C
:1002900010BD20F00100002900DA0020184310BD35
:1002A00030B480EA010202F0004530F0004221F053
:1002B000004013D090B1C30DD40DC2F31601C0F3AA
:1002C0001600E41A41F4000140F400027D3491422A
:1002D00001D3641C00E04900002C02DA30BC00208D
:1002E00070474FF400000023914201D3891A034361
:1002F00040084FEA4101F7D151B1914202D14FF08C
:10030000004105E002D24FF0010101E06FF0010170
:1003100003EBC450284430BC00F05CB92DE9FE4F1B
:1003200081EA030404F0004421F0004100944FF0FE
:10033000000B23F0004350EA01045ED052EA0304AC
:100340005BD0C3F30A54C1F30A552C44A4F2F3342E
:100350000194A0FB0254C1F3130141F48011C3F3D3
:10036000130343F4801301FB024400FB034E840A91
:10037000970A44EA815447EA8357A4FB0768029529
:100380008D0A05FB07854FEA932C04FB0C542705C7
:10039000029D4FEA065847EA1637B5EB08056EEBA3
:1003A000070C870E920E47EA811742EA8312A7FBD9
:1003B0000201B6EB0B0164EB00042B0D43EA0C3396
:1003C0005E1844EB1C50DA465146E7FB0201C5F3C8
:1003D00013044FEA0B3343EA14534FEA0432019CEF
:1003E00043EA0603A4F10C040294009CCDE900B496
:1003F00000F036F903B0BDE8F08F00200146F9E7C0
:100400002DE9F04D81EA030404F0004B21F0004592
:1004100014464FF0000A23F0004150EA050220D0B4
:1004200054EA01021DD0C5F30A570246C5F313036F
:10043000C1F31300C1F30A5640F4801543F480134E
:10044000A7EB0608101BD64608F2FD3873EB050033
:1004500002D308F1010801E092185B41B8F1000FE6
:1004600003DA00200146BDE8F08D00204FF4801132
:10047000064684460EE0171B73EB050705D3121BD7
:1004800063EB050306434CEA010C49084FEA3000D0
:1004900092185B4150EA0107EDD152EA030012D0F5
:1004A00082EA040083EA0501084305D0101BAB4132
:1004B00006D20122002306E000224FF0004302E0B2
:1004C0006FF0010253101AEB06004CEB085110EBD1
:1004D0000A0041EB0B01BDE8F04D00F0B2B89623E5
:1004E0000022114600F07FB800F0004230F00040DA
:1004F0000AD0C10D01F56071C0F3160042EA015146
:10050000C20840071143704700200146704701F0C0
:10051000004330B421F0004150EA010206D00A0D38
:10052000A2F56072C1F31301002A02DC30BC002086
:100530007047440F44EAC104C100E01830BC00EB2E
:10054000C25000F047B830B50B46014600202022CB
:10055000012409E021FA02F59D4205D303FA02F5D0
:10056000491B04FA02F52844151EA2F10102F1DC30
:1005700030BD2DE9F05F0546002092469B46884637
:100580000646814640241BE028464146474622460F
:1005900000F0ADF953465A46C01A914110D31146A6
:1005A0001846224600F094F92D1A67EB01084F46D1
:1005B00022460120002100F08BF917EB00094E4183
:1005C000201EA4F10104DFDC484631462A4643469A
:1005D000BDE8F09F0029A8BF7047401C490008BF34
:1005E00020F00100704710B4B0FA80FC00FA0CF063
:1005F00050EA010404BF10BC704749B1CCF120049B
:1006000021FA04F411FA0CF118BF01212143084327
:10061000A3EB0C01CB1D4FEA00614FEA102042BF53
:10062000002010BC704700EBC35010440029A4BF49
:1006300010BC7047401C490008BF20F0010010BCEE
:10064000704710B5141E73F1000408DA401C41F124
:10065000000192185B411A4301D120F0010010BD46
:100660002DE9F04D92469B4611B1B1FA81F202E0BC
:10067000B0FA80F22032904600F02AF904460F4684
:1006800040EA0A0041EA0B0153465A46084313D098
:10069000114653EA010019D0C8F14002504600F05B
:1006A00026F905460E4650465946424600F010F9D6
:1006B000084305D0012004E020463946BDE8F08D0E
:1006C0000020054346EAE0762C4337430A98630549
:1006D000E40AA0EB08000022FD0A44EA47540A306D
:1006E00002D500200146E9E7010510196941DDE95D
:1006F000084500196941BDE8F04DA2E72DE9FE4F1C
:10070000804681EA0300C00F0C46009021F00041B2
:1007100023F00045B8EB0200A94105D2404621462E
:1007200090461C460B46024623F00040104347D03B
:10073000270DC7F30A00C3F30A510290401A019033
:1007400040286BDAC3F3130040F4801B00989246F4
:1007500020B10023D2EB030A63EB0B0B019859463F
:10076000C0F14002504600F0B3F806460D46504630
:100770005946019A00F0CBF810EB080061410024C3
:1007800087EA115284EAE7731A4340D0009A62B3B1
:10079000019A012A4FEA075215DC001B61EB0201A6
:1007A0004FF0004202EA0752CDE90042001C41F539
:1007B000801132462B46FFF753FF03B0BDE8F08FA0
:1007C00040462146F9E7001B61EB0201001C41F5A0
:1007D000801300185B412018A2F5001747EB0301B6
:1007E00040EAD570B6196D4111E06D084FEA360642
:1007F00045EAC0754FEA0752001B61EB0201001C7D
:1008000041F5801149084FEA300000195141324644
:100810002B4603B0BDE8F04FFFF713BF009801224D
:1008200040000023D0EB020263EBE0730098214606
:100830004FEAE074B8EB000061EB0401E9E783F0F4
:1008400000435BE781F0004158E7C1F30A52C1F36E
:10085000130140F2FF3341F480119A4202DA002082
:100860000146704740F233439A42A2F2334202DC1F
:10087000524200F03CB800F02BB8000030B5041E26
:1008800071F1000404DB4FF00044404264EB0101CD
:10089000141E73F1000405DB1C464FF00043524266
:1008A00063EB0403994208BF904230BD064C074DEC
:1008B00006E0E06840F0010394E807009847103430
:1008C000AC42F6D3FFF738FCB4790008D4790008BD
:1008D000202A04DB203A00FA02F100207047914000
:1008E000C2F1200320FA03F3194390407047202AF5
:1008F00004DB203A21FA02F00021704721FA02F3CA
:10090000D040C2F120029140084319467047202A86
:1009100006DBCB17203A41FA02F043EAE07306E027
:1009200041FA02F3D040C2F1200291400843194637
:10093000704721B1826842F00102826003E0826860
:1009400022F0010282607047014600208A6802F0AE
:1009500004020AB1012000E0002070470146C86C83
:1009600080B270470246002013680B400BB1012093
:1009700000E000207047014600208A6802F008026B
:100980000AB1012000E000207047000030B50246A7
:100990000020002350680F4C20400D790C6844EA79
:1009A00005242043506090680B4C2040D1E902544C
:1009B0002C434D7944EA450420439060D06A20F4EA
:1009C00070000C7C641EE4B2234340EA0350D06202
:1009D00030BD0000FFFEF0FFFDF7F1FFF0B593B072
:1009E00005461422144904A8FFF7BEFB00241FE0AB
:1009F00055F82400FFF778FD064604A832460B465A
:100A00000EA1009009A803F0A3FC00200C2109AA64
:100A1000CDE90021029004EB8400382202EB800132
:100A20004FF6FF730022822002F06AFC601CC4B201
:100A3000032CDDDB13B0F0BD587900082566252EA8
:100A400032307300F0B504460D4600200021092D18
:100A500011DDE068A5F10A0606EB4607072606FA4F
:100A600007F18843A5F10A0606EB460603FA06F1EC
:100A70000843E0600CE0206905EB4507072606FA0D
:100A800007F1884305EB450603FA06F108432061A8
:100A9000072A0FDA606B561E06EB86071F2606FA3A
:100AA00007F18843561E06EB860605FA06F1084351
:100AB000606322E00D2A0FDA206BD61F06EB860753
:100AC0001F2606FA07F18843D61F06EB860605FAAD
:100AD00006F10843206310E0E06AA2F10D0606EB80
:100AE00086071F2606FA07F18843A2F10D0606EBDA
:100AF000860605FA06F10843E062F0BD816841F020
:100B000008018160704721B1826842F4A0028260CE
:100B100003E0826822F4A00282607047816841F09D
:100B200004018160704700002DE9F04F85B0234932
:100B300003C9CDE9000101210A2000F06BFE8046C7
:100B400001210B2000F066FE814601210C2000F0FF
:100B500061FE82464046FFF7C2FC8346FFF7C4FCB5
:100B600006464FF06632164BFFF7D8FB0446FFF7F8
:100B7000CEFC02904846FFF7B2FC8346FFF7B4FC78
:100B800006464FF066320E4BFFF7C8FB0446FFF7F0
:100B9000BEFC03905046FFF7A2FC8346FFF7A4FC7F
:100BA00006464FF06632064BFFF7B8FB0446FFF7E8
:100BB000AEFC049002A805B0BDE8F08F24560008F2
:100BC00066664A3F00BFFEE739B1084A1268012352
:100BD00083401A43054B1A6006E0044A1268012359
:100BE00083409A43014B1A60704700000074004034
:100BF00030B5002200230A4C226840F6FE7484407F
:100C0000A243D1E900452C438D682C43CD6844EACA
:100C1000050303FA00F42243014C226030BD0000BA
:100C20000074004008B500220092054A009200F1CD
:100C30000802009B1A440092009A116008BD00004F
:100C40000074004000B585B00121042001F018FFB8
:100C50000121480701F004FF1020ADF8100000202A
:100C60008DF8130003208DF8120004A90D4800F040
:100C70006DF910210B4800F051FA0020009001900E
:100C800002900220039069460020FFF7B1FF012186
:100C90000020FFF799FF00210846FFF7C3FF05B0CA
:100CA00000BD000000080140704700000021044A18
:100CB000116000BF024909688142FBD37047000000
:100CC0008800002038B532480078401CC0B28DF84A
:100CD00000002F484078401CC0B28DF801002C481D
:100CE0008078401CC0B28DF802002948C078401CB2
:100CF000C0B28DF803006A460C21002003F0C8FA48
:100D000001220021084603F083FA01221146002047
:100D100003F07EFA0520FFF7C9FF0321002002F04F
:100D2000FBF813280BD010220121002003F070FAE9
:100D30000020184908601849C1F8B80138BD0422DC
:100D40000121002003F064FA00BF002402210020EA
:100D500002F0E2F8044624B122460221002003F00A
:100D600057FA0520FFF7A2FF04F00800082801D178
:100D70000020E3E70621002002F0CEF8FF2806D08D
:100D800010220121002003F043FAFF20D6E7DCE720
:100D900072000020BC0122420000224210B5042053
:100DA00000F03CF801281ED100F032F80A2004F0CF
:100DB0006FF804210C4800F09DF968B901210B4837
:100DC00000F0A1F920B90121084800F0A7F903E0DB
:100DD0000121064800F0A0F900BF0421024800F0FC
:100DE00089F90028F9D010BD001801400010014019
:100DF00010B54FF4007000F011F830B14FF40070EE
:100E000000F006F801200149087010BD870000209D
:100E100001490860704700001404014001460020A9
:100E20000022074B1B6803EA0102054B14331B68C1
:100E30000B4013B10AB1012000E000207047000010
:100E400000040140002123498279002A3AD00A4651
:100E5000126803689A430B461A600A1D12680368F9
:100E60009A430B1D1A60027911440A6803681A43F9
:100E70000A60184A0832126803689A43154B08330F
:100E80001A601A1D126803689A43124B0C331A60D9
:100E90004279102A0ED11A1F126803681A430D4BAB
:100EA00008331A601A1D126803681A43094B0C3381
:100EB0001A600DE00749427911440A6803681A4331
:100EC0000A6005E0027911440A6803689A430A60DF
:100ED00070470000000401400549096821F0100135
:100EE000034A116011460968014311607047000010
:100EF0000020024001460020034A106800F038003C
:100F000008431060704700000020024030B5002206
:100F10008B071C0F0F2303FA04F20B4B8C1053F8B2
:100F200024309343084C8D1044F8253023468C1010
:100F300053F824308C07240F00FA04F42343024CA6
:100F40008D1044F8253030BD080001402DE9F041F6
:100F5000024600250026002000230024002791F8E7
:100F600003C00CF00F0591F803C00CF0100CBCF19D
:100F7000000F03D091F802C04CEA050591F800C0BB
:100F8000BCF1000F31D0146800202BE04FF0010CB1
:100F90000CFA00F3B1F800C00CEA03069E4220D11F
:100FA00083004FF00F0C0CFA03F7BC4305FA03FC67
:100FB0004CEA040491F803C0BCF1280F06D14FF0AD
:100FC000010C0CFA00FCC2F814C00AE091F803C04E
:100FD000BCF1480F05D14FF0010C0CFA00FCC2F82F
:100FE00010C0401C0828D1D31460B1F800C0BCF177
:100FF000FF0F34DD546800202EE000F1080C4FF0A4
:10100000010808FA0CF3B1F800C00CEA03069E428E
:1010100021D183004FF00F0C0CFA03F7BC4305FA03
:1010200003FC4CEA040491F803C0BCF1280F05D17D
:1010300000F1080C08FA0CF8C2F8148091F803C00B
:10104000BCF1480F07D100F1080C4FF0010808FA75
:101050000CF8C2F81080401C0828CED35460BDE8BC
:10106000F0810000F0B50A4600230024002100258D
:1010700000F00046B6F1004F02D11D4EF16901E0CB
:101080001B4E7168C0F3034583B200F44016B6F5F9
:10109000401F08D121F07061154E766826F0706609
:1010A000134F7E6012E000F48016B6F5801F06D163
:1010B000032606FA05F4A14341F0706106E0460DEF
:1010C000360103FA06F6B14341F0706122B1460DD4
:1010D000360103FA06F6314300F00046B6F1004F40
:1010E00002D1034EF16101E0014E7160F0BD0000DC
:1010F000000001400246002093680B400BB1012024
:1011000000E00020704702460020D3680B400BB17E
:10111000012000E000207047416170470161704785
:101120002DE9FC5F0546884691469A46DDF830B0C9
:1011300000953E20019000245FE004EB0410374945
:1011400011F810009BF80010884253D104EB0410F2
:10115000324901EB400040789BF80110884249D1A8
:1011600008F10F0083B205F10F0082B24146284614
:1011700000F04EFF00263BE0002734E00D9890B9C8
:1011800004EB0410254901EB4000801C805D8021A8
:101190003941084018B1484601F092F821E0504624
:1011A00001F08EF81DE01E48A0F8009004EB04103A
:1011B0001A4901EB4000801C805D802139410840C4
:1011C00018B14146284600F0B9FD681C85B2009868
:1011D000281A102805D1009D08F101001FFA80F897
:1011E00003E0781CC7B2082FC8DB00BF701CC6B272
:1011F000202EC1DB00BF601C84B2019884429CDBBE
:1012000008484088401E83B206480088401E82B2CB
:101210000021084600F0FCFEBDE8FC9F8E6000083F
:1012200052000020940000202DE9FC5F054688460E
:1012300091469A46DDF830B00095072001900024D1
:1012400067E004EB840000EB44103A4911F8100009
:101250009BF80010884259D104EB840000EB441045
:10126000344901EB400040789BF8011088424DD191
:1012700008F1170083B205F1170082B241462846F3
:1012800000F0C6FE00263FE0002738E00D98A0B928
:1012900004EB840000EB4410264901EB4000801C65
:1012A000805D80213941084018B1484601F008F8B6
:1012B00023E0504601F004F81FE01F48A0F800901A
:1012C00004EB840000EB44101A4901EB4000801C41
:1012D000805D80213941084018B14146284600F020
:1012E0002DFD681C85B20098281A182805D1009D8C
:1012F00008F101001FFA80F803E0781CC7B2082F3C
:10130000C4DB00BF701CC6B2482EBDDB00BF601C32
:1013100084B20198844294DB08484088401E83B21E
:1013200006480088401E82B20021084600F070FE88
:10133000BDE8FC9FCA68000852000020940000200D
:101340002DE9FC5F0546884691469A46DDF830B0A7
:1013500000950420019000245FE004EB84103749DD
:1013600011F810009BF80010884253D104EB841050
:10137000324901EB400040789BF80110884249D186
:1013800008F11F0083B205F11F0082B241462846D2
:1013900000F03EFE00263BE0002734E00D9890B9B7
:1013A00004EB8410254901EB4000801C805D802106
:1013B0003941084018B1484600F082FF21E050460C
:1013C00000F07EFF1DE01E48A0F8009004EB8410A2
:1013D0001A4901EB4000801C805D802139410840A2
:1013E00018B14146284600F0A9FC681C85B2009857
:1013F000281A202805D1009D08F101001FFA80F865
:1014000003E0781CC7B2082FC8DB00BF701CC6B24F
:10141000802EC1DB00BF601C84B2019884429CDB3B
:1014200008484088401E83B206480088401E82B2A9
:101430000021084600F0ECFDBDE8FC9FD06A0008E2
:10144000520000209400002070B505460E46144658
:101450003146284600F0D2FD204600F031FF70BD35
:101460007047000038B5002400BF1BE00120009049
:101470001048028804EB8400A82303EB80010623B4
:10148000B42003F033FD012000900A48028804EBE9
:101490008400A82303EB80010623322003F026FDFD
:1014A000601CC4B2062CE1DB40F2DC5003F0F0FC1F
:1014B00038BD0000580000203EB50546002400BF9E
:1014C00040E0285D01281DD100904748428804EB88
:1014D0008400A82303EB80010623322003F006FDDD
:1014E00000200C2141A2CDE90021029004EB8400F0
:1014F000A22202EB80014FF6E0730022412001F0AE
:10150000FFFE1DE0012000903748028804EB8400B4
:10151000A82303EB80010623322003F0E7FC002020
:101520000C2133A2CDE90021029004EB8400A22219
:1015300002EB80014FF6E0730022412001F0E0FE53
:10154000601CC4B2062CBCDB062446E0285D0128E2
:1015500020D1009024484288A01F00EB8000A823DF
:1015600003EB80010623B42003F0C0FC00200C2113
:101570001EA2CDE900210290A01F00EB8000A22254
:1015800002EB800081B24FF6E0730022C32001F02D
:10159000B7FE20E00120009013480288A01F00EB56
:1015A0008000A82303EB80010623B42003F09EFCF7
:1015B00000200C210EA2CDE900210290A01F00EB1B
:1015C0008000A22202EB800081B24FF6E07300227D
:1015D000C32001F095FE601CC4B20C2CB6DB40F2B7
:1015E000DC5003F055FC3EBD580000204F4E20005B
:1015F0004F46460010B54FF400514948FFF783FDB0
:10160000012805D14748407840F00100454948701D
:101610004FF400414248FFF776FD012805D14148CB
:10162000407840F002003F49487008213C48FFF7ED
:101630006AFD012805D13B48407840F00400394953
:10164000487002213848FFF75EFD012805D1354872
:10165000407840F008003349487001213248FFF7D4
:1016600052FD012805D12F48407840F010002D4947
:1016700048704FF480412A48FFF745FD012805D105
:101680002848407840F020002649487080212648AC
:10169000FFF739FD012805D12248407840F040008D
:1016A0002049487001212148FFF72DFD012805D16F
:1016B0001C48407840F080001A49487010211848B2
:1016C000FFF721FD012805D11648007840F0010000
:1016D0001449087040211448FFF715FD012805D171
:1016E0001048007840F002000E49087080210F4831
:1016F000FFF709FD012805D10A48007840F00400F1
:101700000849087040210948FFF7FDFC012805D170
:101710000448007840F0080002490870014810BDF4
:10172000001001406200002000080140000C014050
:1017300010B54FF400512548FFF7E5FC2449087027
:101740004FF400412148FFF7DEFC21494870082191
:101750001E48FFF7D8FC1E49887002211D48FFF77C
:10176000D2FC1B49C87001211A48FFF7CCFC18496C
:1017700008714FF480411548FFF7C5FC14494871C2
:1017800080211448FFF7BFFC1149887101211248DC
:10179000FFF7B9FC0E49C87110210C48FFF7B3FCE4
:1017A0000B49087240210B48FFF7ADFC084948720D
:1017B00080210948FFF7A7FC0549887240210648A7
:1017C000FFF7A1FC0249C872084610BD0010014095
:1017D000A200002000080140000C014070B5024644
:1017E0004FF6FF70002312E012F8015B68400024FE
:1017F0000AE000F0010525B140084AF20105684001
:1018000000E04008651CECB2082CF2DB5B1C8B424C
:10181000EAD370BD2DE9F04105460E4600270723A7
:10182000012229461048FFF70DF9002413E0012199
:101830000D48FFF768F900BF02210B48FFF792F847
:101840000028F9D00848FFF789F80744052003F07D
:101850001FFB601CC4B2B442E9DB601CB7FBF0F0B4
:1018600080B2BDE8F0810000002401403EB54FF693
:10187000FF7000F0DBF9012450E0022C13DC04EBD4
:10188000840000EBC4004FF6FF7202EA400304EB51
:10189000840000EBC40002EA40014FF48C72002087
:1018A00000F0F4F936E0062C11DC022C0FDD04EB1D
:1018B00084000C2202EB800083B204EB840002EB74
:1018C000800081B2FA22002000F0E0F922E0072C2B
:1018D00011D104EB84000C2202EB8000801D83B246
:1018E00004EB840002EB8000801D81B2FA2200200C
:1018F00000F0CCF90EE004EB8400122202EB800031
:1019000083B204EB840002EB800081B2FA22002053
:1019100000F0BCF98AA002F00BFD641C0E2CACDBBD
:10192000842378221A21104600F0B0F94FF48B730B
:1019300078229E21104600F0A9F900200C2182A2F5
:101940004FF6FF73CDE900210290024605210A20DF
:1019500001F0D6FC01200C2184A24FF6FF73CDE9E3
:1019600000210290002221213C2001F0C9FC01202D
:101970000C2181A24FF6FF73CDE9002102900022D5
:1019800021218C2001F0BCFC00200C217EA24FF60E
:10199000E073CDE9002102900246382101F0B0FC4D
:1019A00000200C217BA24FF6E073CDE900210290CC
:1019B00002464E2101F0A4FC00200C2178A24FF633
:1019C000E073CDE9002102900246622101F098FC0B
:1019D00000200C2175A24FF6E073CDE900210290A2
:1019E0000246762101F08CFC00200C2172A24FF6F9
:1019F000FF73CDE90021029002468B21502001F0B7
:101A00007FFC00200C2170A24FF6E073CDE900218D
:101A100002900246A2210A2001F072FC00200C2153
:101A20006BA24FF6E073CDE9002102900246B62189
:101A30000A2001F065FC00200C2167A24FF6E0733C
:101A4000CDE9002102900246CA210A2001F058FC8B
:101A500000200C2162A24FF6E073CDE90021029034
:101A60000246DE210A2001F04BFC00200C215EA280
:101A70004FF6E073CDE9002102900246F2210A20E0
:101A800001F03EFC00200C2159A24FF6E073CDE995
:101A90000021029002464FF483710A2001F030FCCD
:101AA00000200C2154A24FF6E073CDE900210290F2
:101AB0000246A221822001F023FC00200C2150A22A
:101AC0004FF6E073CDE9002102900246B621822054
:101AD00001F016FC00200C214BA24FF6E073CDE97B
:101AE000002102900246CA21822001F009FC002058
:101AF0000C2147A24FF6E073CDE900210290024687
:101B0000DE21822001F0FCFB00200C2142A24FF6D6
:101B1000E073CDE9002102900246F221822001F01B
:101B2000EFFB00200C213EA24FF6E073CDE900212F
:101B3000029002464FF48371822001F0E1FB3EBD2A
:101B400068656C6C6F00000047617320537570709E
:101B5000706C7920416E64204465637465637469B8
:101B60006F6E2053797374656D00000053657420A7
:101B700056616C75650000004D6561737572652076
:101B800056616C7565000000203134373941203AC8
:101B900000000000203632374420203A00000000C8
:101BA000434447303235443A0000000020202050A2
:101BB0005620203A000000004761732056616C7582
:101BC00065205374617465004E6F2E310000000073
:101BD0004E6F2E32000000004E6F2E3300000000CA
:101BE0004E6F2E34000000004E6F2E3500000000B6
:101BF0004E6F2E36000000004E6F2E3700000000A2
:101C00004E6F2E38000000004E6F2E39000000008D
:101C10004E6F2E31300000004E6F2E31310000002B
:101C20004E6F2E313200000000BFFEE770B5064651
:101C300014484088401E83B212480088401E82B279
:101C40000021084600F0E4F94FF400600E490860F6
:101C50004010091F086000240AE0002503E0304618
:101C600000F02EFB6D1C07480088A842F7D8641CC2
:101C700004484088A042F0D84FF400600249091F90
:101C8000086070BD94000020140C01402DE9FF4F46
:101C900085B081468A460020049003900798A0EB07
:101CA00009050898A0EB0A06CDF80890CDF804A025
:101CB000002D01DD012705E00DB9002702E04FF0FE
:101CC000FF376D42002E02DD4FF0010806E016B925
:101CD0004FF0000802E04FF0FF387642B54201DDD8
:101CE0002C4600E034464FF0000B21E0019A91B2FF
:101CF000029A90B200F022F80498284404900398C5
:101D0000304403900498A04205DD0498001B049021
:101D10000298384402900398A04205DD0398001B06
:101D200003900198404401900BF101001FFA80FBE1
:101D3000601C8345DADD09B0BDE8F08F70B504465C
:101D40000D462946204600F059F90248008800F067
:101D5000B7FA70BD5200002008B50121082000F03C
:101D60008FFE4FF4F050ADF8000003208DF8020014
:101D700010208DF8030069460148FFF7E7F808BD19
:101D8000000C014010B501F027F9FFF7E5FF00F066
:101D900021F9CF2000F012FA002000F0F7F9C1205D
:101DA00000F0F4F9302000F0F1F9ED2000F006FA2F
:101DB000642000F0EBF9032000F0E8F9122000F0B5
:101DC000E5F9812000F0E2F9E82000F0F7F985203C
:101DD00000F0DCF9102000F0D9F97A2000F0D6F9F3
:101DE000CB2000F0EBF9392000F0D0F92C2000F0E6
:101DF000CDF9002000F0CAF9342000F0C7F9022024
:101E000000F0C4F9F72000F0D9F9202000F0BEF965
:101E1000EA2000F0D3F9002000F0B8F9002000F02B
:101E2000B5F9C02000F0CAF91B2000F0AFF9C120BD
:101E300000F0C4F9012000F0A9F9C52000F0BEF9B6
:101E4000302000F0A3F9302000F0A0F9C72000F006
:101E5000B5F9B72000F09AF9362000F0AFF9482024
:101E600000F094F93A2000F0A9F9552000F08EF91D
:101E7000B12000F0A3F9002000F088F91A2000F04A
:101E800085F9B62000F09AF90A2000F07FF9A22027
:101E900000F07CF9F22000F091F9002000F076F9D2
:101EA000262000F08BF9012000F070F9E02000F00E
:101EB00085F90F2000F06AF92A2000F067F9282040
:101EC00000F064F9082000F061F90E2000F05EF9DE
:101ED000082000F05BF9542000F058F9A92000F028
:101EE00055F9432000F052F90A2000F04FF90F2075
:101EF00000F04CF9002000F049F9002000F046F90C
:101F0000002000F043F9002000F040F9E12000F04B
:101F100055F9002000F03AF9152000F037F91720A4
:101F200000F034F9072000F031F9112000F02EF90B
:101F3000062000F02BF92B2000F028F9562000F0A5
:101F400025F93C2000F022F9052000F01FF91020AF
:101F500000F01CF90F2000F019F93F2000F016F9ED
:101F60003F2000F013F90F2000F010F92B2000F0B3
:101F700025F9002000F00AF9002000F007F90120FF
:101F800000F004F93F2000F001F92A2000F016F9D2
:101F9000002000F0FBF8002000F0F8F8002000F02E
:101FA000F5F8EF2000F0F2F8112000F007F97820A2
:101FB00002F06EFF292000F001F9002000F026F960
:101FC0000120034908604FF6FF70FFF72FFE10BD98
:101FD000A481214210B54FF4805007490860642065
:101FE00002F056FF4FF480500349091F0860322069
:101FF00002F04EFF10BD0000140C014070B5044605
:102000000D462B4622462946204600F001F870BDB9
:102010002DE9F04104460D4616461F461149887ABF
:1020200000F0CCF8201200F0B1F8E0B200F0AEF809
:10203000301200F0ABF8F0B200F0A8F80949087BC4
:1020400000F0BCF8281200F0A1F8E8B200F09EF809
:10205000381200F09BF8F8B200F098F800F0C4F8DD
:10206000BDE8F081940000202DE9FF4F83B0814648
:102070008A469346DDE91064404800880290A6F144
:102080002000C6B204EBD47009EB6000401E82B29F
:102090000AEB0400401E83B2514648460194FFF704
:1020A000B7FF129850BB002525E00C2C07D106EB9A
:1020B0004600334901EB800010F8058004E0314808
:1020C00000EB061010F8058000270DE008F0010075
:1020D00018B1584600F0F4F802E0069800F0F0F865
:1020E0004FEA6808781CC7B204EBD471B7EB610FF4
:1020F000ECDB681CC5B2A542D7DB2DE0002529E04A
:102100000C2C07D106EB46001D4901EB800010F8AE
:10211000058004E01B4800EB061010F8058000273E
:1021200011E01648A0F800B008F0010038B10AEB41
:10213000050291B209EB070290B2FFF7FFFD4FEAEB
:102140006808781CC7B204EBD471B7EB610FE8DB09
:10215000681CC5B2A542D3DB0849029808800A482A
:102160004088401E83B208480088401E82B2002189
:102170000846FFF74DFF07B0BDE8F08F5200002082
:102180002A5600089E5A00089400002010B5044604
:102190004FF40060074908604010091F086021469D
:1021A000054801F027F84FF400600249091F086054
:1021B00010BD0000140C01400038004010B504466A
:1021C0004FF4006006490860401008602146054849
:1021D00001F010F84FF400600149091F086010BDBC
:1021E000140C01400038004010B50249087AFFF78E
:1021F000E5FF10BD9400002070B505460C4628464A
:10220000FFF7DCFFE0B2FFF7C1FF70BD10B5044679
:102210002A201E4948812B2088812C20088134B136
:10222000012C0FD0022C18D0032C2CD120E0F02050
:10223000164908804FF4A070488008213620FFF727
:10224000DBFF21E04FF4A07010490880F0204880A7
:1022500068213620FFF7D0FF16E0F0200B490880F8
:102260004FF4A0704880C8213620FFF7C5FF0BE06F
:102270004FF4A07005490880F0204880A82136203E
:10228000FFF7BAFF00E000BF00BF10BD94000020C0
:1022900008B501F08FF90121102000F0F1FB4FF497
:1022A0006040ADF8000010208DF8030003208DF889
:1022B000020069460148FEF749FE08BD00100140D2
:1022C00010B504464FF40060094908604010091F2A
:1022D00008602112074800F08DFFE1B2054800F0C8
:1022E00089FF4FF400600249091F086010BD00001B
:1022F000140C014000380040C02016490870A82086
:10230000487001208870C870FF2013490870487019
:1023100088700020C8700C2010490870292048706F
:10232000AB2088707C20C8700020087101204871A3
:10233000C0200B490870A820487001208870C62072
:10234000C87013200749087088204870002006498B
:102350000870704764000020680000206C000020B6
:1023600072000020760000208400002000BFFEE7FD
:10237000704708B500214FF0006000F057F84FF4A7
:10238000C06000F049F81C208DF8000000208DF896
:1023900001008DF8020001208DF80300684600F06E
:1023A00003F801F031FE08BD70B5002100230F22B3
:1023B000C47804B3154C246804F4E064C4F5E06404
:1023C000210AC1F10403CA40447804FA03F1847875
:1023D0001440214309010E4C0678A155047804F0FD
:1023E0001F050124AC4005786D11AD0005F1E02515
:1023F000C5F8004109E0047804F01F050124AC4051
:10240000044D0678761145F8264070BD0CED00E0CD
:1024100000E400E080E100E002490143024A11606B
:10242000704700000000FA050CED00E0024A0A4087
:102430000243024B1A60704780FFFF1F08ED00E067
:10244000704700002DE9FC4107460026F94938464F
:1024500000F0A6FC8046F7480078052878D1F548BA
:102460004078032804D0052873D0062872D12FE1C4
:10247000F0488078012806D0022836D003286BD097
:10248000042831D195E00520EB49087003204870FD
:1024900001208870FEF748FB04464FF07F50E74963
:1024A00008602068FEF7DCFF0646E54E01969DF8C1
:1024B0000700E149C8709DF8060008719DF8050005
:1024C00048719DF8040088710721DB48FFF786F901
:1024D00000909DF80100D849C8719DF8000008726D
:1024E0000922384601F0D6FD89E00520D24908705E
:1024F0000320487002208870FEF716FB04464FF058
:102500007F506060CF4960680860606801F0ECFA55
:10251000064601969DF80700C749C8709DF8060059
:1025200008719DF8050048719DF804008871072125
:10253000C148FFF753F900909DF80100BE49C871EA
:102540009DF8000008720922384601F0A3FD56E00C
:1025500066E256E062E2FFE70520B7490870032013
:1025600048708870FEF7E0FA0446A06801F0BBFAF4
:102570000646B34E01969DF80700AF49C8709DF816
:10258000060008719DF8050048719DF804008871E7
:102590000721A948FFF722F900909DF80100A649FC
:1025A000C8719DF8000008720922384601F072FDDA
:1025B00025E00520A0490870032048700420887099
:1025C000A1A001F0B5FEFFF715F8054628789A4955
:1025D000C87068780871A3A001F0AAFE052196488A
:1025E000FFF7FCF800909DF80100934948719DF8B1
:1025F000000088710722384601F04CFD00BF00BF83
:1026000000BF8C488078401F05285FD2DFE800F0CB
:102610000316293C4D008748C078FF2807D185481C
:10262000C0789749087097A001F082FE05E000206D
:10263000934908709AA001F07BFE47E07D48C0787E
:10264000FF2807D17B48C0789E4908709EA001F002
:102650006FFE05E000209B490870A2A001F068FE13
:1026600034E07448C078FF2807D17248C078A44984
:102670000870A4A001F05CFE05E00020A0490870ED
:10268000A9A001F055FE21E06A48C078FF2805D1D5
:10269000AD490870ADA001F04BFE05E00020AA494D
:1026A0000870B2A001F044FE10E06248C078FF2834
:1026B00005D1B6490870B6A001F03AFE05E0002049
:1026C000B2490870B8A001F033FE00BF00BF00BFE0
:1026D000584880780A38062826D2DFE800F003261A
:1026E0004C6FAAA95349384600F05AFB804642462F
:1026F00050495148FDF738FD42464F49384601F0F0
:10270000C9FC4C48C0788DF807004A4800798DF81C
:102710000600484840798DF80500464880798DF8D4
:102720000400A7490198086076E14249384600F064
:1027300037FB804642463F493F48FDF715FD42467C
:102740003D49384601F0A6FC3A48C0788DF80700AC
:10275000384800798DF80600364840798DF8050034
:10276000344880798DF8040096490198086096A055
:1027700001F0DEFD50E12F49384600F011FB8046A4
:1027800042462C492C48FDF7EFFC42462A49384680
:1027900001F080FC2748C0788DF8070025480079B3
:1027A0008DF80600234840798DF80500214880798E
:1027B0008DF804008A49019808602DE11D48C07811
:1027C0008DF807001B4800798DF8060019484079FC
:1027D0008DF80500174880798DF80400814901982B
:1027E00008601448C0798DF807001248007A8DF807
:1027F00006001048407A8DF805000E48807A8DF862
:1028000004007949019808600A48C07A8DF80700E9
:102810000848007B8DF806000648407B8DF80500CF
:102820000448807B8DF80400704901980860DFE05F
:10283000EAE0E1E0AE000020AE0800203400002015
:1028400000004040300000206265666F72652074B1
:1028500068652067617320737461746520726561B7
:1028600064000000616674657220746865206761A9
:1028700073207374617465207265616400000000E8
:102880002B0000204361736520303520746F206F6A
:1028900070656E204465627567204D6F64650A003F
:1028A00061736520303520746F206F70656E204E27
:1028B0006F726D616C2052756E6E696E67204D6F20
:1028C00064650A00280000204361736520303620CB
:1028D000746F206F70656E2076616C7665730D0A7B
:1028E000000000006361736520303620746F206340
:1028F0006C6F7365207661766C65730D0A0000005D
:102900002E000020436173652030373A20746F2019
:10291000313437394120636F6E74726F6C204D6FA4
:1029200064650D0A00000000617365203036207474
:102930006F2050455620636F6E74726F6C206D6F00
:1029400064650D0A000000002C00002043617365DF
:102950002030382054696D696E672054726967674A
:102960006572204D6F64650D0A0000004361736558
:1029700020303820436F6D6D616E6420547269673A
:10298000676572204D6F64650D0A00002D00002000
:10299000436173652030372070756666206D6F6403
:1029A00065206F6E0D0A000043617365203037208B
:1029B00070756666206D6F6465206F66660D0A002F
:1029C000080000200C000020536574203134373992
:1029D0004120466C6F772044617461200000000044
:1029E000140000201C0000202000002024000020F3
:1029F0000CA001F09DFC0FE01048C0781049087051
:102A00000E480079487007E00C48C0780D490870FE
:102A10000A480079487000BF00BF00E000BF00BF57
:102A2000BDE8FC8153657420504944207061726197
:102A30006D65746572206F6B0A0A0000AE0000209D
:102A40001A0000201800002001460020034A5068A8
:102A500020F44040084350607047000000100240DE
:102A600029B1064AD2690243044BDA6104E0034A01
:102A7000D2698243014BDA617047000000100240C6
:102A800029B1064A92690243044B9A6104E0034A61
:102A900092698243014B9A61704700000010024026
:102AA0000149C864704700000000424210B500F0C0
:102AB0003BF84FF4803000F0F9F800F055F9044687
:102AC000012C2FD11020FEF707FA0220FEF712FA90
:102AD000002000F0DFF8002000F01AF9A00200F05A
:102AE0000BF94FF4E011200400F024F9012000F06C
:102AF0001BF900BF392000F0A7F80028FAD0022007
:102B000000F026F900BF00F0BDF80828FBD1012035
:102B1000FFF7C6FF01210846FFF7A2FF01213D2074
:102B2000FFF7AEFF10BD00000F48006840F0010045
:102B30000D490860084640680C4908400A49486049
:102B4000084600680A4908400749086008460068C6
:102B500020F4802008600846406820F4FE004860A9
:102B60004FF41F0088607047001002400000FFF81B
:102B7000FFFFF6FE30B500210022002400232D4D7A
:102B80006D6805F00C0121B1042905D0082923D175
:102B900005E0294D056022E0274D05601FE0254D29
:102BA0006D6805F47012234D6D6805F480340225BC
:102BB00005EB92421CB9214D554305600BE01D4DBC
:102BC0006D6805F400351DB11C4D5543056002E0EC
:102BD000194D5543056002E0174D056000BF00BF69
:102BE000144D6D6805F0F0010909154D6B5C056821
:102BF000DD4045600F4D6D6805F4E061090A104D38
:102C00006B5C4568DD4085600A4D6D6805F4605178
:102C1000C90A0B4D6B5C4568DD40C560054D6D68AC
:102C200005F44041890B074D6B5CC568B5FBF3F5B6
:102C3000056130BD0010024000127A0000093D001D
:102C40003A0000204A00002010B50146002200236F
:102C500000204A11012A02D1094C236806E0022A09
:102C600002D1074C236A01E0054C636A01F01F02A0
:102C7000012494401C400CB1012000E0002010BD54
:102C8000001002400248406800F00C00704700004D
:102C90000010024001460020034A506820F0F00076
:102CA0000843506070470000001002401149096855
:102CB00021F480310F4A11601146096821F4802106
:102CC0001160B0F5803F03D0B0F5802F0ED106E043
:102CD0000849096841F48031064A116007E0054956
:102CE000096841F4A021034A116000E000BF00BF61
:102CF000704700000010024001460020034A50685F
:102D000020F4E0600843506070470000001002406B
:102D100001460020034A506820F4605040EAC10098
:102D2000506070470010024001490866704700007B
:102D30000000424202460020044B586820F47C10F8
:102D400042EA01031843014B5860704700100240EB
:102D500001460020034A506820F0030008435060F9
:102D6000704700000010024038B500200090002499
:102D7000002500BF3120FFF767FF05460098401C83
:102D800000900098B0F5A06F01D0002DF2D0312056
:102D9000FFF75AFF08B1012400E00024204638BDA7
:102DA0002DE9F04780460D462621404600F0DEF82A
:102DB000064616B90020BDE8F08740F2B4508642BE
:102DC00000DD06462821404600F0D0F80746B94607
:102DD000C7F30A074FF400413B48FEF79DF9384618
:102DE00000F058F9182101EB4811C8B200F042F97F
:102DF000364800F0DCF900F0FF0AB819B0F5006FB2
:102E000011DA00240CE0002000F034F92F4800F023
:102E1000CEF900F0FF0A85F800A06D1C601C84B29A
:102E2000B442F0DB3BE0C7F5006087B200240CE061
:102E3000002000F01FF9254800F0B9F900F0FF0A62
:102E400085F800A06D1C601C84B2BC42F0DB4FF41E
:102E500000411D48FEF762F94FF400411A48FEF7A1
:102E60005BF9002000F016F9182101EB4811C8B2F7
:102E700000F000F9154800F09AF900F0FF0A0CE0A4
:102E8000002000F0F7F8114800F091F900F0FF0A77
:102E900085F800A06D1C601C84B2B442F0DB4FF4D6
:102EA00000410948FEF73AF909EB06001FFA80F9DC
:102EB0004A462821404601F0CBF9402201214046F4
:102EC00001F0A6F9304676E700080140003C0040DA
:102ED00070B504464FF400410D48FEF71DF9204639
:102EE00000F0D8F8012000F0C5F80A4800F05FF9BA
:102EF000C5B2002000F0BEF8064800F058F9C5B28F
:102F00004FF400410248FEF709F9284670BD000061
:102F100000080140003C004070B504460D464FF4E7
:102F200000411048FEF7F8F8284600F0B3F80821F1
:102F300001EB4411C9B241F0010000F09BF80A48CE
:102F400000F035F9C6B2002000F094F8064800F011
:102F50002EF9C6B24FF400410248FEF7DFF83046C2
:102F600070BD000000080140003C004070B50546FF
:102F70000E464FF400411648FEF7CEF8304600F0FA
:102F800089F8082101EB4511C9B241F0020000F0B7
:102F900071F8104800F00BF90446002000F06AF8C0
:102FA0000C4800F004F90446002000F063F84FF6E6
:102FB000FF7000EA0424074800F0F9F8204484B2C6
:102FC0004FF400410248FEF7A9F8204670BD00000A
:102FD00000080140003C004000B587B001210920F5
:102FE000FFF74EFD4FF42040ADF8040003208DF8AC
:102FF000060018208DF8070001A91C48FDF7A6FF60
:103000004FF48040ADF8040048208DF807000320FD
:103010008DF8060001A91548FDF798FF01218803E6
:10302000FFF71EFD0020ADF808004FF48270ADF8E8
:103030000A000020ADF80C00ADF80E00ADF810004D
:103040004FF40070ADF812000020ADF81400ADF898
:1030500016000720ADF8180002A9054800F0ACF8EA
:103060000121034800F024F807B000BD000C014026
:103070000038004010B504462146054800F09AF893
:1030800000BF8021024800F089F80128F9D010BD66
:10309000003C004070B504462546E11704EB116181
:1030A000C1F30720FFF7E6FFE0B2FFF7E3FF70BDD3
:1030B00021B1028842F04002028004E002884FF60B
:1030C000BF731A400280704700B587B00121C80362
:1030D000FFF7C6FC01210920FFF7D2FC01212B4894
:1030E000FDF7C0FF0820ADF8180003208DF81A0086
:1030F00018208DF81B0006A92548FDF727FF102092
:10310000ADF8180006A92248FDF720FF2020ADF8F1
:10311000180006A91E48FDF719FF4FF40040ADF84E
:10312000180003208DF81A0010208DF81B0006A946
:103130001848FDF70BFF4FF400411648FDF7EEFF6E
:103140000020ADF804004FF48270ADF806000020B6
:10315000ADF80800ADF80A00ADF80C004FF40070AF
:10316000ADF80E000820ADF810000020ADF81200F8
:103170000720ADF8140001A9074800F01DF801214F
:103180000548FFF795FF07B000BD000000023000C2
:10319000000C014000080140003C004002460020B5
:1031A00013890B400BB1012000E00020704701465D
:1031B000888970478181704710B50022028802F427
:1031C00041520B884C8823438C882343CC8823436B
:1031D0000C8923434C8923438C892343CC89234383
:1031E0001A430280838B4FF2FF74234083830B8A40
:1031F000038210BD024600BF108900F002000028C3
:10320000FAD0918100BF108900F001000028FAD0A7
:103210009089C0B27047704710B500F001F810BD3A
:103220000CB50020019000903348006840F48030D5
:103230003149086000BF3048006800F40030009059
:103240000198401C0190009818B90198B0F5A06F42
:10325000F1D12948006800F4003010B1012000903D
:1032600001E0002000900098012843D12348006825
:1032700040F01000214908600846006820F0030073
:1032800008600846006840F0020008601A4840687C
:10329000194948600846406848600846406840F45C
:1032A000806048600846406820F47C10486008460A
:1032B000406840F4E81048600846006840F08070BC
:1032C000086000BF0C48006800F000700028F9D0CA
:1032D0000948406820F003000749486008464068F4
:1032E00040F00200486000BF0348406800F00C0056
:1032F0000828F9D10CBD0000001002400020024057
:103300002DE9FF4F83B0064688469146DDE9114717
:10331000109DB2464FF0000B71E0BBF1000F40D1A1
:1033200004EBD471384A1288A2EB6101B14204DB8C
:1033300035494988091B414502DA07B0BDE8F08FDD
:103340002878802802DD4FF0010B58E028780D28FE
:1033500006D108EB04001FFA80F856466D1C1EE0EB
:10336000102C0DDD102128788DE883004A46414657
:103370003046069BFEF778FE06F1080086B20EE0A6
:1033800028788DE891004A4641463046069BFEF774
:103390006BFE204604EBD07106EB61018EB26D1C12
:1033A0002DE019480088001BB04204DB1648408815
:1033B000001B404500DAC0E74FF0000B202C08D17D
:1033C000CDE900574A4641463046069BFDF7B8FF17
:1033D00012E0182C08D1CDE900574A464146304644
:1033E000069BFDF721FF07E0CDE900574A4641461D
:1033F0003046069BFDF794FEAD1C301986B2287846
:1034000000288AD100BF98E79400002010B5044638
:1034100001220021204600F0FBFE01221146204639
:1034200000F0F6FE0520FDF741FC03212046FFF7E2
:1034300073FD132806D010220121204600F0E8FE7B
:10344000002010BD04220121204600F0E1FEFF20F3
:10345000F7E7000010B5044640F2B45212210020F4
:1034600000F0F6FE082C17D2DFE804F0040F10116C
:10347000121314150A484178007801EB002082B23B
:103480000421002000F0E4FE07E006E005E004E08F
:1034900003E002E001E000E000BF00BF10BD00005B
:1034A0007600002010B5044601220021204600F0DD
:1034B000AFFE01221146204600F0AAFE0520FDF7CE
:1034C000F5FB03212046FFF727FD132806D0102225
:1034D0000121204600F09CFE002010BD02220121A7
:1034E000204600F095FE0520FDF7E0FB0321204675
:1034F000FFF712FD142806D010220121204600F00B
:1035000087FE0020E9E7FF20E7E710B50446022226
:103510000021204600F07CFE01221146204600F0EA
:1035200077FE0520FDF7C2FB03212046FFF7F4FCE0
:10353000222806D010220121204600F069FE00203A
:1035400010BDFF20FCE7000070B5FEF753F80646FB
:10355000FEF7EEF805462846FDF7AEFFFDF7E4FA64
:1035600004462046FDF73AFA2068FDF779FF044942
:103570000860606800F0B8FA0249086070BD000099
:103580003400002030000020042808D14FF0E02152
:10359000096941F004014FF0E022116107E04FF0AA
:1035A000E021096921F004014FF0E0221161704728
:1035B0007047000010B51348006840F00100114941
:1035C000086008464068104908400E4948600846AF
:1035D00000680E4908400B4908600846006820F45E
:1035E000802008600846406820F4FE0048604FF4E0
:1035F0001F008860FFF710FE4FF00060044908606C
:1036000010BD0000001002400000FFF8FFFFF6FEB2
:1036100008ED00E010B5FFF749FAFEF7AAFEFFF744
:1036200053FD00F003F900F0E5FB10BD10B50121DA
:10363000880700F02CF801280DD10121800700F047
:1036400017F805480068401C0349086003480068F3
:10365000401C0249086010BD880000208C0000203A
:1036600010B50121014800F003F810BD000400402E
:10367000CA430282704721B1028842F001020280EF
:1036800004E002884FF6FE731A400280704730B59E
:103690000246002000230024158A05EA01039589CB
:1036A00005EA010413B10CB1012000E0002030BD97
:1036B0001AB183890B43838102E083898B43838121
:1036C0007047000070B5002400220023058C4FF6DF
:1036D000EF7635400584028C8388048B48F6FF75AD
:1036E0002C404FF6FF452C400D884FF6FF7606EA3A
:1036F00005252C434FF6DF752A400D8906EA05158E
:103700002A434D8806EA05152A43154DA84202D0E2
:10371000144DA8421DD14FF67F752A404D894FF6B2
:10372000FF7606EA05152A434FF6BF752A408D88B5
:1037300006EA05152A434FF6FF352B404FF2FF7579
:103740002B408D8906EA85052B43CD8906EA850540
:103750002B4383800483CD880587028470BD0000DD
:10376000002C0140003401400A460021018B4FF239
:10377000FF7319404FF6FF7303EA022319430183D5
:103780007047018770470000002202881D4B984255
:103790000ED01D4B98420BD0B0F1804F08D01B4B80
:1037A000984205D01A4B984202D01A4B984204D145
:1037B0004FF68F731A404B881A43174B984207D025
:1037C000164B984204D04FF6FF431A40CB881A4359
:1037D00002808B8883850B8803850A4B98420BD027
:1037E000094B984208D00E4B984205D00D4B984299
:1037F00002D00D4B984201D10B7A038601238382BC
:1038000070470000002C01400034014000040040DB
:1038100000080040000C0040001000400014004070
:103820000040014000440140004801400EB5012124
:103830000846FFF715F90920ADF8040041F61F40CE
:10384000ADF800000020ADF80600ADF802006946B2
:103850004FF08040FFF798FF012211469007FFF7D5
:1038600027FF01218807FFF706FF0EBD10B5402195
:103870000D4800F04FF840F225510B4800F06CF86D
:1038800080B1094800F024F9084908700846017819
:10389000054800F022F900BF8021034800F04FF8EE
:1038A0000028F9D010BD0000003801403800002089
:1038B00010B54021144800F02DF840F2255112486F
:1038C00000F04AF8F0B1104800F002F90F49087012
:1038D00008210F48FDF722FC012001F0D9FA0B481E
:1038E0000178094800F0F9F800BF8021064800F08F
:1038F00026F80028F9D0022001F0CAFA082104486D
:10390000FDF70AFC10BD0000004400403900002013
:103910000020014001F40072B2F5007F00D100BF29
:10392000CA430280704721B1828942F400528281E9
:1039300004E082894DF6FF731A4082817047024687
:103940000020B1F5007F00D100BF13880B400BB100
:10395000012000E00020704770B5024600240023DB
:103960000025002040F66A16B14200D100BFC1F325
:10397000421501F01F03012606FA03F3012D02D1BF
:103980009689334006E0022D02D1168A334001E0C9
:10399000968A33400C12012606FA04F41688344045
:1039A00013B10CB1012000E0002070BDF0B503465A
:1039B000002400260025002040F66A17B94200D1F5
:1039C00000BF1846C1F3421401F01F06012707FA91
:1039D00006F5012C01D10C3004E0022C01D110308D
:1039E00000E014301AB107682F43076002E007684F
:1039F000AF430760F0BD00002DE9F04786B00546F3
:103A00000E460024A24600BFA1460027B08900B19F
:103A100000BF2F462C8A4CF6FF700440F088044308
:103A20002C82AC894EF6F3100440B08831890843EB
:103A3000718908430443AC81AC8A4FF6FF400440CF
:103A4000B0890443AC8201A8FFF794F81F4887426D
:103A500002D1DDF810A001E0DDF80CA0A88900F487
:103A6000004040B10AEBCA0000EB0A10316849007F
:103A7000B0FBF1F807E00AEBCA0000EB0A1031686E
:103A80008900B0FBF1F86420B8FBF0F004012009D4
:103A9000642101FB1089A88900F4004040B1322064
:103AA00000EBC900B0FBF1F000F00700044308E0B0
:103AB000322000EB09106421B0FBF1F000F00F00A0
:103AC00004432C8106B0BDE8F087000000380140B7
:103AD00001468888C0F308007047C1F3080282805D
:103AE000704700BFFEE77047704700002DE9F04FB8
:103AF00087B00646894614461D46DDF840A00020E2
:103B000005902046FCF7F0FC07463A460B4626A0F7
:103B100000F00EFC2846FCF7E7FC07463A460B4649
:103B200027A000F005FC5046FCF7DEFC07463A46AD
:103B30000B4629A000F0FCFB2D4804904946304676
:103B4000FCF776FB069050460699FCF777FB834618
:103B50000499FCF7A5FB074628460699FCF76EFB7F
:103B600001900499FCF76AFB834620460699FCF70E
:103B700065FB59460290FCF709FB80463946FCF785
:103B800005FB03900398FCF7AFFC07463A460B464B
:103B900018A000F0CDFB00211C48FFF7F2FD0398B0
:103BA00007B0BDE8F08F00005365742050207061AD
:103BB00072616D657465723A25660D0A0000000039
:103BC000536574204920706172616D657465723A45
:103BD00025660D0A000000005365742044207061C2
:103BE00072616D657465723A25660D0A0000000009
:103BF000CDCCCC3D536574204475747920706172CE
:103C0000616D657465723A25660D0A00002C0140ED
:103C10003EB50146002200200DE04B78034103F041
:103C200001031BB101230DF8003002E000230DF861
:103C30000030431CD8B20828EFDB002011E00B78DD
:103C4000034103F001032BB1012400F108030DF837
:103C5000034004E0002400F108030DF80340431C76
:103C6000D8B20428EBDB9DF80030012B02D1434C85
:103C7000236002E00023414C23609DF80130012BBA
:103C800003D13E4C0834236003E000233B4C08344E
:103C900023609DF80230012B03D1384C283C23606F
:103CA00003E00023354C283C23609DF80330012BB2
:103CB00002D1334C236002E00023314C23609DF895
:103CC0000430012B03D12E4C241F236003E000237A
:103CD0002B4C241F23609DF80530012B03D1274C6A
:103CE000241D236003E00023244C241D23609DF841
:103CF0000630012B03D1224C1834236003E000234B
:103D00001F4C183423609DF80730012B02D11D4C45
:103D1000236002E000231B4C23609DF80830012B38
:103D200003D1164C243C236003E00023134C243CB5
:103D300023609DF80930012B03D1114C143423600A
:103D400003E000230E4C143423609DF80A30012B4D
:103D500003D10C4C1C34236003E00023094C1C34B9
:103D600023609DF80B30012B03D1064C18342360DF
:103D700003E00023034C183423603EBDB40122420B
:103D8000840121428081214208B5FFF713FC012103
:103D90001C20FEF775FEC320ADF8000010208DF842
:103DA000030003208DF8020069460F48FDF7CEF8A6
:103DB000C120ADF8000010208DF8030003208DF81D
:103DC000020069460948FDF7C1F84EF21800ADF847
:103DD000000010208DF8030003208DF802006946D2
:103DE0000348FDF7B3F808BD00080140000C01408E
:103DF000001001400EB54FF48070ADF808000120AE
:103E00008DF80A0010208DF80B0002A91448FDF768
:103E10009DF84FF480711248FDF77EF94FF4007061
:103E2000ADF8080003208DF80A0048208DF80B003B
:103E300002A90B48FDF78AF809210120FDF766F871
:103E40004FF40070009000208DF804000C208DF8D5
:103E5000050001208DF806006846FCF7F3FF0EBD53
:103E6000000C014010B54FF480710B48FDF754F978
:103E70003220FCF71BFF4FF480710748FDF74EF925
:103E8000C820FCF713FF00BF2E20FFF721F800F039
:103E900001000028F8D010BD000C014010B500242E
:103EA0008021002000F080F90A20FCF7FFFE0422A8
:103EB0001C49012000F018FA04221B49052000F0DB
:103EC00013FA06221949092000F00EFA04221849B3
:103ED0000F2000F009FA00BF0BE002221E2120464D
:103EE00000F096F902221F21204600F091F9601C93
:103EF000C4B2082CF1DB4FF4FA61192000F06EF91E
:103F000008211B2000F050F9C021162000F04CF9C8
:103F10000121182000F048F91F222C21002000F078
:103F200077F910BD64000020680000206C000020BC
:103F30007200002010B5FFF7B1FFFCF7C3FE0020B0
:103F4000FFF788FA10BD000070B500BF00202B49B4
:103F500008701520FEF7BCFF054605F0F00115209E
:103F600000F022F91720FEF7B3FF054605F0010027
:103F700000283DD002210020FEF7CEFF0446224655
:103F80000221002000F044F904F0010028B11C488F
:103F9000007840F002001A49087004F0020050B1A5
:103FA00010220121002000F033F90020FFF752FA1F
:103FB00000201349087004F0100028B1114800785F
:103FC00040F002000F49087004F0040028B10D48C9
:103FD000007840F001000B49087004F0080038B187
:103FE00010220121002000F013F90020044908707C
:103FF0001720FEF76DFF00B1A8E770BD8700002015
:10400000850000208600002008B517208DF80000EC
:1040100000208DF8010001208DF802008DF80300CA
:104020006846FEF7C1F908BD10B518480078F8B920
:104030001748007860B90020FFF734FAFF2803D151
:1040400001201249087020E00020104908701CE08F
:104050000F48007801280CD10020FFF7D7F9FF287E
:1040600003D10120094908700FE0002007490870BA
:104070000BE00020FFF749FAFF2803D10320034992
:10408000087002E000200149087010BD8500002082
:10409000840000202DE9F04707460D469046002198
:1040A0003846FEF739FF00F00F0022280ED03B4AB9
:1040B0000C21384600F0ECF839484178007801EBE3
:1040C000002082B21021384600F0C2F82421384680
:1040D000FEF74CFF0646B146C6F30A064FF4004110
:1040E0003048FDF719F83046FEF7D4FF102101EBF8
:1040F0004711C9B241F00400FEF7BCFF06EB08000F
:10410000B0F5006F0ADA002405E015F8010BFEF7A0
:10411000B1FF601C84B24445F7DB2AE0C6F50060BD
:1041200086B2002405E015F8010BFEF7A3FF601C22
:1041300084B2B442F7DB4FF400411A48FCF7EEFFBB
:104140004FF400411748FCF7E7FF0020FEF7A2FFFD
:10415000102101EB4711C9B241F00400FEF78AFFBC
:1041600005E015F8010BFEF785FF601C84B244459D
:10417000F7DB4FF400410B48FCF7D0FF09EB0800D8
:104180001FFA80F94A462421384600F061F82022BF
:104190000121384600F03CF8BDE8F0877E000020A1
:1041A000820000200008014070B505460C464FF41F
:1041B00000410948FCF7B0FF2846FEF76BFF0520D9
:1041C000FEF758FF2046FEF755FF4FF40041024826
:1041D000FCF7A4FF70BD00000008014070B5054663
:1041E0000C464FF400410948FCF796FF2846FEF7BD
:1041F00051FF0620FEF73EFF2046FEF74BFF4FF42F
:1042000000410248FCF78AFF70BD00000008014031
:1042100070B504460D4616464FF400410B48FCF7B6
:104220007BFF2846FEF736FF082101EB4411C9B297
:1042300041F00500FEF71EFF3046FEF71BFF4FF46E
:1042400000410248FCF76AFF70BD00000008014011
:1042500070B504460D4616464FF400410B48FCF776
:104260005BFF2846FEF716FF082101EB4411C9B297
:1042700041F00600FEF7FEFE3046FEF70BFF4FF45E
:1042800000410248FCF74AFF70BD000000080140F1
:1042900070B505460E4614464FF400411148FCF730
:1042A0003BFF3046FEF7F6FE082101EB4511C9B28F
:1042B00041F00700FEF7DEFE14F8010BFEF7DAFE10
:1042C00014F8010BFEF7D6FE14F8010BFEF7D2FE30
:1042D00014F8010BFEF7CEFE4FF400410148FCF745
:1042E0001DFF70BD000801402DE9F04107460C4656
:1042F00015464FF400410D48FCF70EFF3846FEF717
:10430000C9FE0420FEF7B6FE002605E014F8010BF6
:10431000FEF7B0FE701C86B2AE42F7DB4FF40041F0
:104320000248FCF7FBFEBDE8F081000000080140F8
:104330000FB4054B10B503A9044A029800F020F908
:1043400010BC5DF814FB0000C94E0008900000206E
:104350000FB4084B10B504A902AA039800F010F995
:10436000044602A9002000F0A2FC204610BC5DF823
:1043700014FB0000AF4C000802E008C8121F08C17F
:10438000002AFAD170477047002001E001C1121FD6
:10439000002AFBD170472DE9F04104460D46164630
:1043A0001F46DDF81880EA1991B2A21990B2424670
:1043B000FDF74AF8EA1991B2A21B90B24246FDF706
:1043C00043F8EA1B91B2A21990B24246FDF73CF8BD
:1043D000EA1B91B2A21B90B24246FDF735F8AA192A
:1043E00091B2E21990B24246FDF72EF8AA1991B2A5
:1043F000E21B90B24246FDF727F8AA1B91B2E219E0
:1044000090B24246FDF720F8AA1B91B2E21B90B28F
:104410004246FDF719F8BDE8F08100002DE9FF5F85
:10442000DDE90220010DDDF838B0024318D044F672
:104430001050A1F2FF3141430D140F98012820D0F4
:10444000A5EB0B00401C5FEA000A4FF00004474E4A
:10445000DFF81C91A046504616D5CAF1000728E0A7
:104460000F98012443A2012808D0002100980F9B37
:10447000C0E90021C0E90243BDE8FF9F6FEA0B01DC
:10448000F4E7CBF10000DEE7074612E0F80707D0BB
:104490002246334640464946FBF740FF8046894660
:1044A0002246334610461946FBF738FF04460E46AF
:1044B0007F10002FEAD1DDE90201BAF1000F424678
:1044C0004B4602DAFBF72AFF01E0FBF799FF0446AF
:1044D0000E460022284BFCF7D1F903D84FF0FF30ED
:1044E000014607E00022254B20463146FCF706F93D
:1044F000FCF7ABF9102409E0002C0ADB0A220023A8
:10450000FCF737F8019B30321A55641E50EA01025D
:10451000F2D1641C019AC4F1110314440F9A012AC8
:1045200003D0012208430DD10AE0084304D0002043
:104530004FF0110B0F9080E7A3EB0B056D1E0DE004
:104540005B4504DD4FF0000205F1010504E003DAEC
:104550004FF00002A5F10105002AECD000980F9958
:10456000C0E90231C0E9004586E7000000002440B0
:104570000000F03F300000000000F0430000E03F8A
:104580002DE9FF4F95B09B468946064600250FE270
:10459000252877D100242746F84A0121059400E018
:1045A000044316F8013F203B01FA03F01042F7D113
:1045B00030782A2811D06FF02F033078A0F1300224
:1045C000092A16D8059A44F0020402EB820203EB92
:1045D00042021044761C0590EFE759F8042B05922F
:1045E000002A03DA504244F40054059044F00204D7
:1045F000761C30782E2816D116F8010F44F00404EA
:104600002A280DD06FF02F023078A0F13003092B4B
:1046100009D807EB870302EB4303C718761CF3E7BF
:1046200059F8047B761C30786C280FD006DC4C28B7
:1046300017D068280DD06A2814D104E0742810D04F
:104640007A280FD10DE044F400140AE044F48014F9
:1046500001E044F440147278824202D104F58014DF
:10466000761C761C307866280BD013DC582877D05F
:1046700009DC002875D04528F6D04628F4D0472814
:104680001AD19DE118E0632835D0642879D06528D7
:1046900012D195E1702873D008DC6728F1D0692821
:1046A0006FD06E280DD06F2806D1B5E073282CD0BE
:1046B000752875D0782874D05A46179990476D1C84
:1046C00075E1C4F30250022809D003280DD0D9F8AF
:1046D000001004280DD00D6009F1040967E1D9F834
:1046E0000010EA17C1E90052F6E7D9F800100D8072
:1046F000F2E70D70F0E719F8041B8DF800100020A8
:104700008DF80100EA46012003E059F804AB4FF0B0
:10471000FF3061074FF0000102D40DE008F1010104
:104720008846B9420FDA8045F8DB1AF808100029EC
:10473000F4D108E008F1010188468142FADB1AF859
:1047400008100029F6D105985B46A0EB0807214622
:104750003846179A00F094FA284400EB080507E061
:104760004DE029E10DE01AF8010B5A4617999047E0
:10477000B8F10108F7D25B4621463846179A13E193
:1047800042E00A220092C4F302524FF0000A022AC9
:1047900008D059F804CB032A4FEAEC710AD00DE097
:1047A00029E02AE009F1070121F00702F2E802C13D
:1047B000914609E00FFA8CFC4FEAEC71042A03D110
:1047C0004FFA8CFC4FEAEC71002907DA0A46002107
:1047D000DCF1000C61EB02012D2202E0220504D580
:1047E0002B228DF80420012203E0E20701D02022D1
:1047F000F7E7904659E00A2102E010220DE010216F
:104800004FF0000A00910BE010224FF0000A44F034
:1048100004040827009203E008224FF0000A0092E7
:10482000C4F30252022A05D059F804CB0021032A0E
:1048300008D009E009F1070121F00702F2E802C1FE
:10484000914605E01FFA8CFC042A01D10CF0FF0C04
:104850004FF00008220728D5702806D0009B83F06F
:10486000100353EA0A0305D00EE040228DF804201D
:10487000012208E05CEA010206D030228DF8042013
:104880008DF8050002229046009B83F0080353EA4E
:104890000A030AD15CEA010201D1620705D5302280
:1048A0008DF804204FF001087F1E582804D034A052
:1048B00003900EA802900DE036A0F9E7534660463B
:1048C000009AFBF756FE84460398825C0298401ECD
:1048D000029002705CEA0100F0D1029806A9081A61
:1048E00000F1200A600702D524F4803400E001279B
:1048F000574502DDA7EB0A0000E0002000EB0A01AB
:10490000009005984144401A0590E00306D45B46A8
:104910002146179A059800F0B3F90544002706E0F0
:1049200001A85A46C05D179990476D1C7F1C4745EA
:10493000F6DBE0030CD55B462146179A059800F09C
:104940009FF9054404E030205A46179990476D1CA2
:104950000099481E00900029F5DC08E002980299B1
:104960005A460078491C0291179990476D1CBAF17C
:104970000001AAF1010AF1DC65E10000092801004B
:1049800030313233343536373839616263646566C5
:104990000000000030313233343536373839414287
:1049A000434445460000000000F058F90544761CD9
:1049B000307800287FF4ECAD19B02846BDE8F08FC0
:1049C000620700D4062709F1070222F0070CFCE871
:1049D0000223E14603F000485FEA080C02D00FF220
:1049E000702C0DE05FEA045C02D50FF2682C07E042
:1049F0005FEAC47C02D00FF2602C01E0AFF2700CD1
:104A00004FF0FF3823F00043CDF850C065280CD09C
:104A100006DC452809D046281DD047283DD13DE079
:104A2000662818D067287ED138E00021112F01DBDD
:104A3000112000E0781CCDE9000106A90EA8FFF7BF
:104A4000EDFCDDE90F010E9A03910021009207F1C0
:104A5000010A04914DE04FF000400097CDE90110AC
:104A600006A90EA8FFF7DAFCDDE90F0203920E9B00
:104A700011990022DDF80CA00093049211B9791C61
:104A800000EB010AB7EB0A0004D4C0F1FF3007F1D4
:104A9000010A0490AAEB0700019044E0012F00DA1C
:104AA00001270021112F01DD112000E03846CDE95A
:104AB000000106A90EA8FFF7B1FCDDE90F010E9A6F
:104AC0000391002104910092BA4621070CD4039966
:104AD000514500DA8A46BAF1010F05DD009AAAF1C4
:104AE0000101515C302908D0B84202DA10F1040FFC
:104AF00006DA0121CDE9011015E0AAF10101E9E78B
:104B0000002805DC049901440491AAEB000102E0AD
:104B1000411C514500DD8A460499401A401C019011
:104B20004FF000400290200704D40198504501DB6B
:104B3000CDF8048000208DF84F0002980DF14F074A
:104B4000B0F1004F25D02B200E9002984FF00208B4
:104B500000280CDA404202902D200E9007E00A2136
:104B60000298FBF7F0FC3031029007F8011DB8F114
:104B70000001A8F10108F2DC02980028EFD1791EAB
:104B80000E980870307800F0200040F0450007F8DB
:104B9000020D12A8C01B00F107081498007800B19C
:104BA000012000EB0A01019801EBE07105984144F6
:104BB000401A401E0590E00306D45B462146179A32
:104BC000059800F05DF805441498007818B15A462D
:104BD000179990476D1CE00324D55B462146179A30
:104BE000059800F04DF805441CE00498002807DB08
:104BF000DDE90301884203DD0098405C179901E07C
:104C0000179930205A469047049805F10105401C39
:104C100004900198401E019004D12E205A46179905
:104C200090476D1CBAF10001AAF1010ADDDC05E034
:104C300017F8010B5A46179990476D1CB8F10001FF
:104C4000A8F10108F4DC5B462146179A0598ABE60B
:104C50002D0000002B000000200000002DE9F04195
:104C6000044600251E461746880404D405E039464C
:104C70002020B0476D1C641EF9D52846BDE8F081A0
:104C80002DE9F041044600251E469046C80301D593
:104C9000302700E02027880404D505E04146384647
:104CA000B0476D1C641EF9D52846BDE8F0810A683E
:104CB000531C0B601070704700B587B0012140F2A3
:104CC0000520FDF7DDFE4FF40040FDF7BDFE01209D
:104CD000ADF8180000208DF81B0003208DF81A0095
:104CE00006A95A48FCF732F9002001908DF8080017
:104CF0008DF809004FF460200390002004900120FB
:104D00008DF8140001A95248FBF740FE01215048DC
:104D1000FBF70FFE4E48FBF7F1FE00BF4C48FBF7D8
:104D20002AFE0028FAD14A48FBF7F8FE00BF48489F
:104D3000FBF70AFE0028FAD1072301220A21444882
:104D4000FBF780FE01214248FBF7DDFE0220ADF8B3
:104D5000180000208DF81B0003208DF81A0006A90A
:104D60003A48FCF7F3F8002001908DF808008DF820
:104D700009004FF4602003900020049001208DF87A
:104D8000140001A93248FBF701FE01213048FBF76E
:104D9000D0FD2F48FBF7B2FE00BF2D48FBF7EBFD1F
:104DA0000028FAD12A48FBF7B9FE00BF2848FBF7D4
:104DB000CBFD0028FAD1072301220A212448FBF762
:104DC00041FE01212248FBF79EFE0420ADF81800A9
:104DD00000208DF81B0003208DF81A0006A91B483F
:104DE000FCF7B4F8002001908DF808008DF8090058
:104DF0004FF4602003900020049001208DF81400EF
:104E000001A91348FBF7C2FD01211148FBF791FDF1
:104E10000F48FBF773FE00BF0D48FBF7ACFD002801
:104E2000FAD10B48FBF77AFE00BF0948FBF78CFD6F
:104E30000028FAD1072301220A210548FBF702FEC8
:104E400001210348FBF75FFE07B000BD00100140E1
:104E50000024014010B504466FF00400FEF794FBF7
:104E6000E11704EB5171C1F3C701074A11701046F5
:104E7000007800EB4001C1EBC0104FF6FF7101EA72
:104E8000C0000249088010BD4E00002050000020E4
:104E9000014642F228324A434FF0E0235A61012290
:104EA0001A6100229A6100BF4FF0E022106900F001
:104EB00001021AB100F48032002AF5D000224FF02E
:104EC000E0231A619A61704770B504460D46E1B25D
:104ED0000548FEF702FE00BF80210348FEF72FFDC4
:104EE0000028F9D0204670BD003801402DE9FF4F61
:104EF00081B0824617469846DDF838B00024454612
:104F00004FEA4800C0F10306BBF1000F1FD01BE0C1
:104F1000A14608E04B462246009750460299FFF70B
:104F20003AFA09F10109A945F4DD002E04DA04205A
:104F300000FB0460861D06E0601B042101FB00608D
:104F400000F10A066D1E641CAC42E1DD18E015E0BC
:104F50002B462246009750460299FFF71CFA002E76
:104F600004DA042000FB0460861D06E0601B0421B7
:104F700001FB006000F10A066D1E641CAC42E7DD17
:104F800005B0BDE8F08F00001FB54FF07C542546FA
:104F900000200290DE4EB146B246DE480460DE4894
:104FA0000560DE480660DE48C0F80090DD48C0F8C5
:104FB00000A0D848D0F800B0D74800680390FEF7AA
:104FC000F9FA4820FFF746FFFCF7DCFEFDF760F931
:104FD000FFF772FE00F086FAFBF734FE0021084668
:104FE000FBF720FE00214FF4617000F0D5FAFEF7C8
:104FF000CBFEFCF73BFCFCF735FAFEF70BFBFDF7AD
:105000007BF9FEF72FFFFEF795FFFFF70DF87EE126
:105010004FF47A70FFF73CFFC348007808B1FEF701
:1050200093FFC248007800F0010040B1BF4800780B
:1050300020F00100BD4908700020FDF703FABC48CC
:105040000078002871D1BBA0FFF772F9BF48007843
:1050500018B9BFA0FFF76CF957E1C1A0FFF768F9D5
:10506000C24800788DF80400C04840788DF80500EB
:1050700001A8FEF7CDFDBE480078002871D1BDA083
:10508000FFF756F9C1A0FFF753F9A6480068009052
:10509000A3480368A1480268C14801685846FEF762
:1050A00025FDC0480078002840D1BFA0FFF740F997
:1050B000C3480078A0B9C3A0FFF73AF9AB4800781D
:1050C0008DF80400A94840788DF8050001A8FEF786
:1050D0009FFD9148006803908E48D0F800B014E11D
:1050E000BCA0FFF725F9A1480078BD49097808431D
:1050F0008DF804009D484078B949497808438DF8F7
:10510000050001A8FEF784FD9948007830B9B5A0E4
:10511000FFF70EF9B848D0F800B0F6E0B7A0FFF7F7
:1051200007F9BC4800680390EFE0DAE0BAA0FFF7A7
:10513000FFF8A3480078A8B9BDA0FFF7F9F88B489D
:1051400000788DF80400894840788DF8050001A8A2
:10515000FEF75EFD7048006803906E48D0F800B01E
:10516000D3E024E09BA0FFF7E3F8804800789C4957
:10517000097808438DF804007C48407898494978BC
:1051800008438DF8050001A8FEF742FD7848007835
:1051900030B9AAA0FFF7CCF89748D0F800B0B4E037
:1051A000ACA0FFF7C5F89B4800680390ADE0AFA046
:1051B000FFF7BEF8B3480068FBF796F907463A4692
:1051C0000B46B1A0FFF7B4F80398FBF78DF907463B
:1051D0003A460B46B1A0FFF7ABF8724800780028BA
:1051E0003FD1B4A0FFF7A4F875480078A0B975A026
:1051F000FFF79EF85D4800788DF804005B48407822
:105200008DF8050001A8FEF703FD434800680390F0
:105210004048D0F800B078E06EA0FFF789F8534816
:1052200000786F49097808438DF804004F484078AA
:105230006B49497808438DF8050001A8FEF7E8FCA2
:105240004B48007830B967A0FFF772F86A48D0F889
:1052500000B05AE069A0FFF76BF86E480068039051
:1052600053E06DA0FFF764F855480078A0B970A02E
:10527000FFF75EF83D4800788DF804003B48407821
:105280008DF8050001A8FEF7C3FC234800680390D1
:105290002048D0F800B038E04EA0FFF749F8334876
:1052A00000784F49097808438DF804002F4840786A
:1052B0004B49497808438DF8050001A8FEF7A8FC82
:1052C0002B48007830B95DA0FFF732F84A48D0F893
:1052D00000B01AE05FA0FFF72BF84E48006803907B
:1052E00013E0224800788DF80400204840788DF8BB
:1052F000050001A8FEF78CFC0748006803900548EC
:10530000D0F800B071A0FFF713F8FEF71DF97FE6A3
:10531000CDCCCC3D080000200C0000201C0000205B
:1053200020000020240000208700002086000020AC
:105330002B0000204E6F726D616C2052756E6E698D
:105340006E67204D6F64650A000000002800002091
:1053500056616C766520636C6F73650A000000000F
:1053600056616C7665204F70656E0A001A00002049
:105370002E0000205045565F436F6E74726F6C2094
:105380004D6F64652031200A0000000043616C6CA1
:10539000205049442066756E74696F6E0A0A0A00CF
:1053A000300000202C000020436F6D6D616E642082
:1053B0002054726967676572204D6F64650A00004A
:1053C0002D000020556E70756666204D6F64650A6D
:1053D0000000000070756666204D6F64650A00006D
:1053E0001800002050657620636F6E74726F6C2019
:1053F0006D6F646520320A001400002031343739A3
:105400004120636F6E74726F6C206D6F6465203223
:105410000A0000001000002054696D696E67205476
:10542000726967676572204D6F6465200A0000002D
:10543000556E70756666206D6F64650050657620E8
:10544000636F6E74726F6C206D6F64652032200A1A
:1054500000000000313437394120636F6E74726F81
:105460006C206D6F64652032200A000031343739BA
:10547000415F436F6E74726F6C204D6F64652031B5
:105480000A0A000034000020466C6F7720537461D4
:105490007475733A25660A0A000000005461726749
:1054A000657420466C6F772056616C75653A256689
:1054B0000A0A0000436F6D6D616E6409547269677A
:1054C000676572204D6F64650A0000007765206192
:1054D000726520696E206475627567206D6F646502
:1054E0000000000000B587B0012144F20500FDF77F
:1054F000C7FA4FF40070ADF8180003208DF81A00B9
:1055000018208DF81B0006A92148FBF71FFD4FF45A
:105510008060ADF8180004208DF81B0006A91C4817
:10552000FBF714FD4FF4C060FCF776FF25208DF8E3
:10553000140000208DF8150001208DF816008DF85C
:10554000170005A8FCF730FF4FF41650019000201B
:10555000ADF80800ADF80A00ADF80C00ADF8100089
:105560000C20ADF80E0001A90A48FEF745FA01210A
:105570000848FEF7D8F9012240F225510548FEF708
:1055800015FA40210348FEF7C5F907B000BD000039
:10559000000801400038014030B589B005460C468E
:1055A00001210420FDF76CFA0121C802FDF758FA29
:1055B00001210846FDF764FA4FF40070ADF82000B1
:1055C00003208DF8220018208DF8230008A9134825
:1055D000FBF7BCFCADF81850ADF814400020ADF856
:1055E0001A00ADF8160005A90D48FEF7CDF86020A9
:1055F000ADF804000120ADF806000220ADF80C0063
:1056000001A90748FEF75EF808210548FEF7ACF847
:1056100001210348FEF72FF809B030BD0008014012
:10562000002C01400A000B000C00000000000000EC
:10563000000000000000000004040404040400044E
:10564000000000140A0A0000000000000000000032
:1056500014143F140A3F0A0A000000041E15050630
:105660000C14150F0400000012150D0A142C2A1238
:1056700000000000040A0A1E151509360000000289
:1056800002010000000000000000002010080808CF
:105690000808081020000002040808080808080488
:1056A000020000000004150E0E15040000000000AA
:1056B0000404041F040404000000000000000000B3
:1056C00000000002020100000000001F00000000B6
:1056D00000000000000000000000000200000010B8
:1056E0000808080404020202010000000E11111152
:1056F0001111110E00000000040604040404040E3D
:10570000000000000E1111080402011F000000003B
:105710000E11100C1010110E00000000080C0A0AE7
:10572000091E0818000000001F01010F1010110EC3
:10573000000000000E09010F1111110E0000000001
:105740001F09080404040404000000000E11110ED7
:105750001111110E000000000E1111111E10120E79
:105760000000000000000400000000040000000031
:1057700000000004000000040400002010080402DF
:10578000040810200000000000001F00001F00009F
:1057900000000002040810201008040200000000AD
:1057A0000E11110804040004000000000E11191568
:1057B000151D011E0000000004040C0A0A1E12330D
:1057C000000000000F12120E1212120F0000000053
:1057D0001E1101010101110E000000000F12121232
:1057E0001212120F000000001F120A0E0A02121FEE
:1057F000000000001F120A0E0A020207000000004B
:105800001C1201013911120C000000003312121E8B
:1058100012121233000000001F0404040404041FC9
:10582000000000003E0808080808080907000000FA
:1058300037120A060A0A12370000000007020202A5
:105840000202223F000000001B1B1B1B1515151533
:10585000000000003B1216161A1A12170000000072
:105860000E1111111111110E000000000F12120E75
:1058700002020207000000000E1111111117190E8B
:10588000180000000F12120E0A121237000000005A
:105890001E1101060810110F000000001F1504045E
:1058A0000404040E00000000331212121212120C33
:1058B000000000003312120A0A0C04040000000069
:1058C0001515150E0A0A0A0A000000001B0A0A0430
:1058D000040A0A1B000000001B0A0A040404040E48
:1058E000000000001F0908040402121F0000001C31
:1058F00004040404040404041C000002020204045E
:10590000080808100000000E080808080808080821
:105910000E0000040A00000000000000000000006B
:105920000000000000000000003F00040000000034
:1059300000000000000000000000000C121C123CDF
:10594000000000000302020E1212120E00000000FE
:105950000000001C1202021C000000001810101CA5
:105960001212123C000000000000000C121E021C6B
:10597000000000003804041E0404041E000000009F
:105980000000003C120C021E221C00000302020E4A
:105990001212123700000000040000060404040E76
:1059A000000000000800000C0808080808070000B4
:1059B0000302023A0A0E1237000000000704040432
:1059C0000404041F000000000000000F1515151549
:1059D000000000000000000F12121237000000004B
:1059E0000000000C1212120C000000000000000F5A
:1059F0001212120E020700000000001C1212121CEC
:105A0000103800000000001B060202070000000022
:105A10000000001E020C101E000000000004040E16
:105A200004040418000000000000001B1212123CC5
:105A30000000000000000037120A0C040000000003
:105A400000000015150E0A0A000000000000001BEF
:105A50000A040A1B0000000000000037120A0C04B0
:105A6000040300000000001E0804041E00000018CB
:105A700008080804080808081800080808080808A2
:105A800008080808080800060404040804040404BC
:105A900006000225180000000000000000000000C1
:105AA00000000000000000000000000000000000F6
:105AB0000008080808080808000018180000004836
:105AC0006C24120000000000000000000000000034
:105AD000002424247F1212127F12121200000000F0
