:020000040800F2
:100000005015002045010008BD28000809210008FE
:10001000B9280008250E0008F34E00080000000073
:10002000000000000000000000000000274500085C
:10003000B10F0008000000008D29000845490008A4
:100040005F0100085F0100085F0100085F01000810
:100050005F0100085F0100085F010008A5100008AB
:10006000291100085F0100085F0100085F01000816
:100070005F0100085F0100085F0100085F010008E0
:100080005F0100085F0100085F0100085F010008D0
:100090005F0100085F0100085F0100087D11000892
:1000A0005F0100085F0100085F0100085F010008B0
:1000B000C1490008F54900085F0100085F01000818
:1000C0005F0100085F0100085F0100085F01000890
:1000D0005F0100087D4C0008C14C00085F0100086A
:1000E0005F0100085F0100085F0100085F01000870
:1000F0005F0100085F0100085F0100085F01000860
:100100005F0100085F0100085F0100085F0100084F
:100110005F0100085F0100085F0100085F0100083F
:100120005F0100085F0100085F0100085F0100082F
:10013000DFF80CD000F01CFC0048004715650008F3
:10014000501500200648804706480047FEE7FEE7B6
:10015000FEE7FEE7FEE7FEE7FEE7FEE7FEE7FEE777
:10016000494900083101000840EA01039B0703D018
:1001700009E008C9121F08C0042AFAD203E011F8E6
:10018000013B00F8013B521EF9D27047F0B480EAFF
:100190000102D40F4200B2EB410F02D202460846E0
:1001A00011464A0042D0C30DDDB2C1F3C752AD1AA9
:1001B000202D35DAC1F3160141F4000204B1524298
:1001C000C5F1200602FA06F12A411044B3EBD05FD4
:1001D00023D0C4B1012DA0EBC35009DCF0BC4FF01B
:1001E000004202EAC352DBB200F5000000F076BA2A
:1001F000400000F1807000EBC350A0F1807040EA35
:10020000D170490009E0490841EAC071A0EBC35030
:1002100000F50000400800EBC350F0BC00F055BAF8
:100220006142012202EB4101001BF6E7F0BC70477E
:1002300081F00041AAE780F00040A7E780EA0102D0
:1002400010B502F00043400022D04A001FD0010E3A
:1002500001EB1261C0F35600C2F3560240F40000F5
:1002600042F40002A0FB022000047F39140400D0F5
:10027000401C50EA124001D44000491EC2B20C0694
:1002800004EBD010401C4008802A02D003E000207C
:1002900010BD20F00100002900DA0020184310BD35
:1002A00030B480EA010202F0004530F0004221F053
:1002B000004013D090B1C30DD40DC2F31601C0F3AA
:1002C0001600E41A41F4000140F400027D3491422A
:1002D00001D3641C00E04900002C02DA30BC00208D
:1002E00070474FF400000023914201D3891A034361
:1002F00040084FEA4101F7D151B1914202D14FF08C
:10030000004105E002D24FF0010101E06FF0010170
:1003100003EBC450284430BC00F0D7B92DE9FE4FA0
:1003200081EA030404F0004421F0004100944FF0FE
:10033000000B23F0004350EA01045ED052EA0304AC
:100340005BD0C3F30A54C1F30A552C44A4F2F3342E
:100350000194A0FB0254C1F3130141F48011C3F3D3
:10036000130343F4801301FB024400FB034E840A91
:10037000970A44EA815447EA8357A4FB0768029529
:100380008D0A05FB07854FEA932C04FB0C542705C7
:10039000029D4FEA065847EA1637B5EB08056EEBA3
:1003A000070C870E920E47EA811742EA8312A7FBD9
:1003B0000201B6EB0B0164EB00042B0D43EA0C3396
:1003C0005E1844EB1C50DA465146E7FB0201C5F3C8
:1003D00013044FEA0B3343EA14534FEA0432019CEF
:1003E00043EA0603A4F10C040294009CCDE900B496
:1003F00000F0B1F903B0BDE8F08F00200146F9E745
:100400002DE9F04D81EA030404F0004B21F0004592
:1004100014464FF0000A23F0004150EA050220D0B4
:1004200054EA01021DD0C5F30A570246C5F313036F
:10043000C1F31300C1F30A5640F4801543F480134E
:10044000A7EB0608101BD64608F2FD3873EB050033
:1004500002D308F1010801E092185B41B8F1000FE6
:1004600003DA00200146BDE8F08D00204FF4801132
:10047000064684460EE0171B73EB050705D3121BD7
:1004800063EB050306434CEA010C49084FEA3000D0
:1004900092185B4150EA0107EDD152EA030012D0F5
:1004A00082EA040083EA0501084305D0101BAB4132
:1004B00006D20122002306E000224FF0004302E0B2
:1004C0006FF0010253101AEB06004CEB085110EBD1
:1004D0000A0041EB0B01BDE8F04D00F02DB9C10F52
:1004E00080EAE0700844CA079623002100F0F6B8BD
:1004F00096230022114600F0F1B800F0004220F0EF
:100500000040C10DC0F3160040F400007F2901DA5D
:1005100000207047962903DCC1F19601C84001E034
:1005200096398840002AF4D04042704720F00040BD
:10053000C10DC0F3160040F400007F2901DA00204D
:100540007047962903DCC1F19601C840704796397F
:100550008840704700F0004230F000400AD0C10DE2
:1005600001F56071C0F3160042EA0151C20840076C
:1005700011437047002001467047000030B5041E4B
:1005800071F1000404DB4FF00044404264EB0101D0
:10059000141E73F1000405DB1C464FF00043524269
:1005A00063EB04038B4208BF824230BD30B5041EAA
:1005B00071F1000404DB4FF00044404264EB0101A0
:1005C000141E73F1000405DB1C464FF00043524239
:1005D00063EB0403994208BF904230BD01F0004331
:1005E00030B421F0004150EA010206D00A0DA2F514
:1005F0006072C1F31301002A02DC30BC0020704796
:10060000440F44EAC104C100E01830BC00EBC25002
:1006100000F05BB8002801DBC0F10040002901DBDD
:10062000C1F1004181427047002801DBC0F1004068
:10063000002901DBC1F100418842704730B50B460B
:10064000014600202022012409E021FA02F59D4202
:1006500005D303FA02F5491B04FA02F52844151ED6
:10066000A2F10102F1DC30BD2DE9F05F054600206A
:1006700092469B4688460646814640241BE0284613
:1006800041464746224600F094F953465A46C01A5E
:10069000914110D311461846224600F07BF92D1ADD
:1006A00067EB01084F4622460120002100F072F955
:1006B00017EB00094E41201EA4F10104DFDC48467F
:1006C00031462A464346BDE8F09F0029A8BF70473F
:1006D000401C490008BF20F00100704710B4B0FA78
:1006E00080FC00FA0CF050EA010404BF10BC704713
:1006F00049B1CCF1200421FA04F411FA0CF118BF2D
:10070000012121430843A3EB0C01CB1D4FEA0061FB
:100710004FEA102042BF002010BC704700EBC350CE
:1007200010440029A4BF10BC7047401C490008BFFA
:1007300020F0010010BC704710B5141E73F10004C6
:1007400008DA401C41F1000192185B411A4301D1C3
:1007500020F0010010BD2DE9F04D92469B4611B1ED
:10076000B1FA81F202E0B0FA80F22032904600F055
:1007700011F904460F4640EA0A0041EA0B015346CC
:100780005A46084313D0114653EA010019D0C8F164
:100790004002504600F00DF905460E4650465946B7
:1007A000424600F0F7F8084305D0012004E0204657
:1007B0003946BDE8F08D0020054346EAE0762C433B
:1007C00037430A986305E40AA0EB08000022FD0AFB
:1007D00044EA47540A3002D500200146E9E7010502
:1007E00010196941DDE9084500196941BDE8F04D7E
:1007F000A2E72DE9FE4F804681EA0300C00F0C46B8
:10080000009021F0004123F00045B8EB0200A9411F
:1008100005D24046214690461C460B46024623F030
:100820000040104347D0270DC7F30A00C3F30A5115
:100830000290401A019040286BDAC3F3130040F491
:10084000801B0098924620B10023D2EB030A63EB91
:100850000B0B01985946C0F14002504600F09AF83F
:1008600006460D4650465946019A00F0B2F810EB84
:1008700008006141002487EA115284EAE7731A43B1
:1008800040D0009A62B3019A012A4FEA075215DC60
:10089000001B61EB02014FF0004202EA0752CDE972
:1008A0000042001C41F5801132462B46FFF753FFF2
:1008B00003B0BDE8F08F40462146F9E7001B61EB2D
:1008C0000201001C41F5801300185B412018A2F5BD
:1008D000001747EB030140EAD570B6196D4111E0EE
:1008E0006D084FEA360645EAC0754FEA0752001B0D
:1008F00061EB0201001C41F5801149084FEA30000C
:100900000019514132462B4603B0BDE8F04FFFF7C6
:1009100013BF0098012240000023D0EB020263EBDA
:10092000E073009821464FEAE074B8EB000061EBF9
:100930000401E9E783F000435BE781F0004158E7F9
:10094000C1F30A52C1F3130140F2FF3341F48011A5
:100950009A4202DA00200146704740F233439A423D
:10096000A2F2334202DC524200F023B800F012B887
:10097000064C074D06E0E06840F0010394E80700EC
:1009800098471034AC42F6D3FFF7D6FBCC92000860
:10099000EC920008202A04DB203A00FA02F1002041
:1009A00070479140C2F1200320FA03F319439040AD
:1009B0007047202A04DB203A21FA02F00021704718
:1009C00021FA02F3D040C2F12002914008431946B7
:1009D0007047202A06DBCB17203A41FA02F043EA9F
:1009E000E07306E041FA02F3D040C2F120029140E8
:1009F00008431946704770B58C1810F8015B15F064
:100A0000070301D110F8013B2A1106D110F8012B80
:100A100003E010F8016B01F8016B5B1EF9D12B07A5
:100A200005D40023521E0DD401F8013BFAE710F85B
:100A3000013BCB1A921C03E013F8015B01F8015B48
:100A4000521EF9D5A142D8D3002070BD21B18268D1
:100A500042F00102826003E0826822F001028260BB
:100A60007047000010B504461248844208D10121A5
:100A7000401503F08DF90021601503F089F917E0A6
:100A80000D48844208D10121001503F081F90021AD
:100A9000201503F07DF90BE00848844208D10121BC
:100AA000C80303F075F900214FF4004003F070F91A
:100AB00010BD00000024014000280140003C01401E
:100AC000014600208A6802F004020AB1012000E019
:100AD000002070470146C86C80B270470246002073
:100AE00013680B400BB1012000E000207047014665
:100AF00000208A6802F008020AB1012000E000200C
:100B00007047000030B502460020002350680F4CAB
:100B100020400D790C6844EA052420435060906819
:100B20000B4C2040D1E902542C434D7944EA450452
:100B300020439060D06A20F470000C7C641EE4B204
:100B4000234340EA0350D06230BD0000FFFEF0FFB7
:100B5000FDF7F1FF2DE9F04192B005460E46142253
:100B6000274903A8FFF700FB00241FE055F82400E5
:100B7000FFF7F0FC074603A83A460B4621A1009078
:100B800008A804F079FE00200C2108AACDE9002174
:100B9000029004EB8400382202EB80014FF6FF73D1
:100BA0000022822003F034FD601CC4B2032CDDDB84
:100BB00000241FE056F82400FFF7CCFC074603A8EA
:100BC0003A460B460FA1009008A804F055FE0020FD
:100BD0000C2108AACDE90021029004EB8400382200
:100BE00002EB80014FF6FF7300223C2003F010FD62
:100BF000601CC4B2032CDDDB12B0BDE8F081000044
:100C0000709200082566252E32307300F0B5044638
:100C10000D4600200021092D11DDE068A5F10A062E
:100C200006EB4607072606FA07F18843A5F10A06F0
:100C300006EB460603FA06F10843E0600CE0206983
:100C400005EB4507072606FA07F1884305EB45063D
:100C500003FA06F108432061072A0FDA606B561E7B
:100C600006EB86071F2606FA07F18843561E06EB99
:100C7000860605FA06F10843606322E00D2A0FDAC2
:100C8000206BD61F06EB86071F2606FA07F188435E
:100C9000D61F06EB860605FA06F10843206310E02E
:100CA000E06AA2F10D0606EB86071F2606FA07F199
:100CB0008843A2F10D0606EB860605FA06F1084305
:100CC000E062F0BD816841F008018160704721B1A8
:100CD000826842F4A002826003E0826822F4A002EB
:100CE00082607047816841F00401816070477047FD
:100CF0002DE9F04704462046FFF72CFC0746054A3D
:100D0000054BFFF70BFB0546FFF768FC814648469D
:100D1000BDE8F0872793508334481B402DE9F04706
:100D200004462046FFF716FC0746064A064BFFF727
:100D3000F5FA0546FFF752FC8146A1464846BDE854
:100D4000F08700002793508334481B402DE9F0477B
:100D50000E48FFF787FE05F0E3FA01210A2000F0B4
:100D60008DFF81464846FFF7C3FB8246FFF7F2FB43
:100D700007464FF06632064BFFF7D0FA0546FFF7FD
:100D80002DFC04462046BDE8F08700000024014009
:100D900066664A3F2DE9F0470E48FFF763FE05F00F
:100DA0001FFA01210C2000F069FF81464846FFF739
:100DB0009FFB8246FFF7CEFB07464FF06632064B9D
:100DC000FFF7ACFA0546FFF709FC04462046BDE8EC
:100DD000F08700000024014066664A3F2DE9F04795
:100DE0000E48FFF73FFE05F04BFA01210B2000F003
:100DF00045FF81464846FFF77BFB8246FFF7AAFB8B
:100E000007464FF06632064BFFF788FA0546FFF7B4
:100E1000E5FB04462046BDE8F087000000240140C1
:100E200066664A3F00BFFEE7F0B502460B464FF646
:100E3000FF71002412E012F8010B414000260AE085
:100E400001F0010020B149084AF20100414000E0F0
:100E50004908701CC6B2082EF2DB641C9C42EAD31F
:100E600012F8015B107805EB00258D4201D10120BD
:100E7000F0BD0020FCE7000039B1084A12680123E8
:100E800083401A43054B1A6006E0044A12680123A6
:100E900083409A43014B1A60704700000074004081
:100EA00030B5002200230A4C226840F6FE748440CC
:100EB000A243D1E900452C438D682C43CD6844EA18
:100EC000050303FA00F42243014C226030BD000008
:100ED0000074004008B500220092054A009200F11B
:100EE0000802009B1A440092009A116008BD00009D
:100EF0000074004000B585B00121042002F038FFE5
:100F00000121480702F024FF1020ADF81000002056
:100F10008DF8130003208DF8120004A90D4800F08D
:100F2000FBF910210B4800F0DFFA0020009001903F
:100F300002900220039069460020FFF7B1FF0121D3
:100F40000020FFF799FF00210846FFF7C3FF05B017
:100F500000BD0000000801402DE9F047044620468E
:100F6000FFF7C6FA814610494846FFF799F98146CE
:100F70004FF08B414846FFF761F98246FFF7EAFAE6
:100F800007464FF06632094BFFF73AFA0546FFF77E
:100F900025FB81464846FFF7C9FA85B2294600205D
:100FA000FFF798FFBDE8F08700007A4466660A40C4
:100FB000704700000021044A116000BF024909681F
:100FC0008142FBD3704700001801002038B5324839
:100FD0000078401CC0B28DF800002F484078401CBB
:100FE000C0B28DF801002C488078401CC0B28DF84A
:100FF00002002948C078401CC0B28DF803006A4640
:101000000C21002004F0D8FB01220021084604F046
:1010100093FB01221146002004F08EFB0520FFF710
:10102000C9FF0321002003F0FFF813280BD0102282
:101030000121002004F080FB0020184908601849B5
:10104000C1F8B80138BD04220121002004F074FB6E
:1010500000BF00240221002003F0E6F8044624B17A
:1010600022460221002004F067FB0520FFF7A2FFC3
:1010700004F00800082801D10020E3E70621002041
:1010800003F0D2F8FF2806D010220121002004F03E
:1010900053FBFF20D6E7DCE702010020BC0122421F
:1010A0000000224210B50EA004F0D6FB022000F092
:1010B0007BF8012813D1022000F070F80A2005F017
:1010C0009DF902210B4800F0FBF940B90A2005F018
:1010D00095F9FF200849087008A004F0BDFB10BD79
:1010E000496E20746865206D696420657874693183
:1010F00000000000000C01404500002077652061E1
:10110000726520696E20746865206D6964646C6521
:10111000206F66206578746920696E7465727275D7
:1011200070740D0A0000000010B5042000F03CF8B7
:1011300001281ED100F032F80A2005F05FF90421E1
:101140000C4800F0BDF968B901210B4800F0C1F965
:1011500020B90121084800F0C7F903E00121064841
:1011600000F0C0F900BF0421024800F0A9F90028EE
:10117000F9D010BD001801400010014010B54FF427
:10118000007000F011F830B14FF4007000F006F874
:1011900001200149087010BD1701002001490860B5
:1011A0007047000014040140014600200022074B54
:1011B0001B6803EA0102054B14331B680B4013B193
:1011C0000AB1012000E00020704700000004014047
:1011D000002123498279002A3AD00A46126803681E
:1011E0009A430B461A600A1D126803689A430B1D46
:1011F0001A60027911440A6803681A430A60184A9F
:101200000832126803689A43154B08331A601A1D96
:10121000126803689A43124B0C331A604279102A01
:101220000ED11A1F126803681A430D4B08331A6057
:101230001A1D126803681A43094B0C331A600DE03B
:101240000749427911440A6803681A430A6005E0B5
:10125000027911440A6803689A430A6070470000E3
:10126000000401400549096821F01001034A11609A
:1012700011460968014311607047000000200240D8
:1012800001460020034A106800F03800084310604F
:101290007047000000200240704700002DE9F04137
:1012A00004462046FFF7F8FF05460A492046FEF7A8
:1012B000C5FF0746FFF721F90646FFF710F9054677
:1012C0002846FFF733F986B23046FFF745FEBDE802
:1012D000F08100000000C84230B500228B071C0FCF
:1012E0000F2303FA04F20B4B8C1053F82430934372
:1012F000084C8D1044F8253023468C1053F82430C8
:101300008C07240F00FA04F42343024C8D1044F898
:10131000253030BD080001402DE9F041024600258E
:101320000026002000230024002791F803C00CF0C1
:101330000F0591F803C00CF0100CBCF1000F03D0A6
:1013400091F802C04CEA050591F800C0BCF1000F0D
:1013500031D0146800202BE04FF0010C0CFA00F3A0
:10136000B1F800C00CEA03069E4220D183004FF082
:101370000F0C0CFA03F7BC4305FA03FC4CEA040417
:1013800091F803C0BCF1280F06D14FF0010C0CFA04
:1013900000FCC2F814C00AE091F803C0BCF1480F89
:1013A00005D14FF0010C0CFA00FCC2F810C0401C33
:1013B0000828D1D31460B1F800C0BCF1FF0F34DDB0
:1013C000546800202EE000F1080C4FF0010808FAE4
:1013D0000CF3B1F800C00CEA03069E4221D1830051
:1013E0004FF00F0C0CFA03F7BC4305FA03FC4CEA70
:1013F000040491F803C0BCF1280F05D100F1080CDA
:1014000008FA0CF8C2F8148091F803C0BCF1480F38
:1014100007D100F1080C4FF0010808FA0CF8C2F8E7
:101420001080401C0828CED35460BDE8F081000035
:10143000F0B50A46002300240021002500F00046F4
:10144000B6F1004F02D11D4EF16901E01B4E7168EB
:10145000C0F3034583B200F44016B6F5401F08D12F
:1014600021F07061154E766826F07066134F7E602D
:1014700012E000F48016B6F5801F06D1032606FAA6
:1014800005F4A14341F0706106E0460D360103FA10
:1014900006F6B14341F0706122B1460D360103FA00
:1014A00006F6314300F00046B6F1004F02D1034E7C
:1014B000F16101E0014E7160F0BD000000000140EB
:1014C0000246002093680B400BB1012000E0002091
:1014D000704702460020D3680B400BB1012000E0AA
:1014E0000020704741617047016170472DE9FC5F42
:1014F0000546884691469A46DDF830B000953E2074
:10150000019000245FE004EB0410374911F810004B
:101510009BF80010884253D104EB0410324901EBD0
:10152000400040789BF80110884249D108F10F0033
:1015300083B205F10F0082B24146284600F0FAFF5F
:1015400000263BE0002734E00D9890B904EB04102E
:10155000254901EB4000801C805D80213941084015
:1015600018B1484601F050F921E0504601F04CF91D
:101570001DE01E48A0F8009004EB04101A4901EB8E
:101580004000801C805D80213941084018B14146EF
:10159000284600F065FE681C85B20098281A1028BD
:1015A00005D1009D08F101001FFA80F803E0781CC6
:1015B000C7B2082FC8DB00BF701CC6B2202EC1DB2B
:1015C00000BF601C84B2019884429CDB08484088BC
:1015D000401E83B206480088401E82B200210846A1
:1015E00000F0A8FFBDE8FC9FA4790008E2000020FD
:1015F000300100202DE9FC5F0546884691469A4659
:10160000DDF830B0009507200190002467E004EB7E
:10161000840000EB44103A4911F810009BF80010C8
:10162000884259D104EB840000EB4410344901EBAB
:10163000400040789BF8011088424DD108F1170016
:1016400083B205F1170082B24146284600F072FFCE
:1016500000263FE0002738E00D98A0B904EB840095
:1016600000EB4410264901EB4000801C805D802186
:101670003941084018B1484601F0C6F823E0504609
:1016800001F0C2F81FE01F48A0F8009004EB8400AE
:1016900000EB44101A4901EB4000801C805D802162
:1016A0003941084018B14146284600F0D9FD681C70
:1016B00085B20098281A182805D1009D08F101006C
:1016C0001FFA80F803E0781CC7B2082FC4DB00BF04
:1016D000701CC6B2482EBDDB00BF601C84B20198EE
:1016E000844294DB08484088401E83B20648008844
:1016F000401E82B20021084600F01CFFBDE8FC9F9E
:10170000E0810008E2000020300100202DE9FC5FAC
:101710000546884691469A46DDF830B0009504208B
:10172000019000245FE004EB8410374911F81000A9
:101730009BF80010884253D104EB8410324901EB2E
:10174000400040789BF80110884249D108F11F0001
:1017500083B205F11F0082B24146284600F0EAFE3E
:1017600000263BE0002734E00D9890B904EB84108C
:10177000254901EB4000801C805D802139410840F3
:1017800018B1484601F040F821E0504601F03CF81D
:101790001DE01E48A0F8009004EB84101A4901EBEC
:1017A0004000801C805D80213941084018B14146CD
:1017B000284600F055FD681C85B20098281A20289C
:1017C00005D1009D08F101001FFA80F803E0781CA4
:1017D000C7B2082FC8DB00BF701CC6B2802EC1DBA9
:1017E00000BF601C84B2019884429CDB084840889A
:1017F000401E83B206480088401E82B2002108467F
:1018000000F098FEBDE8FC9FE6830008E20000209F
:101810003001002070B505460E4614463146284674
:1018200000F07EFE204600F0EFFF70BD38B50024CA
:1018300000BF1BE0012000900E48028804EB8400EA
:10184000A82303EB80010623B42004F005FE012049
:1018500000900848028804EB8400A82303EB800171
:101860000623322004F0F8FD601CC4B2082CE1DB32
:1018700038BD0000E80000203EB50546002400BF4A
:1018800040E0285D01281DD100904948428804EBC2
:101890008400A82303EB80010623322004F0DCFD42
:1018A00000200C2143A2CDE90021029004EB84002A
:1018B000A22202EB80014FF6E0730022412002F0E9
:1018C000A7FE1DE0012000903948028804EB840047
:1018D000A82303EB80010623322004F0BDFD002085
:1018E0000C2135A2CDE90021029004EB8400A22254
:1018F00002EB80014FF6E0730022412002F088FEE7
:10190000601CC4B2082CBCDB08244AE0285D012816
:1019100022D1009026484288A4F1080000EB800004
:10192000A82303EB80010623B42004F095FD0020DA
:101930000C2120A2CDE900210290A4F1080000EBC7
:101940008000A22202EB800081B24FF6E0730022F9
:10195000C32002F05DFE22E00120009014480288BE
:10196000A4F1080000EB8000A82303EB800106230C
:10197000B42004F071FD00200C210FA2CDE900215C
:101980000290A4F1080000EB8000A22202EB80008C
:1019900081B24FF6E0730022C32002F039FE601CD2
:1019A000C4B2102CB2DB40F2DC5004F027FD3EBD87
:1019B000E80000204F4E20004F46460010B54FF47F
:1019C00000516348FFF785FD012805D16148407843
:1019D00040F001005F4948704FF480415C48FFF7D8
:1019E00078FD012805D15B48407840F00200594954
:1019F00048704FF400415648FFF76BFD012805D1B0
:101A00005448407840F0040052494870082150483A
:101A1000FFF75FFD012805D14E48407840F00800EF
:101A20004C49487001214C48FFF753FD012805D16E
:101A30004848407840F01000464948700221464826
:101A4000FFF747FD012805D14248407840F02000CB
:101A50004049487040214048FFF73BFD012805D12F
:101A60003C48407840F040003A49487080213A486C
:101A7000FFF72FFD012805D13648407840F080005F
:101A80003449487010213248FFF723FD012805D161
:101A90003048007840F001002E49087001212F489D
:101AA000FFF717FD012805D12A48007840F0020011
:101AB000284908704FF480712548FFF70AFD012876
:101AC00005D12448007840F00400224908704FF402
:101AD00000711F48FFF7FDFC012805D11D48007863
:101AE00040F008001B4908704FF480611848FFF768
:101AF000F0FC012805D11748407840F01000154946
:101B000008704FF400611248FFF7E3FC012805D18B
:101B10001048407840F020000E49087040210F48DE
:101B2000FFF7D7FC012805D10A48407840F0400073
:101B30000849087080210948FFF7CBFC012805D12E
:101B40000448407840F0800002490870014810BD08
:101B500000100140F200002000080140000C01408C
:101B600010B54FF400513348FFF7B3FC3249087009
:101B70004FF480412F48FFF7ACFC2F4948704FF4D9
:101B800000412C48FFF7A5FC2B4988700821294803
:101B9000FFF79FFC2849C87001212848FFF799FCEE
:101BA0002549087102212548FFF793FC2249487115
:101BB00040212248FFF78DFC1F49887180211F4872
:101BC000FFF787FC1C49C87110211A48FFF781FCF8
:101BD0001949087201211A48FFF77BFC164948721F
:101BE0004FF480711348FFF774FC134988724FF467
:101BF00000711048FFF76DFC0F49C8724FF4806107
:101C00000C48FFF766FC0C4908734FF40061094863
:101C1000FFF75FFC0849487340210948FFF759FC6A
:101C20000549887380210648FFF753FC0249C873B1
:101C3000084610BD001001403E0100200008014090
:101C4000000C014070B502464FF6FF70002312E011
:101C500012F8015B684000240AE000F0010525B19C
:101C600040084AF20105684000E04008651CECB2FB
:101C7000082CF2DB5B1C8B42EAD370BD2DE9F041EE
:101C800005460E4600270723012229460F48FEF786
:101C9000BDFF002413E001210C48FFF718F800BF36
:101CA00002210A48FEF71AFF0028F9D00748FEF77C
:101CB00011FF0744052004F0A1FB601CC4B2B4422C
:101CC000E9DBB7FBF4F080B2BDE8F081002401400D
:101CD0003EB501244DE0022C13DC04EB840000EB44
:101CE000C4004FF6FF7202EA400304EB840000EBED
:101CF000C40002EA40014FF48C72002000F058FA50
:101D000036E0062C11DC022C0FDD04EB84000C22E3
:101D100002EB800083B204EB840002EB800081B20E
:101D2000FA22002000F044FA22E0072C11D104EB43
:101D300084000C2202EB8000801D83B204EB84003F
:101D400002EB8000801D81B2FA22002000F030FA00
:101D50000EE004EB8400122202EB800083B204EB5D
:101D6000840002EB800081B2FA22002000F020FA09
:101D7000641C102CAFDB842378221A21104600F05B
:101D800017FA4FF4957378229E21104600F010FA4E
:101D900000200C219CA24FF6FF73CDE90021029098
:101DA000024605210A2002F033FC01200C219FA2EB
:101DB0004FF6FF73CDE900210290002221213C2043
:101DC00002F026FC01200C219BA24FF6FF73CDE907
:101DD00000210290002221218C2002F019FC002019
:101DE0000C2199A24FF6E073CDE900210290024642
:101DF000382102F00DFC00200C2196A24FF6E07372
:101E0000CDE90021029002464E2102F001FC0020A3
:101E10000C2193A24FF6E073CDE900210290024617
:101E2000622102F0F5FB00200C2190A24FF6E07336
:101E3000CDE9002102900246762102F0E9FB002064
:101E40000C218DA24FF6FF73CDE9002102900246CE
:101E50008B21502002F0DCFB00200C218AA24FF6DF
:101E6000E073CDE9002102900246A2210A2002F08F
:101E7000CFFB00200C2186A24FF6E073CDE90021B4
:101E800002900246B6210A2002F0C2FB00200C217B
:101E900081A24FF6E073CDE9002102900246CA21EB
:101EA0000A2002F0B5FB00200C217DA24FF6E07362
:101EB000CDE9002102900246DE210A2002F0A8FBB3
:101EC00000200C2178A24FF6E073CDE900210290AA
:101ED0000246F2210A2002F09BFB00200C2174A292
:101EE0004FF6E073CDE90021029002464FF4837172
:101EF0000A2002F08DFB00200C216FA24FF6E07348
:101F0000CDE90021029002464FF48D710A2002F0C3
:101F10007FFB00200C216AA24FF6E073CDE900217F
:101F2000029002464FF497710A2002F071FB0020E4
:101F30000C2165A24FF6E073CDE900210290024624
:101F4000A221822002F064FB00200C2160A24FF647
:101F5000E073CDE9002102900246B621822002F012
:101F600057FB00200C215CA24FF6E073CDE9002165
:101F700002900246CA21822002F04AFB00200C2176
:101F800057A24FF6E073CDE9002102900246DE2110
:101F9000822002F03DFB00200C2153A24FF6E0739B
:101FA000CDE9002102900246F221822002F030FBAE
:101FB00000200C214EA24FF6E073CDE900210290E3
:101FC00002464FF48371822002F022FB00200C2194
:101FD00049A24FF6E073CDE90021029002464FF48A
:101FE0008D71822002F014FB00200C2144A24FF6D8
:101FF000E073CDE90021029002464FF497718220F0
:1020000002F006FB3EBD00004761732053757070FF
:10201000706C7920416E64204465637465637469F3
:102020006F6E2053797374656D00000053657420E2
:1020300056616C75650000004D65617375726520B1
:1020400056616C7565000000203134373941203A03
:1020500000000000203632374420203A0000000003
:10206000434447303235443A0000000020202050DD
:102070005620203A000000004761732056616C75BD
:1020800065205374617465004E6F2E3100000000AE
:102090004E6F2E32000000004E6F2E330000000005
:1020A0004E6F2E34000000004E6F2E3500000000F1
:1020B0004E6F2E36000000004E6F2E3700000000DD
:1020C0004E6F2E38000000004E6F2E3900000000C9
:1020D0004E6F2E31300000004E6F2E313100000067
:1020E0004E6F2E31320000004E6F2E313300000053
:1020F0004E6F2E31340000004E6F2E31350000003F
:102100004E6F2E313600000000BFFEE74CF6CC408B
:102110000149086070470000003000404AF6AA20DC
:1021200001490860704700000030004001494860E4
:10213000704700000030004001498860704700008F
:102140000030004001490860704700000030004046
:1021500070B5064614484088401E83B21248008875
:10216000401E82B20021084600F0E4F94FF40060FE
:102170000E4908604010091F086000240AE000258D
:1021800003E0304600F040FB6D1C07480088A84281
:10219000F7D8641C04484088A042F0D84FF400608F
:1021A0000249091F086070BD30010020140C014075
:1021B0002DE9FF4F85B081468A46002004900390A8
:1021C0000798A0EB09050898A0EB0A06CDF808903F
:1021D000CDF804A0002D01DD012705E00DB9002791
:1021E00002E04FF0FF376D42002E02DD4FF0010894
:1021F00006E016B94FF0000802E04FF0FF387642D3
:10220000B54201DD2C4600E034464FF0000B21E0E2
:10221000019A91B2029A90B200F022F804982844F0
:1022200004900398304403900498A04205DD04987C
:10223000001B04900298384402900398A04205DDE8
:102240000398001B03900198404401900BF101009A
:102250001FFA80FB601C8345DADD09B0BDE8F08F12
:1022600070B504460D462946204600F059F902484B
:10227000008800F0C9FA70BDE200002008B5012115
:10228000082001F075FD4FF4F050ADF80000032078
:102290008DF8020010208DF8030069460148FFF711
:1022A0003BF808BD000C014010B502F01DF8FFF727
:1022B000E5FF00F021F9CF2000F012FA002000F035
:1022C000F7F9C12000F0F4F9302000F0F1F9ED2029
:1022D00000F006FA642000F0EBF9032000F0E8F9C2
:1022E000122000F0E5F9812000F0E2F9E82000F08A
:1022F000F7F9852000F0DCF9102000F0D9F97A20F8
:1023000000F0D6F9CB2000F0EBF9392000F0D0F93D
:102310002C2000F0CDF9002000F0CAF9342000F0A4
:10232000C7F9022000F0C4F9F72000F0D9F9202005
:1023300000F0BEF9EA2000F0D3F9002000F0B8F96F
:10234000002000F0B5F9C02000F0CAF91B2000F011
:10235000AFF9C12000F0C4F9012000F0A9F9C520AF
:1023600000F0BEF9302000F0A3F9302000F0A0F911
:10237000C72000F0B5F9B72000F09AF9362000F038
:10238000AFF9482000F094F93A2000F0A9F955205F
:1023900000F08EF9B12000F0A3F9002000F088F9D8
:1023A0001A2000F085F9B62000F09AF90A2000F012
:1023B0007FF9A22000F07CF9F22000F091F90020D2
:1023C00000F076F9262000F08BF9012000F070F97A
:1023D000E02000F085F90F2000F06AF92A2000F0D3
:1023E00067F9282000F064F9082000F061F90E2058
:1023F00000F05EF9082000F05BF9542000F058F975
:10240000A92000F055F9432000F052F90A2000F00D
:102410004FF90F2000F04CF9002000F049F900209E
:1024200000F046F9002000F043F9002000F040F9E8
:10243000E12000F055F9002000F03AF9152000F0F5
:1024400037F9172000F034F9072000F031F9112096
:1024500000F02EF9062000F02BF92B2000F028F9CF
:10246000562000F025F93C2000F022F9052000F06C
:102470001FF9102000F01CF90F2000F019F93F207F
:1024800000F016F93F2000F013F90F2000F010F9CA
:102490002B2000F025F9002000F00AF9002000F0C0
:1024A00007F9012000F004F93F2000F001F92A208B
:1024B00000F016F9002000F0FBF8002000F0F8F81A
:1024C000002000F0F5F8EF2000F0F2F8112000F005
:1024D00007F9782003F092FF292000F001F900208D
:1024E00000F026F90120034908604FF6FF70FFF75E
:1024F0002FFE10BDA481214210B54FF48050074932
:102500000860642003F07AFF4FF480500349091FEC
:102510000860322003F072FF10BD0000140C01406F
:1025200070B504460D462B4622462946204600F04B
:1025300001F870BD2DE9F04104460D4616461F46D0
:102540001149887A00F0CCF8201200F0B1F8E0B21E
:1025500000F0AEF8301200F0ABF8F0B200F0A8F8DE
:102560000949087B00F0BCF8281200F0A1F8E8B295
:1025700000F09EF8381200F09BF8F8B200F098F8DE
:1025800000F0C4F8BDE8F081300100202DE9FF4FD4
:1025900083B081468A469346DDE91064404800884E
:1025A0000290A6F12000C6B204EBD47009EB6000E3
:1025B000401E82B20AEB0400401E83B251464846D8
:1025C0000194FFF7B7FF129850BB002525E00C2CB3
:1025D00007D106EB4600334901EB800010F8058077
:1025E00004E0314800EB061010F8058000270DE0EC
:1025F00008F0010018B1584600F006F902E006980C
:1026000000F002F94FEA6808781CC7B204EBD471F5
:10261000B7EB610FECDB681CC5B2A542D7DB2DE040
:10262000002529E00C2C07D106EB46001D4901EBE3
:10263000800010F8058004E01B4800EB061010F83D
:102640000580002711E01648A0F800B008F001004E
:1026500038B10AEB050291B209EB070290B2FFF71D
:10266000FFFD4FEA6808781CC7B204EBD471B7EBE2
:10267000610FE8DB681CC5B2A542D3DB08490298AC
:1026800008800A484088401E83B208480088401EDF
:1026900082B200210846FFF74DFF07B0BDE8F08F7A
:1026A000E2000020406F0008B473000830010020F1
:1026B00010B504464FF40060074908604010091F38
:1026C00008602146054801F01DFF4FF400600249F3
:1026D000091F086010BD0000140C014000380040C4
:1026E00010B504464FF400600649086040100860C9
:1026F0002146054801F006FF4FF400600149091F1B
:10270000086010BD140C01400038004010B50249AB
:10271000087AFFF7E5FF10BD3001002070B50546CF
:102720000C462846FFF7DCFFE0B2FFF7C1FF70BDA3
:1027300010B504462A201E4948812B2088812C2070
:10274000088134B1012C0FD0022C18D0032C2CD1CD
:1027500020E0F020164908804FF4A070488008213E
:102760003620FFF7DBFF21E04FF4A070104908800E
:10277000F020488068213620FFF7D0FF16E0F020D7
:102780000B4908804FF4A0704880C8213620FFF71D
:10279000C5FF0BE04FF4A07005490880F020488089
:1027A000A8213620FFF7BAFF00E000BF00BF10BD30
:1027B0003001002008B50121102001F0D9FA0121D3
:1027C000042001F0D5FA4FF24000ADF800001020CF
:1027D0008DF8030003208DF8020069460848FEF7D3
:1027E0009BFD4FF40060ADF8000010208DF8030051
:1027F00003208DF8020069460248FEF78DFD08BDF2
:10280000001001400008014010B504464FF400607C
:10281000094908604010091F08602112074801F0AB
:1028200071FEE1B2054801F06DFE4FF4006002490F
:10283000091F086010BD0000140C01400038004062
:10284000C02017490870A82048707F208870012098
:10285000C870FF2013490870487088700020C87045
:102860000C201149087029204870AB2088707C200A
:10287000C8700020087101204871C0200B49087001
:10288000A82048707F2088700520C8701320084950
:1028900008708820487000200649087070470000C2
:1028A000F4000020F8000020FC00002002010020BD
:1028B000060100201401002000BFFEE7704708B5A4
:1028C00000214FF0006000F057F84FF4C06000F0B6
:1028D00049F81C208DF8000000208DF801008DF8CB
:1028E000020001208DF80300684600F003F802F0B2
:1028F0001FFE08BD70B5002100230F22C47804B369
:10290000154C246804F4E064C4F5E064210AC1F1C4
:102910000403CA40447804FA03F184781440214344
:1029200009010E4C0678A155047804F01F05012416
:10293000AC4005786D11AD0005F1E025C5F800410A
:1029400009E0047804F01F050124AC40044D06782A
:10295000761145F8264070BD0CED00E000E400E083
:1029600080E100E002490143024A11607047000023
:102970000000FA050CED00E0024A0A400243024B57
:102980001A60704780FFFF1F08ED00E070470000ED
:102990002DE9F84F82460D495046FDF74FFC009057
:1029A000FDF7D8FD80464FF03332094BFDF7B6FCFA
:1029B00006460022074BFDF723FD0446FDF70EFEF9
:1029C0008346D3465846BDE8F88F000000002041FA
:1029D00033330F4000A070402DE9F041ADF5006D9C
:1029E0004FF00508002400257B49002001F060FB22
:1029F0000746394679A002F02FFFD6E07FA002F00B
:102A00002BFF294683A002F027FF394686A002F05B
:102A100023FF7149681C085C032806D0052834D0C0
:102A2000062862D008287DD193E0062600240AE01B
:102A300028196949085C0DF804001DF804107DA0F0
:102A400002F00AFF641CB442F2DBE81C624A105C2C
:102A5000001DC1B26846FEF7E7F940B17BA002F065
:102A6000FBFE32462946002000F07CF908E07EA0FB
:102A700002F0F2FE012083490870002082490860BC
:102A80003544BF1FA8F101088EE0072600240AE0A4
:102A900028195149085C0DF804001DF8041065A0C0
:102AA00002F0DAFE641CB442F2DBE81C4A4A105C15
:102AB000001DC1B26846FEF7B7F940B173A002F03D
:102AC000CBFE32462946002000F04CF908E075A004
:102AD00002F0C2FE01206B49087000206A490860BC
:102AE0003544FF1FA8F101085EE03B49E81C085C83
:102AF000861D002405E028193749085C0DF80400FC
:102B0000641CB442F7DBE81C334A105C001DC1B200
:102B10006846FEF789F970B169A002F09DFE324661
:102B2000294600E03DE0002000F01CF931466BA092
:102B300002F092FE08E06EA002F08EFE01205149E4
:102B400008700020504908603544BF1BA8F10108F7
:102B50002AE00626002405E028191F49085C0DF824
:102B60000400641CB442F7DB281DC1B26846FEF7BE
:102B70005BF940B165A002F06FFE324629460020A5
:102B800000F0F0F808E068A002F066FE01203D4980
:102B9000087000203C4908603544BF1FA8F10108B7
:102BA00002E0A8F1010800BF00BFB8F1000F01DD8D
:102BB000012000E00020002F01DD012100E00021C4
:102BC000084000287FF41AAF5EA002F045FE0DF524
:102BD000006DBDE8F08100004E01002050726F636F
:102BE0006573735F5061636B6167655F52656365B1
:102BF0006976653A25640D0A000000007374696CFB
:102C00006C20696E20746865207768696C65720D48
:102C10000A000000537461727420506F696E742052
:102C200025640D0A0000000053697A6520202564A0
:102C30000D0A000052585F4275666665725F526504
:102C400063656976653A25780D0A000063617365EE
:102C50002030332043524320636865636B206F6BE1
:102C600061790D0A00000000636173652030332034
:102C700043524320636865636B2077726F6E670D04
:102C80000A0000008C0000209801224263617365F5
:102C900030352043524320636865636B206F6B615E
:102CA000790D0A006361736520303520435243205B
:102CB000636865636B2077726F6E67200D0A000092
:102CC0006361736520303620435243206368656337
:102CD0006B206F6B61790D0A000000005061636B1F
:102CE0006167655F53697A6525640D0A000000001D
:102CF0006361736520303620435243206368656307
:102D00006B2077726F6E670D0A0000006361736558
:102D10002030382043524320636865636B206F6B1B
:102D200061790D0A0000000063617365203038206E
:102D300043524320636865636B2077726F6E670D43
:102D40000A00000077652068617665206F75742041
:102D50006F6620746865207768696C65206C6F6F9A
:102D6000700D0A002DE9FE4F83460D4616464FF0C2
:102D7000000AF848405D052840F02287681CF549A4
:102D8000085C032808D005287ED006287DD00828B6
:102D900040F0148700F0BBBEA81CEE49085C142864
:102DA00074D008DC01280FD002283DD003287CD045
:102DB000042838D1B1E015286AD0162869D0172820
:102DC00068D01828F5D177E10520E3490870032081
:102DD0004870012088700420C870FDF7DBFF009068
:102DE0000098FDF784FF8246CDF808A09DF80B00FF
:102DF000D94908719DF80A0048719DF80900887149
:102E00009DF80800C8710821D348FEF71BFF019008
:102E10009DF80400D04908729DF8050048720A2206
:102E2000584602F0CBFB92E10520CB490870032005
:102E30004870022088700420C870FDF7CFFF009012
:102E40000098FDF76BFF82465046FDF783FB07466F
:102E50003A460B46C1A002F0FFFCCDF808A09DF851
:102E60000B00BD4908719DF80A0048719DF80900E2
:102E700088719DF80800C8710821B748FEF7E2FE86
:102E800001909DF8040006E0DCE1E9E269E00CE075
:102E90008BE0B7E0E3E0B04908729DF805004872A6
:102EA0000A22584602F08AFB51E10520AA4908701F
:102EB0000320487088700420C870FDF747FF009019
:102EC0000098FDF715FF82465046FDF743FB074685
:102ED0003A460B46A9A002F0BFFCCDF808A09DF829
:102EE0000B009D4908719DF80A0048719DF8090082
:102EF00088719DF80800C87108219748FEF7A2FE66
:102F000001909DF80400944908729DF805004872EC
:102F10000A22584602F052FB19E105208E4908703A
:102F200003204870042088700220C870FEF746FD18
:102F3000814699F800008849087199F801004871A4
:102F400006218548FEF77EFE01909DF80400824927
:102F500088719DF80500C8710822584602F02EFBC2
:102F6000F5E005207C490870032048701420887023
:102F70000120C87089A002F06FFCFEF71FFD81469A
:102F80008F4800787449087105217348FEF75AFE8E
:102F900001909DF80400704948719DF80500887102
:102FA0000722584602F00AFBD1E005206A49087062
:102FB00003204870152088700420C87081A002F09A
:102FC0004BFC8648006802909DF80B00624908712E
:102FD0009DF80A0048719DF8090088719DF8080065
:102FE000C87108215C48FEF72DFE01909DF8040091
:102FF000594908729DF8050048720A22584602F0A5
:10300000DDFAA4E00520544908700320487016201A
:1030100088700420C87072A002F01EFC7848006816
:1030200002909DF80B004C4908719DF80A00487108
:103030009DF8090088719DF80800C871082146486C
:10304000FEF700FE01909DF80400434908729DF8C8
:10305000050048720A22584602F0B0FA77E00520CF
:103060003D49087003204870172088700420C870FC
:1030700064A002F0F1FB6948006802909DF80B0023
:10308000354908719DF80A0048719DF8090088715A
:103090009DF80800C87108212F48FEF7D3FD019064
:1030A0009DF804002C4908729DF8050048720A2218
:1030B000584602F083FA4AE00520274908700320A9
:1030C0004870182088700C20C87055A002F0C4FB0E
:1030D0005948006802909DF80B001F4908719DF83F
:1030E0000A0048719DF8090088719DF80800C871B0
:1030F0005248006802909DF80B0008729DF80A0083
:1031000048729DF8090088729DF80800C8724C4802
:10311000006802909DF80B0008739DF80A00487340
:103120009DF8090088739DF80800C87310210A48AB
:10313000FEF788FD01909DF80400074908749DF88A
:10314000050048741222584602F038FA00BF00BF4A
:10315000FCE300004E0100204E090020494E74653A
:10316000726E657420363237442041637475616C29
:103170002076616C75653A25660D0A00494E7465C6
:10318000726E657409303235442041637475616C28
:103190002076616C75653A25660D0A00526561649A
:1031A00020696620776520617265207265616479A7
:1031B00020746F20696E7370697265200D0A0000BB
:1031C0008E000020526561642056616375756D2024
:1031D00076616C7565207365740D0A000800002027
:1031E0005265616420313437394120666C6F772035
:1031F0002076616C7565207365740D0A000000000F
:103200000C0000205265616420707566662020768F
:10321000616C7565207365740D0A00001400002050
:10322000526561642070696420706172616D6574BB
:10323000657273200D0A00001C0000202000002091
:1032400024000020A81CF549085C082875D006DC7D
:10325000052809D0062836D007286FD159E009285B
:103260006DD01928F9D1C9E0281DEC49085C012866
:1032700006D1FF20EA490870EAA002F0EDFA05E065
:103280000020E7490870EEA002F0E6FA00240FE003
:103290002819E249085CF44908550846015DF3A085
:1032A00002F0DAFA2146F7A002F0D6FA601CC4B2A6
:1032B000B442EDDBF7A002F0CFFAB2B2EA495846C9
:1032C00002F07CF9CAE0281DD449085C012806D127
:1032D000FF20F5490870F5A002F0BEFA05E00020D5
:1032E000F1490870F8A002F0B7FA002406E02819A6
:1032F000CA49085CDC490855601CC4B2B442F6DB1C
:10330000E4A002F0A9FAB2B2D749584602F056F941
:10331000A4E0281DC149085C012806D1FF20F1491D
:103320000870F1A002F098FA05E00020ED4908705D
:10333000F6A002F091FA002409E013E08DE037E0F6
:103340002819B649085CC8490855601CC4B2B44283
:10335000F6DBD0A002F080FAB2B2C349584602F0C0
:103360002DF97BE0281DAD49085C012806D1FF201E
:10337000EE490870EEA002F06FFA05E00020EB497C
:103380000870F3A002F068FA002406E02819A349A7
:10339000085CB5490855601CC4B2B442F6DBBDA058
:1033A00002F05AFAB2B2B049584602F007F955E0B5
:1033B000281D9A49085C012806D1FF20EC490870B5
:1033C000ECA002F049FA05E00020E9490870EFA0FE
:1033D00002F042FA002406E028199049085CA2494C
:1033E0000855601CC4B2B442F6DBAAA002F034FA5D
:1033F000B2B29D49584602F0E1F82FE0281D8749F6
:10340000085C012806D1FF20E6490870E6A002F01A
:1034100023FA05E00020E3490870E9A002F01CFA55
:1034200000240FE028197D49085C8F49085508469B
:10343000015D8EA002F010FA214692A002F00CFA73
:10344000601CC4B2B442EDDB92A002F005FAB2B245
:103450008549584602F0B2F800E000BF00BFAEE375
:10346000A81C6E49085C0A380C284FD2DFE800F02F
:10347000064F98D4D3D24E4E4ED1D0CF281D674997
:10348000085C8DF80B00681D085C8DF80A00A81D0B
:10349000085C8DF80900E81D085C8DF80800CF492C
:1034A00002980968FDF7C0F801D2012700E0002763
:1034B000CB4902980968FDF7ADF801D2012000E080
:1034C0000020074337B10120C64908700020C649D3
:1034D000086008E00020C3490870C44902980860E9
:1034E000C3A002F0B9F9002406E028194B49085C92
:1034F0005D490855601CC4B2B442F6DB65A002F019
:10350000ABF9B2B25849584602F058F8FDE2281D0E
:103510004249085C8DF80B00681D085C8DF80A00B4
:10352000A81D085C8DF80900E81D085C8DF80800EE
:10353000B74902980968FDF777F801D2012700E042
:103540000027B44902980968FDF764F801D2012008
:1035500000E00020074337B10120A2490870002095
:10356000A149086008E000209E490870AA49029815
:103570000860AAA002F070F9002406E02819274983
:10358000085C39490855601CC4B2B442F6DB41A05E
:1035900002F062F9B2B23449584602F00FF8B4E2D0
:1035A000281D1E49085C8DF80B00681D085C8DF80D
:1035B0000A00A81D085C8DF80900E81D085C8DF85C
:1035C00008009E4902980968FDF72EF801D20127EC
:1035D00000E000279A4902980968FDF71BF801D21C
:1035E000012000E00020074337B101207D49087029
:1035F00000207D49086008E000207A490870914960
:103600000298086090A002F027F9002435E1C9E192
:1036100083E159E236E209E23BE100004E0100207D
:10362000430000204361736520303520746F206FA4
:1036300070656E204465627567204D6F64650A0091
:103640004361736520303520746F206F70656E2084
:103650004E6F726D616C2052756E6E696E67204D93
:103660006F64650A000000004E09002054786275FE
:103670006666657220636F6E74656E743A25780DA8
:103680000A00000049206E756D6265723A25640D6E
:103690000A00000053657420527862756666657290
:1036A000206F6B61790D0A00400000204361736553
:1036B00020303620746F206F70656E2076616C76D6
:1036C00065730D0A000000006361736520303620C9
:1036D000746F20636C6F7365207661766C65730D13
:1036E0000A00000046000020436173652030373A2D
:1036F00020746F20313437394120636F6E74726FDC
:103700006C204D6F64650D0A000000004361736515
:1037100020303720746F2050455620636F6E7472CE
:103720006F6C206D6F64650D0A000000440000207E
:10373000436173652030382054696D696E67205489
:10374000726967676572204D6F64650D0A0000003D
:103750004361736520303820436F6D6D616E642066
:1037600054726967676572204D6F64650D0A0000C9
:10377000450000204361736520303920707566660E
:10378000206D6F6465206F6E0D0A000043617365E4
:103790002030392070756666206D6F6465206F6615
:1037A000660D0A004700002043617365203139200F
:1037B000746F207573652073637265656E0A00000F
:1037C0004361736520313920746F206E6F742075EA
:1037D000736520737265656E0A0000005400002056
:1037E000580000208D000020B00122420800002077
:1037F0004361736520307830413A20736574203618
:103800003237442070726573737572650D0A00005B
:103810005C000020600000200C0000204361736504
:1038200020307830422053657420313437394120BC
:10383000466C6F7720446174610D0A006C000020B3
:103840007000002014000020436173652030783040
:10385000633A2073657420707566662070726573B4
:1038600073757265207365740D0A00002819D549B7
:10387000085CD5490855601CC4B2B442F6DBAFF20F
:10388000EC1001F0E9FFB2B2CF49584601F096FEC4
:103890003BE1281DCB49085C8DF80B00681D085CD6
:1038A0008DF80A00A81D085C8DF80900E81D085C69
:1038B0008DF80800C54902980968FCF7B5FE01D2E9
:1038C000012700E00027C24902980968FCF7A2FE20
:1038D00001D2012000E0002007431FB10020BD49B4
:1038E000086005E0BC4902980860BCA001F0B4FF84
:1038F000002406E02819B349085CB3490855601C48
:10390000C4B2B442F6DBAFF2742001F0A5FFB2B24C
:10391000AD49584601F052FEF7E0281DA949085C60
:103920008DF80B00681D085C8DF80A00A81D085C66
:103930008DF80900E81D085C8DF80800AF49029871
:103940000968FCF771FE02D2012701E037E1002788
:10395000AB4902980968FCF75DFE01D2012000E046
:10396000002007431FB100209A49086005E0A549DF
:1039700002980860A4A001F06FFF002406E0281957
:103980009049085C90490855601CC4B2B442F6DB0B
:10399000AFF2003001F060FFB2B28B49584601F03F
:1039A0000DFEB2E0281D8749085C8DF80B00681DEC
:1039B000085C8DF80A00A81D085C8DF80900E81D58
:1039C000085C8DF80800984902980968FCF72CFEFD
:1039D00001D2012700E00027944902980968FCF70A
:1039E00019FE01D2012000E0002007431FB1002092
:1039F0007849086005E08E49029808608DA001F0C2
:103A00002BFF002406E028196E49085C6E49085512
:103A1000601CC4B2B442F6DBAFF2883001F01CFF88
:103A2000B2B26949584601F0C9FD6EE0281D6549EA
:103A3000085C88490870681D6249085C85494870BF
:103A40000846017884A001F007FF8248417889A0E8
:103A500001F002FF8EA001F0FFFE002406E028190D
:103A60005849085C58490855601CC4B2B442F6DB9A
:103A7000AFF2E03001F0F0FEB2B25349584601F027
:103A80009DFD42E0281D4F49085C8A490870681D69
:103A90004C49085C8749487087A001F0DDFE00248E
:103AA00006E028194749085C47490855601CC4B21C
:103AB000B442F6DBAFF2244001F0CEFEB2B242498E
:103AC000584601F07BFD20E00020864908708649B9
:103AD000087001203F49183908608449C1F8B001D5
:103AE000002406E028193749085C37490855601C4E
:103AF000C4B2B442F6DBAFF2644001F0ADFEB2B244
:103B00003149584601F05AFD00BF00BF57E0A81CDC
:103B10002C49085C112802D012284CD125E074A051
:103B200001F09AFE052028490870082048701120ED
:103B300088700120C8706B480078012801D1087195
:103B400002E000202049087105211F48FEF77AF89D
:103B500001909DF804001C4948719DF8050088718A
:103B60000722584601F02AFD26E06AA001F074FE03
:103B7000052015490870082048701220887001201F
:103B8000C87059480078012801D1087102E000206E
:103B90000D49087105210C48FEF754F801909DF875
:103BA0000400094948719DF80500887107225846AC
:103BB00001F004FD00E000BF00BF00E000BF00BF57
:103BC000BDE8FE8F4E0100204E0900207400002049
:103BD00080000020B00122421C0000204361736578
:103BE00020307830642053657420502070617261F9
:103BF0006D65746572206F6B0D0A000078000020FF
:103C0000840000202000002043617365203078315B
:103C10003420536574204920706172616D6574654C
:103C200072206F6B0D0A00007C00002088000020CD
:103C300024000020436173652030783135205365BE
:103C400074204420706172616D65746572206F6BC1
:103C50000D0A00001A0000205265636569766564EC
:103C60002056616C756520686967683A2025780D73
:103C70000A00000052656365697665642056616CD0
:103C800075653A206C6F77203A2025780D0A000080
:103C90004361736520307830453A20537461626C1B
:103CA000652072756E6E696E672076616C766573DD
:103CB0000D0A000018000020436173652030783041
:103CC000663A5365742050756666204D6F646520B2
:103CD000617578696C696172792056616C76650DE1
:103CE0000A0000008C0000208D000020000022420D
:103CF0004361736520307831313A20726561642008
:103D0000636F6D6D756E6963617465206572726F46
:103D1000720D0A004361736520307831323A2073A6
:103D200065742076616C7565206F766572206572AA
:103D3000726F720D0A00000001460020034A5068AD
:103D400020F44040084350607047000000100240DB
:103D500029B1064AD2690243044BDA6104E0034AFE
:103D6000D2698243014BDA617047000000100240C3
:103D700029B1064A92690243044B9A6104E0034A5E
:103D800092698243014B9A61704700000010024023
:103D900029B1064AD2680243044BDA6004E0034AC0
:103DA000D2688243014BDA60704700000010024085
:103DB0000149C864704700000000424210B500F09D
:103DC0003BF84FF4803000F0F9F800F055F9044664
:103DD000012C2FD11020FDF745FA0220FDF750FAF3
:103DE000002000F0DFF8002000F01AF9A00200F037
:103DF0000BF94FF4E011200400F024F9012000F049
:103E00001BF900BF392000F0A7F80028FAD00220E3
:103E100000F026F900BF00F0BDF80828FBD1012012
:103E2000FFF7C6FF01210846FFF792FF01213D2061
:103E3000FFF79EFF10BD00000F48006840F0010032
:103E40000D490860084640680C4908400A49486026
:103E5000084600680A4908400749086008460068A3
:103E600020F4802008600846406820F4FE00486086
:103E70004FF41F0088607047001002400000FFF8F8
:103E8000FFFFF6FE30B500210022002400232D4D57
:103E90006D6805F00C0121B1042905D0082923D152
:103EA00005E0294D056022E0274D05601FE0254D06
:103EB0006D6805F47012234D6D6805F48034022599
:103EC00005EB92421CB9214D554305600BE01D4D99
:103ED0006D6805F400351DB11C4D5543056002E0C9
:103EE000194D5543056002E0174D056000BF00BF46
:103EF000144D6D6805F0F0010909154D6B5C0568FE
:103F0000DD4045600F4D6D6805F4E061090A104D14
:103F10006B5C4568DD4085600A4D6D6805F4605155
:103F2000C90A0B4D6B5C4568DD40C560054D6D6889
:103F300005F44041890B074D6B5CC568B5FBF3F593
:103F4000056130BD0010024000127A0000093D00FA
:103F5000CA000020DA00002010B50146002200232C
:103F600000204A11012A02D1094C236806E0022AE6
:103F700002D1074C236A01E0054C636A01F01F027D
:103F8000012494401C400CB1012000E0002010BD31
:103F9000001002400248406800F00C00704700002A
:103FA0000010024001460020034A506820F0F00053
:103FB0000843506070470000001002401149096832
:103FC00021F480310F4A11601146096821F48021E3
:103FD0001160B0F5803F03D0B0F5802F0ED106E020
:103FE0000849096841F48031064A116007E0054933
:103FF000096841F4A021034A116000E000BF00BF3E
:10400000704700000010024001460020034A50683B
:1040100020F4E06008435060704700000010024048
:1040200001460020034A506820F4605040EAC10075
:104030005060704700100240014908667047000058
:104040000000424202460020044B586820F47C10D5
:1040500042EA01031843014B5860704700100240C8
:1040600001460020034A506820F0030008435060D6
:10407000704700000010024038B500200090002476
:10408000002500BF3120FFF767FF05460098401C60
:1040900000900098B0F5A06F01D0002DF2D0312033
:1040A000FFF75AFF08B1012400E00024204638BD84
:1040B0002DE9F04780460D462621404600F0DEF807
:1040C000064616B90020BDE8F08740F2B45086429B
:1040D00000DD06462821404600F0D0F80746B946E4
:1040E000C7F30A074FF400413B48FDF7FBF9384698
:1040F00000F058F9182101EB4811C8B200F042F95C
:10410000364800F0DCF900F0FF0AB819B0F5006F8E
:1041100011DA00240CE0002000F034F92F4800F000
:10412000CEF900F0FF0A85F800A06D1C601C84B277
:10413000B442F0DB3BE0C7F5006087B200240CE03E
:10414000002000F01FF9254800F0B9F900F0FF0A3F
:1041500085F800A06D1C601C84B2BC42F0DB4FF4FB
:1041600000411D48FDF7C0F94FF400411A48FDF722
:10417000B9F9002000F016F9182101EB4811C8B276
:1041800000F000F9154800F09AF900F0FF0A0CE081
:10419000002000F0F7F8114800F091F900F0FF0A54
:1041A00085F800A06D1C601C84B2B442F0DB4FF4B3
:1041B00000410948FDF798F909EB06001FFA80F95C
:1041C0004A462821404601F0D7FA402201214046C4
:1041D00001F0B2FA304676E700080140003C0040AA
:1041E00070B504464FF400410D48FDF77BF92046B9
:1041F00000F0D8F8012000F0C5F80A4800F05FF997
:10420000C5B2002000F0BEF8064800F058F9C5B26B
:104210004FF400410248FDF767F9284670BD0000E1
:1042200000080140003C004070B504460D464FF4C4
:1042300000411048FDF756F9284600F0B3F8082170
:1042400001EB4411C9B241F0010000F09BF80A48AB
:1042500000F035F9C6B2002000F094F8064800F0EE
:104260002EF9C6B24FF400410248FDF73DF9304641
:1042700070BD000000080140003C004070B50546DC
:104280000E464FF400411648FDF72CF9304600F079
:1042900089F8082101EB4511C9B241F0020000F094
:1042A00071F8104800F00BF90446002000F06AF89D
:1042B0000C4800F004F90446002000F063F84FF6C3
:1042C000FF7000EA0424074800F0F9F8204484B2A3
:1042D0004FF400410248FDF707F9204670BD000089
:1042E00000080140003C004000B587B001210920D2
:1042F000FFF73EFD4FF42040ADF8040003208DF899
:10430000060018208DF8070001A91C48FDF704F8E5
:104310004FF48040ADF8040048208DF807000320DA
:104320008DF8060001A91548FCF7F6FF0121880366
:10433000FFF70EFD0020ADF808004FF48270ADF8D5
:104340000A000020ADF80C00ADF80E00ADF810002A
:104350004FF40070ADF812000020ADF81400ADF875
:1043600016000720ADF8180002A9054800F0ACF8C7
:104370000121034800F024F807B000BD000C014003
:104380000038004010B504462146054800F09AF870
:1043900000BF8021024800F089F80128F9D010BD43
:1043A000003C004070B504462546E11704EB11615E
:1043B000C1F30720FFF7E6FFE0B2FFF7E3FF70BDB0
:1043C00021B1028842F04002028004E002884FF6E8
:1043D000BF731A400280704700B587B00121C8033F
:1043E000FFF7B6FC01210920FFF7C2FC01212B4891
:1043F000FDF71EF80820ADF8180003208DF81A000C
:1044000018208DF81B0006A92548FCF785FF102011
:10441000ADF8180006A92248FCF77EFF2020ADF871
:10442000180006A91E48FCF777FF4FF40040ADF8CE
:10443000180003208DF81A0010208DF81B0006A923
:104440001848FCF769FF4FF400411648FDF74CF897
:104450000020ADF804004FF48270ADF80600002093
:10446000ADF80800ADF80A00ADF80C004FF400708C
:10447000ADF80E000820ADF810000020ADF81200D5
:104480000720ADF8140001A9074800F01DF801212C
:104490000548FFF795FF07B000BD0000000230009F
:1044A000000C014000080140003C00400246002092
:1044B00013890B400BB1012000E00020704701463A
:1044C000888970478181704710B50022028802F404
:1044D00041520B884C8823438C882343CC88234348
:1044E0000C8923434C8923438C892343CC89234360
:1044F0001A430280838B4FF2FF74234083830B8A1D
:10450000038210BD024600BF108900F0020000289F
:10451000FAD0918100BF108900F001000028FAD084
:104520009089C0B27047704710B500F001F810BD17
:104530000CB50020019000903348006840F48030B2
:104540003149086000BF3048006800F40030009036
:104550000198401C0190009818B90198B0F5A06F1F
:10456000F1D12948006800F4003010B1012000901A
:1045700001E0002000900098012843D12348006802
:1045800040F01000214908600846006820F0030050
:1045900008600846006840F0020008601A48406859
:1045A000194948600846406848600846406840F439
:1045B000806048600846406820F47C1048600846E7
:1045C000406840F4E81048600846006840F0807099
:1045D000086000BF0C48006800F000700028F9D0A7
:1045E0000948406820F003000749486008464068D1
:1045F00040F00200486000BF0348406800F00C0033
:104600000828F9D10CBD0000001002400020024033
:104610002DE9FF4F83B0064688469146DDE91147F4
:10462000109DB2464FF0000B71E0BBF1000F40D17E
:1046300004EBD471384A1288A2EB6101B14204DB69
:1046400035494988091B414502DA07B0BDE8F08FBA
:104650002878802802DD4FF0010B58E028780D28DB
:1046600006D108EB04001FFA80F856466D1C1EE0C8
:10467000102C0DDD102128788DE883004A46414634
:104680003046069BFDF782FF06F1080086B20EE079
:1046900028788DE891004A4641463046069BFDF752
:1046A00075FF204604EBD07106EB61018EB26D1CE4
:1046B0002DE019480088001BB04204DB16484088F2
:1046C000001B404500DAC0E74FF0000B202C08D15A
:1046D000CDE900574A4641463046069BFDF716F89D
:1046E00012E0182C08D1CDE900574A464146304621
:1046F000069BFCF77FFF07E0CDE900574A4641469D
:104700003046069BFCF7F2FEAD1C301986B22878C5
:1047100000288AD100BF98E73001002010B5044678
:1047200001220021204601F007F80122114620460F
:1047300001F002F80520FCF73DFC03212046FFF7BD
:1047400073FD132806D010220121204600F0F4FF4B
:10475000002010BD04220121204600F0EDFFFF20C3
:10476000F7E7000010B5044640F2B45212210020D1
:1047700001F002F8082C17D2DFE804F0040F101142
:10478000121314150A484178007801EB002082B218
:104790000421002000F0F0FF07E006E005E004E05F
:1047A00003E002E001E000E000BF00BF10BD000038
:1047B0000601002010B5044601220021204600F029
:1047C000BBFF01221146204600F0B6FF0520FCF792
:1047D000F1FB03212046FFF727FD132806D0102206
:1047E0000121204600F0A8FF002010BD0222012177
:1047F000204600F0A1FF0520FCF7DCFB032120464A
:10480000FFF712FD142806D010220121204600F0E7
:1048100093FF0020E9E7FF20E7E710B504460222F6
:104820000021204600F088FF01221146204600F0BA
:1048300083FF0520FCF7BEFB03212046FFF7F4FCB5
:10484000222806D010220121204600F075FF00200A
:1048500010BDFF20FCE7000030B587B0FDF7AEF8D3
:104860000546FDF77DF904462046FDF705F8FCF7FF
:1048700091FA0490FCF7B2FA0590FCF767FA0690FB
:104880000E48006801900E48006802900D480390A1
:104890000498FCF72CFA0C4908600598FCF73EFADE
:1048A0000A4908600698FCF723FA0949086001A93B
:1048B00004A8FCF74FF907B030BD0000AC000020A1
:1048C00094000020000040414C00002048000020DF
:1048D000500000203EB5FDF771F80446FCF75AFA87
:1048E0000090FCF77BFA0190FCF730FA02900098F8
:1048F000FCF7FDF9064908600198FCF70FFA054935
:1049000008600298FCF7F4F9034908603EBD000016
:104910004C0000204800002050000020042808D14E
:104920004FF0E021096941F004014FF0E0221161EC
:1049300007E04FF0E021096921F004014FF0E02287
:10494000116170477047000010B51348006840F0CF
:1049500001001149086008464068104908400E49A6
:104960004860084600680E4908400B490860084640
:10497000006820F4802008600846406820F4FE00AB
:1049800048604FF41F008860FFF7CEFD4FF00060D5
:104990000449086010BD0000001002400000FFF84C
:1049A000FFFFF6FE08ED00E010B5FFF707FAFDF790
:1049B00086FFFFF711FD00F003F900F0AFFC10BD1A
:1049C00010B50121880700F02CF801280DD1012134
:1049D000800700F017F805480068401C034908608C
:1049E00003480068401C0249086010BD18010020FF
:1049F0001C01002010B50121014800F003F810BD92
:104A000000040040CA430282704721B1028842F08C
:104A10000102028004E002884FF6FE731A40028011
:104A2000704730B50246002000230024158A05EAAD
:104A30000103958905EA010413B10CB1012000E0DE
:104A4000002030BD1AB183890B43838102E0838942
:104A50008B4383817047000070B50024002200233F
:104A6000058C4FF6EF7635400584028C8388048BE5
:104A700048F6FF752C404FF6FF452C400D884FF649
:104A8000FF7606EA05252C434FF6DF752A400D898F
:104A900006EA05152A434D8806EA05152A43154DF1
:104AA000A84202D0144DA8421DD14FF67F752A406E
:104AB0004D894FF6FF7606EA05152A434FF6BF7576
:104AC0002A408D8806EA05152A434FF6FF352B400C
:104AD0004FF2FF752B408D8906EA85052B43CD8962
:104AE00006EA85052B4383800483CD8805870284ED
:104AF00070BD0000002C0140003401400A46002136
:104B0000018B4FF2FF7319404FF6FF7303EA022344
:104B10001943018370470187704700000022028813
:104B20001D4B98420ED01D4B98420BD0B0F1804FD8
:104B300008D01B4B984205D01A4B984202D01A4B12
:104B4000984204D14FF68F731A404B881A43174B83
:104B5000984207D0164B984204D04FF6FF431A40B4
:104B6000CB881A4302808B8883850B8803850A4B88
:104B700098420BD0094B984208D00E4B984205D072
:104B80000D4B984202D00D4B984201D10B7A03860F
:104B90000123838270470000002C01400034014053
:104BA0000004004000080040000C004000100040DD
:104BB0000014004000400140004401400048014012
:104BC0000EB501210846FFF7C3F80920ADF804002F
:104BD00041F61F40ADF800000020ADF80600ADF82A
:104BE000020069464FF08040FFF798FF012211460E
:104BF0009007FFF727FF01218807FFF706FF0EBD8B
:104C000010B54FF480710848FCF75AFC012806D112
:104C1000FF200649087006A000F01EFE02E00020FA
:104C20000249087010BD0000000801404500002046
:104C300054696D696E67207369676E616C20697372
:104C40002068657265200D0A0000000008B5FFF7B6
:104C50007BFE01210820FFF78BF84FF48070ADF840
:104C6000000028208DF8030003208DF8020069461B
:104C70000148FCF751FB08BD0008014010B5402178
:104C80000D4800F04FF840F225510B4800F06CF849
:104C900080B1094800F024F90849087008460178F5
:104CA000054800F022F900BF8021034800F04FF8CA
:104CB0000028F9D010BD000000380140C8000020D5
:104CC00010B54021144800F02DF840F2255112484B
:104CD00000F04AF8F0B1104800F002F90F490870EE
:104CE00008210F48FCF700FC012001F087FB0B486E
:104CF0000178094800F0F9F800BF8021064800F06B
:104D000026F80028F9D0022001F078FB0821044899
:104D1000FCF7E8FB10BD000000440040C900002083
:104D20000020014001F40072B2F5007F00D100BF05
:104D3000CA430280704721B1828942F400528281C5
:104D400004E082894DF6FF731A4082817047024663
:104D50000020B1F5007F00D100BF13880B400BB1DC
:104D6000012000E00020704770B5024600240023B7
:104D70000025002040F66A16B14200D100BFC1F301
:104D8000421501F01F03012606FA03F3012D02D19B
:104D90009689334006E0022D02D1168A334001E0A5
:104DA000968A33400C12012606FA04F41688344021
:104DB00013B10CB1012000E0002070BDF0B5034636
:104DC000002400260025002040F66A17B94200D1D1
:104DD00000BF1846C1F3421401F01F06012707FA6D
:104DE00006F5012C01D10C3004E0022C01D1103069
:104DF00000E014301AB107682F43076002E007682B
:104E0000AF430760F0BD00002DE9F04786B00546CE
:104E10000E460024A24600BFA1460027B08900B17B
:104E200000BF2F462C8A4CF6FF700440F0880443E4
:104E30002C82AC894EF6F3100440B08831890843C7
:104E4000718908430443AC81AC8A4FF6FF400440AB
:104E5000B0890443AC8201A8FFF714F81F488742C9
:104E600002D1DDF810A001E0DDF80CA0A88900F463
:104E7000004040B10AEBCA0000EB0A10316849005B
:104E8000B0FBF1F807E00AEBCA0000EB0A1031684A
:104E90008900B0FBF1F86420B8FBF0F004012009B0
:104EA000642101FB1089A88900F4004040B1322040
:104EB00000EBC900B0FBF1F000F00700044308E08C
:104EC000322000EB09106421B0FBF1F000F00F007C
:104ED00004432C8106B0BDE8F08700000038014093
:104EE00001468888C0F308007047C1F30802828039
:104EF000704700BFFEE700002DE9FF4F85B00E466A
:104F0000174698464FF0000901F0CAFF0598FBF7D5
:104F100021FB02460B46CDE9020148A000F09CFCB3
:104F20004B490598FBF776FB04D14AA000F094FCAE
:104F30004F4C76E04F490598FBF76CFB01D14E4C86
:104F40006FE031460598FBF773F98346FDF720FDC6
:104F5000054639462846FBF771F904904146284634
:104F6000FBF76CF98346454801685846FBF70EF994
:104F70004249086085F0004B58461299FBF75EF9EC
:104F800081460498FBF7E6FA02460B46CDE902019A
:104F90003BA000F061FC39480068FBF7DBFA0246F1
:104FA0000B46CDE902013AA000F056FC4846FBF75B
:104FB000D1FA02460B46CDE9020139A000F04CFCC3
:104FC0003B4806602D4801680498FBF7DFF88346EC
:104FD0004946FBF7DBF8824636495046FBF72EF987
:104FE00083463549FBF7D2F804462046FBF7B2FA70
:104FF0000022324BCDE90001FBF702FA02460B46D4
:10500000CDE902012EA000F027FC1B492046FBF74A
:105010000BFB00D2184C16492046FBF7FBFA00D2D6
:10502000134C2046FBF782FA1FFA80FB59462A48A8
:10503000FFF771FD09B0BDE8F08F000056616375A0
:10504000756D56616C75657365743A25660D0A0059
:1050500000005C4277652061726520696E20706592
:10506000762066756C6C7920636C6F73650D0A0031
:105070000000B443000084420000344520010020B9
:105080006572726F725F503A25660D0A000000006B
:105090006572726F725F493A25660D0A0000000062
:1050A0006572726F725F443A25660D0A0000000057
:1050B00028010020000034430000E1440020AC40FF
:1050C000536574204475747920706172616D6574E4
:1050D00065723A25660D0A00000400403FB501469E
:1050E000002200200DE04B78034103F001031BB1C7
:1050F00001230DF8003002E000230DF80030431CBE
:10510000D8B20828EFDB002011E00B78034103F050
:1051100001032BB1012400F108030DF8034004E062
:10512000002400F108030DF80340431CD8B20828FE
:10513000EBDB9DF80030012B02D15B4C236002E0D9
:105140000023594C23609DF80130012B03D1564CAC
:10515000241D236003E00023534C241D23609DF88D
:105160000230012B03D1504C0834236003E00023AC
:105170004D4C083423609DF80330012B03D14A4C79
:10518000283C236003E00023474C283C23609DF823
:105190000430012B02D1454C236002E00023434C34
:1051A00023609DF80530012B03D1404C241D236062
:1051B00003E000233D4C241D23609DF80630012BA5
:1051C00003D13A4C1834236003E00023374C1834E1
:1051D00023609DF80730012B03D1344C1C3423602D
:1051E00003E00023314C1C3423609DF80830012B70
:1051F00003D12D4C243C236003E000232A4C243CA3
:1052000023609DF80930012B02D1294C236002E074
:105210000023274C23609DF80A30012B03D1224C38
:10522000143C236003E000231F4C143C23609DF8D2
:105230000B30012B03D11C4C103C236003E00023F6
:10524000194C103C23609DF80C30012B03D1164CF7
:105250000C3C236003E00023134C0C3C23609DF8BE
:105260000D30012B03D1104C083C236003E00023D8
:105270000D4C083C23609DF80E30012B03D10A4CE5
:10528000083C236003E00023074C083C23609DF8A2
:105290000F30012B03D1064C1C34236003E00023A4
:1052A000034C1C3423603FBDB401224280012142E3
:1052B0008081214208B501211C20FEF759FDC32041
:1052C000ADF8000010208DF8030003208DF80200D7
:1052D00069460F48FCF720F8C120ADF80000102007
:1052E0008DF8030003208DF8020069460948FCF799
:1052F00013F84EF61870ADF8000010208DF803007A
:1053000003208DF8020069460348FCF705F808BD44
:1053100000080140000C0140001001400EB54FF4A0
:105320008070ADF8080001208DF80A0010208DF87B
:105330000B0002A91448FBF7EFFF4FF480711248ED
:10534000FCF7D0F84FF40070ADF8080003208DF89A
:105350000A0048208DF80B0002A90B48FBF7DCFF80
:1053600009210120FBF7B8FF4FF4007000900020E6
:105370008DF804000C208DF8050001208DF8060042
:105380006846FBF725FF0EBD000C014010B54FF439
:1053900080710B48FCF7A6F83220FBF70BFE4FF4A8
:1053A00080710748FCF7A0F8C820FBF703FE00BF98
:1053B0002E20FEF715FF00F001000028F8D010BDE8
:1053C000000C014010B500248021002000F080F97D
:1053D0000A20FBF7EFFD04221C49012000F018FA17
:1053E00004221B49052000F013FA0622194909205E
:1053F00000F00EFA042218490F2000F009FA00BF4D
:105400000BE002221E21204600F096F902221F2105
:10541000204600F091F9601CC4B2082CF1DB4FF477
:10542000FA61192000F06EF908211B2000F050F9F4
:10543000C021162000F04CF90121182000F048F995
:105440001F222C21002000F077F910BDF40000206D
:10545000F8000020FC0000200201002010B5FFF73A
:10546000B1FFFBF7B3FD0020FFF77CF910BD000092
:1054700070B500BF00202B4908701520FEF7B0FE64
:10548000054605F0F001152000F022F91720FEF77F
:10549000A7FE054605F0010000283DD002210020AE
:1054A000FEF7C2FE044622460221002000F044F925
:1054B00004F0010028B11C48007840F002001A49AD
:1054C000087004F0020050B110220121002000F009
:1054D00033F90020FFF746F900201349087004F063
:1054E000100028B11148007840F002000F49087000
:1054F00004F0040028B10D48007840F001000B4989
:10550000087004F0080038B110220121002000F0DA
:1055100013F90020044908701720FEF761FE00B15E
:10552000A8E770BD1701002015010020160100201A
:1055300008B517208DF8000000208DF8010001202B
:105540008DF802008DF803006846FDF7D3F908BD19
:1055500010B518480078F8B91748007860B90020ED
:10556000FFF728F9FF2803D101201249087020E035
:105570000020104908701CE00F48007801280CD169
:105580000020FFF7CBF8FF2803D10120094908705C
:105590000FE00020074908700BE00020FFF73DF9FD
:1055A000FF2803D103200349087002E000200149CD
:1055B000087010BD15010020140100202DE9F047EE
:1055C00007460D46904600213846FEF72DFE00F0B6
:1055D0000F0022280ED03B4A0C21384600F0ECF890
:1055E00039484178007801EB002082B2102138461A
:1055F00000F0C2F824213846FEF740FE0646B146C8
:10560000C6F30A064FF400413048FBF76BFF304603
:10561000FEF7C8FE102101EB4711C9B241F00400AA
:10562000FEF7B0FE06EB0800B0F5006F0ADA0024C2
:1056300005E015F8010BFEF7A5FE601C84B2444599
:10564000F7DB2AE0C6F5006086B2002405E015F815
:10565000010BFEF797FE601C84B2B442F7DB4FF4F7
:1056600000411A48FBF740FF4FF400411748FBF791
:1056700039FF0020FEF796FE102101EB4711C9B259
:1056800041F00400FEF77EFE05E015F8010BFEF781
:1056900079FE601C84B24445F7DB4FF400410B48AF
:1056A000FBF722FF09EB08001FFA80F94A46242184
:1056B000384600F061F820220121384600F03CF81D
:1056C000BDE8F0870E010020120100200008014013
:1056D00070B505460C464FF400410948FBF702FF40
:1056E0002846FEF75FFE0520FEF74CFE2046FEF73B
:1056F00049FE4FF400410248FBF7F6FE70BD000082
:105700000008014070B505460C464FF400410948B9
:10571000FBF7E8FE2846FEF745FE0620FEF732FEC0
:105720002046FEF73FFE4FF400410248FBF7DCFE47
:1057300070BD00000008014070B504460D461646D5
:105740004FF400410B48FBF7CDFE2846FEF72AFE3A
:10575000082101EB4411C9B241F00500FEF712FE29
:105760003046FEF70FFE4FF400410248FBF7BCFE47
:1057700070BD00000008014070B504460D46164695
:105780004FF400410B48FBF7ADFE2846FEF70AFE3A
:10579000082101EB4411C9B241F00600FEF7F2FD09
:1057A0003046FEF7FFFD4FF400410248FBF79CFE38
:1057B00070BD00000008014070B505460E46144655
:1057C0004FF400411148FBF78DFE3046FEF7EAFD2D
:1057D000082101EB4511C9B241F00700FEF7D2FDE7
:1057E00014F8010BFEF7CEFD14F8010BFEF7CAFD0D
:1057F00014F8010BFEF7C6FD14F8010BFEF7C2FD0D
:105800004FF400410148FBF76FFE70BD00080140F6
:105810002DE9F04107460C4615464FF400410D486E
:10582000FBF760FE3846FEF7BDFD0420FEF7AAFD3B
:10583000002605E014F8010BFEF7A4FD701C86B2EB
:10584000AE42F7DB4FF400410248FBF74DFEBDE8E6
:10585000F0810000000801400FB4054B10B503A90A
:10586000044A029800F020F910BC5DF814FB000017
:10587000356400082C0100200FB4084B10B504A9B2
:1058800002AA039800F010F9044602A9002000F0D3
:10589000A2FC204610BC5DF814FB0000D761000894
:1058A00002E008C8121F08C1002AFAD170477047E9
:1058B000002001E001C1121F002AFBD170472DE931
:1058C000F04104460D4616461F46DDF81880EA19D9
:1058D00091B2A21990B24246FBF79CFFEA1991B22D
:1058E000A21B90B24246FBF795FFEA1B91B2A219A8
:1058F00090B24246FBF78EFFEA1B91B2A21B90B218
:105900004246FBF787FFAA1991B2E21990B24246CC
:10591000FBF780FFAA1991B2E21B90B24246FBF757
:1059200079FFAA1B91B2E21990B24246FBF772FFCF
:10593000AA1B91B2E21B90B24246FBF76BFFBDE897
:10594000F08100002DE9FF5FDDE90220010DDDF8A7
:1059500038B0024318D044F61050A1F2FF31414351
:105960000D140F98012820D0A5EB0B00401C5FEA16
:10597000000A4FF00004474EDFF81C91A046504645
:1059800016D5CAF1000728E00F98012443A2012888
:1059900008D0002100980F9BC0E90021C0E9024314
:1059A000BDE8FF9F6FEA0B01F4E7CBF10000DEE7F3
:1059B000074612E0F80707D02246334640464946DC
:1059C000FAF7ACFC80468946224633461046194613
:1059D000FAF7A4FC04460E467F10002FEAD1DDE959
:1059E0000201BAF1000F42464B4602DAFAF796FC82
:1059F00001E0FAF705FD04460E460022284BFAF7AF
:105A0000D5FD03D84FF0FF30014607E00022254BBB
:105A100020463146FAF7EDFEFAF792FF102409E02E
:105A2000002C0ADB0A220023FAF71EFE019B30320B
:105A30001A55641E50EA0102F2D1641C019AC4F1A5
:105A4000110314440F9A012A03D0012208430DD1F7
:105A50000AE0084304D000204FF0110B0F9080E7BC
:105A6000A3EB0B056D1E0DE05B4504DD4FF000025E
:105A700005F1010504E003DA4FF00002A5F101058C
:105A8000002AECD000980F99C0E90231C0E9004526
:105A900086E70000000024400000F03F30000000D6
:105AA0000000F0430000E03F2DE9FF4F95B09B461A
:105AB0008946064600250FE2252877D1002427468F
:105AC000F84A0121059400E0044316F8013F203B09
:105AD00001FA03F01042F7D130782A2811D06FF084
