:020000040800F2
:100000009015002045010008952B0008E123000809
:10001000912B00081D100008EF530008000000009D
:100020000000000000000000000000005B49000824
:100030008912000800000000652C0008414E0008ED
:100040005F0100085F0100085F0100085F01000810
:100050005F0100085F0100085F0100087D130008D0
:10006000011400085F0100085F0100085F0100083B
:100070005F0100085F0100085F0100085F010008E0
:100080005F0100085F0100085F0100085F010008D0
:100090005F0100085F0100085F01000855140008B7
:1000A0005F0100085F0100085F0100085F010008B0
:1000B000BD4E0008F14E00085F0100085F01000816
:1000C0005F0100085F0100085F0100085F01000890
:1000D0005F01000879510008BD5100085F01000868
:1000E0005F0100085F0100085F0100085F01000870
:1000F0005F0100085F0100085F0100085F01000860
:100100005F0100085F0100085F0100085F0100084F
:100110005F0100085F0100085F0100085F0100083F
:100120005F0100085F0100085F0100085F0100082F
:10013000DFF80CD000F01CFC004800475D6B0008A5
:10014000901500200648804706480047FEE7FEE776
:10015000FEE7FEE7FEE7FEE7FEE7FEE7FEE7FEE777
:10016000454E00083101000840EA01039B0703D017
:1001700009E008C9121F08C0042AFAD203E011F8E6
:10018000013B00F8013B521EF9D27047F0B480EAFF
:100190000102D40F4200B2EB410F02D202460846E0
:1001A00011464A0042D0C30DDDB2C1F3C752AD1AA9
:1001B000202D35DAC1F3160141F4000204B1524298
:1001C000C5F1200602FA06F12A411044B3EBD05FD4
:1001D00023D0C4B1012DA0EBC35009DCF0BC4FF01B
:1001E000004202EAC352DBB200F5000000F076BA2A
:1001F000400000F1807000EBC350A0F1807040EA35
:10020000D170490009E0490841EAC071A0EBC35030
:1002100000F50000400800EBC350F0BC00F055BAF8
:100220006142012202EB4101001BF6E7F0BC70477E
:1002300081F00041AAE780F00040A7E780EA0102D0
:1002400010B502F00043400022D04A001FD0010E3A
:1002500001EB1261C0F35600C2F3560240F40000F5
:1002600042F40002A0FB022000047F39140400D0F5
:10027000401C50EA124001D44000491EC2B20C0694
:1002800004EBD010401C4008802A02D003E000207C
:1002900010BD20F00100002900DA0020184310BD35
:1002A00030B480EA010202F0004530F0004221F053
:1002B000004013D090B1C30DD40DC2F31601C0F3AA
:1002C0001600E41A41F4000140F400027D3491422A
:1002D00001D3641C00E04900002C02DA30BC00208D
:1002E00070474FF400000023914201D3891A034361
:1002F00040084FEA4101F7D151B1914202D14FF08C
:10030000004105E002D24FF0010101E06FF0010170
:1003100003EBC450284430BC00F0D7B92DE9FE4FA0
:1003200081EA030404F0004421F0004100944FF0FE
:10033000000B23F0004350EA01045ED052EA0304AC
:100340005BD0C3F30A54C1F30A552C44A4F2F3342E
:100350000194A0FB0254C1F3130141F48011C3F3D3
:10036000130343F4801301FB024400FB034E840A91
:10037000970A44EA815447EA8357A4FB0768029529
:100380008D0A05FB07854FEA932C04FB0C542705C7
:10039000029D4FEA065847EA1637B5EB08056EEBA3
:1003A000070C870E920E47EA811742EA8312A7FBD9
:1003B0000201B6EB0B0164EB00042B0D43EA0C3396
:1003C0005E1844EB1C50DA465146E7FB0201C5F3C8
:1003D00013044FEA0B3343EA14534FEA0432019CEF
:1003E00043EA0603A4F10C040294009CCDE900B496
:1003F00000F0B1F903B0BDE8F08F00200146F9E745
:100400002DE9F04D81EA030404F0004B21F0004592
:1004100014464FF0000A23F0004150EA050220D0B4
:1004200054EA01021DD0C5F30A570246C5F313036F
:10043000C1F31300C1F30A5640F4801543F480134E
:10044000A7EB0608101BD64608F2FD3873EB050033
:1004500002D308F1010801E092185B41B8F1000FE6
:1004600003DA00200146BDE8F08D00204FF4801132
:10047000064684460EE0171B73EB050705D3121BD7
:1004800063EB050306434CEA010C49084FEA3000D0
:1004900092185B4150EA0107EDD152EA030012D0F5
:1004A00082EA040083EA0501084305D0101BAB4132
:1004B00006D20122002306E000224FF0004302E0B2
:1004C0006FF0010253101AEB06004CEB085110EBD1
:1004D0000A0041EB0B01BDE8F04D00F02DB9C10F52
:1004E00080EAE0700844CA079623002100F0F6B8BD
:1004F00096230022114600F0F1B800F0004220F0EF
:100500000040C10DC0F3160040F400007F2901DA5D
:1005100000207047962903DCC1F19601C84001E034
:1005200096398840002AF4D04042704720F00040BD
:10053000C10DC0F3160040F400007F2901DA00204D
:100540007047962903DCC1F19601C840704796397F
:100550008840704700F0004230F000400AD0C10DE2
:1005600001F56071C0F3160042EA0151C20840076C
:1005700011437047002001467047000030B5041E4B
:1005800071F1000404DB4FF00044404264EB0101D0
:10059000141E73F1000405DB1C464FF00043524269
:1005A00063EB04038B4208BF824230BD30B5041EAA
:1005B00071F1000404DB4FF00044404264EB0101A0
:1005C000141E73F1000405DB1C464FF00043524239
:1005D00063EB0403994208BF904230BD01F0004331
:1005E00030B421F0004150EA010206D00A0DA2F514
:1005F0006072C1F31301002A02DC30BC0020704796
:10060000440F44EAC104C100E01830BC00EBC25002
:1006100000F05BB8002801DBC0F10040002901DBDD
:10062000C1F1004181427047002801DBC0F1004068
:10063000002901DBC1F100418842704730B50B460B
:10064000014600202022012409E021FA02F59D4202
:1006500005D303FA02F5491B04FA02F52844151ED6
:10066000A2F10102F1DC30BD2DE9F05F054600206A
:1006700092469B4688460646814640241BE0284613
:1006800041464746224600F094F953465A46C01A5E
:10069000914110D311461846224600F07BF92D1ADD
:1006A00067EB01084F4622460120002100F072F955
:1006B00017EB00094E41201EA4F10104DFDC48467F
:1006C00031462A464346BDE8F09F0029A8BF70473F
:1006D000401C490008BF20F00100704710B4B0FA78
:1006E00080FC00FA0CF050EA010404BF10BC704713
:1006F00049B1CCF1200421FA04F411FA0CF118BF2D
:10070000012121430843A3EB0C01CB1D4FEA0061FB
:100710004FEA102042BF002010BC704700EBC350CE
:1007200010440029A4BF10BC7047401C490008BFFA
:1007300020F0010010BC704710B5141E73F10004C6
:1007400008DA401C41F1000192185B411A4301D1C3
:1007500020F0010010BD2DE9F04D92469B4611B1ED
:10076000B1FA81F202E0B0FA80F22032904600F055
:1007700011F904460F4640EA0A0041EA0B015346CC
:100780005A46084313D0114653EA010019D0C8F164
:100790004002504600F00DF905460E4650465946B7
:1007A000424600F0F7F8084305D0012004E0204657
:1007B0003946BDE8F08D0020054346EAE0762C433B
:1007C00037430A986305E40AA0EB08000022FD0AFB
:1007D00044EA47540A3002D500200146E9E7010502
:1007E00010196941DDE9084500196941BDE8F04D7E
:1007F000A2E72DE9FE4F804681EA0300C00F0C46B8
:10080000009021F0004123F00045B8EB0200A9411F
:1008100005D24046214690461C460B46024623F030
:100820000040104347D0270DC7F30A00C3F30A5115
:100830000290401A019040286BDAC3F3130040F491
:10084000801B0098924620B10023D2EB030A63EB91
:100850000B0B01985946C0F14002504600F09AF83F
:1008600006460D4650465946019A00F0B2F810EB84
:1008700008006141002487EA115284EAE7731A43B1
:1008800040D0009A62B3019A012A4FEA075215DC60
:10089000001B61EB02014FF0004202EA0752CDE972
:1008A0000042001C41F5801132462B46FFF753FFF2
:1008B00003B0BDE8F08F40462146F9E7001B61EB2D
:1008C0000201001C41F5801300185B412018A2F5BD
:1008D000001747EB030140EAD570B6196D4111E0EE
:1008E0006D084FEA360645EAC0754FEA0752001B0D
:1008F00061EB0201001C41F5801149084FEA30000C
:100900000019514132462B4603B0BDE8F04FFFF7C6
:1009100013BF0098012240000023D0EB020263EBDA
:10092000E073009821464FEAE074B8EB000061EBF9
:100930000401E9E783F000435BE781F0004158E7F9
:10094000C1F30A52C1F3130140F2FF3341F48011A5
:100950009A4202DA00200146704740F233439A423D
:10096000A2F2334202DC524200F023B800F012B887
:10097000064C074D06E0E06840F0010394E80700EC
:1009800098471034AC42F6D3FFF7D6FB64990008C1
:1009900084990008202A04DB203A00FA02F10020A2
:1009A00070479140C2F1200320FA03F319439040AD
:1009B0007047202A04DB203A21FA02F00021704718
:1009C00021FA02F3D040C2F12002914008431946B7
:1009D0007047202A06DBCB17203A41FA02F043EA9F
:1009E000E07306E041FA02F3D040C2F120029140E8
:1009F00008431946704770B58C1810F8015B15F064
:100A0000070301D110F8013B2A1106D110F8012B80
:100A100003E010F8016B01F8016B5B1EF9D12B07A5
:100A200005D40023521E0DD401F8013BFAE710F85B
:100A3000013BCB1A921C03E013F8015B01F8015B48
:100A4000521EF9D5A142D8D3002070BD21B18268D1
:100A500042F00102826003E0826822F001028260BB
:100A6000704721B1826842F48072826003E082683C
:100A700022F480728260704710B5044612488442A6
:100A800008D10121401503F09DFB0021601503F002
:100A900099FB17E00D48844208D10121001503F0AD
:100AA00091FB0021201503F08DFB0BE008488442E8
:100AB00008D10121C80303F085FB00214FF4004059
:100AC00003F080FB10BD000000240140002801401D
:100AD000003C0140014600208A6802F004020AB18D
:100AE000012000E0002070470146C86C80B27047CA
:100AF0000246002013680B400BB1012000E00020EB
:100B00007047014600208A6802F008020AB10120FD
:100B100000E000207047000030B5024600200023AE
:100B200050680F4C20400D790C6844EA052420439E
:100B3000506090680B4C2040D1E902542C434D7911
:100B400044EA450420439060D06A20F470000C7C95
:100B5000641EE4B2234340EA0350D06230BD00007B
:100B6000FFFEF0FFFDF7F1FF2DE9F04192B00546E1
:100B70000E461422274903A8FFF7F6FA00241FE0C7
:100B800055F82400FFF7E6FC074603A83A460B4653
:100B900021A1009008A805F0FDF800200C2108AA6A
:100BA000CDE90021029004EB8400382202EB8001A1
:100BB0004FF6FF730022822003F044FF601CC4B292
:100BC000032CDDDB00241FE056F82400FFF7C2FCF5
:100BD000074603A83A460B460FA1009008A805F067
:100BE000D9F800200C2108AACDE90021029004EBDD
:100BF0008400382202EB80014FF6FF7300223C2074
:100C000003F020FF601CC4B2032CDDDB12B0BDE892
:100C1000F0810000089900082566252E3230730007
:100C2000F0B504460D4600200021092D11DDE068D5
:100C3000A5F10A0606EB4607072606FA07F18843E0
:100C4000A5F10A0606EB460603FA06F10843E06042
:100C50000CE0206905EB4507072606FA07F18843F3
:100C600005EB450603FA06F108432061072A0FDA6F
:100C7000606B561E06EB86071F2606FA07F18843AF
:100C8000561E06EB860605FA06F10843606322E06D
:100C90000D2A0FDA206BD61F06EB86071F2606FAF1
:100CA00007F18843D61F06EB860605FA06F10843CE
:100CB000206310E0E06AA2F10D0606EB86071F260E
:100CC00006FA07F18843A2F10D0606EB860605FA3F
:100CD00006F10843E062F0BD816841F008018160DF
:100CE000704721B1826842F4A002826003E082680A
:100CF00022F4A00282607047816841F004018160A3
:100D0000704770472DE9F05F82465046FFF722FC9E
:100D10008046084A084BFFF701FB064600224FF0C9
:100D20008043FFF76DFB0446FFF758FC83465846A7
:100D3000BDE8F09F9A99999999992A402DE9F05F19
:100D400082465046FFF706FC8046084A084BFFF7EC
:100D5000E5FA064600224FF08043FFF751FB0446B8
:100D6000FFF73CFC83465846BDE8F09F9A99999955
:100D700099992A402DE9F05F04460E48FFF77CFE62
:100D800005F05CFDE1B20A2001F0E4F8824650462D
:100D9000FFF7AEFB8346FFF7DDFB07464FF06632F9
:100DA000054BFFF7BBFA0546FFF718FC814648469E
:100DB000BDE8F09F0024014066664A3F2DE9FC5FD4
:100DC00000200190002500240AE004EB44001549AE
:100DD00001EB4001019831F810000544601CC4B2D9
:100DE0000A2CF2DB2846FFF77AFB0F490090FFF749
:100DF00057FA8346FFF7AEFB06464FF066320B4BC1
:100E0000FFF78CFA8146FFF7E9FB80464046FFF783
:100E1000A1FB064632460B4605A004F0ABFFBDE839
:100E2000FC9F0000340100200000204766660A4055
:100E30005468652063757272656E74204144566112
:100E40006C75655F303235442076616C7565203D88
:100E500025660D0A000000002DE9F05F04460E48EB
:100E6000FFF70AFE05F04AFCE1B20C2001F072F82F
:100E700082465046FFF73CFB8346FFF76BFB074675
:100E80004FF06632054BFFF749FA0546FFF7A6FB20
:100E900081464846BDE8F09F0024014066664A3F0F
:100EA0002DE9FC5F00200190002500240AE004EBFE
:100EB0004400154901EB4001019831F81000054448
:100EC000601CC4B20A2CF2DB2846FFF708FB0F496E
:100ED0000090FFF7E5F98346FFF73CFB06464FF02D
:100EE00066320B4BFFF71AFA8146FFF777FB804615
:100EF0004046FFF72FFB064632460B4605A004F09E
:100F000039FFBDE8FC9F00003401002000002047AD
:100F100066660A405468652063757272656E742057
:100F2000414456616C75655F3134373941207661D3
:100F30006C7565203D25660D0A0000002DE9F05F07
:100F400004460E48FFF798FD05F028FCE1B20B209F
:100F500001F000F882465046FFF7CAFA8346FFF7D1
:100F6000F9FA07464FF06632054BFFF7D7F9054609
:100F7000FFF734FB81464846BDE8F09F002401405E
:100F800066664A3F2DE9FC5F0020019000250024A1
:100F90000AE004EB4400154901EB4001019831F8E7
:100FA00010000544601CC4B20A2CF2DB2846FFF78F
:100FB00096FA0F490090FFF773F98346FFF7CAFAD4
:100FC00006464FF066320B4BFFF7A8F98146FFF754
:100FD00005FB80464046FFF7BDFA064632460B4603
:100FE00005A004F0C7FEBDE8FC9F0000340100200E
:100FF0000000204766660A40546865206375727277
:10100000656E74414456616C75655F3632374420B5
:1010100076616C7565203D25660D0A0000BFFEE710
:10102000F0B502460B464FF6FF71002412E012F8AD
:10103000010B414000260AE001F0010020B14908FF
:101040004AF20100414000E04908701CC6B2082E77
:10105000F2DB641C9C42EAD312F8015B107805EBCA
:1010600000258D4201D10120F0BD0020FCE70000E9
:1010700008B500220092054A009200F10802009B88
:101080001A440092009A116008BD000000740040EC
:1010900021B1026842F00102026004E002684FF6EA
:1010A000FE731A400260704701684FF6FE721140ED
:1010B00001600021016041608160C1604B4988424C
:1010C00008D14A490839496841F00F01474A083AAE
:1010D00051608AE045491431884208D143490839B2
:1010E000496841F0F001414A083A51607DE03F49CA
:1010F0002831884208D13D490839496841F4706176
:101100003A4A083A516070E038493C31884208D187
:1011100036490839496841F47041344A083A516007
:1011200063E032495031884208D130490839496872
:1011300041F470212D4A083A516056E02B49643140
:10114000884208D129490839496841F47001274A81
:10115000083A516049E025497831884208D123494D
:101160000839496841F07061204A083A51603CE012
:101170001F49884206D1011F096841F00F01021F73
:10118000116032E01A491431884208D11849091F08
:10119000096841F0F001164A121F116025E0144958
:1011A0002831884208D11249091F096841F4706149
:1011B0000F4A121F116018E00D493C31884208D1D6
:1011C0000B49091F096841F47041094A121F116057
:1011D0000BE007495031884207D10549091F0968CA
:1011E00041F47021024A121F11607047080002404A
:1011F0000804024010B50022026847F6F0739A43D3
:101200000C6A8B6823430C6923434C6923438C6924
:101210002343CC6923434C6A23438C6A23431A43F8
:101220000260CB6843600B6883604B68C36010BD8D
:101230002DE9F04704462046FFF75AF98146104948
:101240004846FFF72DF881464FF08B414846FEF7A0
:10125000F5FF8246FFF77EF907464FF06632094BED
:10126000FFF7CEF80546FFF7B9F981464846FFF784
:101270005DF985B229460020FFF7FAFEBDE8F08748
:1012800000007A4466660A40704700000021044A64
:10129000116000BF024909688142FBD3704700001A
:1012A0001C01002038B532480078401CC0B28DF8CF
:1012B00000002F484078401CC0B28DF801002C4837
:1012C0008078401CC0B28DF802002948C078401CCC
:1012D000C0B28DF803006A460C21002004F0FAFC2D
:1012E00001220021084604F0B5FC0122114600202D
:1012F00004F0B0FC0520FFF7C9FF0321002003F034
:10130000ADF913280BD010220121002004F0A2FC1B
:101310000020184908601849C1F8B80138BD0422F6
:101320000121002004F096FC00BF002402210020CF
:1013300003F094F9044624B122460221002004F06F
:1013400089FC0520FFF7A2FF04F00800082801D15E
:101350000020E3E70621002003F080F9FF2806D0F3
:1013600010220121002004F075FCFF20D6E7DCE705
:1013700006010020BC0122420000224210B50EA04E
:1013800004F0F8FC022000F07BF8012813D10220C1
:1013900000F070F80A2005F0BFFA02210B4800F0B7
:1013A000FBF940B90A2005F0B7FAFF200849087098
:1013B00008A004F0DFFC10BD496E20746865206D44
:1013C000696420657874693100000000000C0140F8
:1013D0004900002077652061726520696E2074687D
:1013E00065206D6964646C65206F6620657874693A
:1013F00020696E746572727570740D0A00000000C9
:1014000010B5042000F03CF801281ED100F032F89D
:101410000A2005F081FA04210C4800F0BDF968B9F2
:1014200001210B4800F0C1F920B90121084800F062
:10143000C7F903E00121064800F0C0F900BF04210C
:10144000024800F0A9F90028F9D010BD00180140A9
:101450000010014010B54FF4007000F011F830B1E9
:101460004FF4007000F006F801200149087010BD2B
:101470001B0100200149086070470000140401406E
:10148000014600200022074B1B6803EA0102054BBE
:1014900014331B680B4013B10AB1012000E0002097
:1014A0007047000000040140002123498279002A8E
:1014B0003AD00A46126803689A430B461A600A1D1E
:1014C000126803689A430B1D1A60027911440A6876
:1014D00003681A430A60184A0832126803689A437C
:1014E000154B08331A601A1D126803689A43124B91
:1014F0000C331A604279102A0ED11A1F1268036841
:101500001A430D4B08331A601A1D126803681A43F8
:10151000094B0C331A600DE00749427911440A68FF
:1015200003681A430A6005E0027911440A680368F7
:101530009A430A60704700000004014005490968A9
:1015400021F01001034A116011460968014311603E
:10155000704700000020024001460020034A106846
:1015600000F038000843106070470000002002407F
:10157000704700002DE9F04104462046FFF7F8FFD0
:1015800005460A492046FEF759FE0746FEF7B5FF15
:101590000646FEF7A4FF05462846FEF7C7FF86B2BB
:1015A0003046FFF745FEBDE8F08100000000C8426C
:1015B00030B500228B071C0F0F2303FA04F20B4BEC
:1015C0008C1053F824309343084C8D1044F8253088
:1015D00023468C1053F824308C07240F00FA04F4AF
:1015E0002343024C8D1044F8253030BD08000140E3
:1015F0002DE9F041024600250026002000230024AA
:10160000002791F803C00CF00F0591F803C00CF00F
:10161000100CBCF1000F03D091F802C04CEA050594
:1016200091F800C0BCF1000F31D0146800202BE00D
:101630004FF0010C0CFA00F3B1F800C00CEA0306FD
:101640009E4220D183004FF00F0C0CFA03F7BC43ED
:1016500005FA03FC4CEA040491F803C0BCF1280F1E
:1016600006D14FF0010C0CFA00FCC2F814C00AE0DD
:1016700091F803C0BCF1480F05D14FF0010C0CFAF2
:1016800000FCC2F810C0401C0828D1D31460B1F887
:1016900000C0BCF1FF0F34DD546800202EE000F1E3
:1016A000080C4FF0010808FA0CF3B1F800C00CEA7E
:1016B00003069E4221D183004FF00F0C0CFA03F772
:1016C000BC4305FA03FC4CEA040491F803C0BCF1E6
:1016D000280F05D100F1080C08FA0CF8C2F81480A4
:1016E00091F803C0BCF1480F07D100F1080C4FF08E
:1016F000010808FA0CF8C2F81080401C0828CED364
:101700005460BDE8F0810000F0B50A4600230024D3
:101710000021002500F00046B6F1004F02D11D4E19
:10172000F16901E01B4E7168C0F3034583B200F418
:101730004016B6F5401F08D121F07061154E76684D
:1017400026F07066134F7E6012E000F48016B6F546
:10175000801F06D1032606FA05F4A14341F070610B
:1017600006E0460D360103FA06F6B14341F070611A
:1017700022B1460D360103FA06F6314300F0004669
:10178000B6F1004F02D1034EF16101E0014E7160EC
:10179000F0BD0000000001400246002093680B40AD
:1017A0000BB1012000E00020704702460020D36802
:1017B0000B400BB1012000E00020704741617047F1
:1017C000016170472DE9FC5F0546884691469A46BF
:1017D000DDF830B000953E20019000245FE004EB7E
:1017E0000410374911F810009BF80010884253D1BB
:1017F00004EB0410324901EB400040789BF80110E3
:10180000884249D108F10F0083B205F10F0082B27E
:101810004146284600F0FAFF00263BE0002734E06E
:101820000D9890B904EB0410254901EB4000801C91
:10183000805D80213941084018B1484601F050F9D7
:1018400021E0504601F04CF91DE01E48A0F8009040
:1018500004EB04101A4901EB4000801C805D8021DC
:101860003941084018B14146284600F065FE681C21
:1018700085B20098281A102805D1009D08F10100B2
:101880001FFA80F803E0781CC7B2082FC8DB00BF3E
:10189000701CC6B2202EC1DB00BF601C84B2019850
:1018A00084429CDB08484088401E83B2064800887A
:1018B000401E82B20021084600F0A8FFBDE8FC9F50
:1018C0003C800008E6000020700100202DE9FC5F4C
:1018D0000546884691469A46DDF830B000950720C7
:1018E0000190002467E004EB840000EB44103A49C7
:1018F00011F810009BF80010884259D104EB8400C5
:1019000000EB4410344901EB400040789BF8011093
:1019100088424DD108F1170083B205F1170082B259
:101920004146284600F072FF00263FE0002738E0DD
:101930000D98A0B904EB840000EB4410264901EB9C
:101940004000801C805D80213941084018B1484624
:1019500001F0C6F823E0504601F0C2F81FE01F482E
:10196000A0F8009004EB840000EB44101A4901EB4E
:101970004000801C805D80213941084018B14146FB
:10198000284600F0D9FD681C85B20098281A18284E
:1019900005D1009D08F101001FFA80F803E0781CD2
:1019A000C7B2082FC4DB00BF701CC6B2482EBDDB17
:1019B00000BF601C84B20198844294DB08484088D0
:1019C000401E83B206480088401E82B200210846AD
:1019D00000F01CFFBDE8FC9F78880008E6000020AE
:1019E000700100202DE9FC5F0546884691469A4625
:1019F000DDF830B000950420019000245FE004EB96
:101A00008410374911F810009BF80010884253D118
:101A100004EB8410324901EB400040789BF8011040
:101A2000884249D108F11F0083B205F11F0082B23C
:101A30004146284600F0EAFE00263BE0002734E05D
:101A40000D9890B904EB8410254901EB4000801CEF
:101A5000805D80213941084018B1484601F040F8C6
:101A600021E0504601F03CF81DE01E48A0F800902F
:101A700004EB84101A4901EB4000801C805D80213A
:101A80003941084018B14146284600F055FD681C10
:101A900085B20098281A202805D1009D08F1010080
:101AA0001FFA80F803E0781CC7B2082FC8DB00BF1C
:101AB000701CC6B2802EC1DB00BF601C84B20198CE
:101AC00084429CDB08484088401E83B20648008858
:101AD000401E82B20021084600F098FEBDE8FC9F3F
:101AE0007E8A0008E60000207001002070B50546DF
:101AF0000E4614463146284600F07EFE204600F091
:101B0000EFFF70BD38B5002400BF1BE0012000903E
:101B10000E48028804EB8400A82303EB800106230F
:101B2000B42004F0BDFF012000900848028804EBB7
:101B30008400A82303EB80010623322004F0B0FFC9
:101B4000601CC4B2082CE1DB38BD0000EC000020B2
:101B50003EB50546002400BF40E0285D01281DD1A8
:101B600000904948428804EB8400A82303EB8001DD
:101B70000623322004F094FF00200C2143A2CDE97B
:101B80000021029004EB8400A22202EB80014FF6B8
:101B9000E0730022412002F055FF1DE0012000907B
:101BA0003948028804EB8400A82303EB8001062354
:101BB000322004F075FF00200C2135A2CDE9002170
:101BC000029004EB8400A22202EB80014FF6E07346
:101BD0000022412002F036FF601CC4B2082CBCDB9E
:101BE00008244AE0285D012822D100902648428836
:101BF000A4F1080000EB8000A82303EB800106237A
:101C0000B42004F04DFF00200C2120A2CDE90021DA
:101C10000290A4F1080000EB8000A22202EB8000F9
:101C200081B24FF6E0730022C32002F00BFF22E0E6
:101C30000120009014480288A4F1080000EB800005
:101C4000A82303EB80010623B42004F029FF002021
:101C50000C210FA2CDE900210290A4F1080000EBB5
:101C60008000A22202EB800081B24FF6E0730022D6
:101C7000C32002F0E7FE601CC4B2102CB2DB40F2BD
:101C8000DC5004F049FE3EBDEC0000204F4E200029
:101C90004F46460010B54FF400516348FFF785FDED
:101CA000012805D16148407840F001005F49487043
:101CB0004FF480415C48FFF778FD012805D15B486F
:101CC000407840F00200594948704FF400415648AE
:101CD000FFF76BFD012805D15448407840F004001F
:101CE0005249487008215048FFF75FFD012805D18F
:101CF0004E48407840F008004C49487001214C485B
:101D0000FFF753FD012805D14848407840F0100006
:101D10004649487002214648FFF747FD012805D192
:101D20004248407840F020004049487040214048F7
:101D3000FFF73BFD012805D13C48407840F04000CA
:101D40003A49487080213A48FFF72FFD012805D114
:101D50003648407840F080003449487010213248BD
:101D6000FFF723FD012805D13048007840F001003D
:101D70002E49087001212F48FFF717FD012805D1D2
:101D80002A48007840F00200284908704FF480711A
:101D90002548FFF70AFD012805D12448007840F0C6
:101DA0000400224908704FF400711F48FFF7FDFC42
:101DB000012805D11D48007840F008001B49087033
:101DC0004FF480611848FFF7F0FC012805D117484F
:101DD000407840F01000154908704FF40061124837
:101DE000FFF7E3FC012805D11048407840F02000BF
:101DF0000E49087040210F48FFF7D7FC012805D194
:101E00000A48407840F0400008490870802109489D
:101E1000FFF7CBFC012805D10448407840F0800052
:101E200002490870014810BD00100140F600002072
:101E300000080140000C014010B54FF40051334838
:101E4000FFF7B3FC324908704FF480412F48FFF789
:101E5000ACFC2F4948704FF400412C48FFF7A5FC1B
:101E60002B49887008212948FFF79FFC2849C87032
:101E700001212848FFF799FC2549087102212548CE
:101E8000FFF793FC2249487140212248FFF78DFC5F
:101E90001F49887180211F48FFF787FC1C49C871C2
:101EA00010211A48FFF781FC1949087201211A48CC
:101EB000FFF77BFC164948724FF480711348FFF717
:101EC00074FC134988724FF400711048FFF76DFCE1
:101ED0000F49C8724FF480610C48FFF766FC0C494B
:101EE00008734FF400610948FFF75FFC0849487325
:101EF00040210948FFF759FC0549887380210648AD
:101F0000FFF753FC0249C873084610BD001001409A
:101F10007E01002000080140000C014070B502461F
:101F20004FF6FF70002312E012F8015B68400024B6
:101F30000AE000F0010525B140084AF201056840B9
:101F400000E04008651CECB2082CF2DB5B1C8B4205
:101F5000EAD370BD2DE9F04105460E460027072360
:101F6000012229460F48FEF75BFE002413E0012101
:101F70000C48FEF7B6FE00BF02210A48FEF7B8FD86
:101F80000028F9D00748FEF7AFFD0744052004F00C
:101F9000C3FC601CC4B2B442E9DBB7FBF4F080B20E
:101FA000BDE8F081002401403EB501244DE0022C43
:101FB00013DC04EB840000EBC4004FF6FF7202EA6E
:101FC000400304EB840000EBC40002EA40014FF43C
:101FD0008C72002000F058FA36E0062C11DC022C3E
:101FE0000FDD04EB84000C2202EB800083B204EBD3
:101FF000840002EB800081B2FA22002000F044FA53
:1020000022E0072C11D104EB84000C2202EB8000AB
:10201000801D83B204EB840002EB8000801D81B23E
:10202000FA22002000F030FA0EE004EB84001222C5
:1020300002EB800083B204EB840002EB800081B2EB
:10204000FA22002000F020FA641C102CAFDB84235D
:1020500078221A21104600F017FA4FF4957378226F
:102060009E21104600F010FA00200C219CA24FF691
:10207000FF73CDE900210290024605210A2002F0FB
:10208000E1FC01200C219FA24FF6FF73CDE9002156
:102090000290002221213C2002F0D4FC01200C21DE
:1020A0009BA24FF6FF73CDE900210290002221216F
:1020B0008C2002F0C7FC00200C2199A24FF6E0739F
:1020C000CDE9002102900246382102F0BBFC00203D
:1020D0000C2196A24FF6E073CDE900210290024652
:1020E0004E2102F0AFFC00200C2193A24FF6E073CA
:1020F000CDE9002102900246622102F0A3FC0020FB
:102100000C2190A24FF6E073CDE900210290024627
:10211000762102F097FC00200C218DA24FF6FF7370
:10212000CDE90021029002468B21502002F08AFC6A
:1021300000200C218AA24FF6E073CDE90021029025
:102140000246A2210A2002F07DFC00200C2186A27A
:102150004FF6E073CDE9002102900246B6210A2035
:1021600002F070FC00200C2181A24FF6E073CDE953
:10217000002102900246CA210A2002F063FC0020DE
:102180000C217DA24FF6E073CDE9002102900246BA
:10219000DE210A2002F056FC00200C2178A24FF626
:1021A000E073CDE9002102900246F2210A2002F0FC
:1021B00049FC00200C2174A24FF6E073CDE9002108
:1021C000029002464FF483710A2002F03BFC00208B
:1021D0000C216FA24FF6E073CDE900210290024678
:1021E0004FF48D710A2002F02DFC00200C216AA210
:1021F0004FF6E073CDE90021029002464FF497714B
:102200000A2002F01FFC00200C2165A24FF6E073AB
:10221000CDE9002102900246A221822002F012FCA8
:1022200000200C2160A24FF6E073CDE9002102905E
:102230000246B621822002F005FC00200C215CA29F
:102240004FF6E073CDE9002102900246CA218220B8
:1022500002F0F8FB00200C2157A24FF6E073CDE905
:10226000002102900246DE21822002F0EBFB0020DA
:102270000C2153A24FF6E073CDE9002102900246F3
:10228000F221822002F0DEFB00200C214EA24FF64C
:10229000E073CDE90021029002464FF48371822061
:1022A00002F0D0FB00200C2149A24FF6E073CDE9EB
:1022B0000021029002464FF48D71822002F0C2FB91
:1022C00000200C2144A24FF6E073CDE900210290DA
:1022D00002464FF49771822002F0B4FB3EBD00002D
:1022E0004761732053757070706C7920416E642063
:1022F00044656374656374696F6E205379737465A4
:102300006D0000005365742056616C756500000017
:102310004D6561737572652056616C7565000000CE
:10232000203134373941203A00000000203632375E
:102330004420203A00000000434447303235443AFC
:1023400000000000202020505620203A000000000D
:102350004761732056616C75652053746174650024
:102360004E6F2E31000000004E6F2E320000000034
:102370004E6F2E33000000004E6F2E340000000020
:102380004E6F2E35000000004E6F2E36000000000C
:102390004E6F2E37000000004E6F2E3800000000F8
:1023A0004E6F2E39000000004E6F2E3130000000BD
:1023B0004E6F2E31310000004E6F2E313200000082
:1023C0004E6F2E31330000004E6F2E31340000006E
:1023D0004E6F2E31350000004E6F2E31360000005A
:1023E00000BFFEE74CF6CC40014908607047000092
:1023F000003000404AF6AA200149086070470000FA
:102400000030004001494860704700000030004043
:1024100001498860704700000030004001490860B1
:10242000704700000030004070B5064614484088F0
:10243000401E83B212480088401E82B20021084626
:1024400000F0E4F94FF400600E4908604010091FE5
:10245000086000240AE0002503E0304600F040FB5D
:102460006D1C07480088A842F7D8641C04484088BF
:10247000A042F0D84FF400600249091F086070BD07
:1024800070010020140C01402DE9FF4F85B08146FA
:102490008A460020049003900798A0EB090508984D
:1024A000A0EB0A06CDF80890CDF804A0002D01DDC0
:1024B000012705E00DB9002702E04FF0FF376D421C
:1024C000002E02DD4FF0010806E016B94FF00008BB
:1024D00002E04FF0FF387642B54201DD2C4600E0C5
:1024E00034464FF0000B21E0019A91B2029A90B26B
:1024F00000F022F804982844049003983044039094
:102500000498A04205DD0498001B0490029838440A
:1025100002900398A04205DD0398001B03900198E8
:10252000404401900BF101001FFA80FB601C8345C1
:10253000DADD09B0BDE8F08F70B504460D462946D6
:10254000204600F059F90248008800F0C9FA70BD31
:10255000E600002008B50121082001F023FE4FF419
:10256000F050ADF8000003208DF8020010208DF827
:10257000030069460148FFF73BF808BD000C014025
:1025800010B502F0CBF8FFF7E5FF00F021F9CF20FE
:1025900000F012FA002000F0F7F9C12000F0F4F981
:1025A000302000F0F1F9ED2000F006FA642000F090
:1025B000EBF9032000F0E8F9122000F0E5F98120A2
:1025C00000F0E2F9E82000F0F7F9852000F0DCF9EE
:1025D000102000F0D9F97A2000F0D6F9CB2000F0D5
:1025E000EBF9392000F0D0F92C2000F0CDF90020D3
:1025F00000F0CAF9342000F0C7F9022000F0C4F955
:10260000F72000F0D9F9202000F0BEF9EA2000F010
:10261000D3F9002000F0B8F9002000F0B5F9C0208F
:1026200000F0CAF91B2000F0AFF9C12000F0C4F996
:10263000012000F0A9F9C52000F0BEF9302000F01B
:10264000A3F9302000F0A0F9C72000F0B5F9B720B9
:1026500000F09AF9362000F0AFF9482000F094F924
:102660003A2000F0A9F9552000F08EF9B12000F0D1
:10267000A3F9002000F088F91A2000F085F9B620AF
:1026800000F09AF90A2000F07FF9A22000F07CF90E
:10269000F22000F091F9002000F076F9262000F0F9
:1026A0008BF9012000F070F9E02000F085F90F208F
:1026B00000F06AF92A2000F067F9282000F064F998
:1026C000082000F061F90E2000F05EF9082000F00B
:1026D0005BF9542000F058F9A92000F055F9432087
:1026E00000F052F90A2000F04FF90F2000F04CF9E9
:1026F000002000F049F9002000F046F9002000F029
:1027000043F9002000F040F9E12000F055F90020E5
:1027100000F03AF9152000F037F9172000F034F9ED
:10272000072000F031F9112000F02EF9062000F00A
:102730002BF92B2000F028F9562000F025F93C2039
:1027400000F022F9052000F01FF9102000F01CF91C
:102750000F2000F019F93F2000F016F93F2000F09B
:1027600013F90F2000F010F92B2000F025F90020BC
:1027700000F00AF9002000F007F9012000F004F948
:102780003F2000F001F92A2000F016F9002000F0A7
:10279000FBF8002000F0F8F8002000F0F5F8EF203A
:1027A00000F0F2F8112000F007F9782004F0B4F8F6
:1027B000292000F001F9002000F026F9012003494A
:1027C00008604FF6FF70FFF72FFE10BDA481214275
:1027D00010B54FF4805007490860642004F09CF85D
:1027E0004FF480500349091F0860322004F094F828
:1027F00010BD0000140C014070B504460D462B4678
:1028000022462946204600F001F870BD2DE9F0412E
:1028100004460D4616461F461149887A00F0CCF84A
:10282000201200F0B1F8E0B200F0AEF8301200F083
:10283000ABF8F0B200F0A8F80949087B00F0BCF84A
:10284000281200F0A1F8E8B200F09EF8381200F06B
:102850009BF8F8B200F098F800F0C4F8BDE8F081F9
:10286000700100202DE9FF4F83B081468A469346D0
:10287000DDE91064404800880290A6F12000C6B24D
:1028800004EBD47009EB6000401E82B20AEB040036
:10289000401E83B2514648460194FFF7B7FF129895
:1028A00050BB002525E00C2C07D106EB4600334930
:1028B00001EB800010F8058004E0314800EB0610C1
:1028C00010F8058000270DE008F0010018B1584607
:1028D00000F006F902E0069800F002F94FEA6808F5
:1028E000781CC7B204EBD471B7EB610FECDB681C4A
:1028F000C5B2A542D7DB2DE0002529E00C2C07D17D
:1029000006EB46001D4901EB800010F8058004E04D
:102910001B4800EB061010F80580002711E0164850
:10292000A0F800B008F0010038B10AEB050291B23E
:1029300009EB070290B2FFF7FFFD4FEA6808781C29
:10294000C7B204EBD471B7EB610FE8DB681CC5B20A
:10295000A542D3DB0849029808800A484088401EF7
:1029600083B208480088401E82B200210846FFF763
:102970004DFF07B0BDE8F08FE6000020D8750008D5
:102980004C7A00087001002010B504464FF4006036
:10299000074908604010091F08602146054801F0FA
:1029A000CBFF4FF400600249091F086010BD000012
:1029B000140C01400038004010B504464FF400608C
:1029C00006490860401008602146054801F0B4FF40
:1029D0004FF400600149091F086010BD140C01404C
:1029E0000038004010B50249087AFFF7E5FF10BD36
:1029F0007001002070B505460C462846FFF7DCFF45
:102A0000E0B2FFF7C1FF70BD10B504462A201E4991
:102A100048812B2088812C20088134B1012C0FD0D3
:102A2000022C18D0032C2CD120E0F020164908806D
:102A30004FF4A070488008213620FFF7DBFF21E02B
:102A40004FF4A07010490880F0204880682136209B
:102A5000FFF7D0FF16E0F0200B4908804FF4A0707C
:102A60004880C8213620FFF7C5FF0BE04FF4A07067
:102A700005490880F0204880A8213620FFF7BAFFDA
:102A800000E000BF00BF10BD7001002008B50121AB
:102A9000102001F087FB0121042001F083FB4FF29D
:102AA0004000ADF8000010208DF8030003208DF8E1
:102AB000020069460848FEF79BFD4FF40060ADF840
:102AC000000010208DF8030003208DF802006946F5
:102AD0000248FEF78DFD08BD0010014000080140CE
:102AE00010B504464FF40060094908604010091F02
:102AF00008602112074801F01FFFE1B2054801F00C
:102B00001BFF4FF400600249091F086010BD000060
:102B1000140C014000380040C02017490870A8205C
:102B200048707F2088700120C870FF20134908700A
:102B3000487088700020C8700C2011490870292046
:102B40004870AB2088707C20C8700020087101207C
:102B50004871C0200B490870A82048707F208870F9
:102B60000520C8701320084908708820487000208C
:102B70000649087070470000F8000020FC000020A3
:102B800000010020060100200A0100201801002099
:102B900000BFFEE7704708B500214FF0006000F06D
:102BA00057F84FF4C06000F049F81C208DF8000081
:102BB00000208DF801008DF8020001208DF803003F
:102BC000684600F003F802F041FF08BD70B500212F
:102BD00000230F22C47804B3154C246804F4E06485
:102BE000C4F5E064210AC1F10403CA40447804FA40
:102BF00003F184781440214309010E4C0678A15555
:102C0000047804F01F050124AC4005786D11AD0077
:102C100005F1E025C5F8004109E0047804F01F053E
:102C20000124AC40044D0678761145F8264070BD6D
:102C30000CED00E000E400E080E100E00249014327
:102C4000024A1160704700000000FA050CED00E038
:102C5000024A0A400243024B1A60704780FFFF1F7E
:102C600008ED00E0704700002DE9F04704464FF002
:102C700080412046FDF7E2FA8246FDF76BFC0746ED
:102C8000054A064BFDF7BCFB0546FDF7A7FC814650
:102C90004846BDE8F08700009A99999999992A4089
:102CA0002DE9F041ADF5006D4FF005080024002539
:102CB0008F49002001F016FC074639468DA003F02D
:102CC00059F8FFE093A003F055F8294697A003F0C8
:102CD00051F839469AA003F04DF88549681C085C04
:102CE000032806D0052847D006287FD008286ED1B3
:102CF000BCE0062600240AE028197D49085C0DF88E
:102D000004001DF8041091A003F034F8641CB442D0
:102D1000F2DBB01EC1B26846FEF782F998B191A00D
:102D200003F028F8E81C724A105C011D94A003F01F
:102D300021F831469BA003F01DF8324629460020B9
:102D400000F0AEF913E09CA003F014F8E81C684A08
:102D5000105C011D8AA003F00DF8314691A003F02C
:102D600009F801209B49087000209B490860354400
:102D7000BF1FA8F10108A4E0072600240AE02819D3
:102D80005B49085C0DF804001DF804106FA002F008
:102D9000F1FF641CB442F2DBB01EC1B26846FEF71C
:102DA0003FF9A8B18DA002F0E5FFE81C504A105C85
:102DB000011D73A002F0DEFF31467AA002F0DAFFB7
:102DC00032462946002000F06BF90AE00EE075E07B
:102DD00088A002F0CFFF01207E49087000207E49C4
:102DE00008603544FF1FA8F101086AE04049E81C6B
:102DF000085C861D002405E028193D49085C0DF893
:102E00000400641CB442F7DBE81C394A105C001D66
:102E1000C1B26846FEF704F998B17DA002F0AAFF9E
:102E2000E81C334A105C011D55A002F0A3FF324696
:102E30002946002000F034F931465AA002F09AFFEA
:102E40000FE07AA002F096FFE81C294A105C011DF1
:102E50004BA002F08FFF01205E49087000205E4900
:102E600008603544BF1BA8F101082AE006260024AB
:102E700005E028191E49085C0DF80400641CB442E2
:102E8000F7DBB01EC1B26846FEF7CAF840B16EA0CB
:102E900002F070FF32462946002000F001F908E0F8
:102EA00070A002F067FF01204A49087000204A49DB
:102EB00008603544BF1FA8F1010802E0A8F101082D
:102EC00000BF00BFB8F1000F01DD012000E00020CD
:102ED000002F01DD012100E00021084000287FF4DF
:102EE000F1AE67A002F046FF0DF5006DBDE8F08180
:102EF0008E01002050726F636573735F5061636B66
:102F00006167655F526563656976653A25640D0A98
:102F1000000000007374696C6C20696E2074686531
:102F2000207768696C65720D0A0000005374617245
:102F30007420506F696E742025640D0A0000000033
:102F400053697A65202025640D0A000052585F42BB
:102F500075666665725F526563656976653A257860
:102F60000D0A000063617365203033204352432013
:102F7000636865636B206F6B61790D0A0000000068
:102F800061637475616C2064617461206C656E6747
:102F9000746820776520726576656976653A256480
:102FA0000D0A00005061636B6167655F53697A6564
:102FB00025640D0A00000000636173652030332032
:102FC00043524320636865636B2077726F6E670DB1
:102FD0000A0000009000002098012242636173659E
:102FE00030352043524320636865636B206F6B610B
:102FF000790D0A0063617365203035204352432008
:10300000636865636B2077726F6E67200D0A00003E
:1030100063617365203036204352432063686563E3
:103020006B206F6B61790D0A0000000063617365AE
:103030002030362043524320636865636B207772EB
:103040006F6E670D0A0000006361736520303820E1
:1030500043524320636865636B206F6B61790D0A8F
:103060000000000063617365203038204352432024
:10307000636865636B2077726F6E670D0A000000EE
:1030800077652068617665206F7574206F6620749F
:103090006865207768696C65206C6F6F700D0A0039
:1030A0002DE9F74F82B00D4616464FF0000BFB4856
:1030B000405D052841F04780681CF849085C0328FA
:1030C00008D005287ED006287DD0082841F0398018
:1030D00000F0FBBEA81CF149085C142874D008DC81
:1030E00001280FD0022840D003286ED004283BD1FD
:1030F000B7E015286AD0162869D0172868D0182894
:10310000F5D17DE10520E6490870032048700120D3
:1031100088700420C870FDF7C3FE0746FDF7DFF98D
:1031200082465046FDF7EDFD8346CDF804B09DF88C
:103130000700DB4908719DF8060048719DF80500FD
:1031400088719DF80400C8710821D548FEF7E6FE95
:1031500000909DF80000D24908729DF80100487265
:103160000A22029802F0B8FC95E10520CC490870CB
:1031700003204870022088700420C870FDF702FF09
:103180000746FDF7ACF982465046FDF7D7FD83466A
:103190005846FDF7DFF907463A460B46C1A002F054
:1031A000E9FDCDF804B09DF80700BD4908719DF810
:1031B000060048719DF8050088719DF80400C871EB
:1031C000082106E0E2E1EFE26FE012E091E0BDE00D
:1031D000E9E0B348FEF7A2FE00909DF80000B04978
:1031E00008729DF8010048720A22029802F074FCED
:1031F00051E10520AA490870032048708870042016
:10320000C870FDF7DBFD82465046FDF77BFD834627
:103210005846FDF79FF907463A460B46A9A002F02B
:10322000A9FDCDF804B09DF807009D4908719DF8EF
:10323000060048719DF8050088719DF80400C8716A
:1032400008219748FEF76AFE00909DF80000944917
:1032500008729DF8010048720A22029802F03CFCB4
:1032600019E105208E4908700320487004208870F9
:103270000220C870FEF70EFD814699F800008849CB
:10328000087199F80100487106218548FEF746FE4D
:1032900000909DF80000824988719DF80100C87176
:1032A0000822029802F018FCF5E005207C4908701D
:1032B00003204870142088700120C87089A002F093
:1032C00059FDFEF7E7FC81468F4800787449087184
:1032D00005217348FEF722FE00909DF8000070491A
:1032E00048719DF8010088710722029802F0F4FBF2
:1032F000D1E005206A4908700320487015208870C5
:103300000420C87081A002F035FD86480068019055
:103310009DF80700624908719DF8060048719DF804
:10332000050088719DF80400C87108215C48FEF70B
:10333000F5FD00909DF80000594908729DF80100C4
:1033400048720A22029802F0C7FBA4E00520544903
:10335000087003204870162088700420C87072A07E
:1033600002F008FD7848006801909DF807004C497C
:1033700008719DF8060048719DF8050088719DF858
:103380000400C87108214648FEF7C8FD00909DF86A
:103390000000434908729DF8010048720A22029811
:1033A00002F09AFB77E005203D4908700320487041
:1033B000172088700420C87064A002F0DBFC694804
:1033C000006801909DF80700354908719DF80600D6
:1033D00048719DF8050088719DF80400C8710821A6
:1033E0002F48FEF79BFD00909DF800002C490872C5
:1033F0009DF8010048720A22029802F06DFB4AE033
:1034000005202749087003204870182088700C2078
:10341000C87055A002F0AEFC5948006801909DF8B4
:1034200007001F4908719DF8060048719DF80500C6
:1034300088719DF80400C8715248006801909DF899
:10344000070008729DF8060048729DF80500887212
:103450009DF80400C8724C48006801909DF8070070
:1034600008739DF8060048739DF8050088739DF861
:103470000400C87310210A48FEF750FD00909DF823
:103480000000074908749DF8010048741222029850
:1034900002F022FB00BF00BFF6E300008E01002017
:1034A0008E090020494E7465726E6574203632377D
:1034B000442041637475616C2076616C75653A25B2
:1034C000660D0A00494E7465726E657409303235B6
:1034D000442041637475616C2076616C75653A2592
:1034E000660D0A0052656164206966207765206177
:1034F000726520726561647920746F20696E7370E3
:10350000697265200D0A0000920000205265616416
:103510002056616375756D2076616C7565207365E5
:10352000740D0A00080000205265616420313437B0
:10353000394120666C6F77202076616C7565207349
:1035400065740D0A000000000C00002052656164E3
:103550002070756666202076616C756520736574D1
:103560000D0A000014000020526561642070696437
:1035700020706172616D6574657273200D0A0000C0
:103580001C0000202000002024000020A81CF4497A
:10359000085C082875D006DC052809D0062836D036
:1035A00007286FD159E009286DD01928F9D1C9E051
:1035B000281DEB49085C012806D1FF20E949087065
:1035C000E9A002F0D7FB05E00020E6490870EDA075
:1035D00002F0D0FB00240FE02819E149085CF34910
:1035E00008550846015DF2A002F0C4FB2146F6A092
:1035F00002F0C0FB601CC4B2B442EDDBF6A002F0E6
:10360000B9FBB2B2E949029802F066FACAE0281D95
:10361000D349085C012806D1FF20F4490870F4A0C2
:1036200002F0A8FB05E00020F0490870F7A002F0C6
:10363000A1FB002406E02819C949085CDB490855AC
:10364000601CC4B2B442F6DBE3A002F093FBB2B25A
:10365000D649029802F040FAA4E0281DC049085C4F
:10366000012806D1FF20F0490870F0A002F082FB8B
:1036700005E00020EC490870F5A002F07BFB002477
:1036800009E013E08DE037E02819B549085CC74927
:103690000855601CC4B2B442F6DBCFA002F06AFB4E
:1036A000B2B2C249029802F017FA7BE0281DAC4979
:1036B000085C012806D1FF20ED490870EDA002F05A
:1036C00059FB05E00020EA490870F2A002F052FB25
:1036D000002406E02819A249085CB4490855601C7A
:1036E000C4B2B442F6DBBCA002F044FBB2B2AF49B4
:1036F000029802F0F1F955E0281D9949085C01286B
:1037000006D1FF20EB490870EBA002F033FB05E087
:103710000020E8490870EEA002F02CFB002406E02F
:1037200028198F49085CA1490855601CC4B2B442ED
:10373000F6DBA9A002F01EFBB2B29C49029802F08F
:10374000CBF92FE0281D8649085C012806D1FF200F
:10375000E5490870E5A002F00DFB05E00020E24914
:103760000870E8A002F006FB00240FE028197C494D
:10377000085C8E4908550846015D8DA002F0FAFAF2
:10378000214691A002F0F6FA601CC4B2B442EDDB0F
:1037900091A002F0EFFAB2B28449029802F09CF9CB
:1037A00000E000BF00BF77E6A81C6D49085C0A383E
:1037B000102851D2DFE800F008519AD3D2D15050EE
:1037C00050D0CFCE505050CD281D6549085C8DF8A3
:1037D0000700681D085C8DF80600A81D085C8DF8C0
:1037E0000500E81D085C8DF80400CD4901980968C2
:1037F000FCF71AFF01D2012700E00027C949019810
:103800000968FCF707FF01D2012000E00020074310
:1038100037B10120C44908700020C449086008E09D
:103820000020C1490870C24901980860C1A002F097
:10383000A1FA002406E028194949085C5B490855AB
:10384000601CC4B2B442F6DB63A002F093FAB2B2D9
:103850005649029802F040F935E3281D4049085CBA
:103860008DF80700681D085C8DF80600A81D085C2F
:103870008DF80500E81D085C8DF80400B549019835
:103880000968FCF7D1FE01D2012700E00027B24908
:1038900001980968FCF7BEFE01D2012000E000207B
:1038A000074337B10120A049087000209F490860F4
:1038B00008E000209C490870A84901980860A8A069
:1038C00002F058FA002406E028192549085C374917
:1038D0000855601CC4B2B442F6DB3FA002F04AFABD
:1038E000B2B23249029802F0F7F8ECE2281D1C4906
:1038F000085C8DF80700681D085C8DF80600A81D9F
:10390000085C8DF80500E81D085C8DF804009C49F2
:1039100001980968FCF788FE01D2012700E0002722
:10392000984901980968FCF775FE01D2012000E072
:103930000020074337B101207B49087000207B49F4
:10394000086026E10020784908708F4901980860D6
:103950001CE16FE2BBE175E14BE228E2FBE12DE106
:103960008E01002047000020436173652030352020
:10397000746F206F70656E204465627567204D6FAF
:1039800064650A004361736520303520746F206FD1
:1039900070656E204E6F726D616C2052756E6E692F
:1039A0006E67204D6F64650A000000008E090020DC
:1039B000547862756666657220636F6E74656E74A6
:1039C0003A25780D0A00000049206E756D62657217
:1039D0003A25640D0A000000536574205278627520
:1039E00066666572206F6B61790D0A0044000020E5
:1039F0004361736520303620746F206F70656E20D0
:103A000076616C7665730D0A000000006361736572
:103A100020303620746F20636C6F7365207661767A
:103A20006C65730D0A0000004A0000204361736555
:103A30002030373A20746F20313437394120636F9A
:103A40006E74726F6C204D6F64650D0A000000008B
:103A50004361736520303720746F205045562063D2
:103A60006F6E74726F6C206D6F64650D0A000000DC
:103A700048000020436173652030382054696D6927
:103A80006E672054726967676572204D6F64650DBB
:103A90000A0000004361736520303820436F6D6D6C
:103AA000616E642054726967676572204D6F64654A
:103AB0000D0A000049000020436173652030392061
:103AC00070756666206D6F6465206F6E0D0A00006C
:103AD000436173652030392070756666206D6F64B0
:103AE00065206F66660D0A004B0000204361736518
:103AF00020313920746F207573652073637265659A
:103B00006E0A00004361736520313920746F206EA6
:103B10006F742075736520737265656E0A0000000E
:103B2000580000205C00002091000020B0012242DB
:103B3000080000204361736520307830413A2073DB
:103B40006574203632374420707265737375726500
:103B50000D0A000060000020640000200C0000201E
:103B600043617365203078304220536574203134CE
:103B700037394120466C6F7720446174610D0A002B
:103B8000700000207400002014000020F8A002F053
:103B9000F1F8002406E02819FE49085CFE490855A2
:103BA000601CC4B2B442F6DBAFF2D41002F0E2F80B
:103BB000B2B2F949029801F08FFF84E1281DF5495E
:103BC000085C8DF80700681D085C8DF80600A81DCC
:103BD000085C8DF80500E81D085C8DF80400EF49CD
:103BE00001980968FCF720FD01D2012700E00027B9
:103BF000EB4901980968FCF70DFD01D2012000E0B6
:103C0000002007431FB10020E649086005E0E649AF
:103C100001980860E5A002F0ADF8002406E028193C
:103C2000DC49085CDC490855601CC4B2B442F6DBD0
:103C3000AFF25C2002F09EF8B2B2D749029801F0D0
:103C40004BFF40E1281DD349085C8DF80700681D33
:103C5000085C8DF80600A81D085C8DF80500E81DBD
:103C6000085C8DF80400D94901980968FCF7DCFC70
:103C700001D2012700E00027D54901980968FCF727
:103C8000C9FC02D2012001E05AE2002007431FB123
:103C90000020C449086005E0CE4901980860CEA024
:103CA00002F068F8002406E02819BA49085CBA490D
:103CB0000855601CC4B2B442F6DBAFF2E42002F057
:103CC00059F8B2B2B449029801F006FFFBE0281D92
:103CD000B049085C8DF80700681D085C8DF8060087
:103CE000A81D085C8DF80500E81D085C8DF804002F
:103CF000C14901980968FCF797FC01D2012700E04F
:103D00000027BE4901980968FCF784FC01D2012014
:103D100000E0002007431FB10020A249086005E031
:103D2000B74901980860B7A002F024F8002406E023
:103D300028199849085C98490855601CC4B2B442D7
:103D4000F6DBAFF26C3002F015F8B2B2924902988D
:103D500001F0C2FEB7E0281D8E49085CB149087029
:103D6000681D8C49085CAF49487008460178AEA0D0
:103D700002F000F8AB484178B2A001F0FBFFB8A018
:103D800001F0F8FF002406E028198249085C824906
:103D90000855601CC4B2B442F6DBAFF2C43001F087
:103DA000E9FFB2B27C49029801F096FE8BE0281D33
:103DB0007849085CB3490870681D7649085CB149C8
:103DC0004870B1A001F0D6FF002406E0281971491F
:103DD000085C71490855601CC4B2B442F6DBAFF20E
:103DE000084001F0C7FFB2B26B49029801F074FEBF
:103DF00069E00020AF490870AF49087001206949A7
:103E000018390860AD49C1F8B001002406E028194E
:103E10006049085C60490855601CC4B2B442F6DBD6
:103E2000AFF24C4001F0A6FFB2B25B49029801F03C
:103E300053FE48E0281D5749085C8DF80700681DAF
:103E4000085C8DF80600A81D085C8DF80500E81DCB
:103E5000085C8DF804009A490198FCF7E5FB01D253
:103E6000012700E000274FF07E510198FCF7D2FBBC
:103E700001D2012000E00020074337B101208E4924
:103E8000087000204749086008E000208A4908704F
:103E90008C49019808608CA001F06CFF002406E0BA
:103EA00028193C49085C3C490855601CC4B2B4421E
:103EB000F6DBAFF2DC4001F05DFFB2B236490298AA
:103EC00001F00AFE00BF00BF3CE1A81C3149085CBC
:103ED000112802D0122849D125E084A001F04AFF20
:103EE00005202D4908700820487011208870012095
:103EF000C87070480078012801D1087102E00020E4
:103F00002549087105212448FEF708F800909DF81E
:103F10000000214948719DF801008871072202982C
:103F200001F0DAFD0BE17AA001F024FF05201A4927
:103F3000087008204870122088700120C8705E4800
:103F40000078012801D1087102E0002012490871AF
:103F500005211148FDF7E2FF00909DF800000E4991
:103F600048719DF8010088710722E3E0E6E0000057
:103F70004361736520307830633A20736574207034
:103F800075666620707265737375726520736574EB
:103F90000D0A00008E0100208E090020780000200C
:103FA00084000020B00122421C00002043617365A0
:103FB0002030783064205365742050207061726125
:103FC0006D65746572206F6B0D0A00007C00002027
:103FD0008800002020000020436173652030783184
:103FE0003420536574204920706172616D65746579
:103FF00072206F6B0D0A0000800000208C000020F2
:1040000024000020436173652030783135205365EA
:1040100074204420706172616D65746572206F6BED
:104020000D0A00001A000020526563656976656418
:104030002056616C756520686967683A2025780D9F
:104040000A00000052656365697665642056616CFC
:1040500075653A206C6F77203A2025780D0A0000AC
:104060004361736520307830453A20537461626C47
:10407000652072756E6E696E672076616C76657309
:104080000D0A00001800002043617365203078306D
:10409000663A5365742050756666204D6F646520DE
:1040A000617578696C696172792056616C76650D0D
:1040B0000A00000090000020910000200000224231
:1040C0000000C84228000020436173652030783129
:1040D00039205365742041442073616D706C696EA2
:1040E000672074696D65730D0A0000004361736594
:1040F00020307831313A207265616420636F6D6DD4
:10410000756E6963617465206572726F720D0A0065
:104110004361736520307831323A207365742076BC
:10412000616C7565206F766572206572726F720DB5
:104130000A000000029801F0CFFC00E000BF00BFC1
:1041400000E000BF00BF05B0BDE8F08F01460020D1
:10415000034A506820F44040084350607047000014
:104160000010024029B1064A52690243044B5A61C9
:1041700004E0034A52698243014B5A6170470000D0
:104180000010024029B1064AD2690243044BDA61A9
:1041900004E0034AD2698243014BDA6170470000B0
:1041A0000010024029B1064A92690243044B9A6109
:1041B00004E0034A92698243014B9A617047000010
:1041C0000010024029B1064AD2680243044BDA606B
:1041D00004E0034AD2688243014BDA607047000072
:1041E000001002400149C8647047000000004242CC
:1041F00010B500F03BF84FF4803000F0F9F800F013
:1042000055F90446012C2FD11020FDF797F9022013
:10421000FDF7A2F9002000F0DFF8002000F01AF905
:10422000A00200F00BF94FF4E011200400F024F993
:10423000012000F01BF900BF392000F0A7F800288A
:10424000FAD0022000F026F900BF00F0BDF80828DF
:10425000FBD10120FFF7C6FF01210846FFF792FFBF
:1042600001213D20FFF79EFF10BD00000F480068B0
:1042700040F001000D490860084640680C490840BC
:104280000A494860084600680A490840074908602A
:104290000846006820F4802008600846406820F442
:1042A000FE0048604FF41F00886070470010024015
:1042B0000000FFF8FFFFF6FE30B5002100220024C9
:1042C00000232D4D6D6805F00C0121B1042905D0A6
:1042D000082923D105E0294D056022E0274D05601E
:1042E0001FE0254D6D6805F47012234D6D6805F4CF
:1042F0008034022505EB92421CB9214D55430560DF
:104300000BE01D4D6D6805F400351DB11C4D554386
:10431000056002E0194D5543056002E0174D056048
:1043200000BF00BF144D6D6805F0F0010909154D7F
:104330006B5C0568DD4045600F4D6D6805F4E0611C
:10434000090A104D6B5C4568DD4085600A4D6D685B
:1043500005F46051C90A0B4D6B5C4568DD40C560D2
:10436000054D6D6805F44041890B074D6B5CC568D0
:10437000B5FBF3F5056130BD0010024000127A0074
:1043800000093D00CE000020DE00002010B50146EF
:104390000022002300204A11012A02D1094C23687F
:1043A00006E0022A02D1074C236A01E0054C636A49
:1043B00001F01F02012494401C400CB1012000E0D8
:1043C000002010BD001002400248406800F00C00C0
:1043D000704700000010024001460020034A506868
:1043E00020F0F000084350607047000000100240C9
:1043F0001149096821F480310F4A1160114609689A
:1044000021F480211160B0F5803F03D0B0F5802FFA
:104410000ED106E00849096841F48031064A11606E
:1044200007E00549096841F4A021034A116000E052
:1044300000BF00BF7047000000100240014600208E
:10444000034A506820F4E060084350607047000061
:104450000010024001460020034A506820F46050DA
:1044600040EAC100506070470010024001490866F0
:10447000704700000000424202460020044B58688A
:1044800020F47C1042EA01031843014B5860704746
:104490000010024001460020034A506820F003004B
:1044A00008435060704700000010024038B50020FB
:1044B00000900024002500BF3120FFF767FF05466C
:1044C0000098401C00900098B0F5A06F01D0002D1E
:1044D000F2D03120FFF75AFF08B1012400E0002498
:1044E000204638BD2DE9F04780460D46262140463E
:1044F00000F0DEF8064616B90020BDE8F08740F26D
:10450000B450864200DD06462821404600F0D0F82F
:104510000746B946C7F30A074FF400413B48FDF789
:104520004DF9384600F058F9182101EB4811C8B28E
:1045300000F042F9364800F0DCF900F0FF0AB81943
:10454000B0F5006F11DA00240CE0002000F034F91F
:104550002F4800F0CEF900F0FF0A85F800A06D1C8E
:10456000601C84B2B442F0DB3BE0C7F5006087B268
:1045700000240CE0002000F01FF9254800F0B9F9F4
:1045800000F0FF0A85F800A06D1C601C84B2BC42DC
:10459000F0DB4FF400411D48FDF712F94FF40041E4
:1045A0001A48FDF70BF9002000F016F9182101EB6D
:1045B0004811C8B200F000F9154800F09AF900F06F
:1045C000FF0A0CE0002000F0F7F8114800F091F924
:1045D00000F0FF0A85F800A06D1C601C84B2B44294
:1045E000F0DB4FF400410948FDF7EAF809EB06005B
:1045F0001FFA80F94A462821404601F04BFB402231
:104600000121404601F026FB304676E700080140D4
:10461000003C004070B504464FF400410D48FDF7E2
:10462000CDF8204600F0D8F8012000F0C5F80A487F
:1046300000F05FF9C5B2002000F0BEF8064800F0B7
:1046400058F9C5B24FF400410248FDF7B9F82846C1
:1046500070BD000000080140003C004070B50446F9
:104660000D464FF400411048FDF7A8F8284600F029
:10467000B3F8082101EB4411C9B241F0010000F088
:104680009BF80A4800F035F9C6B2002000F094F813
:10469000064800F02EF9C6B24FF400410248FDF77B
:1046A0008FF8304670BD000000080140003C00401B
:1046B00070B505460E464FF400411648FDF77EF8EA
:1046C000304600F089F8082101EB4511C9B241F0EC
:1046D000020000F071F8104800F00BF904460020C9
:1046E00000F06AF80C4800F004F90446002000F0DD
:1046F00063F84FF6FF7000EA0424074800F0F9F869
:10470000204484B24FF400410248FDF759F8204696
:1047100070BD000000080140003C004000B587B0BB
:1047200001210920FFF73EFD4FF42040ADF80400C1
:1047300003208DF8060018208DF8070001A91C48F9
:10474000FCF756FF4FF48040ADF8040048208DF888
:10475000070003208DF8060001A91548FCF748FF63
:1047600001218803FFF70EFD0020ADF808004FF48B
:104770008270ADF80A000020ADF80C00ADF80E0014
:10478000ADF810004FF40070ADF812000020ADF845
:104790001400ADF816000720ADF8180002A905486E
:1047A00000F0ACF80121034800F024F807B000BD88
:1047B000000C01400038004010B504462146054871
:1047C00000F09AF800BF8021024800F089F8012823
:1047D000F9D010BD003C004070B504462546E117F5
:1047E00004EB1161C1F30720FFF7E6FFE0B2FFF72A
:1047F000E3FF70BD21B1028842F04002028004E074
:1048000002884FF6BF731A400280704700B587B028
:104810000121C803FFF7B6FC01210920FFF7C2FC04
:1048200001212B48FCF770FF0820ADF81800032089
:104830008DF81A0018208DF81B0006A92548FCF7F2
:10484000D7FE1020ADF8180006A92248FCF7D0FECC
:104850002020ADF8180006A91E48FCF7C9FE4FF449
:104860000040ADF8180003208DF81A0010208DF8D4
:104870001B0006A91848FCF7BBFE4FF40041164880
:10488000FCF79EFF0020ADF804004FF48270ADF8F5
:1048900006000020ADF80800ADF80A00ADF80C00E5
:1048A0004FF40070ADF80E000820ADF810000020A5
:1048B000ADF812000720ADF8140001A9074800F078
:1048C0001DF801210548FFF795FF07B000BD000066
:1048D00000023000000C014000080140003C004094
:1048E0000246002013890B400BB1012000E000209C
:1048F00070470146888970478181704710B5002252
:10490000028802F441520B884C8823438C8823434D
:10491000CC8823430C8923434C8923438C8923432C
:10492000CC8923431A430280838B4FF2FF742340C8
:1049300083830B8A038210BD024600BF108900F0FA
:1049400002000028FAD0918100BF108900F0010018
:104950000028FAD09089C0B27047704710B500F0B7
:1049600001F810BD0CB5002001900090334800689C
:1049700040F480303149086000BF3048006800F4DE
:10498000003000900198401C0190009818B90198DF
:10499000B0F5A06FF1D12948006800F4003010B1E3
:1049A0000120009001E0002000900098012843D1F0
:1049B0002348006840F0100021490860084600685C
:1049C00020F0030008600846006840F0020008601C
:1049D0001A484068194948600846406848600846D7
:1049E000406840F4806048600846406820F47C10CD
:1049F00048600846406840F4E8104860084600688F
:104A000040F08070086000BF0C48006800F0007043
:104A10000028F9D00948406820F0030007494860A1
:104A20000846406840F00200486000BF0348406804
:104A300000F00C000828F9D10CBD00000010024065
:104A4000002002402DE9FF4F83B00646884691467C
:104A5000DDE91147109DB2464FF0000B71E0BBF14C
:104A6000000F40D104EBD471384A1288A2EB6101E7
:104A7000B14204DB35494988091B414502DA07B0D8
:104A8000BDE8F08F2878802802DD4FF0010B58E058
:104A900028780D2806D108EB04001FFA80F8564646
:104AA0006D1C1EE0102C0DDD102128788DE8830090
:104AB0004A4641463046069BFDF7D4FE06F1080003
:104AC00086B20EE028788DE891004A46414630468D
:104AD000069BFDF7C7FE204604EBD07106EB610193
:104AE0008EB26D1C2DE019480088001BB04204DB1B
:104AF00016484088001B404500DAC0E74FF0000B25
:104B0000202C08D1CDE900574A4641463046069B45
:104B1000FCF768FF12E0182C08D1CDE900574A468F
:104B200041463046069BFCF7D1FE07E0CDE9005731
:104B30004A4641463046069BFCF744FEAD1C301900
:104B400086B2287800288AD100BF98E7700100203B
:104B500010B5044601220021204601F07BF8012215
:104B60001146204601F076F80520FCF78FFB032163
:104B70002046FFF773FD132806D01022012120469E
:104B800001F068F8002010BD04220121204601F048
:104B900061F8FF20F7E7000010B5044640F2B45278
:104BA0001221002001F076F8082C17D2DFE804F07B
:104BB000040F1011121314150A484178007801EB04
:104BC000002082B20421002001F064F807E006E032
:104BD00005E004E003E002E001E000E000BF00BF08
:104BE00010BD00000A01002010B50446012200217A
:104BF000204601F02FF801221146204601F02AF844
:104C00000520FCF743FB03212046FFF727FD13286F
:104C100006D010220121204601F01CF8002010BD12
:104C200002220121204601F015F80520FCF72EFB99
:104C300003212046FFF712FD142806D0102201217F
:104C4000204601F007F80020E9E7FF20E7E710B56C
:104C5000044602220021204600F0FCFF01221146FA
:104C6000204600F0F7FF0520FCF710FB032120464B
:104C7000FFF7F4FC222806D010220121204600F084
:104C8000E9FF002010BDFF20FCE7000070B586B0F2
:104C9000FDF700F80646FDF7CFF804462046FCF77E
:104CA00057FF1A480068FBF728FC0546FCF7D4F8C4
:104CB000039016480068FBF720FC0546FCF73EF918
:104CC000049012480068FBF718FC0546FCF752F800
:104CD00005900F48006800900E48006801900E484B
:104CE00002900398FCF70DF80C4908600498FCF753
:104CF00025F80B4908600598FCF704F80949086095
:104D0000694603A8FBF730FF06B070BD28000020FD
:104D1000B00000209800002000004041500000201A
:104D20004C000020540000202DE9FF5F00242AE001
:104D30004FF0000AD1460BE009EB4900294901EB8D
:104D4000400030F81400824409F1010000F0FF092E
:104D5000B9F10A0FF0DB5046FBF7C1FB2249009086
:104D6000FBF79EFA8346FBF7F5FB07464FF06632EA
:104D70001E4BFBF7D3FA0546FBF730FC01A941F8BF
:104D80002400601CC4B2032CD2DB0198FBF7E2FBC9
:104D900005462A460B4616A000F0ECFF0298FBF7EA
:104DA000D9FB05462A460B4611A000F0E3FF039805
:104DB000FBF7D0FB05462A460B460DA000F0DAFFB4
:104DC0000198FBF79EFF114908600298FBF7B6FFB8
:104DD0000F4908600398FBF795FF0E490860BDE88E
:104DE000FF9F0000340100200000204766660A4053
:104DF0005468652063757272656E74204144207634
:104E0000616C7565203D25660D0A0000500000208C
:104E10004C00002054000020042808D14FF0E0216D
:104E2000096941F004014FF0E022116107E04FF001
:104E3000E021096921F004014FF0E022116170477F
:104E40007047000010B51348006840F00100114998
:104E5000086008464068104908400E494860084606
:104E600000680E4908400B4908600846006820F4B5
:104E7000802008600846406820F4FE0048604FF437
:104E80001F008860FFF76AFD4FF00060044908606A
:104E900010BD0000001002400000FFF8FFFFF6FE0A
:104EA00008ED00E010B5FFF7A3F9FDF774FEFFF77A
:104EB000ADFC00F003F900F0BFFC10BD10B50121FE
:104EC000880700F02CF801280DD10121800700F09F
:104ED00017F805480068401C03490860034800684B
:104EE000401C0249086010BD1C0100202001002068
:104EF00010B50121014800F003F810BD0004004086
:104F0000CA430282704721B1028842F00102028046
:104F100004E002884FF6FE731A400280704730B5F5
:104F20000246002000230024158A05EA0103958922
:104F300005EA010413B10CB1012000E0002030BDEE
:104F40001AB183890B43838102E083898B43838178
:104F50007047000070B5002400220023058C4FF636
:104F6000EF7635400584028C8388048B48F6FF7504
:104F70002C404FF6FF452C400D884FF6FF7606EA91
:104F800005252C434FF6DF752A400D8906EA0515E5
:104F90002A434D8806EA05152A43154DA84202D03A
:104FA000144DA8421DD14FF67F752A404D894FF60A
:104FB000FF7606EA05152A434FF6BF752A408D880D
:104FC00006EA05152A434FF6FF352B404FF2FF75D1
:104FD0002B408D8906EA85052B43CD8906EA850598
:104FE0002B4383800483CD880587028470BD000035
:104FF000002C0140003401400A460021018B4FF291
:10500000FF7319404FF6FF7303EA0223194301832C
:105010007047018770470000002202881D4B9842AC
:105020000ED01D4B98420BD0B0F1804F08D01B4BD7
:10503000984205D01A4B984202D01A4B984204D19C
:105040004FF68F731A404B881A43174B984207D07C
:10505000164B984204D04FF6FF431A40CB881A43B0
:1050600002808B8883850B8803850A4B98420BD07E
:10507000094B984208D00E4B984205D00D4B9842F0
:1050800002D00D4B984201D10B7A03860123838213
:1050900070470000002C0140003401400004004033
:1050A00000080040000C00400010004000140040C8
:1050B0000040014000440140004801400EB501217C
:1050C0000846FFF75FF80920ADF8040041F61F40DD
:1050D000ADF800000020ADF80600ADF8020069460A
:1050E0004FF08040FFF798FF012211469007FFF72D
:1050F00027FF01218807FFF706FF0EBD10B54FF40B
:1051000080710848FCF748FB012806D1FF200649BA
:10511000087006A000F02EFE02E000200249087090
:1051200010BD0000000801404900002054696D696D
:105130006E67207369676E616C20697320686572A1
:1051400065200D0A0000000008B5FFF77BFE012175
:105150000820FFF727F84FF48070ADF800002820F2
:105160008DF8030003208DF8020069460148FCF722
:105170003FFA08BD0008014010B540210D4800F07D
:105180004FF840F225510B4800F06CF880B1094807
:1051900000F024F90849087008460178054800F035
:1051A00022F900BF8021034800F04FF80028F9D011
:1051B00010BD000000380140CC00002010B5402197
:1051C000144800F02DF840F22551124800F04AF83A
:1051D000F0B1104800F002F90F49087008210F489B
:1051E000FCF7EEFA012001F097FB0B480178094823
:1051F00000F0F9F800BF8021064800F026F80028EA
:10520000F9D0022001F088FB08210448FCF7D6FA07
:1052100010BD000000440040CD00002000200140EF
:1052200001F40072B2F5007F00D100BFCA430280D2
:10523000704721B1828942F40052828104E0828960
:105240004DF6FF731A408281704702460020B1F587
:10525000007F00D100BF13880B400BB1012000E09C
:105260000020704770B5024600240023002500206E
:1052700040F66A16B14200D100BFC1F3421501F0F9
:105280001F03012606FA03F3012D02D1968933404C
:1052900006E0022D02D1168A334001E0968A33409F
:1052A0000C12012606FA04F41688344013B10CB12E
:1052B000012000E0002070BDF0B503460024002668
:1052C0000025002040F66A17B94200D100BF1846F9
:1052D000C1F3421401F01F06012707FA06F5012C5D
:1052E00001D10C3004E0022C01D1103000E0143068
:1052F0001AB107682F43076002E00768AF430760F1
:10530000F0BD00002DE9F04786B005460E460024AA
:10531000A24600BFA1460027B08900B100BF2F46BA
:105320002C8A4CF6FF700440F08804432C82AC8930
:105330004EF6F3100440B088318908437189084360
:105340000443AC81AC8A4FF6FF400440B08904436B
:10535000AC8201A8FEF7B0FF1F48874202D1DDF8FA
:1053600010A001E0DDF80CA0A88900F4004040B1D5
:105370000AEBCA0000EB0A1031684900B0FBF1F8F3
:1053800007E00AEBCA0000EB0A1031688900B0FBA5
:10539000F1F86420B8FBF0F004012009642101FB5E
:1053A0001089A88900F4004040B1322000EBC90008
:1053B000B0FBF1F000F00700044308E0322000EBFE
:1053C00009106421B0FBF1F000F00F0004432C81C0
:1053D00006B0BDE8F087000000380140014688882B
:1053E000C0F308007047C1F308028280704700BF15
:1053F000FEE700002DE9FF4F85B00E4617469846A0
:105400004FF0000902F098F80598FBF7A3F8024660
:105410000B46CDE9020149A000F0ACFC4C490598CF
:10542000FBF7F8F804D14BA000F0A4FC002479E0CD
:105430004F490598FBF7EEF804D14EA000F09AFC16
:10544000534C6FE031460598FAF7F2FE8346FDF7BC
:105450000BFC054639462846FAF7F0FE0490414613
:105460002846FAF7EBFE83464A4801685846FAF7A1
:105470008DFE4849086085F0004B58461299FAF7AE
:10548000DDFE81460498FBF765F802460B46CDE940
:10549000020141A000F06EFC3E480068FBF75AF89C
:1054A00002460B46CDE902013FA000F063FC4846EE
:1054B000FBF750F802460B46CDE902013EA000F092
:1054C00059FC41480660334801680498FAF75EFECB
:1054D00083464946FAF75AFE82463C495046FAF757
:1054E000ADFE83463A49FAF751FE04462046FBF7E3
:1054F00031F80022374BCDE90001FAF781FF02466F
:105500000B46CDE9020134A000F034FC20492046CE
:10551000FBF78AF800D21E4C35492046FBF77AF893
:1055200000D2334C2046FBF701F81FFA80FB5946A6
:105530003048FFF76EFD09B0BDE8F08F5661637526
:10554000756D56616C75657365743A25660D0A0054
:1055500000005C4277652061726520696E2070658D
:10556000762066756C6C7920636C6F73650D0A002C
:105570000000844277652061726520696E20706545
:10558000762066756C6C79206F70656E0D0A000070
:1055900000003445240100206572726F725F503A3A
:1055A00025660D0A000000006572726F725F493A4D
:1055B00025660D0A000000006572726F725F443A42
:1055C00025660D0A000000002C0100200000344375
:1055D0000000E1440020AC405365742044757479A8
:1055E00020706172616D657465723A25660D0A00FE
:1055F0000000B443000400403FB5014600220020F3
:105600000DE04B78034103F001031BB101230DF8BA
:10561000003002E000230DF80030431CD8B2082807
:10562000EFDB002011E00B78034103F001032BB105
:10563000012400F108030DF8034004E0002400F108
:1056400008030DF80340431CD8B20828EBDB9DF893
:105650000030012B02D15B4C236002E00023594C47
:1056600023609DF80130012B03D1564C241D23608B
:1056700003E00023534C241D23609DF80230012BCE
:1056800003D1504C0834236003E000234D4C083410
:1056900023609DF80330012B03D14A4C283C236042
:1056A00003E00023474C283C23609DF80430012B85
:1056B00002D1454C236002E00023434C23609DF857
:1056C0000530012B03D1404C241D236003E000234F
:1056D0003D4C241D23609DF80630012B03D13A4C2C
:1056E0001834236003E00023374C183423609DF8FE
:1056F0000730012B03D1344C1C34236003E000231A
:10570000314C1C3423609DF80830012B03D12D4C03
:10571000243C236003E000232A4C243C23609DF8B2
:105720000930012B02D1294C236002E00023274CD1
:1057300023609DF80A30012B03D1224C143C2360D6
:1057400003E000231F4C143C23609DF80B30012B19
:1057500003D11C4C103C236003E00023194C103C87
:1057600023609DF80C30012B03D1164C0C3C2360B8
:1057700003E00023134C0C3C23609DF80D30012BFB
:1057800003D1104C083C236003E000230D4C083C7F
:1057900023609DF80E30012B03D10A4C083C236096
:1057A00003E00023074C083C23609DF80F30012BD9
:1057B00003D1064C1C34236003E00023034C1C344B
:1057C00023603FBDB40122428001214280812142F9
:1057D00008B501211C20FEF7E5FCC320ADF8000050
:1057E00010208DF8030003208DF8020069460F4851
:1057F000FBF7FEFEC120ADF8000010208DF803007D
:1058000003208DF8020069460948FBF7F1FE4EF6C9
:105810001870ADF8000010208DF8030003208DF8FB
:10582000020069460348FBF7E3FE08BD000801409B
:10583000000C0140001001400EB54FF48070ADF82F
:10584000080001208DF80A0010208DF80B0002A935
:105850001448FBF7CDFE4FF480711248FBF7AEFF02
:105860004FF40070ADF8080003208DF80A004820BE
:105870008DF80B0002A90B48FBF7BAFE09210120A5
:10588000FBF796FE4FF40070009000208DF80400A6
:105890000C208DF8050001208DF806006846FBF706
:1058A00003FE0EBD000C014010B54FF480710B4893
:1058B000FBF784FF3220FBF7E9FC4FF480710748C7
:1058C000FBF77EFFC820FBF7E1FC00BF2E20FEF7B0
:1058D000A1FE00F001000028F8D010BD000C01402E
:1058E00010B500248021002000F080F90A20FBF789
:1058F000CDFC04221C49012000F018FA04221B49A7
:10590000052000F013FA06221949092000F00EFACA
:10591000042218490F2000F009FA00BF0BE0022210
:105920001E21204600F096F902221F21204600F099
:1059300091F9601CC4B2082CF1DB4FF4FA61192014
:1059400000F06EF908211B2000F050F9C02116204C
:1059500000F04CF90121182000F048F91F222C21F9
:10596000002000F077F910BDF8000020FC000020B6
:10597000000100200601002010B5FFF7B1FFFBF782
:1059800091FC0020FFF708F910BD000070B500BFC2
:1059900000202B4908701520FEF73CFE054605F057
:1059A000F001152000F022F91720FEF733FE05461E
:1059B00005F0010000283DD002210020FEF74EFE38
:1059C000044622460221002000F044F904F00100C0
:1059D00028B11C48007840F002001A49087004F011
:1059E000020050B110220121002000F033F9002004
:1059F000FFF7D2F800201349087004F0100028B116
:105A00001148007840F002000F49087004F00400CB
:105A100028B10D48007840F001000B49087004F0EF
:105A2000080038B110220121002000F013F90020F5
:105A3000044908701720FEF7EDFD00B1A8E770BD1E
:105A40001B010020190100201A01002008B51720B1
:105A50008DF8000000208DF8010001208DF8020073
:105A60008DF803006846FDF7B1F808BD10B5184879
:105A70000078F8B91748007860B90020FFF7B4F84B
:105A8000FF2803D101201249087020E000201049AE
:105A900008701CE00F48007801280CD10020FFF7A7
:105AA00057F8FF2803D10120094908700FE00020B2
:105AB000074908700BE00020FFF7C9F8FF2803D161
:105AC00003200349087002E000200149087010BD5E
:105AD00019010020180100202DE9F04707460D4666
