:020000040800F2
:100000005015002045010008D528000821210008CE
:10001000D1280008210E00084B4E00080000000007
:100020000000000000000000000000007F44000805
:10003000AD0F000800000000A52900089D48000839
:100040005F0100085F0100085F0100085F01000810
:100050005F0100085F0100085F010008A1100008AF
:10006000251100085F0100085F0100085F0100081A
:100070005F0100085F0100085F0100085F010008E0
:100080005F0100085F0100085F0100085F010008D0
:100090005F0100085F0100085F0100087911000896
:1000A0005F0100085F0100085F0100085F010008B0
:1000B000194900084D4900085F0100085F01000868
:1000C0005F0100085F0100085F0100085F01000890
:1000D0005F010008D54B0008194C00085F010008BB
:1000E0005F0100085F0100085F0100085F01000870
:1000F0005F0100085F0100085F0100085F01000860
:100100005F0100085F0100085F0100085F0100084F
:100110005F0100085F0100085F0100085F0100083F
:100120005F0100085F0100085F0100085F0100082F
:10013000DFF80CD000F01CFC004800475D630008AD
:10014000501500200648804706480047FEE7FEE7B6
:10015000FEE7FEE7FEE7FEE7FEE7FEE7FEE7FEE777
:10016000A14800083101000840EA01039B0703D0C1
:1001700009E008C9121F08C0042AFAD203E011F8E6
:10018000013B00F8013B521EF9D27047F0B480EAFF
:100190000102D40F4200B2EB410F02D202460846E0
:1001A00011464A0042D0C30DDDB2C1F3C752AD1AA9
:1001B000202D35DAC1F3160141F4000204B1524298
:1001C000C5F1200602FA06F12A411044B3EBD05FD4
:1001D00023D0C4B1012DA0EBC35009DCF0BC4FF01B
:1001E000004202EAC352DBB200F5000000F076BA2A
:1001F000400000F1807000EBC350A0F1807040EA35
:10020000D170490009E0490841EAC071A0EBC35030
:1002100000F50000400800EBC350F0BC00F055BAF8
:100220006142012202EB4101001BF6E7F0BC70477E
:1002300081F00041AAE780F00040A7E780EA0102D0
:1002400010B502F00043400022D04A001FD0010E3A
:1002500001EB1261C0F35600C2F3560240F40000F5
:1002600042F40002A0FB022000047F39140400D0F5
:10027000401C50EA124001D44000491EC2B20C0694
:1002800004EBD010401C4008802A02D003E000207C
:1002900010BD20F00100002900DA0020184310BD35
:1002A00030B480EA010202F0004530F0004221F053
:1002B000004013D090B1C30DD40DC2F31601C0F3AA
:1002C0001600E41A41F4000140F400027D3491422A
:1002D00001D3641C00E04900002C02DA30BC00208D
:1002E00070474FF400000023914201D3891A034361
:1002F00040084FEA4101F7D151B1914202D14FF08C
:10030000004105E002D24FF0010101E06FF0010170
:1003100003EBC450284430BC00F0D7B92DE9FE4FA0
:1003200081EA030404F0004421F0004100944FF0FE
:10033000000B23F0004350EA01045ED052EA0304AC
:100340005BD0C3F30A54C1F30A552C44A4F2F3342E
:100350000194A0FB0254C1F3130141F48011C3F3D3
:10036000130343F4801301FB024400FB034E840A91
:10037000970A44EA815447EA8357A4FB0768029529
:100380008D0A05FB07854FEA932C04FB0C542705C7
:10039000029D4FEA065847EA1637B5EB08056EEBA3
:1003A000070C870E920E47EA811742EA8312A7FBD9
:1003B0000201B6EB0B0164EB00042B0D43EA0C3396
:1003C0005E1844EB1C50DA465146E7FB0201C5F3C8
:1003D00013044FEA0B3343EA14534FEA0432019CEF
:1003E00043EA0603A4F10C040294009CCDE900B496
:1003F00000F0B1F903B0BDE8F08F00200146F9E745
:100400002DE9F04D81EA030404F0004B21F0004592
:1004100014464FF0000A23F0004150EA050220D0B4
:1004200054EA01021DD0C5F30A570246C5F313036F
:10043000C1F31300C1F30A5640F4801543F480134E
:10044000A7EB0608101BD64608F2FD3873EB050033
:1004500002D308F1010801E092185B41B8F1000FE6
:1004600003DA00200146BDE8F08D00204FF4801132
:10047000064684460EE0171B73EB050705D3121BD7
:1004800063EB050306434CEA010C49084FEA3000D0
:1004900092185B4150EA0107EDD152EA030012D0F5
:1004A00082EA040083EA0501084305D0101BAB4132
:1004B00006D20122002306E000224FF0004302E0B2
:1004C0006FF0010253101AEB06004CEB085110EBD1
:1004D0000A0041EB0B01BDE8F04D00F02DB9C10F52
:1004E00080EAE0700844CA079623002100F0F6B8BD
:1004F00096230022114600F0F1B800F0004220F0EF
:100500000040C10DC0F3160040F400007F2901DA5D
:1005100000207047962903DCC1F19601C84001E034
:1005200096398840002AF4D04042704720F00040BD
:10053000C10DC0F3160040F400007F2901DA00204D
:100540007047962903DCC1F19601C840704796397F
:100550008840704700F0004230F000400AD0C10DE2
:1005600001F56071C0F3160042EA0151C20840076C
:1005700011437047002001467047000030B5041E4B
:1005800071F1000404DB4FF00044404264EB0101D0
:10059000141E73F1000405DB1C464FF00043524269
:1005A00063EB04038B4208BF824230BD30B5041EAA
:1005B00071F1000404DB4FF00044404264EB0101A0
:1005C000141E73F1000405DB1C464FF00043524239
:1005D00063EB0403994208BF904230BD01F0004331
:1005E00030B421F0004150EA010206D00A0DA2F514
:1005F0006072C1F31301002A02DC30BC0020704796
:10060000440F44EAC104C100E01830BC00EBC25002
:1006100000F05BB8002801DBC0F10040002901DBDD
:10062000C1F1004181427047002801DBC0F1004068
:10063000002901DBC1F100418842704730B50B460B
:10064000014600202022012409E021FA02F59D4202
:1006500005D303FA02F5491B04FA02F52844151ED6
:10066000A2F10102F1DC30BD2DE9F05F054600206A
:1006700092469B4688460646814640241BE0284613
:1006800041464746224600F094F953465A46C01A5E
:10069000914110D311461846224600F07BF92D1ADD
:1006A00067EB01084F4622460120002100F072F955
:1006B00017EB00094E41201EA4F10104DFDC48467F
:1006C00031462A464346BDE8F09F0029A8BF70473F
:1006D000401C490008BF20F00100704710B4B0FA78
:1006E00080FC00FA0CF050EA010404BF10BC704713
:1006F00049B1CCF1200421FA04F411FA0CF118BF2D
:10070000012121430843A3EB0C01CB1D4FEA0061FB
:100710004FEA102042BF002010BC704700EBC350CE
:1007200010440029A4BF10BC7047401C490008BFFA
:1007300020F0010010BC704710B5141E73F10004C6
:1007400008DA401C41F1000192185B411A4301D1C3
:1007500020F0010010BD2DE9F04D92469B4611B1ED
:10076000B1FA81F202E0B0FA80F22032904600F055
:1007700011F904460F4640EA0A0041EA0B015346CC
:100780005A46084313D0114653EA010019D0C8F164
:100790004002504600F00DF905460E4650465946B7
:1007A000424600F0F7F8084305D0012004E0204657
:1007B0003946BDE8F08D0020054346EAE0762C433B
:1007C00037430A986305E40AA0EB08000022FD0AFB
:1007D00044EA47540A3002D500200146E9E7010502
:1007E00010196941DDE9084500196941BDE8F04D7E
:1007F000A2E72DE9FE4F804681EA0300C00F0C46B8
:10080000009021F0004123F00045B8EB0200A9411F
:1008100005D24046214690461C460B46024623F030
:100820000040104347D0270DC7F30A00C3F30A5115
:100830000290401A019040286BDAC3F3130040F491
:10084000801B0098924620B10023D2EB030A63EB91
:100850000B0B01985946C0F14002504600F09AF83F
:1008600006460D4650465946019A00F0B2F810EB84
:1008700008006141002487EA115284EAE7731A43B1
:1008800040D0009A62B3019A012A4FEA075215DC60
:10089000001B61EB02014FF0004202EA0752CDE972
:1008A0000042001C41F5801132462B46FFF753FFF2
:1008B00003B0BDE8F08F40462146F9E7001B61EB2D
:1008C0000201001C41F5801300185B412018A2F5BD
:1008D000001747EB030140EAD570B6196D4111E0EE
:1008E0006D084FEA360645EAC0754FEA0752001B0D
:1008F00061EB0201001C41F5801149084FEA30000C
:100900000019514132462B4603B0BDE8F04FFFF7C6
:1009100013BF0098012240000023D0EB020263EBDA
:10092000E073009821464FEAE074B8EB000061EBF9
:100930000401E9E783F000435BE781F0004158E7F9
:10094000C1F30A52C1F3130140F2FF3341F48011A5
:100950009A4202DA00200146704740F233439A423D
:10096000A2F2334202DC524200F023B800F012B887
:10097000064C074D06E0E06840F0010394E80700EC
:1009800098471034AC42F6D3FFF7D6FBB49000087A
:10099000D4900008202A04DB203A00FA02F100205B
:1009A00070479140C2F1200320FA03F319439040AD
:1009B0007047202A04DB203A21FA02F00021704718
:1009C00021FA02F3D040C2F12002914008431946B7
:1009D0007047202A06DBCB17203A41FA02F043EA9F
:1009E000E07306E041FA02F3D040C2F120029140E8
:1009F00008431946704770B58C1810F8015B15F064
:100A0000070301D110F8013B2A1106D110F8012B80
:100A100003E010F8016B01F8016B5B1EF9D12B07A5
:100A200005D40023521E0DD401F8013BFAE710F85B
:100A3000013BCB1A921C03E013F8015B01F8015B48
:100A4000521EF9D5A142D8D3002070BD21B18268D1
:100A500042F00102826003E0826822F001028260BB
:100A60007047000010B504461248844208D10121A5
:100A7000401503F039F90021601503F035F917E04E
:100A80000D48844208D10121001503F02DF9002101
:100A9000201503F029F90BE00848844208D1012110
:100AA000C80303F021F900214FF4004003F01CF9C2
:100AB00010BD00000024014000280140003C01401E
:100AC000014600208A6802F004020AB1012000E019
:100AD000002070470146C86C80B270470246002073
:100AE00013680B400BB1012000E000207047014665
:100AF00000208A6802F008020AB1012000E000200C
:100B00007047000030B502460020002350680F4CAB
:100B100020400D790C6844EA052420435060906819
:100B20000B4C2040D1E902542C434D7944EA450452
:100B300020439060D06A20F470000C7C641EE4B204
:100B4000234340EA0350D06230BD0000FFFEF0FFB7
:100B5000FDF7F1FF2DE9F04192B005460E46142253
:100B6000274903A8FFF700FB00241FE055F82400E5
:100B7000FFF7F0FC074603A83A460B4621A1009078
:100B800008A804F09DFD00200C2108AACDE9002151
:100B9000029004EB8400382202EB80014FF6FF73D1
:100BA0000022822003F0E0FC601CC4B2032CDDDBD9
:100BB00000241FE056F82400FFF7CCFC074603A8EA
:100BC0003A460B460FA1009008A804F079FD0020DA
:100BD0000C2108AACDE90021029004EB8400382200
:100BE00002EB80014FF6FF7300223C2003F0BCFCB7
:100BF000601CC4B2032CDDDB12B0BDE8F081000044
:100C0000589000082566252E32307300F0B5044652
:100C10000D4600200021092D11DDE068A5F10A062E
:100C200006EB4607072606FA07F18843A5F10A06F0
:100C300006EB460603FA06F10843E0600CE0206983
:100C400005EB4507072606FA07F1884305EB45063D
:100C500003FA06F108432061072A0FDA606B561E7B
:100C600006EB86071F2606FA07F18843561E06EB99
:100C7000860605FA06F10843606322E00D2A0FDAC2
:100C8000206BD61F06EB86071F2606FA07F188435E
:100C9000D61F06EB860605FA06F10843206310E02E
:100CA000E06AA2F10D0606EB86071F2606FA07F199
:100CB0008843A2F10D0606EB860605FA06F1084305
:100CC000E062F0BD816841F008018160704721B1A8
:100CD000826842F4A002826003E0826822F4A002EB
:100CE00082607047816841F00401816070477047FD
:100CF0002DE9F04704462046FFF72CFC0746054A3D
:100D0000054BFFF70BFB0546FFF768FC814648469D
:100D1000BDE8F0872793508334481B402DE9F04706
:100D200004462046FFF716FC0746054A054BFFF729
:100D3000F5FA0546FFF752FC81464846BDE8F087C4
:100D40002793508334481B402DE9F0470E48FFF7A6
:100D500089FE05F009FA01210C2000F091FF81467F
:100D60004846FFF7C5FB8246FFF7F4FB07464FF006
:100D70006632064BFFF7D2FA0546FFF72FFC044612
:100D80002046BDE8F08700000024014066664A3F27
:100D90002DE9F0470E48FFF765FE05F045F9012102
:100DA0000A2000F06DFF81464846FFF7A1FB82460E
:100DB000FFF7D0FB07464FF06632064BFFF7AEFA5F
:100DC0000546FFF70BFC04462046BDE8F08700000F
:100DD0000024014066664A3F2DE9F0470E48FFF7C0
:100DE00041FE05F071F901210B2000F049FF814619
:100DF0004846FFF77DFB8246FFF7ACFB07464FF006
:100E00006632064BFFF78AFA0546FFF7E7FB044612
:100E10002046BDE8F08700000024014066664A3F96
:100E200000BFFEE7F0B502460B464FF6FF71002407
:100E300012E012F8010B414000260AE001F0010027
:100E400020B149084AF20100414000E04908701C05
:100E5000C6B2082EF2DB641C9C42EAD312F8015B96
:100E6000107805EB00258D4201D10120F0BD002056
:100E7000FCE7000039B1084A1268012383401A4395
:100E8000054B1A6006E0044A1268012383409A4326
:100E9000014B1A60704700000074004030B500221A
:100EA00000230A4C226840F6FE748440A243D1E934
:100EB00000452C438D682C43CD6844EA050303FAB2
:100EC00000F42243014C226030BD00000074004059
:100ED00008B500220092054A009200F10802009B2A
:100EE0001A440092009A116008BD0000007400408E
:100EF00000B585B00121042002F0E6FE012148077B
:100F000002F0D2FE1020ADF8100000208DF8130082
:100F100003208DF8120004A90D4800F0FBF9102100
:100F20000B4800F0DFFA00200090019002900220B0
:100F3000039069460020FFF7B1FF01210020FFF771
:100F400099FF00210846FFF7C3FF05B000BD000070
:100F5000000801402DE9F04704462046FFF7C8FA93
:100F6000814610494846FFF79BF981464FF08B4177
:100F70004846FFF763F98246FFF7ECFA07464FF061
:100F80006632094BFFF73CFA0546FFF727FB81461F
:100F90004846FFF7CBFA85B229460020FFF798FFB5
:100FA000BDE8F08700007A4466660A40704700009A
:100FB0000021044A116000BF024909688142FBD345
:100FC000704700001801002038B532480078401CF6
:100FD000C0B28DF800002F484078401CC0B28DF898
:100FE00001002C488078401CC0B28DF802002948CE
:100FF000C078401CC0B28DF803006A460C21002066
:1010000004F0FEFA01220021084604F0B9FA012298
:101010001146002004F0B4FA0520FFF7C9FF0321B0
:10102000002003F0ADF813280BD01022012100207E
:1010300004F0A6FA0020184908601849C1F8B80160
:1010400038BD04220121002004F09AFA00BF0024D8
:101050000221002003F094F8044624B12246022124
:10106000002004F08DFA0520FFF7A2FF04F008002D
:10107000082801D10020E3E70621002003F080F8D2
:10108000FF2806D010220121002004F079FAFF2069
:10109000D6E7DCE702010020BC0122420000224228
:1010A00010B50EA004F0FCFA022000F07BF8012835
:1010B00013D1022000F070F80A2005F0C3F80221D5
:1010C0000B4800F0FBF940B90A2005F0BBF8FF20FF
:1010D0000849087008A004F0E3FA10BD496E2074B6
:1010E0006865206D696420657874693100000000CE
:1010F000000C014045000020776520617265206981
:101100006E20746865206D6964646C65206F66206C
:101110006578746920696E746572727570740D0AF1
:101120000000000010B5042000F03CF801281ED19A
:1011300000F032F80A2005F085F804210C4800F090
:10114000BDF968B901210B4800F0C1F920B90121AE
:10115000084800F0C7F903E00121064800F0C0F993
:1011600000BF0421024800F0A9F90028F9D010BD01
:10117000001801400010014010B54FF4007000F05D
:1011800011F830B14FF4007000F006F80120014969
:10119000087010BD17010020014908607047000069
:1011A00014040140014600200022074B1B6803EA9B
:1011B0000102054B14331B680B4013B10AB1012027
:1011C00000E0002070470000000401400021234996
:1011D0008279002A3AD00A46126803689A430B467D
:1011E0001A600A1D126803689A430B1D1A6002797F
:1011F00011440A6803681A430A60184A08321268E0
:1012000003689A43154B08331A601A1D1268036865
:101210009A43124B0C331A604279102A0ED11A1FCE
:10122000126803681A430D4B08331A601A1D1268BE
:1012300003681A43094B0C331A600DE007494279E1
:1012400011440A6803681A430A6005E002791144F0
:101250000A6803689A430A6070470000000401406E
:101260000549096821F01001034A11601146096817
:101270000143116070470000002002400146002039
:10128000034A106800F038000843106070470000FF
:1012900000200240704700002DE9F041044620463E
:1012A000FFF7F8FF05460A492046FEF7C7FF074645
:1012B000FFF723F90646FFF712F905462846FFF720
:1012C00035F986B23046FFF745FEBDE8F0810000F3
:1012D0000000C84230B500228B071C0F0F2303FA11
:1012E00004F20B4B8C1053F824309343084C8D10B0
:1012F00044F8253023468C1053F824308C07240FF3
:1013000000FA04F42343024C8D1044F8253030BD1C
:10131000080001402DE9F04102460025002600208A
:1013200000230024002791F803C00CF00F0591F86A
:1013300003C00CF0100CBCF1000F03D091F802C0F8
:101340004CEA050591F800C0BCF1000F31D01468DB
:1013500000202BE04FF0010C0CFA00F3B1F800C0B4
:101360000CEA03069E4220D183004FF00F0C0CFACA
:1013700003F7BC4305FA03FC4CEA040491F803C0EC
:10138000BCF1280F06D14FF0010C0CFA00FCC2F89A
:1013900014C00AE091F803C0BCF1480F05D14FF02A
:1013A000010C0CFA00FCC2F810C0401C0828D1D374
:1013B0001460B1F800C0BCF1FF0F34DD54680020A8
:1013C0002EE000F1080C4FF0010808FA0CF3B1F818
:1013D00000C00CEA03069E4221D183004FF00F0C9F
:1013E0000CFA03F7BC4305FA03FC4CEA040491F839
:1013F00003C0BCF1280F05D100F1080C08FA0CF865
:10140000C2F8148091F803C0BCF1480F07D100F175
:10141000080C4FF0010808FA0CF8C2F81080401CC4
:101420000828CED35460BDE8F0810000F0B50A462C
:10143000002300240021002500F00046B6F1004FF3
:1014400002D11D4EF16901E01B4E7168C0F30345E6
:1014500083B200F44016B6F5401F08D121F0706148
:10146000154E766826F07066134F7E6012E000F429
:101470008016B6F5801F06D1032606FA05F4A143AF
:1014800041F0706106E0460D360103FA06F6B143FD
:1014900041F0706122B1460D360103FA06F6314380
:1014A00000F00046B6F1004F02D1034EF16101E0B9
:1014B000014E7160F0BD00000000014002460020B6
:1014C00093680B400BB1012000E0002070470246FA
:1014D0000020D3680B400BB1012000E000207047D2
:1014E00041617047016170472DE9FC5F0546884600
:1014F00091469A46DDF830B000953E2001900024D8
:101500005FE004EB0410374911F810009BF800105D
:10151000884253D104EB0410324901EB400040787B
:101520009BF80110884249D108F10F0083B205F100
:101530000F0082B24146284601F008F800263BE041
:10154000002734E00D9890B904EB0410254901EB15
:101550004000801C805D80213941084018B1484618
:1015600001F060F921E0504601F05CF91DE01E48F1
:10157000A0F8009004EB04101A4901EB4000801C15
:10158000805D80213941084018B14146284600F06D
:1015900073FE681C85B20098281A102805D1009D9A
:1015A00008F101001FFA80F803E0781CC7B2082F89
:1015B000C8DB00BF701CC6B2202EC1DB00BF601CA0
:1015C00084B2019884429CDB08484088401E83B264
:1015D00006480088401E82B20021084600F0B6FF8F
:1015E000BDE8FC9F8C770008E2000020300100205D
:1015F0002DE9FC5F0546884691469A46DDF830B0F5
:10160000009507200190002467E004EB840000EBC4
:1016100044103A4911F810009BF80010884259D143
:1016200004EB840000EB4410344901EB40004078A7
:101630009BF8011088424DD108F1170083B205F1E3
:10164000170082B24146284600F080FF00263FE0A6
:10165000002738E00D98A0B904EB840000EB44109B
:10166000264901EB4000801C805D80213941084003
:1016700018B1484601F0D6F823E0504601F0D2F800
:101680001FE01F48A0F8009004EB840000EB44101A
:101690001A4901EB4000801C805D802139410840DF
:1016A00018B14146284600F0E7FD681C85B2009855
:1016B000281A182805D1009D08F101001FFA80F8AA
:1016C00003E0781CC7B2082FC4DB00BF701CC6B291
:1016D000482EBDDB00BF601C84B20198844294DBBD
:1016E00008484088401E83B206480088401E82B2E7
:1016F0000021084600F02AFFBDE8FC9FC87F0008D3
:10170000E2000020300100202DE9FC5F05468846FC
:1017100091469A46DDF830B00095042001900024EF
:101720005FE004EB8410374911F810009BF80010BB
:10173000884253D104EB8410324901EB40004078D9
:101740009BF80110884249D108F11F0083B205F1CE
:101750001F0082B24146284600F0F8FE00263BE01A
:10176000002734E00D9890B904EB8410254901EB73
:101770004000801C805D80213941084018B14846F6
:1017800001F050F821E0504601F04CF81DE01E48F1
:10179000A0F8009004EB84101A4901EB4000801C73
:1017A000805D80213941084018B14146284600F04B
:1017B00063FD681C85B20098281A202805D1009D79
:1017C00008F101001FFA80F803E0781CC7B2082F67
:1017D000C8DB00BF701CC6B2802EC1DB00BF601C1E
:1017E00084B2019884429CDB08484088401E83B242
:1017F00006480088401E82B20021084600F0A6FE7E
:10180000BDE8FC9FCE810008E200002030010020EE
:1018100070B505460E4614463146284600F08CFE4B
:10182000204600F0FFFF70BD38B5002400BF1BE06C
:10183000012000901048028804EB8400A82303EBE9
:1018400080010623B42004F02BFD012000900A48FB
:10185000028804EB8400A82303EB800106233220D6
:1018600004F01EFD601CC4B2082CE1DB40F2DC5029
:1018700004F0E8FC38BD0000E80000203EB5054655
:10188000002400BF40E0285D01281DD10090494898
:10189000428804EB8400A82303EB80010623322056
:1018A00004F0FEFC00200C2143A2CDE900210290AF
:1018B00004EB8400A22202EB80014FF6E0730022C9
:1018C000412002F051FE1DE00120009039480288BD
:1018D00004EB8400A82303EB80010623322004F0EC
:1018E000DFFC00200C2135A2CDE90021029004EBA1
:1018F0008400A22202EB80014FF6E0730022412017
:1019000002F032FE601CC4B2082CBCDB08244AE0A2
:10191000285D012822D1009026484288A4F10800C1
:1019200000EB8000A82303EB80010623B42004F021
:10193000B7FC00200C2120A2CDE900210290A4F1E7
:10194000080000EB8000A22202EB800081B24FF67B
:10195000E0730022C32002F007FE22E00120009085
:1019600014480288A4F1080000EB8000A82303EBD0
:1019700080010623B42004F093FC00200C210FA268
:10198000CDE900210290A4F1080000EB8000A22222
:1019900002EB800081B24FF6E0730022C32002F018
:1019A000E3FD601CC4B2102CB2DB40F2DC5004F04A
:1019B00049FC3EBDE80000204F4E20004F46460047
:1019C00010B54FF400516348FFF781FD012805D1A0
:1019D0006148407840F001005F4948704FF4804111
:1019E0005C48FFF774FD012805D15B48407840F062
:1019F0000200594948704FF400415648FFF767FD0F
:101A0000012805D15448407840F0040052494870FC
:101A100008215048FFF75BFD012805D14E4840786A
:101A200040F008004C49487001214C48FFF74FFD39
:101A3000012805D14848407840F0100046494870D8
:101A400002214648FFF743FD012805D1424840786E
:101A500040F020004049487040214048FFF737FDE2
:101A6000012805D13C48407840F040003A49487090
:101A700080213A48FFF72BFD012805D136484078F0
:101A800040F080003449487010213248FFF71FFDB4
:101A9000012805D13048007840F001002E49087037
:101AA00001212F48FFF713FD012805D12A480078AE
:101AB00040F00200284908704FF480712548FFF774
:101AC00006FD012805D12448007840F00400224991
:101AD00008704FF400711F48FFF7F9FC012805D189
:101AE0001D48007840F008001B4908704FF48061E1
:101AF0001848FFF7ECFC012805D11748407840F062
:101B00001000154908704FF400611248FFF7DFFC20
:101B1000012805D11048407840F020000E49087097
:101B200040210F48FFF7D3FC012805D10A4840782F
:101B300040F040000849087080210948FFF7C7FCC1
:101B4000012805D10448407840F08000024908701F
:101B5000014810BD00100140F200002000080140C3
:101B6000000C014010B54FF400513348FFF7AFFCB3
:101B7000324908704FF480412F48FFF7A8FC2F49E5
:101B800048704FF400412C48FFF7A1FC2B498870A6
:101B900008212948FFF79BFC2849C87001212848E3
:101BA000FFF795FC2549087102212548FFF78FFCB6
:101BB0002249487140212248FFF789FC1F4988715A
:101BC00080211F48FFF783FC1C49C87110211A4867
:101BD000FFF77DFC1949087201211A48FFF777FCCD
:101BE000164948724FF480711348FFF770FC13498F
:101BF00088724FF400711048FFF769FC0F49C872F2
:101C00004FF480610C48FFF762FC0C4908724FF4F6
:101C100000610948FFF75BFC084948724021094808
:101C2000FFF755FC0549887280210648FFF74FFCF5
:101C30000249C872084610BD001001403E01002054
:101C400000080140000C014070B502464FF6FF70DD
:101C5000002312E012F8015B684000240AE000F063
:101C6000010525B140084AF20105684000E040083E
:101C7000651CECB2082CF2DB5B1C8B42EAD370BD16
:101C80002DE9F04105460E4600270723012229468B
:101C90000F48FEF7BBFF002413E001210C48FFF7BB
:101CA00016F800BF02210A48FEF718FF0028F9D0F5
:101CB0000748FEF70FFF0744052004F0C3FA601C35
:101CC000C4B2B442E9DBB7FBF4F080B2BDE8F08106
:101CD000002401403EB54FF6FF7000F045FA0124A4
:101CE00050E0022C13DC04EB840000EBC4004FF640
:101CF000FF7202EA400304EB840000EBC40002EA36
:101D000040014FF48C72002000F05EFA36E0062CA1
:101D100011DC022C0FDD04EB84000C2202EB8000AE
:101D200083B204EB840002EB800081B2FA2200202F
:101D300000F04AFA22E0072C11D104EB84000C22B7
:101D400002EB8000801D83B204EB840002EB800074
:101D5000801D81B2FA22002000F036FA0EE004EB7A
:101D60008400122202EB800083B204EB840002EBB9
:101D7000800081B2FA22002000F026FAA6A003F02B
:101D80008FFC641C102CACDB842378221A211046B3
:101D900000F01AFA4FF4957378229E21104600F055
:101DA00013FA00200C219EA24FF6FF73CDE900210B
:101DB0000290024605210A2002F0D6FB01200C21E8
:101DC000A0A24FF6FF73CDE900210290002221214D
:101DD0003C2002F0C9FB01200C219DA24FF6FF73AD
:101DE000CDE900210290002221218C2002F0BCFBD1
:101DF00000200C219AA24FF6E073CDE90021029059
:101E00000246382102F0B0FB00200C2197A24FF6C9
:101E1000E073CDE90021029002464E2102F0A4FBBE
:101E200000200C2194A24FF6E073CDE9002102902E
:101E30000246622102F098FB00200C2191A24FF68D
:101E4000E073CDE9002102900246762102F08CFB7E
:101E500000200C218EA24FF6FF73CDE900210290E5
:101E600002468B21502002F07FFB00200C218CA227
:101E70004FF6E073CDE9002102900246A2210A202C
:101E800002F072FB00200C2187A24FF6E073CDE92F
:101E9000002102900246B6210A2002F065FB0020D4
:101EA0000C2183A24FF6E073CDE900210290024697
:101EB000CA210A2002F058FB00200C217EA24FF616
:101EC000E073CDE9002102900246DE210A2002F0F3
:101ED0004BFB00200C217AA24FF6E073CDE90021E4
:101EE00002900246F2210A2002F03EFB00200C2163
:101EF00075A24FF6E073CDE90021029002464FF43F
:101F000083710A2002F030FB00200C2170A24FF6F2
:101F1000E073CDE90021029002464FF48D710A2052
:101F200002F022FB00200C216BA24FF6E073CDE9FA
:101F30000021029002464FF497710A2002F014FB30
:101F400000200C2166A24FF6E073CDE9002102903B
:101F50000246A221822002F007FB00200C2162A28F
:101F60004FF6E073CDE9002102900246B6218220AF
:101F700002F0FAFA00200C215DA24FF6E073CDE9E1
:101F8000002102900246CA21822002F0EDFA0020D0
:101F90000C2159A24FF6E073CDE9002102900246D0
:101FA000DE21822002F0E0FA00200C2154A24FF63C
:101FB000E073CDE9002102900246F221822002F076
:101FC000D3FA00200C2150A24FF6E073CDE9002196
:101FD000029002464FF48371822002F0C5FA00207D
:101FE0000C214BA24FF6E073CDE90021029002468E
:101FF0004FF48D71822002F0B7FA00200C2146A226
:102000004FF6E073CDE90021029002464FF497713C
:10201000822002F0A9FA3EBD68656C6C6F0000007A
:102020004761732053757070706C7920416E642025
:1020300044656374656374696F6E20537973746566
:102040006D0000005365742056616C7565000000DA
:102050004D6561737572652056616C756500000091
:10206000203134373941203A000000002036323721
:102070004420203A00000000434447303235443ABF
:1020800000000000202020505620203A00000000D0
:102090004761732056616C756520537461746500E7
:1020A0004E6F2E31000000004E6F2E3200000000F7
:1020B0004E6F2E33000000004E6F2E3400000000E3
:1020C0004E6F2E35000000004E6F2E3600000000CF
:1020D0004E6F2E37000000004E6F2E3800000000BB
:1020E0004E6F2E39000000004E6F2E313000000080
:1020F0004E6F2E31310000004E6F2E313200000045
:102100004E6F2E31330000004E6F2E313400000030
:102110004E6F2E31350000004E6F2E31360000001C
:1021200000BFFEE74CF6CC40014908607047000054
:10213000003000404AF6AA200149086070470000BC
:102140000030004001494860704700000030004006
:102150000149886070470000003000400149086074
:10216000704700000030004070B5064614484088B3
:10217000401E83B212480088401E82B200210846E9
:1021800000F0E4F94FF400600E4908604010091FA8
:10219000086000240AE0002503E0304600F042FB1E
:1021A0006D1C07480088A842F7D8641C0448408882
:1021B000A042F0D84FF400600249091F086070BDCA
:1021C00030010020140C01402DE9FF4F85B08146FD
:1021D0008A460020049003900798A0EB0905089810
:1021E000A0EB0A06CDF80890CDF804A0002D01DD83
:1021F000012705E00DB9002702E04FF0FF376D42DF
:10220000002E02DD4FF0010806E016B94FF000087D
:1022100002E04FF0FF387642B54201DD2C4600E087
:1022200034464FF0000B21E0019A91B2029A90B22D
:1022300000F022F804982844049003983044039056
:102240000498A04205DD0498001B049002983844CD
:1022500002900398A04205DD0398001B03900198AB
:10226000404401900BF101001FFA80FB601C834584
:10227000DADD09B0BDE8F08F70B504460D46294699
:10228000204600F059F90248008800F0CBFA70BDF2
:10229000E200002008B50121082001F015FD4FF4EF
:1022A000F050ADF8000003208DF8020010208DF8EA
:1022B000030069460148FFF72DF808BD000C0140F6
:1022C00010B501F0BDFFFFF7E5FF00F021F9CF20C9
:1022D00000F012FA002000F0F7F9C12000F0F4F944
:1022E000302000F0F1F9ED2000F006FA642000F053
:1022F000EBF9032000F0E8F9122000F0E5F9812065
:1023000000F0E2F9E82000F0F7F9852000F0DCF9B0
:10231000102000F0D9F97A2000F0D6F9CB2000F097
:10232000EBF9392000F0D0F92C2000F0CDF9002095
:1023300000F0CAF9342000F0C7F9022000F0C4F917
:10234000F72000F0D9F9202000F0BEF9EA2000F0D3
:10235000D3F9002000F0B8F9002000F0B5F9C02052
:1023600000F0CAF91B2000F0AFF9C12000F0C4F959
:10237000012000F0A9F9C52000F0BEF9302000F0DE
:10238000A3F9302000F0A0F9C72000F0B5F9B7207C
:1023900000F09AF9362000F0AFF9482000F094F9E7
:1023A0003A2000F0A9F9552000F08EF9B12000F094
:1023B000A3F9002000F088F91A2000F085F9B62072
:1023C00000F09AF90A2000F07FF9A22000F07CF9D1
:1023D000F22000F091F9002000F076F9262000F0BC
:1023E0008BF9012000F070F9E02000F085F90F2052
:1023F00000F06AF92A2000F067F9282000F064F95B
:10240000082000F061F90E2000F05EF9082000F0CD
:102410005BF9542000F058F9A92000F055F9432049
:1024200000F052F90A2000F04FF90F2000F04CF9AB
:10243000002000F049F9002000F046F9002000F0EB
:1024400043F9002000F040F9E12000F055F90020A8
:1024500000F03AF9152000F037F9172000F034F9B0
:10246000072000F031F9112000F02EF9062000F0CD
:102470002BF92B2000F028F9562000F025F93C20FC
:1024800000F022F9052000F01FF9102000F01CF9DF
:102490000F2000F019F93F2000F016F93F2000F05E
:1024A00013F90F2000F010F92B2000F025F900207F
:1024B00000F00AF9002000F007F9012000F004F90B
:1024C0003F2000F001F92A2000F016F9002000F06A
:1024D000FBF8002000F0F8F8002000F0F5F8EF20FD
:1024E00000F0F2F8112000F007F9782003F0AAFEBE
:1024F000292000F001F9002000F026F9012003490D
:1025000008604FF6FF70FFF72FFE10BDA481214237
:1025100010B54FF4805007490860642003F092FE24
:102520004FF480500349091F0860322003F08AFEEF
:1025300010BD0000140C014070B504460D462B463A
:1025400022462946204600F001F870BD2DE9F041F1
:1025500004460D4616461F461149887A00F0CCF80D
:10256000201200F0B1F8E0B200F0AEF8301200F046
:10257000ABF8F0B200F0A8F80949087B00F0BCF80D
:10258000281200F0A1F8E8B200F09EF8381200F02E
:102590009BF8F8B200F098F800F0C4F8BDE8F081BC
:1025A000300100202DE9FF4F83B081468A469346D3
:1025B000DDE91064404800880290A6F12000C6B210
:1025C00004EBD47009EB6000401E82B20AEB0400F9
:1025D000401E83B2514648460194FFF7B7FF129858
:1025E00050BB002525E00C2C07D106EB46003349F3
:1025F00001EB800010F8058004E0314800EB061084
:1026000010F8058000270DE008F0010018B15846C9
:1026100000F008F902E0069800F004F94FEA6808B3
:10262000781CC7B204EBD471B7EB610FECDB681C0C
:10263000C5B2A542D7DB2DE0002529E00C2C07D13F
:1026400006EB46001D4901EB800010F8058004E010
:102650001B4800EB061010F80580002711E0164813
:10266000A0F800B008F0010038B10AEB050291B201
:1026700009EB070290B2FFF7FFFD4FEA6808781CEC
:10268000C7B204EBD471B7EB610FE8DB681CC5B2CD
:10269000A542D3DB0849029808800A484088401EBA
:1026A00083B208480088401E82B200210846FFF726
:1026B0004DFF07B0BDE8F08FE2000020286D000854
:1026C0009C7100083001002010B504464FF40060F2
:1026D000074908604010091F08602146054801F0BD
:1026E000BDFE4FF400600249091F086010BD0000E4
:1026F000140C01400038004010B504464FF400604F
:1027000006490860401008602146054801F0A6FE11
:102710004FF400600149091F086010BD140C01400E
:102720000038004010B50249087AFFF7E5FF10BDF8
:102730003001002070B505460C462846FFF7DCFF47
:10274000E0B2FFF7C1FF70BD10B504462A201E4954
:1027500048812B2088812C20088134B1012C0FD096
:10276000022C18D0032C2CD120E0F0201649088030
:102770004FF4A070488008213620FFF7DBFF21E0EE
:102780004FF4A07010490880F0204880682136205E
:10279000FFF7D0FF16E0F0200B4908804FF4A0703F
:1027A0004880C8213620FFF7C5FF0BE04FF4A0702A
:1027B00005490880F0204880A8213620FFF7BAFF9D
:1027C00000E000BF00BF10BD3001002008B502F0DE
:1027D00067F80121102001F077FA0121042001F0AF
:1027E00073FA4FF24000ADF8000010208DF803009E
:1027F00003208DF8020069460848FEF78BFD4FF470
:102800000060ADF8000010208DF8030003208DF863
:10281000020069460248FEF77DFD08BD0010014038
:102820000008014010B504464FF4006009490860F3
:102830004010091F08602112074801F00FFEE1B2A5
:10284000054801F00BFE4FF400600249091F0860C3
:1028500010BD0000140C014000380040C020164993
:102860000870A820487001208870C870FF201349A4
:102870000870487088700020C8700C2010490870DB
:1028800029204870AB2088707C20C8700020087117
:1028900001204871C0200B490870A8204870012011
:1028A0008870C620C87013200749087088204870B7
:1028B0000020064908707047F4000020F80000204E
:1028C000FC0000200201002006010020140100206D
:1028D00000BFFEE7704708B500214FF0006000F030
:1028E00057F84FF4C06000F049F81C208DF8000044
:1028F00000208DF801008DF8020001208DF8030002
:10290000684600F003F802F037FD08BD70B50021FD
:1029100000230F22C47804B3154C246804F4E06447
:10292000C4F5E064210AC1F10403CA40447804FA02
:1029300003F184781440214309010E4C0678A15517
:10294000047804F01F050124AC4005786D11AD003A
:1029500005F1E025C5F8004109E0047804F01F0501
:102960000124AC40044D0678761145F8264070BD30
:102970000CED00E000E400E080E100E002490143EA
:10298000024A1160704700000000FA050CED00E0FB
:10299000024A0A400243024B1A60704780FFFF1F41
:1029A00008ED00E0704700002DE9F84F82460C4921
:1029B0005046FDF743FC0090FDF7CCFD80464FF0FC
:1029C0003332084BFDF7AAFC06460022064BFDF702
:1029D00017FD0446FDF702FE83465846BDE8F88F12
:1029E0000000204133330F4000A070402DE9F0413A
:1029F000ADF5006D4FF00508002400257649002054
:102A000001F002FB0746394674A002F049FECDE012
:102A10007AA002F045FE29467EA002F041FE39462A
:102A200081A002F03DFE6C49681C085C032806D0BA
:102A300005282CD006285AD008287CD18AE0062602
:102A4000002405E028196449085C0DF80400641CA2
:102A5000B442F7DB281DC1B26846FEF7E3F940B186
:102A600074A002F01DFE32462946002000F07AF9DB
:102A700008E077A002F014FE01207C4908700020D5
:102A80007B4908603544BF1FA8F101088DE0072687
:102A900000240AE028195049085C0DF804001DF8CC
:102AA000041074A002F0FCFD641CB442F2DBE81CCC
:102AB000494A105C001DC1B26846FEF7B3F940B147
:102AC00072A002F0EDFD32462946002000F04AF9DE
:102AD00008E074A002F0E4FD0120644908700020C1
:102AE000634908603544FF1FA8F101085DE03A49D9
:102AF000E81C085C861D002405E028193649085C9E
:102B00000DF80400641CB442F7DBE81C324A105C88
:102B1000001DC1B26846FEF785F968B168A002F0F1
:102B2000BFFD32462946002000F01CF931466BA05B
:102B300002F0B6FD09E035E06DA002F0B1FD012024
:102B40004A49087000204A4908603544BF1BA8F173
:102B500001082AE00626002405E028191E49085C21
:102B60000DF80400641CB442F7DB281DC1B26846AE
:102B7000FEF758F940B165A002F092FD32462946B1
:102B8000002000F0EFF808E067A002F089FD0120C6
:102B9000364908700020364908603544BF1FA8F147
:102BA000010802E0A8F1010800BF00BFB8F1000F62
:102BB00001DD012000E00020002F01DD012100E007
:102BC0000021084000287FF423AF5EA002F068FDDA
:102BD0000DF5006DBDE8F0814A01002050726F6371
:102BE0006573735F5061636B6167655F52656365B1
:102BF0006976653A25640D0A000000007374696CFB
:102C00006C20696E20746865207768696C65720D48
:102C10000A000000537461727420506F696E742052
:102C200025640D0A0000000053697A6520202564A0
:102C30000D0A000063617365203033204352432046
:102C4000636865636B206F6B61790D0A000000009B
:102C500063617365203033204352432063686563AA
:102C60006B2077726F6E670D0A0000008C000020E9
:102C70009801224252585F4275666665725F5265DE
:102C800063656976653A25780D0A000063617365AE
:102C900030352043524320636865636B206F6B615E
:102CA000790D0A006361736520303520435243205B
:102CB000636865636B2077726F6E67200D0A000092
:102CC0006361736520303620435243206368656337
:102CD0006B206F6B61790D0A000000005061636B1F
:102CE0006167655F53697A6525640D0A000000001D
:102CF0006361736520303620435243206368656307
:102D00006B2077726F6E670D0A0000006361736558
:102D10002030382043524320636865636B206F6B1B
:102D200061790D0A0000000063617365203038206E
:102D300043524320636865636B2077726F6E670D43
:102D40000A00000077652068617665206F75742041
:102D50006F6620746865207768696C65206C6F6F9A
:102D6000700D0A002DE9FE4F83460D4616464FF0C2
:102D7000000AF848405D052840F0D086681CF549F7
:102D8000085C032808D005287ED006287DD00828B6
:102D900040F0C28600F069BEA81CEE49085C142809
:102DA00074D008DC01280FD002283DD003287CD045
:102DB000042838D1B1E015286AD0162869D0172820
:102DC00068D01828F5D177E10520E3490870032081
:102DD0004870012088700420C870FDF7D9FF00906A
:102DE0000098FDF784FF8246CDF808A09DF80B00FF
:102DF000D94908719DF80A0048719DF80900887149
:102E00009DF80800C8710821D348FEF71DFF019006
:102E10009DF80400D04908729DF8050048720A2206
:102E2000584602F0EFFA92E10520CB4908700320E2
:102E30004870022088700420C870FDF7CDFF009014
:102E40000098FDF76BFF82465046FDF783FB07466F
:102E50003A460B46C1A002F023FCCDF808A09DF82D
:102E60000B00BD4908719DF80A0048719DF80900E2
:102E700088719DF80800C8710821B748FEF7E4FE84
:102E800001909DF8050006E0DCE1B2E269E00CE0AB
:102E90008BE0B7E0E3E0B04908729DF804004872A7
:102EA0000A22584602F0AEFA51E10520AA490870FC
:102EB0000320487088700420C870FDF745FF00901B
:102EC0000098FDF715FF82465046FDF743FB074685
:102ED0003A460B46A9A002F0E3FBCDF808A09DF806
:102EE0000B009D4908719DF80A0048719DF8090082
:102EF00088719DF80800C87108219748FEF7A4FE64
:102F000001909DF80500944908729DF804004872EC
:102F10000A22584602F076FA19E105208E49087017
:102F200003204870042088700220C870FEF748FD16
:102F3000814699F800008849087199F801004871A4
:102F400006218548FEF780FE01909DF80400824925
:102F500088719DF80500C8710822584602F052FA9F
:102F6000F5E005207C490870032048701420887023
:102F70000120C87089A002F093FBFEF721FD814675
:102F80008F4800787449087105217348FEF75CFE8C
:102F900001909DF80400704948719DF80500887102
:102FA0000722584602F02EFAD1E005206A4908703F
:102FB00003204870152088700420C87081A002F09A
:102FC0006FFB8648006802909DF80B00624908710B
:102FD0009DF80A0048719DF8090088719DF8080065
:102FE000C87108215C48FEF72FFE01909DF804008F
:102FF000594908729DF8050048720A22584602F0A5
:1030000001FAA4E0052054490870032048701620F6
:1030100088700420C87072A002F042FB78480068F3
:1030200002909DF80B004C4908719DF80A00487108
:103030009DF8090088719DF80800C871082146486C
:10304000FEF702FE01909DF80400434908729DF8C6
:10305000050048720A22584602F0D4F977E00520AC
:103060003D49087003204870172088700420C870FC
:1030700064A002F015FB6948006802909DF80B00FF
:10308000354908719DF80A0048719DF8090088715A
:103090009DF80800C87108212F48FEF7D5FD019062
:1030A0009DF804002C4908729DF8050048720A2218
:1030B000584602F0A7F94AE0052027490870032086
:1030C0004870182088700C20C87055A002F0E8FAEB
:1030D0005948006802909DF80B001F4908719DF83F
:1030E0000A0048719DF8090088719DF80800C871B0
:1030F0005248006802909DF80B0008729DF80A0083
:1031000048729DF8090088729DF80800C8724C4802
:10311000006802909DF80B0008739DF80A00487340
:103120009DF8090088739DF80800C87310210A48AB
:10313000FEF78AFD01909DF80500074908749DF887
:10314000040048741222584602F05CF900BF00BF28
:10315000F7E300004A0100204A090020494E746547
:10316000726E657420363237442041637475616C29
:103170002076616C75653A25660D0A00494E7465C6
:10318000726E657409303235442041637475616C28
:103190002076616C75653A25660D0A00526561649A
:1031A00020696620776520617265207265616479A7
:1031B00020746F20696E7370697265200D0A0000BB
:1031C0008E000020526561642056616375756D2024
:1031D00076616C7565207365740D0A000800002027
:1031E0005265616420313437394120666C6F772035
:1031F0002076616C7565207365740D0A000000000F
:103200000C0000205265616420707566662020768F
:10321000616C7565207365740D0A00001400002050
:10322000526561642070696420706172616D6574BB
:10323000657273200D0A00001C0000202000002091
:1032400024000020A81CEF49085C401F05287DD2FF
:10325000DFE800F003325880A600281DE949085C29
:10326000012806D1FF20E8490870E8A002F018FA0A
:1032700005E00020E4490870EBA002F011FA0024F8
:103280000FE02819DF49085CF14908550846015D3F
:10329000F0A002F005FA2146F4A002F001FA601C49
:1032A000C4B2B442EDDBF5A002F0FAF9B2B2E849DB
:1032B000584602F0A7F89AE0281DD249085C012878
:1032C00006D1FF20F2490870F2A002F0E9F905E00A
:1032D0000020EF490870F6A002F0E2F9002406E0B1
:1032E0002819C849085CDA490855601CC4B2B442C0
:1032F000F6DBE2A002F0D4F9B2B2D549584602F0AA
:1033000081F874E0281DBF49085C012806D1FF2020
:10331000EE490870EEA002F0C3F905E00020EB4989
:103320000870F4A002F0BCF9002406E02819B549A1
:10333000085CC7490855601CC4B2B442F6DBCFA094
:1033400002F0AEF9B2B2C249584600E04EE002F0D7
:1033500059F84CE0281DAB49085C012806D1FF2034
:10336000EC490870ECA002F09BF905E00020E94967
:103370000870F1A002F094F9002406E02819A14990
:10338000085CB3490855601CC4B2B442F6DBBBA06C
:1033900002F086F9B2B2AE49584602F033F826E0A0
:1033A000281D9849085C012806D1FF20EA490870C9
:1033B000EAA002F075F905E00020E7490870EDA0E9
:1033C00002F06EF9002406E028198E49085CA04935
:1033D0000855601CC4B2B442F6DBA8A002F060F944
:1033E000B2B29B49584602F00DF800E000BF00BFA2
:1033F00093E3A81C8349085C0A380C284FD2DFE805
:1034000000F0064F98E1FDFC4E4E4EFBFAF9281DE8
:103410007C49085C8DF80B00681D085C8DF80A007B
:10342000A81D085C8DF80900E81D085C8DF80800EF
:10343000D64902980968FDF7F7F801D2012700E0A4
:103440000027D34902980968FDF7E4F801D201206A
:1034500000E00020074337B10120CE49087000206A
:10346000CD49086008E00020CA490870CB4902989D
:103470000860CBA002F014F9002406E02819614985
:10348000085C73490855601CC4B2B442F6DB7BA0EB
:1034900002F006F9B2B26E49584601F0B3FFE2E21B
:1034A000281D5849085C8DF80B00681D085C8DF8D4
:1034B0000A00A81D085C8DF80900E81D085C8DF85D
:1034C0000800BF4902980968FDF7AEF801D201274C
:1034D00000E00027BB4902980968FDF79BF801D27C
:1034E000012000E00020074337B10120A9490870FE
:1034F0000020A949086008E00020A6490870B249E8
:1035000002980860B1A002F0CBF8002406E0281968
:103510003C49085C4E490855601CC4B2B442F6DB15
:1035200056A002F0BDF8B2B24949584601F06AFF10
:1035300099E2281D3349085C8DF80B00681D085C72
:103540008DF80A00A81D085C8DF80900E81D085CCC
:103550008DF80800A54902980968FDF765F801D2C1
:10356000012700E00027A24902980968FDF752F8F8
:1035700001D2012000E00020074337B10120854936
:10358000087000208449086008E000208149087024
:1035900098490298086098A002F082F8002406E09A
:1035A00028191849085C2A490855601CC4B2B4425D
:1035B000F6DB32A002F074F8B2B22549584601F0A9
:1035C00021FF50E2281D0F49085C8DF80B00681D93
:1035D000085C8DF80A00A81D085C8DF80900E81D3C
:1035E000085C8DF808008D4902980968FDF71CF801
:1035F00007D204E083E13EE114E2F1E1C4E10127F6
:103600000FE10DE14A010020430000204361736592
:1036100020303520746F206F70656E2044656275B0
:1036200067204D6F64650A00436173652030352063
:10363000746F206F70656E204E6F726D616C2052DA
:10364000756E6E696E67204D6F64650A000000003C
:103650004A090020547862756666657220636F6E51
:1036600074656E743A25780D0A00000049206E7565
:103670006D6265723A25640D0A000000536574207E
:103680005278627566666572206F6B61790D0A000B
:10369000400000204361736520303620746F206F36
:1036A00070656E2076616C7665730D0A000000000F
:1036B0006361736520303620746F20636C6F7365AF
:1036C000207661766C65730D0A00000046000020CC
:1036D000436173652030373A20746F2031343739B5
:1036E0004120636F6E74726F6C204D6F64650D0ABC
:1036F000000000004361736520303720746F205054
:10370000455620636F6E74726F6C206D6F64650D2B
:103710000A00000044000020436173652030382017
:1037200054696D696E672054726967676572204DD0
:103730006F64650D0A000000436173652030382016
:10374000436F6D6D616E64205472696767657220A6
:103750004D6F64650D0A00004500002043617365EC
:103760002030392070756666206D6F6465206F6E3D
:103770000D0A00004361736520303920707566665C
:10378000206D6F6465206F66660D0A00540000208E
:10379000580000208D000020B001224208000020C7
:1037A0004361736520307830413A20736574203668
:1037B0003237442070726573737572650D0A0000AC
:1037C0005C000020600000200C0000204361736555
:1037D000203078304220536574203134373941200D
:1037E000466C6F7720446174610D0A006C00002004
:1037F0007000002014000020436173652030783091
:10380000633A207365742070756666207072657304
:1038100073757265207365740D0A000074000020D2
:103820000027BF4902980968FCF7F4FE01D2012085
:1038300000E0002007431FB10020BA49086005E0FE
:10384000B94902980860B9A001F02AFF002406E0F7
:103850002819BE49085CBE490855601CC4B2B44270
:10386000F6DBAFF2E81001F01BFFB2B2B8495846E0
:1038700001F0C8FDF7E0281DB449085C8DF80B0085
:10388000681D085C8DF80A00A81D085C8DF8090009
:10389000E81D085C8DF80800AE4902980968FCF73D
:1038A000C3FE01D2012700E00027AB490298096856
:1038B000FCF7B0FE01D2012000E0002007431FB159
:1038C00000209849086005E0A44902980860A4A077
:1038D00001F0E6FE002406E028199C49085C9C499A
:1038E0000855601CC4B2B442F6DBAFF2702001F0A0
:1038F000D7FEB2B29649584601F084FDB3E0281DC8
:103900009249085C8DF80B00681D085C8DF80A0070
:10391000A81D085C8DF80900E81D085C8DF80800FA
:10392000974902980968FCF77FFE01D2012700E061
:103930000027944902980968FCF76CFE02D2012026
:1039400001E0EAE0002007431FB10020754908604C
:1039500005E08D49029808608CA001F0A1FE0024CA
:1039600006E028197949085C79490855601CC4B2F9
:10397000B442F6DBAFF2FC2001F092FEB2B2744921
:10398000584601F03FFD6EE0281D7049085C8749EC
:103990000870681D6D49085C8449487008460178C4
:1039A00083A001F07DFE8148417888A001F078FE77
:1039B0008DA001F075FE002406E028196349085C1B
:1039C00063490855601CC4B2B442F6DBAFF2543010
:1039D00001F066FEB2B25E49584601F013FD42E0C6
:1039E000281D5A49085C89490870681D5749085CB8
:1039F0008649487086A001F053FE002406E028198D
:103A00005249085C52490855601CC4B2B442F6DB06
:103A1000AFF2983001F044FEB2B24D49584601F081
:103A2000F1FC20E0002085490870854908700120DC
:103A30003C49183908608349C1F8B001002406E008
:103A400028194249085C42490855601CC4B2B44276
:103A5000F6DBAFF2D83001F023FEB2B23C49584653
:103A600001F0D0FC00BF00BF57E0A81C3749085C3C
:103A7000112802D012284CD125E073A001F010FECD
:103A800005203349087008204870112088700120F3
:103A9000C8706A480078012801D1087102E000204E
:103AA0002B49087105212A48FEF7CEF801909DF8B0
:103AB0000400274948719DF805008871072258467F
:103AC00001F0A0FC26E069A001F0EAFD05202049F4
:103AD000087008204870122088700120C87058486B
:103AE0000078012801D1087102E00020184908710E
:103AF00005211748FEF7A8F801909DF80400144925
:103B000048719DF8050088710722584601F07AFC3B
:103B100000E000BF00BF00E000BF00BFBDE8FE8FB7
:103B200080000020B00122421C0000204361736528
:103B300020307830642053657420502070617261A9
:103B40006D65746572206F6B0D0A00004A010020DC
:103B50004A09002078000020840000202000002076
:103B600043617365203078313420536574204920D7
:103B7000706172616D65746572206F6B0D0A000073
:103B80007C00002088000020240000204361736531
:103B90002030783135205365742044207061726183
:103BA0006D65746572206F6B0D0A00001A000020AD
:103BB00052656365697665642056616C7565206839
:103BC0006967683A2025780D0A0000005265636530
:103BD000697665642056616C75653A206C6F772054
:103BE0003A2025780D0A0000436173652030783053
:103BF000453A20537461626C652072756E6E696E11
:103C0000672076616C7665730D0A0000180000204D
:103C10004361736520307830663A5365742050757F
:103C20006666204D6F646520617578696C696172A4
:103C3000792056616C76650D0A0000008C0000202A
:103C40008D000020000022424361736520307831EE
:103C5000313A207265616420636F6D6D756E6963C2
:103C6000617465206572726F720D0A00436173653D
:103C700020307831323A207365742076616C756536
:103C8000206F766572206572726F720D0A000000F7
:103C900001460020034A506820F440400843506029
:103CA000704700000010024029B1064AD269024361
:103CB000044BDA6104E0034AD2698243014BDA61C2
:103CC000704700000010024029B1064A9269024381
:103CD000044B9A6104E0034A92698243014B9A6162
:103CE000704700000010024029B1064AD268024322
:103CF000044BDA6004E0034AD2688243014BDA6085
:103D000070470000001002400149C864704700007D
:103D10000000424210B500F03BF84FF4803000F054
:103D2000F9F800F055F90446012C2FD11020FDF7C9
:103D300097FA0220FDF7A2FA002000F0DFF8002039
:103D400000F01AF9A00200F00BF94FF4E011200482
:103D500000F024F9012000F01BF900BF392000F029
:103D6000A7F80028FAD0022000F026F900BF00F0E2
:103D7000BDF80828FBD10120FFF7C6FF0121084646
:103D8000FFF792FF01213D20FFF79EFF10BD0000CD
:103D90000F48006840F001000D490860084640687F
:103DA0000C4908400A494860084600680A4908402A
:103DB000074908600846006820F48020086008462B
:103DC000406820F4FE0048604FF41F008860704790
:103DD000001002400000FFF8FFFFF6FE30B50021A2
:103DE0000022002400232D4D6D6805F00C0121B147
:103DF000042905D0082923D105E0294D056022E0DA
:103E0000274D05601FE0254D6D6805F47012234DA8
:103E10006D6805F48034022505EB92421CB9214DF2
:103E2000554305600BE01D4D6D6805F400351DB16F
:103E30001C4D5543056002E0194D5543056002E0F5
:103E4000174D056000BF00BF144D6D6805F0F0010F
:103E50000909154D6B5C0568DD4045600F4D6D68C7
:103E600005F4E061090A104D6B5C4568DD40856032
:103E70000A4D6D6805F46051C90A0B4D6B5C4568CD
:103E8000DD40C560054D6D6805F44041890B074D67
:103E90006B5CC568B5FBF3F5056130BD00100240F1
:103EA00000127A0000093D00CA000020DA0000205C
:103EB00010B501460022002300204A11012A02D138
:103EC000094C236806E0022A02D1074C236A01E06C
:103ED000054C636A01F01F02012494401C400CB1A0
:103EE000012000E0002010BD0010024002484068A0
:103EF00000F00C0070470000001002400146002056
:103F0000034A506820F0F0000843506070470000FA
:103F1000001002401149096821F480310F4A1160F4
:103F20001146096821F480211160B0F5803F03D06B
:103F3000B0F5802F0ED106E00849096841F48031C0
:103F4000064A116007E00549096841F4A021034AC7
:103F5000116000E000BF00BF704700000010024089
:103F600001460020034A506820F4E0600843506096
:103F7000704700000010024001460020034A5068CC
:103F800020F4605040EAC1005060704700100240C9
:103F900001490866704700000000424202460020C6
:103FA000044B586820F47C1042EA01031843014B8B
:103FB000586070470010024001460020034A5068D4
:103FC00020F00300084350607047000000100240DA
:103FD00038B5002000900024002500BF3120FFF7F5
:103FE00067FF05460098401C00900098B0F5A06F50
:103FF00001D0002DF2D03120FFF75AFF08B1012483
:1040000000E00024204638BD2DE9F04780460D46EB
:104010002621404600F0DEF8064616B90020BDE82D
:10402000F08740F2B450864200DD06462821404623
:1040300000F0D0F80746B946C7F30A074FF400412D
:104040003B48FDF74DFA384600F058F9182101EBCE
:104050004811C8B200F042F9364800F0DCF900F02F
:10406000FF0AB819B0F5006F11DA00240CE0002047
:1040700000F034F92F4800F0CEF900F0FF0A85F87F
:1040800000A06D1C601C84B2B442F0DB3BE0C7F5BD
:10409000006087B200240CE0002000F01FF92548E2
:1040A00000F0B9F900F0FF0A85F800A06D1C601C53
:1040B00084B2BC42F0DB4FF400411D48FDF712FA18
:1040C0004FF400411A48FDF70BFA002000F016F9F2
:1040D000182101EB4811C8B200F000F9154800F0B2
:1040E0009AF900F0FF0A0CE0002000F0F7F8114800
:1040F00000F091F900F0FF0A85F800A06D1C601C2B
:1041000084B2B442F0DB4FF400410948FDF7EAF90C
:1041100009EB06001FFA80F94A462821404601F0C3
:104120004FFA40220121404601F02AFA304676E754
:1041300000080140003C004070B504464FF40041C7
:104140000D48FDF7CDF9204600F0D8F8012000F029
:10415000C5F80A4800F05FF9C5B2002000F0BEF8CB
:10416000064800F058F9C5B24FF400410248FDF787
:10417000B9F9284670BD000000080140003C00402D
:1041800070B504460D464FF400411048FDF7A8F9FC
:10419000284600F0B3F8082101EB4411C9B241F000
:1041A000010000F09BF80A4800F035F9C6B2002083
:1041B00000F094F8064800F02EF9C6B24FF4004122
:1041C0000248FDF78FF9304670BD0000000801403D
:1041D000003C004070B505460E464FF400411648BD
:1041E000FDF77EF9304600F089F8082101EB451112
:1041F000C9B241F0020000F071F8104800F00BF96C
:104200000446002000F06AF80C4800F004F9044667
:10421000002000F063F84FF6FF7000EA042407481E
:1042200000F0F9F8204484B24FF400410248FDF751
:1042300059F9204670BD000000080140003C0040D4
:1042400000B587B001210920FFF73EFD4FF4204063
:10425000ADF8040003208DF8060018208DF8070043
:1042600001A91C48FDF756F84FF48040ADF8040052
:1042700048208DF8070003208DF8060001A9154895
:10428000FDF748F801218803FFF70EFD0020ADF887
:1042900008004FF48270ADF80A000020ADF80C0061
:1042A000ADF80E00ADF810004FF40070ADF812003C
:1042B0000020ADF81400ADF816000720ADF8180086
:1042C00002A9054800F0ACF80121034800F024F8E9
:1042D00007B000BD000C01400038004010B5044696
:1042E0002146054800F09AF800BF8021024800F0FE
:1042F00089F80128F9D010BD003C004070B5044693
:104300002546E11704EB1161C1F30720FFF7E6FF33
:10431000E0B2FFF7E3FF70BD21B1028842F0400236
:10432000028004E002884FF6BF731A400280704793
:1043300000B587B00121C803FFF7B6FC01210920B1
:10434000FFF7C2FC01212B48FDF770F80820ADF8FB
:10435000180003208DF81A0018208DF81B0006A9FC
:104360002548FCF7D7FF1020ADF8180006A9224811
:10437000FCF7D0FF2020ADF8180006A91E48FCF776
:10438000C9FF4FF40040ADF8180003208DF81A0063
:1043900010208DF81B0006A91848FCF7BBFF4FF44E
:1043A00000411648FDF79EF80020ADF804004FF4D8
:1043B0008270ADF806000020ADF80800ADF80A00E4
:1043C000ADF80C004FF40070ADF80E000820ADF809
:1043D00010000020ADF812000720ADF8140001A96C
:1043E000074800F01DF801210548FFF795FF07B0C9
:1043F00000BD000000023000000C01400008014038
:10440000003C00400246002013890B400BB1012004
:1044100000E000207047014688897047818170471D
:1044200010B50022028802F441520B884C882343C5
:104430008C882343CC8823430C8923434C89234312
:104440008C892343CC8923431A430280838B4FF208
:10445000FF74234083830B8A038210BD024600BF92
:10446000108900F002000028FAD0918100BF108965
:1044700000F001000028FAD09089C0B27047704760
:1044800010B500F001F810BD0CB5002001900090AF
:104490003348006840F480303149086000BF30483C
:1044A000006800F4003000900198401C01900098D2
:1044B00018B90198B0F5A06FF1D12948006800F44F
:1044C000003010B10120009001E000200090009821
:1044D000012843D12348006840F0100021490860BA
:1044E0000846006820F0030008600846006840F0B5
:1044F000020008601A484068194948600846406848
:1045000048600846406840F480604860084640685B
:1045100020F47C1048600846406840F4E810486089
:104520000846006840F08070086000BF0C480068D2
:1045300000F000700028F9D00948406820F003001E
:10454000074948600846406840F00200486000BFE4
:104550000348406800F00C000828F9D10CBD0000A9
:1045600000100240002002402DE9FF4F83B00646B4
:1045700088469146DDE91147109DB2464FF0000B89
:1045800071E0BBF1000F40D104EBD471384A1288BE
:10459000A2EB6101B14204DB35494988091B414561
:1045A00002DA07B0BDE8F08F2878802802DD4FF0EE
:1045B000010B58E028780D2806D108EB04001FFAFB
:1045C00080F856466D1C1EE0102C0DDD1021287859
:1045D0008DE883004A4641463046069BFDF7E2FFE0
:1045E00006F1080086B20EE028788DE891004A4670
:1045F00041463046069BFDF7D5FF204604EBD071BF
:1046000006EB61018EB26D1C2DE019480088001B7D
:10461000B04204DB16484088001B404500DAC0E782
:104620004FF0000B202C08D1CDE900574A464146F7
:104630003046069BFDF768F812E0182C08D1CDE94A
:1046400000574A4641463046069BFCF7D1FF07E03B
:10465000CDE900574A4641463046069BFCF744FFE9
:10466000AD1C301986B2287800288AD100BF98E79F
:104670003001002010B5044601220021204600F040
:104680007FFF01221146204600F07AFF0520FCF74B
:104690008FFC03212046FFF773FD132806D010225C
:1046A0000121204600F06CFF002010BD04220121F2
:1046B000204600F065FFFF20F7E7000010B5044634
:1046C00040F2B4521221002000F07AFF082C17D2D9
:1046D000DFE804F0040F1011121314150A48417892
:1046E000007801EB002082B20421002000F068FF76
:1046F00007E006E005E004E003E002E001E000E09E
:1047000000BF00BF10BD00000601002010B5044628
:1047100001220021204600F033FF012211462046ED
:1047200000F02EFF0520FCF743FC03212046FFF795
:1047300027FD132806D010220121204600F020FF7B
:10474000002010BD02220121204600F019FF0520A3
:10475000FCF72EFC03212046FFF712FD142806D09B
:1047600010220121204600F00BFF0020E9E7FF2086
:10477000E7E710B5044602220021204600F000FFC2
:1047800001221146204600F0FBFE0520FCF710FC3C
:1047900003212046FFF7F4FC222806D01022012135
:1047A000204600F0EDFE002010BDFF20FCE70000D9
:1047B00030B587B0FDF704F90546FDF7D3F9044697
:1047C0002046FDF75BF8FCF7E3FA0490FCF704FBE6
:1047D0000590FCF7B9FA06900E48006801900E4863
:1047E000006802900D4803900498FCF780FA0C4989
:1047F00008600598FCF792FA0A4908600698FCF7E9
:1048000077FA0949086001A904A8FCF7A3F907B0E1
:1048100030BD0000AC0000209400002000004041AA
:104820004C00002048000020500000203EB5FDF75D
:10483000C7F80446FCF7ACFA0090FCF7CDFA0190FB
:10484000FCF782FA02900098FCF751FA06490860DA
:104850000198FCF763FA054908600298FCF748FAEA
:10486000034908603EBD00004C00002048000020C5
:1048700050000020042808D14FF0E021096941F0E0
:1048800004014FF0E022116107E04FF0E0210969D7
:1048900021F004014FF0E0221161704770470000E1
:1048A00010B51348006840F001001149086008463F
:1048B0004068104908400E494860084600680E49A3
:1048C00008400B4908600846006820F48020086012
:1048D0000846406820F4FE0048604FF41F008860DE
:1048E000FFF7CEFD4FF000600449086010BD0000E6
:1048F000001002400000FFF8FFFFF6FE08ED00E0A8
:1049000010B5FFF707FAFDF7E6FFFFF711FD00F01E
:1049100003F900F027FC10BD10B50121880700F055
:104920002CF801280DD10121800700F017F8054867
:104930000068401C0349086003480068401C0249A5
:10494000086010BD180100201C01002010B50121D5
:10495000014800F003F810BD00040040CA43028281
:10496000704721B1028842F00102028004E002880F
:104970004FF6FE731A400280704730B502460020A1
:1049800000230024158A05EA0103958905EA01043C
:1049900013B10CB1012000E0002030BD1AB18389B1
:1049A0000B43838102E083898B438381704700003E
:1049B00070B5002400220023058C4FF6EF763540B9
:1049C0000584028C8388048B48F6FF752C404FF6D3
:1049D000FF452C400D884FF6FF7606EA05252C434F
:1049E0004FF6DF752A400D8906EA05152A434D88E2
:1049F00006EA05152A43154DA84202D0144DA842D7
:104A00001DD14FF67F752A404D894FF6FF7606EA95
:104A100005152A434FF6BF752A408D8806EA05150D
:104A20002A434FF6FF352B404FF2FF752B408D89FF
:104A300006EA85052B43CD8906EA85052B4383804D
:104A40000483CD880587028470BD0000002C0140DE
:104A5000003401400A460021018B4FF2FF731940D8
:104A60004FF6FF7303EA022319430183704701875E
:104A700070470000002202881D4B98420ED01D4B4B
:104A800098420BD0B0F1804F08D01B4B984205D014
:104A90001A4B984202D01A4B984204D14FF68F73AA
:104AA0001A404B881A43174B984207D0164B98422E
:104AB00004D04FF6FF431A40CB881A4302808B88FC
:104AC00083850B8803850A4B98420BD0094B98428B
:104AD00008D00E4B984205D00D4B984202D00D4B9A
:104AE000984201D10B7A038601238382704700002C
:104AF000002C014000340140000400400008004048
:104B0000000C004000100040001400400040014034
:104B100000440140004801400EB501210846FFF75E
:104B2000C3F80920ADF8040041F61F40ADF80000BD
:104B30000020ADF80600ADF8020069464FF0804055
:104B4000FFF798FF012211469007FFF727FF012189
:104B50008807FFF706FF0EBD10B54FF480710848B7
:104B6000FCF7ACFC012806D1FF200649087006A01E
:104B700000F096FD02E000200249087010BD000020
:104B8000000801404500002054696D696E6720737C
:104B900069676E616C2069732068657265200D0A13
:104BA0000000000008B5FFF77BFE01210820FFF799
:104BB0008BF84FF48070ADF8000028208DF80300CA
:104BC00003208DF8020069460148FCF7A3FB08BDED
:104BD0000008014010B540210D4800F04FF840F2A8
:104BE00025510B4800F06CF880B1094800F024F919
:104BF0000849087008460178054800F022F900BF0E
:104C00008021034800F04FF80028F9D010BD0000C3
:104C100000380140C800002010B54021144800F0C1
:104C20002DF840F22551124800F04AF8F0B1104832
:104C300000F002F90F49087008210F48FCF752FCF8
:104C4000012001F0FFFA0B480178094800F0F9F85B
:104C500000BF8021064800F026F80028F9D0022085
:104C600001F0F0FA08210448FCF73AFC10BD0000FE
:104C700000440040C90000200020014001F40072FF
:104C8000B2F5007F00D100BFCA430280704721B156
:104C9000828942F40052828104E082894DF6FF73DA
:104CA0001A408281704702460020B1F5007F00D192
:104CB00000BF13880B400BB1012000E000207047BB
:104CC00070B50246002400230025002040F66A1635
:104CD000B14200D100BFC1F3421501F01F0301260C
:104CE00006FA03F3012D02D19689334006E0022D26
:104CF00002D1168A334001E0968A33400C12012615
:104D000006FA04F41688344013B10CB1012000E017
:104D1000002070BDF0B503460024002600250020C9
:104D200040F66A17B94200D100BF1846C1F34214D9
:104D300001F01F06012707FA06F5012C01D10C30FE
:104D400004E0022C01D1103000E014301AB10768E1
:104D50002F43076002E00768AF430760F0BD000023
:104D60002DE9F04786B005460E460024A24600BF56
:104D7000A1460027B08900B100BF2F462C8A4CF60F
:104D8000FF700440F08804432C82AC894EF6F31087
:104D90000440B08831890843718908430443AC81D9
:104DA000AC8A4FF6FF400440B0890443AC8201A8AE
:104DB000FFF714F81F48874202D1DDF810A001E088
:104DC000DDF80CA0A88900F4004040B10AEBCA004D
:104DD00000EB0A1031684900B0FBF1F807E00AEB7C
:104DE000CA0000EB0A1031688900B0FBF1F86420BA
:104DF000B8FBF0F004012009642101FB1089A889A7
:104E000000F4004040B1322000EBC900B0FBF1F0EB
:104E100000F00700044308E0322000EB0910642191
:104E2000B0FBF1F000F00F0004432C8106B0BDE8A8
:104E3000F08700000038014001468888C0F3080070
:104E40007047C1F308028280704700BFFEE7000090
:104E50002DE9FE4F80460C4615461E46DDF8309083
:104E60004FF0000A01F010FF21464046FBF7E0F941
:104E70008346FDF799FD074629463846FBF7DEF9DC
:104E8000029031463846FBF7D9F983461D48016840
:104E90005846FBF77BF91B49086087F0004B4946F1
:104EA0005846FBF7CBF9824617480460154801685D
:104EB0000298FBF76BF983465146FBF767F90190BF
:104EC00012490198FBF7BAF983461149FBF75EF9DD
:104ED000009010490098FBF7A7FB01D20D48009005
:104EE0000D490098FBF796FB01D20B480090009803
:104EF000FBF71CFB1FFA80FB59460848FFF7B7FD7C
:104F0000BDE8FE8F2001002028010020000034436E
:104F10000000E144000034450000B44300040040B8
:104F20003FB50146002200200DE04B78034103F01D
:104F300001031BB101230DF8003002E000230DF83E
:104F40000030431CD8B20828EFDB002011E00B78BA
:104F5000034103F001032BB1012400F108030DF814
:104F6000034004E0002400F108030DF80340431C53
:104F7000D8B20828EBDB9DF80030012B02D15B4C46
:104F8000236002E00023594C23609DF80130012B7F
:104F900003D1564C241D236003E00023534C241DF1
:104FA00023609DF80230012B03D1504C083423605C
:104FB00003E000234D4C083423609DF80330012B9F
:104FC00003D14A4C283C236003E00023474C283C93
:104FD00023609DF80430012B02D1454C236002E090
:104FE0000023434C23609DF80530012B03D1404C36
:104FF000241D236003E000233D4C241D23609DF805
:105000000630012B03D13A4C1834236003E000230F
:10501000374C183423609DF80730012B03D1344CF2
:105020001C34236003E00023314C1C3423609DF8C2
:105030000830012B03D12D4C243C236003E00023D6
:105040002A4C243C23609DF80930012B02D1294CC5
:10505000236002E00023274C23609DF80A30012BD7
:1050600003D1224C143C236003E000231F4C143C6A
:1050700023609DF80B30012B03D11C4C103C2360A6
:1050800003E00023194C103C23609DF80C30012BE9
:1050900003D1164C0C3C236003E00023134C0C3C62
:1050A00023609DF80D30012B03D1104C083C236088
:1050B00003E000230D4C083C23609DF80E30012BCB
:1050C00003D10A4C083C236003E00023074C083C52
:1050D00023609DF80F30012B03D1064C1C34236054
:1050E00003E00023034C1C3423603FBDB401224283
:1050F000800121428081214208B5FFF7D1FB0121C7
:105100001C20FEF7E1FDC320ADF8000010208DF853
:10511000030003208DF8020069460F48FCF7FAF8F7
:10512000C120ADF8000010208DF8030003208DF899
:10513000020069460948FCF7EDF84EF61870ADF824
:10514000000010208DF8030003208DF8020069464E
:105150000348FCF7DFF808BD00080140000C0140DF
:10516000001001400EB54FF48070ADF8080001202A
:105170008DF80A0010208DF80B0002A91448FCF7E6
:10518000C9F84FF480711248FCF7AAF94FF4007087
:10519000ADF8080003208DF80A0048208DF80B00B8
:1051A00002A90B48FCF7B6F809210120FCF792F898
:1051B0004FF40070009000208DF804000C208DF852
:1051C000050001208DF806006846FBF7FFFF0EBDC5
:1051D000000C014010B54FF480710B48FCF780F9CA
:1051E0003220FBF7E5FE4FF480710748FCF77AF9AF
:1051F000C820FBF7DDFE00BF2E20FEF79DFF00F06C
:1052000001000028F8D010BD000C014010B50024AA
:105210008021002000F080F90A20FBF7C9FE04225B
:105220001C49012000F018FA04221B49052000F057
:1052300013FA06221949092000F00EFA042218492F
:105240000F2000F009FA00BF0BE002221E212046C9
:1052500000F096F902221F21204600F091F9601C0F
:10526000C4B2082CF1DB4FF4FA61192000F06EF99A
:1052700008211B2000F050F9C021162000F04CF945
:105280000121182000F048F91F222C21002000F0F5
:1052900077F910BDF4000020F8000020FC00002089
:1052A0000201002010B5FFF7B1FFFBF78DFE0020D3
:1052B000FFF704FA10BD000070B500BF00202B49B5
:1052C00008701520FEF738FF054605F0F00115209F
:1052D00000F022F91720FEF72FFF054605F0010028
:1052E00000283DD002210020FEF74AFF0446224656
:1052F0000221002000F044F904F0010028B11C480C
:10530000007840F002001A49087004F0020050B121
:1053100010220121002000F033F90020FFF7CEF920
:1053200000201349087004F0100028B111480078DB
:1053300040F002000F49087004F0040028B10D4845
:10534000007840F001000B49087004F0080038B103
:1053500010220121002000F013F9002004490870F8
:105360001720FEF7E9FE00B1A8E770BD1701002085
:10537000150100201601002008B517208DF8000047
:1053800000208DF8010001208DF802008DF8030047
:105390006846FDF7BBFA08BD10B518480078F8B9A3
:1053A0001748007860B90020FFF7B0F9FF2803D153
:1053B00001201249087020E00020104908701CE00C
:1053C0000F48007801280CD10020FFF753F9FF287F
:1053D00003D10120094908700FE000200749087037
:1053E0000BE00020FFF7C5F9FF2803D10320034994
:1053F000087002E000200149087010BD150100206E
:10540000140100202DE9F04707460D469046002183
:105410003846FEF7B5FE00F00F0022280ED03B4ABA
:105420000C21384600F0ECF839484178007801EB5F
:10543000002082B21021384600F0C2F824213846FC
:10544000FEF7C8FE0646B146C6F30A064FF4004111
:105450003048FCF745F83046FEF750FF102101EBCD
:105460004711C9B241F00400FEF738FF06EB08000F
:10547000B0F5006F0ADA002405E015F8010BFEF71D
:105480002DFF601C84B24445F7DB2AE0C6F50060BE
:1054900086B2002405E015F8010BFEF71FFF601C23
:1054A00084B2B442F7DB4FF400411A48FCF71AF813
:1054B0004FF400411748FCF713F80020FEF71EFFD9
:1054C000102101EB4711C9B241F00400FEF706FFBD
:1054D00005E015F8010BFEF701FF601C84B244459E
:1054E000F7DB4FF400410B48FBF7FCFF09EB08002A
:1054F0001FFA80F94A462421384600F061F820223C
:105500000121384600F03CF8BDE8F0870E0100208C
:10551000120100200008014070B505460C464FF40A
:1055200000410948FBF7DCFF2846FEF7E7FE0520AF
:10553000FEF7D4FE2046FEF7D1FE4FF400410248AC
:10554000FBF7D0FF70BD00000008014070B50546B4
:105550000C464FF400410948FBF7C2FF2846FEF70E
:10556000CDFE0620FEF7BAFE2046FEF7C7FE4FF43A
:1055700000410248FBF7B6FF70BD00000008014083
:1055800070B504460D4616464FF400410B48FBF734
:10559000A7FF2846FEF7B2FE082101EB4411C9B26D
:1055A00041F00500FEF79AFE3046FEF797FE4FF4F5
:1055B00000410248FBF796FF70BD00000008014063
:1055C00070B504460D4616464FF400410B48FBF7F4
:1055D00087FF2846FEF792FE082101EB4411C9B26D
:1055E00041F00600FEF77AFE3046FEF787FE4FF4E4
:1055F00000410248FBF776FF70BD00000008014043
:1056000070B505460E4614464FF400411148FBF7AD
:1056100067FF3046FEF772FE082101EB4511C9B263
:1056200041F00700FEF75AFE14F8010BFEF756FE94
:1056300014F8010BFEF752FE14F8010BFEF74EFEB4
:1056400014F8010BFEF74AFE4FF400410148FBF746
:1056500049FF70BD000801402DE9F04107460C46A6
:1056600015464FF400410D48FBF73AFF3846FEF768
:1056700045FE0420FEF732FE002605E014F8010B7B
:10568000FEF72CFE701C86B2AE42F7DB4FF40041F1
:105690000248FBF727FFBDE8F08100000008014049
:1056A0000FB4054B10B503A9044A029800F020F985
:1056B00010BC5DF814FB00007D6200082C01002086
:1056C0000FB4084B10B504A902AA039800F010F912
:1056D000044602A9002000F0A2FC204610BC5DF8A0
:1056E00014FB00001F60000802E008C8121F08C178
:1056F000002AFAD170477047002001E001C1121F53
:10570000002AFBD170472DE9F04104460D461646AC
:105710001F46DDF81880EA1991B2A21990B24246EC
:10572000FCF776F8EA1991B2A21B90B24246FCF758
:105730006FF8EA1B91B2A21990B24246FCF768F8E2
:10574000EA1B91B2A21B90B24246FCF761F8AA197B
:1057500091B2E21990B24246FCF75AF8AA1991B2F6
:10576000E21B90B24246FCF753F8AA1B91B2E21931
:1057700090B24246FCF74CF8AA1B91B2E21B90B2E1
:105780004246FCF745F8BDE8F08100002DE9FF5FD7
:10579000DDE90220010DDDF838B0024318D044F6EF
:1057A0001050A1F2FF3141430D140F98012820D071
:1057B000A5EB0B00401C5FEA000A4FF00004474EC7
:1057C000DFF81C91A046504616D5CAF1000728E024
:1057D0000F98012443A2012808D0002100980F9BB4
:1057E000C0E90021C0E90243BDE8FF9F6FEA0B0159
:1057F000F4E7CBF10000DEE7074612E0F80707D038
:105800002246334640464946FAF788FD8046894697
:105810002246334610461946FAF780FD04460E46E6
:105820007F10002FEAD1DDE90201BAF1000F4246F4
:105830004B4602DAFAF772FD01E0FAF7E1FD0446A1
:105840000E460022284BFAF7B1FE03D84FF0FF3086
:10585000014607E00022254B20463146FAF7C9FFF2
:10586000FBF76EF8102409E0002C0ADB0A22002363
:10587000FAF7FAFE019B30321A55641E50EA010213
:10588000F2D1641C019AC4F1110314440F9A012A45
:1058900003D0012208430DD10AE0084304D00020C0
:1058A0004FF0110B0F9080E7A3EB0B056D1E0DE081
:1058B0005B4504DD4FF0000205F1010504E003DA69
:1058C0004FF00002A5F10105002AECD000980F99D5
:1058D000C0E90231C0E9004586E70000000024402D
:1058E0000000F03F300000000000F0430000E03F07
:1058F0002DE9FF4F95B09B468946064600250FE2ED
:10590000252877D100242746F84A0121059400E094
:10591000044316F8013F203B01FA03F01042F7D18F
:1059200030782A2811D06FF02F033078A0F13002A0
:10593000092A16D8059A44F0020402EB820203EB0E
:1059400042021044761C0590EFE759F8042B0592AB
:10595000002A03DA504244F40054059044F0020453
:10596000761C30782E2816D116F8010F44F0040466
:105970002A280DD06FF02F023078A0F13003092BC8
:1059800009D807EB870302EB4303C718761CF3E73C
:1059900059F8047B761C30786C280FD006DC4C2834
:1059A00017D068280DD06A2814D104E0742810D0CC
:1059B0007A280FD10DE044F400140AE044F4801476
:1059C00001E044F440147278824202D104F580145C
:1059D000761C761C307866280BD013DC582877D0DC
:1059E00009DC002875D04528F6D04628F4D0472891
:1059F0001AD19DE118E0632835D0642879D0652854
:105A000012D195E1702873D008DC6728F1D069289D
:105A10006FD06E280DD06F2806D1B5E073282CD03A
:105A2000752875D0782874D05A46179990476D1C00
:105A300075E1C4F30250022809D003280DD0D9F82B
:105A4000001004280DD00D6009F1040967E1D9F8B0
:105A50000010EA17C1E90052F6E7D9F800100D80EE
:105A6000F2E70D70F0E719F8041B8DF80010002024
:105A70008DF80100EA46012003E059F804AB4FF02D
:105A8000FF3061074FF0000102D40DE008F1010181
:105A90008846B9420FDA8045F8DB1AF80810002969
:105AA000F4D108E008F1010188468142FADB1AF8D6
:105AB00008100029F6D105985B46A0EB080721469F
:105AC0003846179A00F094FA284400EB080507E0DE
:105AD0004DE029E10DE01AF8010B5A46179990475D
