:020000040800F2
:10000000781400204501000821230008D91B0008AE
:100010001D230008550B0008933500080000000060
:10002000000000000000000000000000CF2D0008CC
:10003000910C000800000000F1230008273100089F
:100040005F0100085F0100085F0100085F01000810
:100050005F0100085F0100085F0100085F01000800
:10006000850D00085F0100085F0100085F010008BE
:100070005F0100085F0100085F0100085F010008E0
:100080005F0100085F0100085F0100085F010008D0
:100090005F0100085F0100085F010008D90D00083A
:1000A0005F0100085F0100085F0100085F010008B0
:1000B000A1310008D53100085F0100085F01000888
:1000C0005F0100085F0100085F0100085F01000890
:1000D0005F0100081D330008613300085F0100085C
:1000E0005F0100085F0100085F0100085F01000870
:1000F0005F0100085F0100085F0100085F01000860
:100100005F0100085F0100085F0100085F0100084F
:100110005F0100085F0100085F0100085F0100083F
:100120005F0100085F0100085F0100085F0100082F
:10013000DFF80CD000F076FB00480047E1480008EB
:10014000781400200648804706480047FEE7FEE78F
:10015000FEE7FEE7FEE7FEE7FEE7FEE7FEE7FEE777
:10016000293100083101000840EA01039B0703D050
:1001700009E008C9121F08C0042AFAD203E011F8E6
:10018000013B00F8013B521EF9D2704780EA0102A0
:1001900010B502F00043400022D04A001FD0010EEB
:1001A00001EB1261C0F35600C2F3560240F40000A6
:1001B00042F40002A0FB022000047F39140400D0A6
:1001C000401C50EA124001D44000491EC2B20C0645
:1001D00004EBD010401C4008802A02D003E000202D
:1001E00010BD20F00100002900DA0020184310BDE6
:1001F00030B480EA010202F0004530F0004221F004
:10020000004013D090B1C30DD40DC2F31601C0F35A
:100210001600E41A41F4000140F400027D349142DA
:1002200001D3641C00E04900002C02DA30BC00203D
:1002300070474FF400000023914201D3891A034311
:1002400040084FEA4101F7D151B1914202D14FF03C
:10025000004105E002D24FF0010101E06FF0010121
:1002600003EBC450284430BC00F070B92DE9FE4FB8
:1002700081EA030404F0004421F0004100944FF0AF
:10028000000B23F0004350EA01045ED052EA03045D
:100290005BD0C3F30A54C1F30A552C44A4F2F334DF
:1002A0000194A0FB0254C1F3130141F48011C3F384
:1002B000130343F4801301FB024400FB034E840A42
:1002C000970A44EA815447EA8357A4FB07680295DA
:1002D0008D0A05FB07854FEA932C04FB0C54270578
:1002E000029D4FEA065847EA1637B5EB08056EEB54
:1002F000070C870E920E47EA811742EA8312A7FB8A
:100300000201B6EB0B0164EB00042B0D43EA0C3346
:100310005E1844EB1C50DA465146E7FB0201C5F378
:1003200013044FEA0B3343EA14534FEA0432019C9F
:1003300043EA0603A4F10C040294009CCDE900B446
:1003400000F04AF903B0BDE8F08F00200146F9E75C
:100350002DE9F04D81EA030404F0004B21F0004543
:1003600014464FF0000A23F0004150EA050220D065
:1003700054EA01021DD0C5F30A570246C5F3130320
:10038000C1F31300C1F30A5640F4801543F48013FF
:10039000A7EB0608101BD64608F2FD3873EB0500E4
:1003A00002D308F1010801E092185B41B8F1000F97
:1003B00003DA00200146BDE8F08D00204FF48011E3
:1003C000064684460EE0171B73EB050705D3121B88
:1003D00063EB050306434CEA010C49084FEA300081
:1003E00092185B4150EA0107EDD152EA030012D0A6
:1003F00082EA040083EA0501084305D0101BAB41E3
:1004000006D20122002306E000224FF0004302E062
:100410006FF0010253101AEB06004CEB085110EB81
:100420000A0041EB0B01BDE8F04D00F0C6B8962381
:100430000022114600F093B820F00040C10DC0F337
:10044000160040F400007F2901DA00207047962949
:1004500003DCC1F19601C840704796398840704767
:1004600000F0004230F000400AD0C10D01F560718B
:10047000C0F3160042EA0151C20840071143704719
:1004800000200146704701F0004330B421F00041E4
:1004900050EA010206D00A0DA2F56072C1F3130101
:1004A000002A02DC30BC00207047440F44EAC1043B
:1004B000C100E01830BC00EBC25000F047B830B5C6
:1004C0000B46014600202022012409E021FA02F512
:1004D0009D4205D303FA02F5491B04FA02F52844AC
:1004E000151EA2F10102F1DC30BD2DE9F05F0546D9
:1004F000002092469B4688460646814640241BE0E3
:10050000284641464746224600F0ADF953465A4632
:10051000C01A914110D311461846224600F094F9B2
:100520002D1A67EB01084F4622460120002100F0FA
:100530008BF917EB00094E41201EA4F10104DFDC0A
:10054000484631462A464346BDE8F09F0029A8BFE9
:100550007047401C490008BF20F00100704710B4EC
:10056000B0FA80FC00FA0CF050EA010404BF10BCA1
:10057000704749B1CCF1200421FA04F411FA0CF1CE
:1005800018BF012121430843A3EB0C01CB1D4FEA07
:1005900000614FEA102042BF002010BC704700EB02
:1005A000C35010440029A4BF10BC7047401C490030
:1005B00008BF20F0010010BC704710B5141E73F185
:1005C000000408DA401C41F1000192185B411A4313
:1005D00001D120F0010010BD2DE9F04D92469B465F
:1005E00011B1B1FA81F202E0B0FA80F22032904605
:1005F00000F02AF904460F4640EA0A0041EA0B01DE
:1006000053465A46084313D0114653EA010019D005
:10061000C8F14002504600F026F905460E46504605
:100620005946424600F010F9084305D0012004E085
:1006300020463946BDE8F08D0020054346EAE076C5
:100640002C4337430A986305E40AA0EB0800002214
:10065000FD0A44EA47540A3002D500200146E9E782
:10066000010510196941DDE9084500196941BDE836
:10067000F04DA2E72DE9FE4F804681EA0300C00F4E
:100680000C46009021F0004123F00045B8EB020039
:10069000A94105D24046214690461C460B460246DB
:1006A00023F00040104347D0270DC7F30A00C3F3DF
:1006B0000A510290401A019040286BDAC3F31300EC
:1006C00040F4801B0098924620B10023D2EB030A2D
:1006D00063EB0B0B01985946C0F14002504600F005
:1006E000B3F806460D4650465946019A00F0CBF83D
:1006F00010EB08006141002487EA115284EAE77395
:100700001A4340D0009A62B3019A012A4FEA075275
:1007100015DC001B61EB02014FF0004202EA0752B8
:10072000CDE90042001C41F5801132462B46FFF70F
:1007300053FF03B0BDE8F08F40462146F9E7001BA8
:1007400061EB0201001C41F5801300185B41201889
:10075000A2F5001747EB030140EAD570B6196D41C9
:1007600011E06D084FEA360645EAC0754FEA0752B8
:10077000001B61EB0201001C41F5801149084FEAA2
:1007800030000019514132462B4603B0BDE8F04F0E
:10079000FFF713BF0098012240000023D0EB0202B4
:1007A00063EBE073009821464FEAE074B8EB000079
:1007B00061EB0401E9E783F000435BE781F000416E
:1007C00058E7C1F30A52C1F3130140F2FF3341F479
:1007D00080119A4202DA00200146704740F233430A
:1007E0009A42A2F2334202DC524200F03CB800F0DE
:1007F0002BB8000030B5041E71F1000404DB4FF08B
:100800000044404264EB0101141E73F1000405DB57
:100810001C464FF00043524263EB0403994208BF69
:10082000904230BD064C074D06E0E06840F0010301
:1008300094E8070098471034AC42F6D3FFF77CFCED
:10084000B86D0008D86D0008202A04DB203A00FAB1
:1008500002F1002070479140C2F1200320FA03F317
:10086000194390407047202A04DB203A21FA02F015
:100870000021704721FA02F3D040C2F120029140DA
:10088000084319467047202A06DBCB17203A41FA65
:1008900002F043EAE07306E041FA02F3D040C2F10D
:1008A0002002914008431946704721B1826842F006
:1008B0000102826003E0826822F0010282607047D8
:1008C000014600208A6802F004020AB1012000E01B
:1008D000002070470146C86C80B270470246002075
:1008E00013680B400BB1012000E000207047014667
:1008F00000208A6802F008020AB1012000E000200E
:100900007047000030B502460020002350680F4CAD
:1009100020400D790C6844EA05242043506090681B
:100920000B4C2040D1E902542C434D7944EA450454
:1009300020439060D06A20F470000C7C641EE4B206
:10094000234340EA0350D06230BD0000FFFEF0FFB9
:10095000FDF7F1FFF0B593B005461422174904A83E
:10096000FFF702FC002425E055F82400FFF778FD8E
:10097000064604A832460B4611A1009009A803F0D0
:1009800075F900200C2109AACDE90021029004EBA1
:100990008400382202EB80014FF6FF730022822090
:1009A00002F08AFA0A2003F001FF0A2003F0FEFE9B
:1009B000601CC4B2032CD7DB13B0F0BD5C6D000823
:1009C0002566252E32307300F0B504460D46002012
:1009D0000021092D11DDE068A5F10A0606EB4607A6
:1009E000072606FA07F18843A5F10A0606EB460634
:1009F00003FA06F10843E0600CE0206905EB4507C7
:100A0000072606FA07F1884305EB450603FA06F1C7
:100A100008432061072A0FDA606B561E06EB860733
:100A20001F2606FA07F18843561E06EB860605FACE
:100A300006F10843606322E00D2A0FDA206BD61F0F
:100A400006EB86071F2606FA07F18843D61F06EB3A
:100A5000860605FA06F10843206310E0E06AA2F179
:100A60000D0606EB86071F2606FA07F18843A2F15A
:100A70000D0606EB860605FA06F10843E062F0BDB6
:100A8000816841F008018160704721B1826842F4B9
:100A9000A002826003E0826822F4A00282607047B4
:100AA000816841F004018160704700002DE9E04F4A
:100AB00088B0264903C9CDE90301C82004FB00F929
:100AC000484600F0B9F814210A2000F07BFE824667
:100AD00014210B2000F076FE029014210C2000F06F
:100AE00071FE01905046FFF7A2FC8346FFF7B8FC69
:100AF00007464FF06632164BFFF7B8FB0546FFF787
:100B0000C2FC05900298FFF792FC8346FFF7A8FC11
:100B100007464FF066320E4BFFF7A8FB0546FFF77E
:100B2000B2FC06900198FFF782FC8346FFF798FC21
:100B300007464FF06632064BFFF798FB0546FFF776
:100B4000A2FC079005A808B0BDE8E08F284A00087D
:100B500066664A3F00BFFEE739B1084A12680123C2
:100B600083401A43054B1A6006E0044A12680123C9
:100B700083409A43014B1A607047000000740040A4
:100B800030B5002200230A4C226840F6FE748440EF
:100B9000A243D1E900452C438D682C43CD6844EA3B
:100BA000050303FA00F42243014C226030BD00002B
:100BB0000074004008B500220092054A009200F13E
:100BC0000802009B1A440092009A116008BD0000C0
:100BD0000074004000B585B00121042001F02CFD17
:100BE0000121480701F018FD1020ADF81000002089
:100BF0008DF8130003208DF8120004A90D4800F0B1
:100C000099F910210B4800F07DFA00200090019026
:100C100002900220039069460020FFF7B1FF0121F6
:100C20000020FFF799FF00210846FFF7C3FF05B03A
:100C300000BD0000000801402DE9F04704462046B1
:100C4000FFF7F5FB814610494846FFF7D1FA814688
:100C50004FF08B414846FFF799FA8246FFF700FCB8
:100C600007464FF06632094BFFF772FB0546FFF768
:100C70000AFC81464846FFF7DFFB85B22946002083
:100C8000FFF798FFBDE8F08700007A4466660A40E7
:100C9000704700000021044A116000BF0249096842
:100CA0008142FBD3704700005000002038B5324825
:100CB0000078401CC0B28DF800002F484078401CDE
:100CC000C0B28DF801002C488078401CC0B28DF86D
:100CD00002002948C078401CC0B28DF803006A4663
:100CE0000C21002002F062FF01220021084602F0E0
:100CF0001DFF01221146002002F018FF0520FFF71A
:100D0000C9FF0321002001F0E3FE13280BD01022BD
:100D10000121002002F00AFF00201849086018494C
:100D2000C1F8B80138BD04220121002002F0FEFE06
:100D300000BF00240221002001F0CAFE044624B1B5
:100D400022460221002002F0F1FE0520FFF7A2FF5B
:100D500004F00800082801D10020E3E70621002064
:100D600001F0B6FEFF2806D010220121002002F07B
:100D7000DDFEFF20D6E7DCE73A000020BC0122427E
:100D80000000224210B5042000F03CF801281ED1DA
:100D900000F032F80A2003F009FD04210C4800F0AD
:100DA0009DF968B901210B4800F0A1F920B9012192
:100DB000084800F0A7F903E00121064800F0A0F977
:100DC00000BF0421024800F089F90028F9D010BDC5
:100DD000001801400010014010B54FF4007000F001
:100DE00011F830B14FF4007000F006F8012001490D
:100DF000087010BD4F0000200149086070470000D6
:100E000014040140014600200022074B1B6803EA3E
:100E10000102054B14331B680B4013B10AB10120CA
:100E200000E0002070470000000401400021234939
:100E30008279002A3AD00A46126803689A430B4620
:100E40001A600A1D126803689A430B1D1A60027922
:100E500011440A6803681A430A60184A0832126883
:100E600003689A43154B08331A601A1D1268036809
:100E70009A43124B0C331A604279102A0ED11A1F72
:100E8000126803681A430D4B08331A601A1D126862
:100E900003681A43094B0C331A600DE00749427985
:100EA00011440A6803681A430A6005E00279114494
:100EB0000A6803689A430A60704700000004014012
:100EC0000549096821F01001034A116011460968BB
:100ED00001431160704700000020024001460020DD
:100EE000034A106800F038000843106070470000A3
:100EF0000020024030B500228B071C0F0F2303FA9D
:100F000004F20B4B8C1053F824309343084C8D1093
:100F100044F8253023468C1053F824308C07240FD6
:100F200000FA04F42343024C8D1044F8253030BD00
:100F3000080001402DE9F04102460025002600206E
:100F400000230024002791F803C00CF00F0591F84E
:100F500003C00CF0100CBCF1000F03D091F802C0DC
:100F60004CEA050591F800C0BCF1000F31D01468BF
:100F700000202BE04FF0010C0CFA00F3B1F800C098
:100F80000CEA03069E4220D183004FF00F0C0CFAAE
:100F900003F7BC4305FA03FC4CEA040491F803C0D0
:100FA000BCF1280F06D14FF0010C0CFA00FCC2F87E
:100FB00014C00AE091F803C0BCF1480F05D14FF00E
:100FC000010C0CFA00FCC2F810C0401C0828D1D358
:100FD0001460B1F800C0BCF1FF0F34DD546800208C
:100FE0002EE000F1080C4FF0010808FA0CF3B1F8FC
:100FF00000C00CEA03069E4221D183004FF00F0C83
:101000000CFA03F7BC4305FA03FC4CEA040491F81C
:1010100003C0BCF1280F05D100F1080C08FA0CF848
:10102000C2F8148091F803C0BCF1480F07D100F159
:10103000080C4FF0010808FA0CF8C2F81080401CA8
:101040000828CED35460BDE8F0810000F0B50A4610
:10105000002300240021002500F00046B6F1004FD7
:1010600002D11D4EF16901E01B4E7168C0F30345CA
:1010700083B200F44016B6F5401F08D121F070612C
:10108000154E766826F07066134F7E6012E000F40D
:101090008016B6F5801F06D1032606FA05F4A14393
:1010A00041F0706106E0460D360103FA06F6B143E1
:1010B00041F0706122B1460D360103FA06F6314364
:1010C00000F00046B6F1004F02D1034EF16101E09D
:1010D000014E7160F0BD000000000140024600209A
:1010E00093680B400BB1012000E0002070470246DE
:1010F0000020D3680B400BB1012000E000207047B6
:1011000041617047016170472DE9FC5F05468846E3
:1011100091469A46DDF830B000953E2001900024BB
:101120005FE004EB0410374911F810009BF8001041
:10113000884253D104EB0410324901EB400040785F
:101140009BF80110884249D108F10F0083B205F1E4
:101150000F0082B24146284600F032FF00263BE0F5
:10116000002734E00D9890B904EB0410254901EBF9
:101170004000801C805D80213941084018B14846FC
:1011800001F076F821E0504601F072F81DE01E48AB
:10119000A0F8009004EB04101A4901EB4000801CF9
:1011A000805D80213941084018B14146284600F051
:1011B0009DFD681C85B20098281A102805D1009D55
:1011C00008F101001FFA80F803E0781CC7B2082F6D
:1011D000C8DB00BF701CC6B2202EC1DB00BF601C84
:1011E00084B2019884429CDB08484088401E83B248
:1011F00006480088401E82B20021084600F0E0FE4A
:10120000BDE8FC9F925400081A0000205C000020FA
:101210002DE9FC5F0546884691469A46DDF830B0D8
:10122000009507200190002467E004EB840000EBA8
:1012300044103A4911F810009BF80010884259D127
:1012400004EB840000EB4410344901EB400040788B
:101250009BF8011088424DD108F1170083B205F1C7
:10126000170082B24146284600F0AAFE00263FE061
:10127000002738E00D98A0B904EB840000EB44107F
:10128000264901EB4000801C805D802139410840E7
:1012900018B1484600F0ECFF23E0504600F0E8FFAC
:1012A0001FE01F48A0F8009004EB840000EB4410FE
:1012B0001A4901EB4000801C805D802139410840C3
:1012C00018B14146284600F011FD681C85B200980F
:1012D000281A182805D1009D08F101001FFA80F88E
:1012E00003E0781CC7B2082FC4DB00BF701CC6B275
:1012F000482EBDDB00BF601C84B20198844294DBA1
:1013000008484088401E83B206480088401E82B2CA
:101310000021084600F054FEBDE8FC9FCE5C0008AA
:101320001A0000205C0000202DE9FC5F054688467D
:1013300091469A46DDF830B00095042001900024D3
:101340005FE004EB8410374911F810009BF800109F
:10135000884253D104EB8410324901EB40004078BD
:101360009BF80110884249D108F11F0083B205F1B2
:101370001F0082B24146284600F022FE00263BE0D4
:10138000002734E00D9890B904EB8410254901EB57
:101390004000801C805D80213941084018B14846DA
:1013A00000F066FF21E0504600F062FF1DE01E489D
:1013B000A0F8009004EB84101A4901EB4000801C57
:1013C000805D80213941084018B14146284600F02F
:1013D0008DFC681C85B20098281A202805D1009D34
:1013E00008F101001FFA80F803E0781CC7B2082F4B
:1013F000C8DB00BF701CC6B2802EC1DB00BF601C02
:1014000084B2019884429CDB08484088401E83B225
:1014100006480088401E82B20021084600F0D0FD38
:10142000BDE8FC9FD45E00081A0000205C0000208C
:1014300070B505460E4614463146284600F0B6FD06
:10144000204600F015FF70BD7047000038B500243D
:1014500000BF1BE0012000901048028804EB8400CC
:10146000A82303EB80010623B42003F0EBF901204D
:1014700000900A48028804EB8400A82303EB800153
:101480000623322003F0DEF9601CC4B2062CE1DB37
:1014900040F2DC5003F08AF938BD00002000002043
:1014A0003EB50546002400BF40E0285D01281DD15F
:1014B00000904748428804EB8400A82303EB800196
:1014C0000623322003F0BEF900200C2141A2CDE911
:1014D0000021029004EB8400A22202EB80014FF66F
:1014E000E0730022412001F0E7FC1DE001200090A4
:1014F0003748028804EB8400A82303EB800106230D
:10150000322003F09FF900200C2133A2CDE9002105
:10151000029004EB8400A22202EB80014FF6E073FC
:101520000022412001F0C8FC601CC4B2062CBCDBC8
:10153000062446E0285D012820D1009024484288F6
:10154000A01F00EB8000A82303EB80010623B4203A
:1015500003F078F900200C211EA2CDE900210290B1
:10156000A01F00EB8000A22202EB800081B24FF6A8
:10157000E0730022C32001F09FFC20E001200090D6
:1015800013480288A01F00EB8000A82303EB800112
:101590000623B42003F056F900200C210EA2CDE959
:1015A00000210290A01F00EB8000A22202EB80002D
:1015B00081B24FF6E0730022C32001F07DFC601C75
:1015C000C4B20C2CB6DB40F2DC5003F0EFF83EBDA9
:1015D000200000204F4E20004F46460010B54FF42B
:1015E00000514948FFF783FD012805D1474840785D
:1015F00040F00100454948704FF400414248FFF770
:1016000076FD012805D14148407840F002003F496D
:10161000487008213C48FFF76AFD012805D13B4886
:10162000407840F004003949487002213848FFF7FB
:101630005EFD012805D13548407840F00800334967
:10164000487001213248FFF752FD012805D12F488B
:10165000407840F010002D4948704FF480412A48EE
:10166000FFF745FD012805D12848407840F02000CB
:101670002649487080212648FFF739FD012805D109
:101680002248407840F0400020494870012121481C
:10169000FFF72DFD012805D11C48407840F080005F
:1016A0001A49487010211848FFF721FD012805D17B
:1016B0001648007840F00100144908704021144891
:1016C000FFF715FD012805D11048007840F0020011
:1016D0000E49087080210F48FFF709FD012805D148
:1016E0000A48007840F00400084908704021094881
:1016F000FFF7FDFC012805D10448007840F0080000
:1017000002490870014810BD001001402A00002065
:1017100000080140000C014010B54FF4005125486D
:10172000FFF7E5FC244908704FF400412148FFF71A
:10173000DEFC2149487008211E48FFF7D8FC1E49ED
:10174000887002211D48FFF7D2FC1B49C870012197
:101750001A48FFF7CCFC184908714FF4804115482E
:10176000FFF7C5FC1449487180211448FFF7BFFCFE
:101770001149887101211248FFF7B9FC0E49C8715F
:1017800010210C48FFF7B3FC0B49087240210B48AD
:10179000FFF7ADFC0849487280210948FFF7A7FC14
:1017A0000549887240210648FFF7A1FC0249C8722A
:1017B000084610BD001001406A00002000080140EA
:1017C000000C01402DE9F04105460E460027072395
:1017D000012229461048FFF7F7F8002413E0012101
:1017E0000D48FFF752F900BF02210B48FFF776F8CA
:1017F0000028F9D00848FFF76DF80744052002F0EB
:10180000D5FF601CC4B2B442E9DB601CB7FBF0F04A
:1018100080B2BDE8F0810000002401403EB54FF6E3
:10182000FF7000F0DBF9012450E0022C13DC04EB24
:10183000840000EBC4004FF6FF7202EA400304EBA1
:10184000840000EBC40002EA40014FF48C720020D7
:1018500000F0F4F936E0062C11DC022C0FDD04EB6D
:1018600084000C2202EB800083B204EB840002EBC4
:10187000800081B2FA22002000F0E0F922E0072C7B
:1018800011D104EB84000C2202EB8000801D83B296
:1018900004EB840002EB8000801D81B2FA2200205C
:1018A00000F0CCF90EE004EB8400122202EB800081
:1018B00083B204EB840002EB800081B2FA220020A4
:1018C00000F0BCF98AA002F0C1F9641C0E2CACDB5C
:1018D000842378221A21104600F0B0F94FF48B735C
:1018E00078229E21104600F0A9F900200C2182A246
:1018F0004FF6FF73CDE900210290024605210A2030
:1019000001F0DAFA01200C2184A24FF6FF73CDE931
:1019100000210290002221213C2001F0CDFA01207B
:101920000C2181A24FF6FF73CDE900210290002225
:1019300021218C2001F0C0FA00200C217EA24FF65C
:10194000E073CDE9002102900246382101F0B4FA9B
:1019500000200C217BA24FF6E073CDE9002102901C
:1019600002464E2101F0A8FA00200C2178A24FF681
:10197000E073CDE9002102900246622101F09CFA59
:1019800000200C2175A24FF6E073CDE900210290F2
:101990000246762101F090FA00200C2172A24FF647
:1019A000FF73CDE90021029002468B21502001F007
:1019B00083FA00200C2170A24FF6E073CDE90021DC
:1019C00002900246A2210A2001F076FA00200C21A2
:1019D0006BA24FF6E073CDE9002102900246B621DA
:1019E0000A2001F069FA00200C2167A24FF6E0738B
:1019F000CDE9002102900246CA210A2001F05CFADA
:101A000000200C2162A24FF6E073CDE90021029084
:101A10000246DE210A2001F04FFA00200C215EA2CE
:101A20004FF6E073CDE9002102900246F2210A2030
:101A300001F042FA00200C2159A24FF6E073CDE9E3
:101A40000021029002464FF483710A2001F034FA1B
:101A500000200C2154A24FF6E073CDE90021029042
:101A60000246A221822001F027FA00200C2150A278
:101A70004FF6E073CDE9002102900246B6218220A4
:101A800001F01AFA00200C214BA24FF6E073CDE9C9
:101A9000002102900246CA21822001F00DFA0020A6
:101AA0000C2147A24FF6E073CDE9002102900246D7
:101AB000DE21822001F000FA00200C2142A24FF624
:101AC000E073CDE9002102900246F221822001F06C
:101AD000F3F900200C213EA24FF6E073CDE900217E
:101AE000029002464FF48371822001F0E5F93EBD79
:101AF00068656C6C6F0000004761732053757070EF
:101B0000706C7920416E6420446563746563746908
:101B10006F6E2053797374656D00000053657420F7
:101B200056616C75650000004D65617375726520C6
:101B300056616C7565000000203134373941203A18
:101B400000000000203632374420203A0000000018
:101B5000434447303235443A0000000020202050F2
:101B60005620203A000000004761732056616C75D2
:101B700065205374617465004E6F2E3100000000C3
:101B80004E6F2E32000000004E6F2E33000000001A
:101B90004E6F2E34000000004E6F2E350000000006
:101BA0004E6F2E36000000004E6F2E3700000000F2
:101BB0004E6F2E38000000004E6F2E3900000000DE
:101BC0004E6F2E31300000004E6F2E31310000007C
:101BD0004E6F2E313200000000BFFEE770B50646A2
:101BE00014484088401E83B212480088401E82B2CA
:101BF0000021084600F0E4F94FF400600E49086047
:101C00004010091F086000240AE0002503E0304668
:101C100000F02EFB6D1C07480088A842F7D8641C12
:101C200004484088A042F0D84FF400600249091FE0
:101C3000086070BD5C000020140C01402DE9FF4FCE
:101C400085B081468A460020049003900798A0EB57
:101C500009050898A0EB0A06CDF80890CDF804A075
:101C6000002D01DD012705E00DB9002702E04FF04E
:101C7000FF376D42002E02DD4FF0010806E016B975
:101C80004FF0000802E04FF0FF387642B54201DD28
:101C90002C4600E034464FF0000B21E0019A91B24F
:101CA000029A90B200F022F8049828440490039815
:101CB000304403900498A04205DD0498001B049072
:101CC0000298384402900398A04205DD0398001B57
:101CD00003900198404401900BF101001FFA80FB32
:101CE000601C8345DADD09B0BDE8F08F70B50446AD
:101CF0000D462946204600F059F90248008800F0B8
:101D0000B7FA70BD1A00002008B50121082000F0C4
:101D100093FC4FF4F050ADF8000003208DF8020062
:101D200010208DF8030069460148FFF703F908BD4C
:101D3000000C014010B500F02BFFFFF7E5FF00F0AD
:101D400021F9CF2000F012FA002000F0F7F9C120AD
:101D500000F0F4F9302000F0F1F9ED2000F006FA7F
:101D6000642000F0EBF9032000F0E8F9122000F005
:101D7000E5F9812000F0E2F9E82000F0F7F985208C
:101D800000F0DCF9102000F0D9F97A2000F0D6F943
:101D9000CB2000F0EBF9392000F0D0F92C2000F036
:101DA000CDF9002000F0CAF9342000F0C7F9022074
:101DB00000F0C4F9F72000F0D9F9202000F0BEF9B6
:101DC000EA2000F0D3F9002000F0B8F9002000F07C
:101DD000B5F9C02000F0CAF91B2000F0AFF9C1200E
:101DE00000F0C4F9012000F0A9F9C52000F0BEF907
:101DF000302000F0A3F9302000F0A0F9C72000F057
:101E0000B5F9B72000F09AF9362000F0AFF9482074
:101E100000F094F93A2000F0A9F9552000F08EF96D
:101E2000B12000F0A3F9002000F088F91A2000F09A
:101E300085F9B62000F09AF90A2000F07FF9A22077
:101E400000F07CF9F22000F091F9002000F076F922
:101E5000262000F08BF9012000F070F9E02000F05E
:101E600085F90F2000F06AF92A2000F067F9282090
:101E700000F064F9082000F061F90E2000F05EF92E
:101E8000082000F05BF9542000F058F9A92000F078
:101E900055F9432000F052F90A2000F04FF90F20C5
:101EA00000F04CF9002000F049F9002000F046F95C
:101EB000002000F043F9002000F040F9E12000F09C
:101EC00055F9002000F03AF9152000F037F91720F5
:101ED00000F034F9072000F031F9112000F02EF95C
:101EE000062000F02BF92B2000F028F9562000F0F6
:101EF00025F93C2000F022F9052000F01FF9102000
:101F000000F01CF90F2000F019F93F2000F016F93D
:101F10003F2000F013F90F2000F010F92B2000F003
:101F200025F9002000F00AF9002000F007F901204F
:101F300000F004F93F2000F001F92A2000F016F922
:101F4000002000F0FBF8002000F0F8F8002000F07E
:101F5000F5F8EF2000F0F2F8112000F007F97820F2
:101F600002F024FC292000F001F9002000F026F9FD
:101F70000120034908604FF6FF70FFF72FFE10BDE8
:101F8000A481214210B54FF48050074908606420B5
:101F900002F00CFC4FF480500349091F0860322006
:101FA00002F004FC10BD0000140C014070B50446A2
:101FB0000D462B4622462946204600F001F870BD0A
:101FC0002DE9F04104460D4616461F461149887A10
:101FD00000F0CCF8201200F0B1F8E0B200F0AEF85A
:101FE000301200F0ABF8F0B200F0A8F80949087B15
:101FF00000F0BCF8281200F0A1F8E8B200F09EF85A
:10200000381200F09BF8F8B200F098F800F0C4F82D
:10201000BDE8F0815C0000202DE9FF4F83B08146D0
:102020008A469346DDE91064404800880290A6F194
:102030002000C6B204EBD47009EB6000401E82B2EF
:102040000AEB0400401E83B2514648460194FFF754
:10205000B7FF129850BB002525E00C2C07D106EBEA
:102060004600334901EB800010F8058004E0314858
:1020700000EB061010F8058000270DE008F00100C5
:1020800018B1584600F0F4F802E0069800F0F0F8B5
:102090004FEA6808781CC7B204EBD471B7EB610F44
:1020A000ECDB681CC5B2A542D7DB2DE0002529E09A
:1020B0000C2C07D106EB46001D4901EB800010F8FF
:1020C000058004E01B4800EB061010F8058000278F
:1020D00011E01648A0F800B008F0010038B10AEB92
:1020E000050291B209EB070290B2FFF7FFFD4FEA3C
:1020F0006808781CC7B204EBD471B7EB610FE8DB5A
:10210000681CC5B2A542D3DB0849029808800A487A
:102110004088401E83B208480088401E82B20021D9
:102120000846FFF74DFF07B0BDE8F08F1A0000200A
:102130002E4A0008A24E00085C00002010B504469C
:102140004FF40060074908604010091F08602146ED
:10215000054800F02BFE4FF400600249091F08609B
:1021600010BD0000140C01400038004010B50446BA
:102170004FF4006006490860401008602146054899
:1021800000F014FE4FF400600149091F086010BD03
:10219000140C01400038004010B50249087AFFF7DE
:1021A000E5FF10BD5C00002070B505460C462846D2
:1021B000FFF7DCFFE0B2FFF7C1FF70BD10B50446CA
:1021C0002A201E4948812B2088812C20088134B187
:1021D000012C0FD0022C18D0032C2CD120E0F020A1
:1021E000164908804FF4A070488008213620FFF778
:1021F000DBFF21E04FF4A07010490880F0204880F8
:1022000068213620FFF7D0FF16E0F0200B49088048
:102210004FF4A0704880C8213620FFF7C5FF0BE0BF
:102220004FF4A07005490880F0204880A82136208E
:10223000FFF7BAFF00E000BF00BF10BD5C00002048
:1022400008B500F071FF0121102000F0F5F94FF4FE
:102250006040ADF8000010208DF8030003208DF8D9
:10226000020069460148FEF765FE08BD0010014006
:1022700010B504464FF40060094908604010091F7A
:1022800008602112074800F091FDE1B2054800F016
:102290008DFD4FF400600249091F086010BD000069
:1022A000140C014000380040C02016490870A820D6
:1022B000487001208870C870FF201349087048706A
:1022C00088700020C8700C201049087029204870C0
:1022D000AB2088707C20C8700020087101204871F4
:1022E000C0200B490870A820487001208870C620C3
:1022F000C8701320074908708820487000200649DC
:10230000087070472C0000203000002034000020AE
:102310003A0000203E0000204C00002000BFFEE7F5
:10232000704708B500214FF0006000F057F84FF4F7
:10233000C06000F049F81C208DF8000000208DF8E6
:1023400001008DF8020001208DF80300684600F0BE
:1023500003F801F0E7FA08BD70B5002100230F2251
:10236000C47804B3154C246804F4E064C4F5E06454
:10237000210AC1F10403CA40447804FA03F18478C5
:102380001440214309010E4C0678A155047804F04D
:102390001F050124AC4005786D11AD0005F1E02565
:1023A000C5F8004109E0047804F01F050124AC40A1
:1023B000044D0678761145F8264070BD0CED00E01E
:1023C00000E400E080E100E002490143024A1160BC
:1023D000704700000000FA050CED00E0024A0A40D8
:1023E0000243024B1A60704780FFFF1F08ED00E0B8
:1023F000704700002DE9F04F87B081464FF0000A8A
:102400007349484600F0A8FA83465A467049714815
:10241000FDF7AAFE6E4801F019FC6D48007804280B
:1024200074D16B484078032804D0052867D006286B
:102430006DD1ACE066488078012806D0022810D023
:1024400003281AD0042858D12AE0042061490870D2
:1024500003204870012088700722484601F0A8FA3E
:1024600000BF04205B490870032048700220887078
:102470000722484601F09CFA00BF04205549087025
:10248000032048708870FFF7A9F80546287851495D
:10249000C870687808710522484601F089FA2CE076
:1024A00004204C4908700320487004208870FEF70F
:1024B000FDFA0646484830603068FEF7C5FF8246A0
:1024C000464806905046FDF7CBFF07463A460B4676
:1024D00001A802F087F99DF81B003E49C8709DF8DD
:1024E0001A0008719DF8190048719DF8180088714C
:1024F0000722484601F05CFA00BF00BF00BF344825
:102500008078012804D002283FD13DE05DE05AE008
:1025100033A001F09BFB00240EE02D480079204100
:1025200000F0010018B1012003A9085502E00020C5
:1025300003A90855601CC4B2082CEEDB002412E08D
:102540002348C078204100F0010028B1012103AAEE
:1025500004F10800115404E0002103AA04F108006A
:102560001154601CC4B2042CEADB002406E003A86A
:10257000015D1FA001F06AFB601CC4B20C2CF6DBED
:1025800003A801F009F800E000BF00BF00BF104839
:102590008078072815D2DFE800F01404050B0C0D35
:1025A0000E000EE001200A49C8700220C87008E041
:1025B00007E006E005E001200549C8700220C87068
:1025C00000BF00BF00E000BF00BF07B0BDE8F08F54
:1025D000760000207608002000002040000048C15E
:1025E0000D53657456616C7565206F6B0D0A0000A4
:1025F00053657476616C75653A25640D0A000000B8
:1026000001460020034A506820F4404008435060CF
:10261000704700000010024029B1064AD269024307
:10262000044BDA6104E0034AD2698243014BDA6168
:10263000704700000010024029B1064A9269024327
:10264000044B9A6104E0034A92698243014B9A6108
:1026500070470000001002400149C8647047000044
:102660000000424210B500F03BF84FF4803000F01B
:10267000F9F800F055F90446012C2FD11020FEF78F
:102680001FFC0220FEF72AFC002000F0DFF80020EB
:1026900000F01AF9A00200F00BF94FF4E011200449
:1026A00000F024F9012000F01BF900BF392000F0F0
:1026B000A7F80028FAD0022000F026F900BF00F0A9
:1026C000BDF80828FBD10120FFF7C6FF012108460D
:1026D000FFF7A2FF01213D20FFF7AEFF10BD000074
:1026E0000F48006840F001000D4908600846406846
:1026F0000C4908400A494860084600680A490840F1
:10270000074908600846006820F4802008600846F1
:10271000406820F4FE0048604FF41F008860704756
:10272000001002400000FFF8FFFFF6FE30B5002168
:102730000022002400232D4D6D6805F00C0121B10D
:10274000042905D0082923D105E0294D056022E0A0
:10275000274D05601FE0254D6D6805F47012234D6F
:102760006D6805F48034022505EB92421CB9214DB9
:10277000554305600BE01D4D6D6805F400351DB136
:102780001C4D5543056002E0194D5543056002E0BC
:10279000174D056000BF00BF144D6D6805F0F001D6
:1027A0000909154D6B5C0568DD4045600F4D6D688E
:1027B00005F4E061090A104D6B5C4568DD408560F9
:1027C0000A4D6D6805F46051C90A0B4D6B5C456894
:1027D000DD40C560054D6D6805F44041890B074D2E
:1027E0006B5CC568B5FBF3F5056130BD00100240B8
:1027F00000127A0000093D000200002012000020B3
:1028000010B501460022002300204A11012A02D1FE
:10281000094C236806E0022A02D1074C236A01E032
:10282000054C636A01F01F02012494401C400CB166
:10283000012000E0002010BD001002400248406866
:1028400000F00C007047000000100240014600201C
:10285000034A506820F0F0000843506070470000C1
:10286000001002401149096821F480310F4A1160BB
:102870001146096821F480211160B0F5803F03D032
:10288000B0F5802F0ED106E00849096841F4803187
:10289000064A116007E00549096841F4A021034A8E
:1028A000116000E000BF00BF704700000010024050
:1028B00001460020034A506820F4E060084350605D
:1028C000704700000010024001460020034A506893
:1028D00020F4605040EAC100506070470010024090
:1028E000014908667047000000004242024600208D
:1028F000044B586820F47C1042EA01031843014B52
:10290000586070470010024001460020034A50689A
:1029100020F00300084350607047000000100240A0
:1029200038B5002000900024002500BF3120FFF7BB
:1029300067FF05460098401C00900098B0F5A06F16
:1029400001D0002DF2D03120FFF75AFF08B1012449
:1029500000E00024204638BD2DE9F04780460D46B2
:102960002621404600F0DEF8064616B90020BDE8F4
:10297000F08740F2B450864200DD064628214046EA
:1029800000F0D0F80746B946C7F30A074FF40041F4
:102990003B48FEF7B5FB384600F058F9182101EB2B
:1029A0004811C8B200F042F9364800F0DCF900F0F6
:1029B000FF0AB819B0F5006F11DA00240CE000200E
:1029C00000F034F92F4800F0CEF900F0FF0A85F846
:1029D00000A06D1C601C84B2B442F0DB3BE0C7F584
:1029E000006087B200240CE0002000F01FF92548A9
:1029F00000F0B9F900F0FF0A85F800A06D1C601C1A
:102A000084B2BC42F0DB4FF400411D48FEF77AFB74
:102A10004FF400411A48FEF773FB002000F016F94E
:102A2000182101EB4811C8B200F000F9154800F078
:102A30009AF900F0FF0A0CE0002000F0F7F81148C6
:102A400000F091F900F0FF0A85F800A06D1C601CF1
:102A500084B2B442F0DB4FF400410948FEF752FB68
:102A600009EB06001FFA80F94A462821404601F08A
:102A70007DF840220121404601F058F8304676E7C3
:102A800000080140003C004070B504464FF400418E
:102A90000D48FEF735FB204600F0D8F8012000F085
:102AA000C5F80A4800F05FF9C5B2002000F0BEF892
:102AB000064800F058F9C5B24FF400410248FEF74D
:102AC00021FB284670BD000000080140003C00408A
:102AD00070B504460D464FF400411048FEF710FB58
:102AE000284600F0B3F8082101EB4411C9B241F0C7
:102AF000010000F09BF80A4800F035F9C6B200204A
:102B000000F094F8064800F02EF9C6B24FF40041E8
:102B10000248FEF7F7FA304670BD00000008014099
:102B2000003C004070B505460E464FF40041164883
:102B3000FEF7E6FA304600F089F8082101EB45116E
:102B4000C9B241F0020000F071F8104800F00BF932
:102B50000446002000F06AF80C4800F004F904462E
:102B6000002000F063F84FF6FF7000EA04240748E5
:102B700000F0F9F8204484B24FF400410248FEF717
:102B8000C1FA204670BD000000080140003C004032
:102B900000B587B001210920FFF74EFD4FF420401A
:102BA000ADF8040003208DF8060018208DF807000A
:102BB00001A91C48FEF7BEF94FF48040ADF80400AF
:102BC00048208DF8070003208DF8060001A915485C
:102BD000FEF7B0F901218803FFF71EFD0020ADF8D4
:102BE00008004FF48270ADF80A000020ADF80C0028
:102BF000ADF80E00ADF810004FF40070ADF8120003
:102C00000020ADF81400ADF816000720ADF818004C
:102C100002A9054800F0ACF80121034800F024F8AF
:102C200007B000BD000C01400038004010B504465C
:102C30002146054800F09AF800BF8021024800F0C4
:102C400089F80128F9D010BD003C004070B5044659
:102C50002546E11704EB1161C1F30720FFF7E6FFFA
:102C6000E0B2FFF7E3FF70BD21B1028842F04002FD
:102C7000028004E002884FF6BF731A40028070475A
:102C800000B587B00121C803FFF7C6FC0121092068
:102C9000FFF7D2FC01212B48FEF7D8F90820ADF848
:102CA000180003208DF81A0018208DF81B0006A9C3
:102CB0002548FEF73FF91020ADF8180006A9224874
:102CC000FEF738F92020ADF8180006A91E48FEF7D7
:102CD00031F94FF40040ADF8180003208DF81A00C8
:102CE00010208DF81B0006A91848FEF723F94FF4B1
:102CF00000411648FEF706FA0020ADF804004FF434
:102D00008270ADF806000020ADF80800ADF80A00AA
:102D1000ADF80C004FF40070ADF80E000820ADF8CF
:102D200010000020ADF812000720ADF8140001A932
:102D3000074800F01DF801210548FFF795FF07B08F
:102D400000BD000000023000000C014000080140FE
:102D5000003C00400246002013890B400BB10120CB
:102D600000E00020704701468889704781817047E4
:102D700010B50022028802F441520B884C8823438C
:102D80008C882343CC8823430C8923434C892343D9
:102D90008C892343CC8923431A430280838B4FF2CF
:102DA000FF74234083830B8A038210BD024600BF59
:102DB000108900F002000028FAD0918100BF10892C
:102DC00000F001000028FAD09089C0B27047704727
:102DD00010B500F001F810BD0CB500200190009076
:102DE0003348006840F480303149086000BF304803
:102DF000006800F4003000900198401C0190009899
:102E000018B90198B0F5A06FF1D12948006800F415
:102E1000003010B10120009001E0002000900098E7
:102E2000012843D12348006840F010002149086080
:102E30000846006820F0030008600846006840F07B
:102E4000020008601A48406819494860084640680E
:102E500048600846406840F4806048600846406822
:102E600020F47C1048600846406840F4E810486050
:102E70000846006840F08070086000BF0C48006899
:102E800000F000700028F9D00948406820F00300E5
:102E9000074948600846406840F00200486000BFAB
:102EA0000348406800F00C000828F9D10CBD000070
:102EB00000100240002002402DE9FF4F83B006467B
:102EC00088469146DDE91147109DB2464FF0000B50
:102ED00071E0BBF1000F40D104EBD471384A128885
:102EE000A2EB6101B14204DB35494988091B414528
:102EF00002DA07B0BDE8F08F2878802802DD4FF0B5
:102F0000010B58E028780D2806D108EB04001FFAC1
:102F100080F856466D1C1EE0102C0DDD102128781F
:102F20008DE883004A4641463046069BFFF774F819
:102F300006F1080086B20EE028788DE891004A4636
:102F400041463046069BFFF767F8204604EBD071F8
:102F500006EB61018EB26D1C2DE019480088001B44
:102F6000B04204DB16484088001B404500DAC0E749
:102F70004FF0000B202C08D1CDE900574A464146BE
:102F80003046069BFEF7D0F912E0182C08D1CDE9A7
:102F900000574A4641463046069BFEF739F907E09E
:102FA000CDE900574A4641463046069BFEF7ACF84D
:102FB000AD1C301986B2287800288AD100BF98E766
:102FC0005C00002010B5044601220021204600F0DC
:102FD000ADFD01221146204600F0A8FD0520FDF7B9
:102FE00059FE03212046FFF773FD132806D0102257
:102FF0000121204600F09AFD002010BD042201218D
:10300000204600F093FDFF20F7E7000010B50446CE
:1030100040F2B4521221002000F0A8FD082C17D273
:10302000DFE804F0040F1011121314150A48417858
:10303000007801EB002082B20421002000F096FD10
:1030400007E006E005E004E003E002E001E000E064
:1030500000BF00BF10BD00003E00002010B50446B8
:1030600001220021204600F061FD01221146204688
:1030700000F05CFD0520FDF70DFE03212046FFF763
:1030800027FD132806D010220121204600F04EFD16
:10309000002010BD02220121204600F047FD05203E
:1030A000FDF7F8FD03212046FFF712FD142806D096
:1030B00010220121204600F039FD0020E9E7FF2021
:1030C000E7E710B5044602220021204600F02EFD5D
:1030D00001221146204600F029FD0520FDF7DAFD0A
:1030E00003212046FFF7F4FC222806D010220121FC
:1030F000204600F01BFD002010BDFF20FCE7042847
:1031000008D14FF0E021096941F004014FF0E022BD
:10311000116107E04FF0E021096921F004014FF04F
:10312000E02211617047704710B51348006840F005
:1031300001001149086008464068104908400E49DE
:103140004860084600680E4908400B490860084678
:10315000006820F4802008600846406820F4FE00E3
:1031600048604FF41F008860FFF732FE4FF00060A8
:103170000449086010BD0000001002400000FFF884
:10318000FFFFF6FE08ED00E010B5FFF76BFAFFF762
:10319000C8F8FFF775FD00F0A1F800F0B9FA10BD0E
:1031A00010B50121880700F02CF801280DD101216C
:1031B000800700F017F805480068401C03490860C4
:1031C00003480068401C0249086010BD5000002000
:1031D0005400002010B50121014800F003F810BD93
:1031E00000040040CA430282704721B1028842F0C5
:1031F0000102028004E002884FF6FE731A4002804A
:10320000704730B50246002000230024158A05EAE5
:103210000103958905EA010413B10CB1012000E016
:10322000002030BD1AB183890B43838102E083897A
:103230008B43838170470000002202881D4B984217
:103240000ED01D4B98420BD0B0F1804F08D01B4BD5
:10325000984205D01A4B984202D01A4B984204D19A
:103260004FF68F731A404B881A43174B984207D07A
:10327000164B984204D04FF6FF431A40CB881A43AE
:1032800002808B8883850B8803850A4B98420BD07C
:10329000094B984208D00E4B984205D00D4B9842EE
:1032A00002D00D4B984201D10B7A03860123838211
:1032B00070470000002C0140003401400004004031
:1032C00000080040000C00400010004000140040C6
:1032D0000040014000440140004801400EB501217A
:1032E0000846FFF799F90920ADF8040041F61F40A0
:1032F000ADF800000020ADF80600ADF80200694608
:103300004FF08040FFF798FF012211469007FFF72A
:1033100089FF01218807FFF768FF0EBD10B5402126
:103320000D4800F04FF840F225510B4800F06CF8C2
:1033300080B1094800F024F908490870084601786E
:10334000054800F022F900BF8021034800F04FF843
:103350000028F9D010BD0000003801400000002016
:1033600010B54021144800F02DF840F225511248C4
:1033700000F04AF8F0B1104800F002F90F49087067
:1033800008210F48FDF7BEFE012001F00FFA0B489F
:103390000178094800F0F9F800BF8021064800F0E4
:1033A00026F80028F9D0022001F000FA082104488C
:1033B000FDF7A6FE10BD0000004400400100002003
:1033C0000020014001F40072B2F5007F00D100BF7F
:1033D000CA430280704721B1828942F4005282813F
:1033E00004E082894DF6FF731A40828170470246DD
:1033F0000020B1F5007F00D100BF13880B400BB156
:10340000012000E00020704770B502460024002330
:103410000025002040F66A16B14200D100BFC1F37A
:10342000421501F01F03012606FA03F3012D02D114
:103430009689334006E0022D02D1168A334001E01E
:10344000968A33400C12012606FA04F4168834409A
:1034500013B10CB1012000E0002070BDF0B50346AF
:10346000002400260025002040F66A17B94200D14A
:1034700000BF1846C1F3421401F01F06012707FAE6
:1034800006F5012C01D10C3004E0022C01D11030E2
:1034900000E014301AB107682F43076002E00768A4
:1034A000AF430760F0BD00002DE9F04786B0054648
:1034B0000E460024A24600BFA1460027B08900B1F5
:1034C00000BF2F462C8A4CF6FF700440F08804435E
:1034D0002C82AC894EF6F3100440B0883189084341
:1034E000718908430443AC81AC8A4FF6FF40044025
:1034F000B0890443AC8201A8FFF718F91F4887423E
:1035000002D1DDF810A001E0DDF80CA0A88900F4DC
:10351000004040B10AEBCA0000EB0A1031684900D4
:10352000B0FBF1F807E00AEBCA0000EB0A103168C3
:103530008900B0FBF1F86420B8FBF0F00401200929
:10354000642101FB1089A88900F4004040B13220B9
:1035500000EBC900B0FBF1F000F00700044308E005
:10356000322000EB09106421B0FBF1F000F00F00F5
:1035700004432C8106B0BDE8F0870000003801400C
:1035800001468888C0F308007047C1F308028280B2
:10359000704700BFFEE700000178012902D13E4AD2
:1035A000116002E000213C4A11604178012903D1F9
:1035B000394A0832116003E00021374A08321160AD
:1035C0008178012903D1344A283A116003E00021AF
:1035D000314A283A1160C178012902D12F4A11607D
:1035E00002E000212D4A11600179012903D12B4A03
:1035F000121F116003E00021284A121F1160417957
:10360000012903D1244A121D116003E00021224A3E
:10361000121D11608179012903D1204A18321160ED
:1036200003E000211D4A18321160C179012902D13D
:103630001B4A116002E00021194A1160017A012938
:1036400003D1154A243A116003E00021124A243ABA
:103650001160417A012903D1104A1432116003E04C
:1036600000210E4A14321160817A012903D10C4ADB
:103670001C32116003E00021094A1C321160C17A3A
:10368000012903D1064A1832116003E00021044ADF
:103690001832116070470000B401224284012142B7
:1036A0008081214208B5FFF73FFD01211C20FEF774
:1036B000C3FFC320ADF8000010208DF803000320E5
:1036C0008DF8020069460F48FDF734FCC120ADF8C3
:1036D000000010208DF8030003208DF802006946D9
:1036E0000948FDF727FC4EF21800ADF80000102045
:1036F0008DF8030003208DF8020069460348FDF7AA
:1037000019FC08BD00080140000C014000100140F8
:103710000EB54FF48070ADF8080001208DF80A0056
:1037200010208DF80B0002A91448FDF703FC4FF49C
:1037300080711248FDF7E4FC4FF40070ADF808000A
:1037400003208DF80A0048208DF80B0002A90B48D1
:10375000FDF7F0FB09210120FDF7CCFB4FF40070D1
:10376000009000208DF804000C208DF80500012049
:103770008DF806006846FDF759FB0EBD000C0140B0
:1037800010B54FF480710B48FDF7BAFC3220FDF7FD
:1037900081FA4FF480710748FDF7B4FCC820FDF7AB
:1037A00079FA00BF2E20FFF76FF900F00100002822
:1037B000F8D010BD000C014010B50024802100207D
:1037C00000F080F90A20FDF765FA04221C49012067
:1037D00000F018FA04221B49052000F013FA062213
:1037E0001949092000F00EFA042218490F2000F0B0
:1037F00009FA00BF0BE002221E21204600F096F9D4
:1038000002221F21204600F091F9601CC4B2082C4E
:10381000F1DB4FF4FA61192000F06EF908211B204A
:1038200000F050F9C021162000F04CF901211820B9
:1038300000F048F91F222C21002000F077F910BD7C
:103840002C00002030000020340000203A0000202E
:1038500010B5FFF7B1FFFDF729FA0020FFF7D6FBFF
:1038600010BD000070B500BF00202B490870152066
:10387000FFF70AF9054605F0F001152000F022F9DE
:103880001720FFF701F9054605F0010000283DD09B
:1038900002210020FFF71CF90446224602210020E5
:1038A00000F044F904F0010028B11C48007840F011
:1038B00002001A49087004F0020050B110220121E0
:1038C000002000F033F90020FFF7A0FB002013498F
:1038D000087004F0100028B11148007840F0020090
:1038E0000F49087004F0040028B10D48007840F03A
:1038F00001000B49087004F0080038B110220121C2
:10390000002000F013F90020044908701720FFF789
:10391000BBF800B1A8E770BD4F0000204D000020AB
:103920004E00002008B517208DF8000000208DF80B
:10393000010001208DF802008DF803006846FEF7B3
:103940000BFD08BD10B518480078F8B91748007885
:1039500060B90020FFF782FBFF2803D10120124944
:10396000087020E00020104908701CE00F48007823
:1039700001280CD10020FFF725FBFF2803D10120EF
:10398000094908700FE00020074908700BE000208B
:10399000FFF797FBFF2803D103200349087002E0DB
:1039A00000200149087010BD4D0000204C0000208F
:1039B0002DE9F04707460D46904600213846FFF7AF
:1039C00087F800F00F0022280ED03B4A0C21384621
:1039D00000F0ECF839484178007801EB002082B221
:1039E0001021384600F0C2F824213846FFF79AF833
:1039F0000646B146C6F30A064FF400413048FDF7CB
:103A00007FFB3046FFF722F9102101EB4711C9B2C5
:103A100041F00400FFF70AF906EB0800B0F5006F6B
:103A20000ADA002405E015F8010BFFF7FFF8601C27
:103A300084B24445F7DB2AE0C6F5006086B2002474
:103A400005E015F8010BFFF7F1F8601C84B2B442F1
:103A5000F7DB4FF400411A48FDF754FB4FF40041E7
:103A60001748FDF74DFB0020FFF7F0F8102101EBA0
:103A70004711C9B241F00400FFF7D8F805E015F886
:103A8000010BFFF7D3F8601C84B24445F7DB4FF419
:103A900000410B48FDF736FB09EB08001FFA80F9DF
:103AA0004A462421384600F061F820220121384698
:103AB00000F03CF8BDE8F087460000204A000020F6
:103AC0000008014070B505460C464FF40041094816
:103AD000FDF716FB2846FFF7B9F80520FFF7A6F813
:103AE0002046FFF7A3F84FF400410248FDF70AFB18
:103AF00070BD00000008014070B505460C464FF44B
:103B000000410948FDF7FCFA2846FFF79FF8062018
:103B1000FFF78CF82046FFF799F84FF40041024870
:103B2000FDF7F0FA70BD00000008014070B50446D2
:103B30000D4616464FF400410B48FDF7E1FA2846C2
:103B4000FFF784F8082101EB4411C9B241F00500E8
:103B5000FFF76CF83046FFF769F84FF40041024870
:103B6000FDF7D0FA70BD00000008014070B50446B2
:103B70000D4616464FF400410B48FDF7C1FA2846A2
:103B8000FFF764F8082101EB4411C9B241F00600C7
:103B9000FFF74CF83046FFF759F84FF40041024860
:103BA000FDF7B0FA70BD00000008014070B5054691
:103BB0000E4614464FF400411148FDF7A1FA304675
:103BC000FFF744F8082101EB4511C9B241F00700A5
:103BD000FFF72CF814F8010BFFF728F814F8010B85
:103BE000FFF724F814F8010BFFF720F814F8010B85
:103BF000FFF71CF84FF400410148FDF783FA70BD50
:103C0000000801402DE9F04107460C4615464FF4E7
:103C100000410D48FDF774FA3846FFF717F8042005
:103C2000FFF704F8002605E014F8010BFEF7FEFF8D
:103C3000701C86B2AE42F7DB4FF400410248FDF73C
:103C400061FABDE8F0810000000801400FB4054BA7
:103C500010B503A9044A029800F020F910BC5DF8E1
:103C600014FB000021480008580000200FB4084B46
:103C700010B504A902AA039800F010F9044602A99D
:103C8000002000F0A2FC204610BC5DF814FB0000F0
:103C9000CB45000802E008C8121F08C1002AFAD16B
:103CA00070477047002001E001C1121F002AFBD1BC
:103CB00070472DE9F04104460D4616461F46DDF8D3
:103CC0001880EA1991B2A21990B24246FDF7B0FBF2
:103CD000EA1991B2A21B90B24246FDF7A9FBEA1B7A
:103CE00091B2A21990B24246FDF7A2FBEA1B91B233
:103CF000A21B90B24246FDF79BFBAA1991B2E219B2
:103D000090B24246FDF794FBAA1991B2E21B90B221
:103D10004246FDF78DFBAA1B91B2E21990B24246D2
:103D2000FDF786FBAA1B91B2E21B90B24246FDF75B
:103D30007FFBBDE8F08100002DE9FF5FDDE9022097
:103D4000010DDDF838B0024318D044F61050A1F24E
:103D5000FF3141430D140F98012820D0A5EB0B0033
:103D6000401C5FEA000A4FF00004474EDFF81C9148
:103D7000A046504616D5CAF1000728E00F98012446
:103D800043A2012808D0002100980F9BC0E9002120
:103D9000C0E90243BDE8FF9F6FEA0B01F4E7CBF1F6
:103DA0000000DEE7074612E0F80707D02246334658
:103DB00040464946FCF75AFA804689462246334631
:103DC00010461946FCF752FA04460E467F10002FA3
:103DD000EAD1DDE90201BAF1000F42464B4602DAB0
:103DE000FCF744FA01E0FCF7B3FA04460E46002261
:103DF000284BFCF7FFFC03D84FF0FF30014607E0EB
:103E00000022254B20463146FCF734FCFCF7D9FC58
:103E1000102409E0002C0ADB0A220023FCF765FBD2
:103E2000019B30321A55641E50EA0102F2D1641C23
:103E3000019AC4F1110314440F9A012A03D00122FC
:103E400008430DD10AE0084304D000204FF0110BC5
:103E50000F9080E7A3EB0B056D1E0DE05B4504DDC5
:103E60004FF0000205F1010504E003DA4FF0000213
:103E7000A5F10105002AECD000980F99C0E90231A4
:103E8000C0E9004586E70000000024400000F03F44
:103E9000300000000000F0430000E03F2DE9FF4F3C
:103EA00095B09B468946064600250FE2252877D126
:103EB00000242746F84A0121059400E0044316F83F
:103EC000013F203B01FA03F01042F7D130782A2855
:103ED00011D06FF02F033078A0F13002092A16D8E4
:103EE000059A44F0020402EB820203EB4202104402
:103EF000761C0590EFE759F8042B0592002A03DAA7
:103F0000504244F40054059044F00204761C30788A
:103F10002E2816D116F8010F44F004042A280DD0DB
:103F20006FF02F023078A0F13003092B09D807EB8E
:103F3000870302EB4303C718761CF3E759F8047BA9
:103F4000761C30786C280FD006DC4C2817D06828F7
:103F50000DD06A2814D104E0742810D07A280FD12B
:103F60000DE044F400140AE044F4801401E044F449
:103F700040147278824202D104F58014761C761CBB
:103F8000307866280BD013DC582877D009DC00285D
:103F900075D04528F6D04628F4D047281AD19DE19F
:103FA00018E0632835D0642879D0652812D195E1CE
:103FB000702873D008DC6728F1D069286FD06E288C
:103FC0000DD06F2806D1B5E073282CD0752875D098
:103FD000782874D05A46179990476D1C75E1C4F340
:103FE0000250022809D003280DD0D9F80010042867
:103FF0000DD00D6009F1040967E1D9F80010EA1746
:10400000C1E90052F6E7D9F800100D80F2E70D7013
:10401000F0E719F8041B8DF8001000208DF801005E
:10402000EA46012003E059F804AB4FF0FF30610786
:104030004FF0000102D40DE008F101018846B942B9
:104040000FDA8045F8DB1AF808100029F4D108E0EF
:1040500008F1010188468142FADB1AF808100029AC
:10406000F6D105985B46A0EB080721463846179A1B
:1040700000F094FA284400EB080507E04DE029E140
:104080000DE01AF8010B5A4617999047B8F101084C
:10409000F7D25B4621463846179A13E142E00A22DE
:1040A0000092C4F302524FF0000A022A08D059F8D5
:1040B00004CB032A4FEAEC710AD00DE029E02AE094
:1040C00009F1070121F00702F2E802C1914609E077
:1040D0000FFA8CFC4FEAEC71042A03D14FFA8CFCE6
:1040E0004FEAEC71002907DA0A460021DCF1000CE6
:1040F00061EB02012D2202E0220504D52B228DF86E
:104100000420012203E0E20701D02022F7E79046D5
:1041100059E00A2102E010220DE010214FF0000AC0
:1041200000910BE010224FF0000A44F0040408272D
:10413000009203E008224FF0000A0092C4F30252FA
:10414000022A05D059F804CB0021032A08D009E03F
:1041500009F1070121F00702F2E802C1914605E0EA
:104160001FFA8CFC042A01D10CF0FF0C4FF0000860
:10417000220728D5702806D0009B83F0100353EA4D
:104180000A0305D00EE040228DF80420012208E049
:104190005CEA010206D030228DF804208DF805007B
:1041A00002229046009B83F0080353EA0A030AD1D7
:1041B0005CEA010201D1620705D530228DF80420A6
:1041C0004FF001087F1E582804D034A003900EA899
:1041D00002900DE036A0F9E753466046009AFCF7DE
:1041E00084F984460398825C0298401E0290027013
:1041F0005CEA0100F0D1029806A9081A00F1200A31
:10420000600702D524F4803400E00127574502DD21
:10421000A7EB0A0000E0002000EB0A0100900598DF
:104220004144401A0590E00306D45B462146179AA4
:10423000059800F0B3F90544002706E001A85A46A6
:10424000C05D179990476D1C7F1C4745F6DBE00366
:104250000CD55B462146179A059800F09FF9054456
:1042600004E030205A46179990476D1C0099481E6B
:1042700000900029F5DC08E0029802995A4600787F
:10428000491C0291179990476D1CBAF10001AAF1DF
:10429000010AF1DC65E10000092801003031323308
:1042A0003435363738396162636465660000000072
:1042B000303132333435363738394142434445465C
:1042C0000000000000F058F90544761C3078002802
:1042D0007FF4ECAD19B02846BDE8F08F620700D43A
:1042E000062709F1070222F0070CFCE80223E14649
:1042F00003F000485FEA080C02D00FF2702C0DE0CA
:104300005FEA045C02D50FF2682C07E05FEAC47C28
:1043100002D00FF2602C01E0AFF2700C4FF0FF38CA
:1043200023F00043CDF850C065280CD006DC4528AA
:1043300009D046281DD047283DD13DE0662818D039
:1043400067287ED138E00021112F01DB112000E029
:10435000781CCDE9000106A90EA8FFF7EDFCDDE908
:104360000F010E9A03910021009207F1010A0491B6
:104370004DE04FF000400097CDE9011006A90EA8CE
:10438000FFF7DAFCDDE90F0203920E9B1199002280
:10439000DDF80CA00093049211B9791C00EB010A1E
:1043A000B7EB0A0004D4C0F1FF3007F1010A049012
:1043B000AAEB0700019044E0012F00DA0127002159
:1043C000112F01DD112000E03846CDE9000106A9DA
:1043D0000EA8FFF7B1FCDDE90F010E9A0391002151
:1043E00004910092BA4621070CD40399514500DA92
:1043F0008A46BAF1010F05DD009AAAF10101515C6C
:10440000302908D0B84202DA10F1040F06DA01218F
:10441000CDE9011015E0AAF10101E9E7002805DC6A
:10442000049901440491AAEB000102E0411C5145AA
:1044300000DD8A460499401A401C01904FF000406C
:104440000290200704D40198504501DBCDF8048088
:1044500000208DF84F0002980DF14F07B0F1004F8A
:1044600025D02B200E9002984FF0020800280CDA7D
:10447000404202902D200E9007E00A210298FCF79E
:104480001EF83031029007F8011DB8F10001A8F1C3
:104490000108F2DC02980028EFD1791E0E9808700E
:1044A000307800F0200040F0450007F8020D12A817
:1044B000C01B00F107081498007800B1012000EB40
:1044C0000A01019801EBE07105984144401A401E31
:1044D0000590E00306D45B462146179A059800F044
:1044E0005DF805441498007818B15A46179990471A
:1044F0006D1CE00324D55B462146179A059800F011
:104500004DF805441CE00498002807DBDDE90301B1
:10451000884203DD0098405C179901E0179930202C
:104520005A469047049805F10105401C04900198F3
:10453000401E019004D12E205A46179990476D1CB9
:10454000BAF10001AAF1010ADDDC05E017F8010B60
:104550005A46179990476D1CB8F10001A8F101085F
:10456000F4DC5B462146179A0598ABE62D00000067
:104570002B000000200000002DE9F041044600253A
:104580001E461746880404D405E039462020B0476B
:104590006D1C641EF9D52846BDE8F0812DE9F04177
:1045A000044600251E469046C80301D5302700E08A
:1045B0002027880404D505E041463846B0476D1CE5
:1045C000641EF9D52846BDE8F0810A68531C0B60CB
:1045D0001070704700B587B0012140F20520FEF74A
:1045E0002BF84FF40040FEF70BF80120ADF818004F
:1045F00000208DF81B0003208DF81A0006A95A48E8
:10460000FCF798FC002001908DF808008DF8090057
:104610004FF4602003900020049001208DF81400D6
:1046200001A95248FCF76EF901215048FCF73DF909
:104630004E48FCF725FA00BF4C48FCF758F9002813
:10464000FAD14A48FCF72CFA00BF4848FCF738F981
:104650000028FAD1072301220A214448FCF7B4F9C3
:1046600001214248FCF711FA0220ADF818000020A1
:104670008DF81B0003208DF81A0006A93A48FCF7B4
:1046800059FC002001908DF808008DF809004FF4C6
:10469000602003900020049001208DF8140001A9EF
:1046A0003248FCF72FF901213048FCF7FEF82F487B
:1046B000FCF7E6F900BF2D48FCF719F90028FAD1FC
:1046C0002A48FCF7EDF900BF2848FCF7F9F8002864
:1046D000FAD1072301220A212448FCF775F90121A8
:1046E0002248FCF7D2F90420ADF8180000208DF81C
:1046F0001B0003208DF81A0006A91B48FCF71AFCC2
:10470000002001908DF808008DF809004FF460201A
:1047100003900020049001208DF8140001A9134893
:10472000FCF7F0F801211148FCF7BFF80F48FCF73F
:10473000A7F900BF0D48FCF7DAF80028FAD10B48BA
:10474000FCF7AEF900BF0948FCF7BAF80028FAD127
:10475000072301220A210548FCF736F90121034805
:10476000FCF793F907B000BD0010014000240140A0
:1047700010B504466FF00400FEF7C1FCE11704EB2E
:104780005171C1F3C701074A11701046007800EB60
:104790004001C1EBC0104FF6FF7101EAC0000249B1
:1047A000088010BD1600002018000020014642F2CB
:1047B00028324A434FF0E0235A6101221A61002255
:1047C0009A6100BF4FF0E022106900F001021AB1B7
:1047D00000F48032002AF5D000224FF0E0231A6165
:1047E0009A61704773B50446002504E001A8405D56
:1047F0006055681CC5B2042DF8DB217807A0FFF7CF
:1048000025FA617805A0FFF721FAA17803A0FFF748
:104810001DFAE17801A0FFF719FA7CBD25780000A8
:1048200070B504460D46E1B20548FEF7AEFE00BF86
:1048300080210348FEF7DBFD0028F9D0204670BD3B
:10484000003801402DE9FF4F81B082461746984657
:10485000DDF838B0002445464FEA4800C0F10306B1
:10486000BBF1000F1FD01BE0A14608E04B462246DB
:10487000009750460299FFF71CFA09F10109A94572
:10488000F4DD002E04DA042000FB0460861D06E03F
:10489000601B042101FB006000F10A066D1E641C10
:1048A000AC42E1DD18E015E02B4622460097504669
:1048B0000299FFF7FEF9002E04DA042000FB0460E1
:1048C000861D06E0601B042101FB006000F10A0662
:1048D0006D1E641CAC42E7DD05B0BDE8F08F000042
:1048E000FEF722FC4820FFF743FFFDF723FAFDF710
:1048F000A7FCFFF76FFE00F03DF8FCF76BF9002115
:104900000846FCF757F9FEF7CDFEFCF787FFFCF7EA
:104910009DFDFEF739FCFDF7C7FCFEF731FFFEF702
:1049200097FF22E0FFF70EF81048007808B1FEF775
:1049300099FF0F48007800F0010040B10C48007862
:1049400020F001000A4908700020FDF753FDFCF734
:1049500045FEFCF7E1FE05462846FCF7A1FDFCF705
:10496000A5F804462046FBF7F5FFDBE74F000020E3
:104970004E00002000B587B0012144F20500FDF78C
:104980005BFE4FF40070ADF8180003208DF81A009C
:1049900018208DF81B0006A92148FCF7CBFA4FF42C
:1049A0008060ADF8180004208DF81B0006A91C4893
:1049B000FCF7C0FA4FF4C060FDF706FD25208DF826
:1049C000140000208DF8150001208DF816008DF8D8
:1049D000170005A8FDF7C0FC4FF416500190002009
:1049E000ADF80800ADF80A00ADF80C00ADF8100005
:1049F0000C20ADF80E0001A90A48FEF755FD012173
:104A00000848FEF7E8FC012240F225510548FEF770
:104A100025FD40210348FEF7D5FC07B000BD00008E
:104A200000080140003801400A000B000C000000A3
:104A30000000000000000000000000000404040466
:104A400004040004000000140A0A00000000000032
:104A50000000000014143F140A3F0A0A000000047A
:104A60001E1505060C14150F0400000012150D0A82
:104A7000142C2A1200000000040A0A1E151509361B
:104A80000000000202010000000000000000002001
:104A90001008080808080810200000020408080888
:104AA00008080804020000000004150E0E1504009A
:104AB000000000000404041F0404040000000000BF
:104AC0000000000000000002020100000000001FC2
:104AD00000000000000000000000000000000002D4
:104AE000000000100808080404020202010000008F
:104AF0000E1111111111110E000000000406040422
:104B00000404040E000000000E1111080402011F2D
:104B1000000000000E11100C1010110E000000001B
:104B2000080C0A0A091E0818000000001F01010FE6
:104B30001010110E000000000E09010F1111110ECE
:104B4000000000001F090804040404040000000021
:104B50000E11110E1111110E000000000E11111195
:104B60001E10120E000000000000040000000004EF
:104B70000000000000000004000000040400002009
:104B800010080402040810200000000000001F00AC
:104B9000001F00000000000204081020100804029A
:104BA000000000000E1111080404000400000000C1
:104BB0000E111915151D011E0000000004040C0A39
:104BC0000A1E1233000000000F12120E1212120FF2
:104BD000000000001E1101010101110E0000000083
:104BE0000F1212121212120F000000001F120A0EF2
:104BF0000A02121F000000001F120A0E0A0202071A
:104C0000000000001C1201013911120C000000000C
:104C10003312121E12121233000000001F0404048B
:104C20000404041F000000003E08080808080809E2
:104C30000700000037120A060A0A123700000000B7
:104C4000070202020202223F000000001B1B1B1B86
:104C500015151515000000003B1216161A1A12172A
:104C6000000000000E1111111111110E00000000C2
:104C70000F12120E02020207000000000E111111A5
:104C80001117190E180000000F12120E0A12123717
:104C9000000000001E1101060810110F00000000A6
:104CA0001F1504040404040E000000003312121245
:104CB0001212120C000000003312120A0A0C040433
:104CC000000000001515150E0A0A0A0A000000006F
:104CD0001B0A0A04040A0A1B000000001B0A0A043B
:104CE0000404040E000000001F0908040402121F3F
:104CF0000000001C04040404040404041C0000025A
:104D000002020404080808100000000E0808080841
:104D1000080808080E0000040A0000000000000057
:104D2000000000000000000000000000003F000440
:104D30000000000000000000000000000000000C67
:104D4000121C123C000000000302020E1212120E8E
:104D5000000000000000001C1202021C0000000005
:104D60001810101C1212123C000000000000000C71
:104D7000121E021C000000003804041E0404041E5D
:104D8000000000000000003C120C021E221C00006B
:104D90000302020E12121237000000000400000687
:104DA0000404040E000000000800000C08080808B5
:104DB000080700000302023A0A0E12370000000042
:104DC000070404040404041F000000000000000F96
:104DD00015151515000000000000000F1212123703
:104DE000000000000000000C1212120C0000000075
:104DF0000000000F1212120E020700000000001C3B
:104E00001212121C103800000000001B06020207DC
:104E1000000000000000001E020C101E0000000038
:104E20000004040E04040418000000000000001B2D
:104E30001212123C0000000000000037120A0C049D
:104E40000000000000000015150E0A0A0000000016
:104E50000000001B0A040A1B0000000000000037CD
:104E6000120A0C04040300000000001E0804041EC3
:104E700000000018080808040808080818000808B6
:104E800008080808080808080808000604040408B8
:104E900004040404060002251800000000000000BD
:104EA0000000000000000000000000000000000002
:104EB000000000000008080808080808000018188A
:104EC000000000486C2412000000000000000000F8
:104ED00000000000002424247F1212127F121212FC
:104EE00000000000081C2A2A0A0C1828282A2A1C5C
:104EF000080800000022251515152A58545454227C
:104F000000000000000C1212120A76252911916E81
:104F1000000000060604030000000000000000007E
:104F20000000004020101008080808080810102091
:104F300040000002040808101010101010080804A7
:104F400002000000000008086B1C1C6B0808000031
:104F5000000000000000080808087F080808080092
:104F60000000000000000000000000000000060635
:104F700004030000000000000000FE00000000002C
:104F80000000000000000000000000000000060615
:104F90000000000080404020201010080804040297
:104FA00002000000001824424242424242422418B9
:104FB0000000000000080E08080808080808083E5D
:104FC00000000000003C4242422020100804427EC3
:104FD00000000000003C4242201820404042221CB9
:104FE0000000000000203028242422227E20207887
:104FF00000000000007E0202021A26404042221CED
:105000000000000000382402021A264242422418FE
:1050100000000000007E222210100808080808087E
:1050200000000000003C4242422418244242423C1C
:105030000000000000182442424264584040241CF2
:105040000000000000000000181800000000181800
:105050000000000000000000000800000000000840
:10506000080400000040201008040204081020403A
:1050700000000000000000007F0000007F00000032
:105080000000000000020408102040201008040264
:1050900000000000003C424246402010100018185A
:1050A00000000000001C225A555555552D42221C67
:1050B00000000000000808181414243C224242E7B3
:1050C00000000000001F2222221E22424242221F14
:1050D00000000000007C4242010101010142221C4B
:1050E00000000000001F2242424242424242221F70
:1050F00000000000003F4212121E12120242423F04
:1051000000000000003F4212121E121202020207AB
:1051100000000000003C2222010101712122221C1A
:105120000000000000E7424242427E42424242E723
:1051300000000000003E0808080808080808083EAB
:1051400000000000007C1010101010101010101043
:10515000110F0000007722120A0E0A121222227783
:105160000000000000070202020202020202427F67
:10517000000000000077363636362A2A2A2A2A6BA3
:105180000000000000E346464A4A5252526262471B
:1051900000000000001C2241414141414141221CCC
:1051A00000000000003F424242423E02020202076B
:1051B00000000000001C2241414141414D53321C7E
:1051C00060000000003F4242423E1212222242C7CB
:1051D00000000000007C4242020418204042423E8F
:1051E00000000000007F4908080808080808081C9B
:1051F0000000000000E74242424242424242423C3A
:105200000000000000E74242222424141418080879
:1052100000000000006B49494949555536222222B9
:105220000000000000E7422424181818242442E754
:105230000000000000772222141408080808081C47
:1052400000000000007E2120101008040442423FAC
:105250000000007808080808080808080808080876
:105260007800000002020404080808101020202022
:105270004040001E101010101010101010101010D0
:105280001E00003844000000000000000000000084
:10529000000000000000000000000000000000000E
:1052A00000FF0006080000000000000000000000F1
:1052B0000000000000000000003C4278444242FC34
:1052C0000000000000030202021A26424242261A8F
:1052D00000000000000000000038440202024438D0
:1052E000000000000060404040784442424264D8E0
:1052F0000000000000000000003C427E0202423C30
:105300000000000000F08808087E08080808083E31
:105310000000000000000000007C22221C023C4231
:10532000423C000000030202023A4642424242E787
:1053300000000000000C0C00000E08080808083EE1
:105340000000000000303000003820202020202005
:10535000221E0000000302020272120A16122277B5
:1053600000000000000E0808080808080808083EA9
:105370000000000000000000007F9292929292B71D
:105380000000000000000000003B4642424242E7AD
:105390000000000000000000003C42424242423C4B
:1053A0000000000000000000001B26424242221EB6
:1053B00002070000000000000078444242424478A6
:1053C00040E000000000000000774C040404041FCB
:1053D0000000000000000000007C42023C40423E11
:1053E0000000000000000008083E08080808083017
:1053F000000000000000000000634242424262DC04
:10540000000000000000000000E742242414080807
:10541000000000000000000000EB49495555222221
:105420000000000000000000007624181818246E08
:10543000000000000000000000E7422424141808C7
:105440000807000000000000007E22100808447ECB
:10545000000000C02020202020102020202020201C
:10546000C00010101010101010101010101010109C
:10547000101000060808080808100808080808089E
:1054800006000C32C2000000000000000000000016
:105490000000C9EE000027FC140414A48110420887
:1054A0004040104017FC2040E0E0215022482C46AC
:1054B00020400040DBDA11041124112411241124AE
:1054C000FD24112411241124112411241D24E1246C
:1054D000422402040404CAD00200010000007FFC40
:1054E0000100010001003FF82108210821082108DE
:1054F0002128211001000100C8AB0000000001803C
:1055000002400430180860061FF901000100010084
:105510003FF80100010001007FFEB6AF000000006F
:1055200000203E20007C002200227F221022102238
:1055300012221222224223423D82009CB5E7000043
:10554000010001001FF0610C410441047FFC410493
:10555000410441047FFC01000102010201FCD7D398
:10556000000000003FF80010006000800100008093
:105570007FFE0040004000200020002018400780EF
:10558000BCBC10201020102013FEFC201020102086
:1055900015FC18843088D0481050102010505188C5
:1055A0002606CAF501000120011001107FFC0380CE
:1055B0000540054009201110210841048102010025
:1055C00001000100D3D002000200FFFE040004002D
:1055D0000FF0081018102FF0481088100FF0081066
:1055E000081008500820CFDE00007BF84A08520857
:1055F00053F8620852084BF84A444A486A3052202D
:105600004210428843064200B9AB00800480048007
:105610000840084010202010420882060400044080
:10562000082010203FF010100000CBBE00003FF813
:10563000000800087FE8000800081F88108810880C
:10564000108810881F88108800280010BBB60080C2
:105650000080FC8004FC050449082A4014401040E6
:1056600028A024A045108110020804040802D3AD2C
:1056700000002080133C122402240224F22412246D
:10568000122412B4132812201020282047FE0000F4
:10569000C4FA0900090011FC320454489950114819
:1056A000124414441140108002005104511290120F
:1056B0000FF0B4BF00000020102013FE202026248D
:1056C0004A247A241224222423FC7C20002204224F
:1056D0007822003CC9AB0000000004000FF010204D
:1056E00020207FFC20842084208420843FF8200018
:1056F000200220021FFECCEE00000000204023FE0E
:10570000204079FC220423FC220423FC220423FCF5
:105710003A0465FA01980204B3E4000001000100B4
:105720007FFE02200410040808043FFC04420440E9
:105730000440044208421042607EBED800000000CF
:10574000207E3E804880488048FE48827F820882D2
:105750000C8214FA12842280218040FED0CE0000F8
:1057600000007F842208223022C0220222047FC847
:10577000223022C222022204220822304040BBAD45
:10578000000000007FFE00000FF01110111011103A
:1057900051125FF25112511251124FF240027FFC2E
:1057A000D4B2000000007FFE47E24812481247E2F0
:1057B0004FF2501250125112511242924472580A32
:1057C0003FFCCDBC000000003FFE440247F24C22EB
:1057D0005362408243625E1A41824062430240C289
:1057E00040223FFCC6AC000000402040204020404A
:1057F0003FFE2000200020003FE02010201020105D
:10580000201040104010CFD4000000003FFC2004C6
:1058100020043FFC200420041FF8244414481448AA
:1058200014480C5004407FFECABE000000003FFC3C
:105830000000000000007FFE0080089008881088AB
:1058400010842084208240820780B2CB0000002098
:1058500008207FFE002000783F881108089009206A
:105860007FFE018003400D30310C4002B5A50000E1
:105870000010081004203FF8210421043FFC2104FB
:1058800021043FF801007FFE010001000100D6D095
:1058900000000100010001003FFC2104210421045B
:1058A0002104210421043FFC01000100010001004A
:1058B000D3A20000000008207FFE0820092001007C
:1058C0003FF82108210821081FF4014002200C1094
:1058D000700ECEC400000100010000803F7C081063
:1058E00008100410042002200240018001800260A0
:1058F0001C18E006D7DB00000000102011FE220279
:10590000220249FC5800300013FE25287924012486
:105910000D24722202A2BACF0000000001800240D2
:105920000430180860061FF800001FF82004200447
:105930002004200420041FF8C1C100000100010060
:105940007FFE00003FF820083FF83FF8400647C2BE
:105950004824082008221022603EB6C8000000003B
:1059600000803FFE44105FFC4410441043F04000B0
:105970005FF84408423041C04360BC1EB2E2000000
:10598000000067C2145205520552C55225520552F5
:10599000055215521752228222424442483ECAD42E
:1059A000000000002014101417FE001200106010F8
:1059B00013F0109010901090149214EA1F0A000631
:1059C000B3CC0000000019FE7202120212027DFC2C
:1059D00018001BFE3420502053FE102010201020F1
:1059E00013FED0F20000000000803FFE400047FCA4
:1059F0004208413040C05FFE40424042404440487F
:105A000040404440B5F70000000023FE122202FA95
:105A10000222E22212FE1272128A128A128A16BA26
:105A20001A421202040EB9E200000100010411083A
:105A30000908091009207FFE044004400440044086
:105A4000084208421042607CB0E60000000048FEB8
:105A50004900490049007EFE41824144794445287D
:105A600045284510452846440382C8A80000100078
:105A7000100013FC7D041104190418843488504864
:105A8000505010201050108813041402CBF900005D
:105A900000003F7C204020403E40227E22442244A1
:105AA00022443E8420842084408441044204C6C1B0
:105AB00000003FF8200820083FF8241022202FF88B
:105AC000222022203FFC2220422044208420082043
:105AD000C4BB04407FFC04401FF010101FF01010E6
