:020000040800F2
:100000009014002001050008FD010008FF01000810
:10001000EB020008EF020008F302000800000000F5
:10002000000000000000000000000000F7020008CF
:10003000F902000800000000FB020008FD020008B1
:100040001B0500081B0500081B0500081B05000810
:100050001B0500081B0500081B0500081B05000800
:10006000030200081B0500081B0500081B0500080B
:100070001B0500081B0500081B0500081B050008E0
:100080001B0500081B0500081B0500081B050008D0
:100090001B0500081B0500081B050008AD640008CF
:1000A0001B0500081B0500081B0500081B050008B0
:1000B000015A0008DF0200081B0500081B050008A4
:1000C0001B0500081B0500081B0500081B05000890
:1000D0001B0500084F020008890200081B050008E4
:1000E0001B0500081B0500081B0500081B05000870
:1000F0001B0500081B0500081B0500081B05000860
:100100001B0500081B0500081B0500081B0500084F
:100110001B0500081B0500081B0500081B0500083F
:100120001B0500081B0500081B0500081B0500082F
:10013000DFF80CD006F002FE004800474501000839
:100140009014002000F05BF9482002F07AFF04F0E0
:10015000CDF802F0CDFE03F05BF802F0A1FF02F053
:10016000F9FF0021084602F01CFA05F0B5FA04F088
:100170005EFA04F0C6FB05F0F0FC05F0E5FE06F0C3
:10018000C2F905F0D8FE2AE005F080FF1448007897
:1001900008B106F0D2F91348007800F0010040B130
:1001A0001048007820F001000E490870002006F089
:1001B000FFF805F040FB0546002405E0295D0AA094
:1001C00006F000FE601CC4B20C2CF7DB284604F0DD
:1001D0004BFC03F010F90646304604F0F4F9D3E77F
:1001E00063000020620000200D0A5374617465767C
:1001F000616C75653A25640D0A000000704700BF08
:10020000FEE710B5042000F0F3FF01281ED101F035
:1002100000F80A2002F0F9FE0421394800F075FACE
:1002200068B90121374800F07DFA20B9012135482D
:1002300000F085FA03E00121324800F082FA00BFA5
:1002400004212F4800F061FA0028F9D010BD10B544
:1002500040212D4800F09DFE40F225512A4800F033
:10026000A1FE80B1284800F01DFE2849087008460C
:100270000178254800F012FE00BF8021224800F0DE
:100280007BFE0028F9D010BD10B54021204800F0B9
:1002900080FE40F225511E4800F084FEF0B11C485B
:1002A00000F000FE1B49087008211B4800F047FAC7
:1002B000012002F0AAFE17480178154800F0EEFD73
:1002C00000BF8021124800F057FE0028F9D002201C
:1002D00002F09BFE0821104800F033FA10BD10B563
:1002E00001210E4801F0A8FE10BD00BFFEE700BFCF
:1002F000FEE700BFFEE77047704770477047000099
:1003000000180140001001400038014000000020AA
:100310000044004001000020002001400004004093
:100320000CB50020019000906C48006840F48030CB
:100330006A49086000BF6948006800F40030009016
:100340000198401C0190009818B90198B0F5A06F71
:10035000F1D16248006800F4003010B10120009033
:1003600001E0002000900098012843D15C4800681B
:1003700040F010005A4908600846006820F0030069
:1003800008600846006840F0020008605348406872
:10039000524948600846406848600846406840F452
:1003A000806048600846406820F47C104860084639
:1003B000406840F4E81048600846006840F08070EB
:1003C000086000BF4548006800F000700028F9D0C0
:1003D0004248406820F003004049486008464068B1
:1003E00040F00200486000BF3C48406800F00C004C
:1003F0000828F9D10CBD10B5FFF792FF10BD10B55C
:100400003648006840F001003449086008464068FA
:10041000344908403149486008460068324908407C
:100420002E4908600846006820F4802008600846CD
:10043000406820F4FE0048604FF41F008860FFF71A
:10044000DAFF4FF000602949086010BD10B50021A7
:1004500000200022214B5B6803F00C0121B104292C
:1004600006D0082928D107E0214B224C236027E041
:100470001F4B204C236023E0184B5B6803F4701083
:10048000164B5B6803F48032022303EB904022B9E1
:10049000194B4343174C23600DE0104B5B6803F48A
:1004A000003323B1144B4343124C236003E0104B41
:1004B0004343104C236003E00D4B0E4C236000BF00
:1004C00000BF064B5B68C3F303130C4CE15C094BA4
:1004D0001B68CB40074C236010BD00000010024099
:1004E000002002400000FFF8FFFFF6FE08ED00E0EC
:1004F00000127A000400002000093D0008000020DE
:100500000648804706480047FEE7FEE7FEE7FEE7AD
:10051000FEE7FEE7FEE7FEE7FEE7FEE7FF03000873
:100520003101000810B50446CC48844208D10121AD
:10053000042000F02DFB0021042000F029FB46E000
:10054000C748844208D10121082000F021FB002186
:10055000082000F01DFB3AE0C248844208D1012186
:10056000102000F015FB0021102000F011FB2EE000
:10057000BD48844208D10121202000F009FB002160
:10058000202000F005FB22E0B848844208D1012178
:10059000402000F0FDFA0021402000F0F9FA16E0BA
:1005A000B348844208D10121802000F0F1FA0021F3
:1005B000802000F0EDFA0AE0AE48844207D1012124
:1005C000801500F0E5FA0021A01500F0E1FA10BD59
:1005D00010B50121084600F0DBFA0021012000F0EF
:1005E000D7FA10BD2DE9F041024600250026002073
:1005F00000230024002791F803C00CF00F0591F8A8
:1006000003C00CF0100CBCF1000F03D091F802C035
:100610004CEA050591F800C0BCF1000F31D0146818
:1006200000202BE04FF0010C0CFA00F3B1F800C0F1
:100630000CEA03069E4220D183004FF00F0C0CFA07
:1006400003F7BC4305FA03FC4CEA040491F803C029
:10065000BCF1280F06D14FF0010C0CFA00FCC2F8D7
:1006600014C00AE091F803C0BCF1480F05D14FF067
:10067000010C0CFA00FCC2F810C0401C0828D1D3B1
:100680001460B1F800C0BCF1FF0F34DD54680020E5
:100690002EE000F1080C4FF0010808FA0CF3B1F855
:1006A00000C00CEA03069E4221D183004FF00F0CDC
:1006B0000CFA03F7BC4305FA03FC4CEA040491F876
:1006C00003C0BCF1280F05D100F1080C08FA0CF8A2
:1006D000C2F8148091F803C0BCF1480F07D100F1B3
:1006E000080C4FF0010808FA0CF8C2F81080401C02
:1006F0000828CED35460BDE8F0814FF6FF71018029
:10070000022181700421C170704702460020936865
:100710000B400BB1012000E00020704701468868C3
:1007200080B2704702460020D3680B400BB1012015
:1007300000E0002070470146C86880B27047016140
:100740007047416170470AB1016100E04161704743
:10075000C16070474FF480320A43826181618261D7
:1007600082698269704702460020434B18684FF641
:100770008073184040EA021008433F4B18607047EE
:100780003E49C8617047F0B50A46002300240021A5
:10079000002500F00046B6F1004F02D1364EF16957
:1007A00001E0354E7168C0F3034583B200F4401692
:1007B000B6F5401F08D121F070612F4E766826F003
:1007C00070662D4F7E6012E000F48016B6F5801F33
:1007D00006D1032606FA05F4A14341F0706106E054
:1007E000460D360103FA06F6B14341F0706122B1BD
:1007F000460D360103FA06F6314300F00046B6F125
:10080000004F02D11C4EF16101E01B4E7160F0BD42
:1008100030B500228B071C0F0F2303FA04F2164B8E
:1008200008338C1053F824309343134C08348D1044
:1008300044F8253023468C1053F824308C07240FBD
:1008400000FA04F423430C4C08348D1044F825308E
:1008500030BD0A49DC3108607047000000080140E3
:10086000000C01400010014000140140001801403C
:10087000001C014000200140000001400000204217
:10088000DF48006840F00100DD4908600846406824
:10089000DC490840DA49486008460068DA490840FF
:1008A000D74908600846006820F4802008600846A0
:1008B000406820F4FE0048604FF41F0088607047D5
:1008C000CF49096821F48031CD4A11601146096889
:1008D00021F480211160B0F5803F03D0B0F5802F66
:1008E0000ED106E0C649096841F48031C44A11605E
:1008F00007E0C349096841F4A021C14A116000E042
:1009000000BF00BF704710B5014600220023002041
:100910004A11012A02D1BA4C236806E0022A02D108
:10092000B74C236A01E0B64C636A01F01F02012450
:1009300094401C400CB1012000E0002010BD38B5EF
:10094000002000900024002500BF3120FFF7DBFFCE
:1009500005460098401C00900098B0F5A06F01D0AB
:10096000002DF2D03120FFF7CEFF08B1012400E0C6
:100970000024204638BD01460020A14A106820F01E
:10098000F80040EAC10010607047A0490860704755
:10099000024600209A4B586820F47C1042EA01037A
:1009A0001843974B5860704798490866704701464E
:1009B0000020934A506820F00300084350607047BD
:1009C0008F48406800F00C007047014600208C4AB8
:1009D000506820F0F0000843506070470146002046
:1009E000874A506820F4E060084350607047014631
:1009F0000020834A506820F4605040EAC1005060F3
:100A0000704729B17E4A527A02437D4B5A7204E004
:100A10007B4A527A82437A4B5A7270477B49D8316B
:100A20000860704701460020754A506820F4404035
:100A30000843506070470021714A20321170704A9B
:100A400082F82010012802D004280AD104E00121F4
:100A50006B4A2032117005E00521694A203211707D
:100A600000E000BF00BF70476949086070476449F3
:100A7000096A0143624A1162704765494439086056
:100A8000704730B500210022002400235C4D6D68C2
:100A900005F00C0121B1042905D0082923D105E076
:100AA0005C4D056022E05B4D05601FE0544D6D68B4
:100AB00005F47012524D6D6805F48034022505EB83
:100AC00092421CB9544D554305600BE04C4D6D6886
:100AD00005F400351DB1504D5543056002E04D4D04
:100AE0005543056002E04B4D056000BF00BF444D1B
:100AF0006D6805F0F0010909484D6B5C0568DD4043
:100B000045603F4D6D6805F4E061090A434D6B5C3B
:100B10004568DD4085603A4D6D6805F46051C90A4D
:100B20003E4D6B5C4568DD40C560354D6D6805F434
:100B30004041890B3A4D6B5CC568B5FBF3F5056127
:100B400030BD29B12E4A526902432D4B5A6104E04F
:100B50002B4A526982432A4B5A61704729B1284A6D
:100B600092690243264B9A6104E0254A92698243C6
:100B7000234B9A61704729B1214AD2690243204B25
:100B8000DA6104E01E4AD26982431D4BDA61704784
:100B900029B11B4AD2680243194BDA6004E0184AB3
:100BA000D2688243164BDA60704729B1144A126941
:100BB0000243134B1A6104E0114A12698243104B3D
:100BC0001A61704712494039086070470F49C8647C
:100BD00070470B49C87170470948406A40F08070FF
:100BE00007494862704701460020054A92680A405A
:100BF0000AB1012000E00020704701498872704767
:100C0000001002400000FFF8FFFFF6FE0000424225
:100C10008004424200127A0000093D0018000020C2
:100C20002800002010B50446FB48844209D1012168
:100C30008803FFF7ADFF00214FF48040FFF7A8FFC6
:100C400032E0F648844209D101214804FFF7ADFFA4
:100C500000214FF40030FFF7A8FF25E0F048844260
:100C600009D101218804FFF7A0FF00214FF4802063
:100C7000FFF79BFF18E0EB48844209D10121C8042B
:100C8000FFF793FF00214FF40020FFF78EFF0BE0EA
:100C9000E548844208D101210805FFF786FF0021BD
:100CA0004FF48010FFF781FF10BD2DE9F04786B0AB
:100CB00005460E460024A24600BFA1460027B08983
:100CC00000B100BF2F462C8A4CF6FF700440F0881C
:100CD00004432C82AC894EF6F3100440B08831896D
:100CE0000843718908430443AC81AC8A4FF6FF4046
:100CF0000440B0890443AC8201A8FFF7C2FEC64895
:100D0000874202D1DDF810A001E0DDF80CA0A8892F
:100D100000F4004040B10AEBCA0000EB0A10316851
:100D20004900B0FBF1F807E00AEBCA0000EB0A103B
:100D300031688900B0FBF1F86420B8FBF0F00401E1
:100D40002009642101FB1089A88900F4004040B10A
:100D5000322000EBC900B0FBF1F000F007000443C3
:100D600008E0322000EB09106421B0FBF1F000F044
:100D70000F0004432C8106B0BDE8F0874FF41651F4
:100D8000016000218180C18001810C21418100210D
:100D90008181704710B502460020108A4FF2FF0390
:100DA00018400B884C8823438C882343CC882343EA
:100DB0001843108210BD0021018041808180C180D4
:100DC000704721B1828942F40052828104E0828915
:100DD0004DF6FF731A4082817047F0B50346002438
:100DE00000260025002040F66A17B94200D100BF56
:100DF0001846C1F3421401F01F06012707FA06F551
:100E0000012C01D10C3004E0022C01D1103000E0A3
:100E100014301AB107682F43076002E00768AF4338
:100E20000760F0BD1AB1838A0B43838202E0838A94
:100E30008B4383827047028A4FF6F0731A40028216
:100E4000028A0A430282704782894FF2FF731A4076
:100E5000828182890A438281704721B1828942F06E
:100E60000202828104E082894FF6FD731A4082817A
:100E70007047028A4FF6DF731A400282028A0A43E1
:100E80000282704721B1028A42F48042028204E069
:100E9000028A4BF6FF731A4002827047C1F30802C0
:100EA0008280704701468888C0F3080070478189B6
:100EB00041F0010181817047028BD2B20283028B23
:100EC00042EA012202837047028B02F47F420283CE
:100ED000028B0A430283704721B1828A42F02002CA
:100EE000828204E0828A4FF6DF731A408282704762
:100EF00021B1828A42F01002828204E0828A4FF697
:100F0000EF731A408282704721B1828A42F0080250
:100F1000828204E0828A4FF6F7731A408282704719
:100F200021B1828942F40042828103E08289C2F3C6
:100F30000E028281704721B1828A42F4006282826D
:100F400004E0828A4FF2FF731A4082827047828ADD
:100F50004FF6FB731A408282828A0A43828270476C
:100F600021B1828A42F00202828204E0828A4FF634
:100F7000FD731A408282704702460020B1F5007F5F
:100F800000D100BF13880B400BB1012000E000200E
:100F9000704701F40072B2F5007F00D100BFCA4370
:100FA0000280704770B5024600240023002500200F
:100FB00040F66A16B14200D100BFC1F3421501F0FC
:100FC0001F03012606FA03F3012D02D1968933404F
:100FD00006E0022D02D1168A334001E0968A3340A2
:100FE0000C12012606FA04F41688344013B10CB131
:100FF000012000E0002070BD10B50022002340F663
:101000006A14A14200D100BF0A1201249440A3B285
:10101000DC43048010BD0000003801400044004063
:1010200000480040004C004000500040314901435E
:10103000314A1160704770B5002100230F22C47837
:1010400004B32D4C246804F4E064C4F5E064210A80
:10105000C1F10403CA40447804FA03F184781440CF
:1010600021430901254C0678A155047804F01F0599
:101070000124AC4005786D11AD0005F1E025C5F8FF
:10108000004109E0047804F01F050124AC401C4D28
:101090000678761145F8264070BD1A4A0A40024388
:1010A000154B1B1F1A60704739B1134A121D126885
:1010B0000243114B1B1D1A6006E00F4A121D1268F5
:1010C00082430D4B1B1D1A607047042808D14FF056
:1010D000E021096941F004014FF0E022116107E0CD
:1010E0004FF0E021096921F004014FF0E022116185
:1010F000704700000000FA050CED00E000E400E09D
:1011000080E100E080FFFF1F002044490860091DC6
:101110000860091D0860091D086041483F491431F5
:101120000860704700213D498279002A3AD00A467A
:10113000126803689A430B461A600A1D1268036816
:101140009A430B1D1A60027911440A6803681A4316
:101150000A60324A0832126803689A432F4B0833F8
:101160001A601A1D126803689A432C4B0C331A60DC
:101170004279102A0ED11A1F126803681A43274BAE
:1011800008331A601A1D126803681A43234B0C3384
:101190001A600DE02149427911440A6803681A4334
:1011A0000A6005E0027911440A6803689A430A60FC
:1011B00070470021016001710C2141710021817192
:1011C00070471649103109680143144A1032116002
:1011D000704701460020114A143212680A400AB1D1
:1011E000012000E0002070470C491431086070476E
:1011F000014600200022094B1B6803EA0102074B4D
:1012000014331B680B4013B10AB1012000E0002029
:101210007047024914310860704700000004014023
:10122000FFFF0F0010B50446FE48844208D101219B
:10123000C014FFF7ADFC0021E014FFF7A9FCC4E0E7
:10124000B4F1804F08D101210846FFF7AEFC002120
:101250000120FFF7AAFCB8E0F348844208D101213D
:101260000220FFF7A2FC00210220FFF79EFCACE069
:10127000EE48844208D101210420FFF796FC0021AA
:101280000420FFF792FCA0E0E948844208D1012144
:101290000820FFF78AFC00210820FFF786FC94E075
:1012A000E448844208D101211020FFF77EFC002190
:1012B0001020FFF77AFC88E0DF48844208D1012142
:1012C0002020FFF772FC00212020FFF76EFC7CE05D
:1012D000DA48844208D101214014FFF759FC00216B
:1012E0006014FFF755FC70E0D548844209D1012114
:1012F000C804FFF74DFC00214FF40020FFF748FC25
:1013000063E0D048844209D101210805FFF740FC81
:1013100000214FF48010FFF73BFC56E0CA4884429E
:1013200009D101214805FFF733FC00214FF40010DB
:10133000FFF72EFC49E0C548844208D10121402036
:10134000FFF733FC00214020FFF72FFC3DE0C048B1
:10135000844208D101218020FFF727FC0021802052
:10136000FFF723FC31E0BB48844208D101218015FE
:10137000FFF71BFC0021A015FFF717FC25E0B6487E
:10138000844209D101210804FFF702FC00214FF437
:101390008030FFF7FDFB18E0B048844209D10121FD
:1013A0004804FFF7F5FB00214FF40030FFF7F0FB96
:1013B0000BE0AB48844208D101218804FFF7E8FB29
:1013C00000214FF48020FFF7E3FB10BD00220288CC
:1013D000944B98420ED0994B98420BD0B0F1804F6D
:1013E00008D0914B984205D0904B984202D0904B38
:1013F000984204D14FF68F731A404B881A438D4B95
:10140000984207D08C4B984204D04FF6FF431A40C5
:10141000CB881A4302808B8883850B880385814B98
:1014200098420BD0854B984208D08B4B984205D000
:101430008A4B984202D08A4B984201D10B7A03869C
:1014400001238382704770B5002400220023058C9D
:101450004FF6FE7635400584028C8388048B4FF668
:101460008F752C40B51E2C400D882C43751E2A40CC
:101470000D892A434D882A436A4DA8420BD06F4DEF
:10148000A84208D0744DA84205D0744DA84202D09D
:10149000734DA84213D14FF6F7752A404D892A4360
:1014A0004FF6FB752A408D882A434FF6FF652B4087
:1014B0004FF6FF552B408D892B43CD892B438380DD
:1014C0000483CD888586028470BD70B50024002217
:1014D0000023058C4FF6EF7635400584028C838817
:1014E000048B48F6FF752C404FF6FF452C400D88C5
:1014F0004FF6FF7606EA05252C434FF6DF752A40A6
:101500000D8906EA05152A434D8806EA05152A4382
:10151000444DA84202D0494DA8421DD14FF67F75D7
:101520002A404D894FF6FF7606EA05152A434FF605
:10153000BF752A408D8806EA05152A434FF6FF3508
:101540002B404FF2FF752B408D8906EA85052B4312
:10155000CD8906EA85052B4383800483CD880587E2
:10156000028470BD70B5002400220023058C4FF664
:10157000FF6635400584028C8388848B4FF68F7517
:101580002C404FF6FC752C400D882C434FF6FF5530
:101590002A400D894FF6FF7606EA05252A434D8835
:1015A00006EA05252A431F4DA84202D0234DA84232
:1015B0001DD14FF2FF752A404D894FF6FF7606EA9E
:1015C00005252A434FF6FF352A408D8806EA052572
:1015D0002A434EF6FF752B404DF6FF752B408D8943
:1015E00006EA05152B43CD8906EA05152B438380B2
:1015F0008483CD888587028470BD70B50022002366
:101600000024058C4EF6FF7635400584038C8488D3
:10161000828B48F6FF752A404FF6FF452A400D8819
:1016200020E00000002C01400004004000080040C1
:10163000000C004000100040001400400034014045
:10164000004C01400050014000540140001800408F
:10165000001C0040002000400040014000440140C8
:10166000004801404FF6FF7606EA05252A434DF66D
:10167000FF752B400D8906EA05352B434D8806EA98
:1016800005352B43FA4DA84202D0FA4DA84208D1A5
:101690004BF6FF752C408D894FF6FF7606EA8515CF
:1016A0002C4384808283CD88A0F84050038470BD91
:1016B000828B4FF2FF331A408283828B4FF6FF7387
:1016C00003EA01231A4382837047F0B50C4615469E
:1016D000002200210026078C4EF6FF7C07EA0C074B
:1016E0000784828B018C4FF6FF7707EA043640F6B9
:1016F000FF473A404FF6FF7707EA05273A434FF690
:10170000FF7707EA03373A43D94FB8420ED0D94F93
:10171000B8420BD0B0F1804F08D0D74FB84205D0B7
:10172000D64FB84202D0D64FB84206D14DF6FF7719
:10173000394046F48057394305E047F6FF573940B2
:1017400044F48057394382830184F0BD828B4FF685
:10175000F3731A408283828B0A4382837047F0B509
:101760000C461546002200210026078C4FF6FF6C20
:1017700007EA0C070784828B018C4FF6FF7707EA94
:1017800004264FF60C773A404FF6FF7707EA031727
:101790002F433A43B64FB8420ED0B64FB8420BD0A3
:1017A000B0F1804F08D0B44FB84205D0B34FB84223
:1017B00002D0B34FB84206D14FF6FF57394046F436
:1017C0008077394305E04FF2FF57394044F4807782
:1017D000394382830184F0BD028B4FF2FF331A40FC
:1017E0000283028B4FF6FF7303EA01231A4302833D
:1017F0007047F0B50C461546002200210026078CE4
:101800004FF6EF7C07EA0C070784028B018C4FF63A
:10181000FF7707EA041640F6FF473A404FF6FF7796
:1018200007EA03373A434FF6FF7707EA05273A43BB
:101830008F4FB8420ED08F4FB8420BD0B0F1804FCF
:1018400008D08D4FB84205D08C4FB84202D08C4F93
:10185000B84206D14FF6DF77394046F010073943DA
:1018600005E04FF65F77394044F0100739430283B3
:101870000184F0BD028B4FF6F3731A400283028B92
:101880000A4302837047F0B50C461546002200213A
:10189000068C4FF6FE773E400684028B018C4FF695
:1018A0000C7632407E1C06EA03162E433243704EFD
:1018B000B0420ED06F4EB0420BD0B0F1804F08D086
:1018C0006D4EB04205D06D4EB04202D06C4EB0426B
:1018D00006D14FF6FD76314044F00106314305E074
:1018E0004FF6F576314044F001063143028301841E
:1018F000F0BD70B505460C465D4885420ED05D488A
:1019000085420BD0B5F1804F08D05B48854205D0A9
:101910005A48854202D05A48854200D100E000BFB3
:10192000208850B92389A28861882846FFF7ABFF39
:10193000E1882846FFF79EFF25E0208804280AD189
:101940002389A28861882846FFF753FFE18828464B
:10195000FFF742FF17E0208808280AD12389A288D0
:1019600061882846FFF7FBFEE1882846FFF7EEFE78
:1019700009E02389A28861882846FFF7A6FEE1884E
:101980002846FFF795FE70BD2DE9F04105460C464F
:1019900000260127608808B9022600E00026A088FA
:1019A000012801D1022700E001272088A0B923895E
:1019B000A28861882846FFF766FFE1882846FFF77E
:1019C00059FF23893A4631462846FFF712FFE1883E
:1019D0002846FFF701FF13E02389A2886188284683
:1019E000FFF707FFE1882846FFF7F6FE23893A460E
:1019F00031462846FFF747FFE1882846FFF73AFFC0
:101A0000BDE8F0810A884B881A438B881A43CB883B
:101A10001A430B891A434B891A438B891A43A0F83E
:101A2000442070474FF6FF71818000210180C18002
:101A30004180017270470021018041808180C18016
:101A4000018141818181C1817047002101804180F4
:101A5000012181800021C180018170470021018026
:101A600041808180C1800181418181817047000076
:101A7000002C0140003401400004004000080040F8
:101A8000000C004021B1028842F00102028004E013
:101A900002884FF6FE731A400280704731B1B0F8E9
:101AA000442042F40042A0F8442005E0B0F844206D
:101AB000C2F30E02A0F8442070471AB183890B4389
:101AC000838102E083898B438381704781827047E1
:101AD00041EA0203A0F8483070471AB183890B43EA
:101AE000838102E083898B438381704701894FF6AC
:101AF000F8721140018170470A46002101894FF6B2
:101B00008F73194011430181704730B504460D466B
:101B100029462046FFF7F0FF208940F0070020818A
:101B200030BD2DE9F04104460D4616461F46602D96
:101B300006D13B46012231462046FFF75AFE05E01A
:101B40003B46012231462046FFF79DFE29462046AE
:101B5000FFF7D2FF208940F007002081BDE8F08127
:101B600030B50C4600210189C9B24FF6FF7505EA70
:101B70000325154325432943018130BD2DE9F0415B
:101B800005460E4617469846002443463A463146D7
:101B90002846FFF7E5FF2C894FF6F870044044F023
:101BA00007044FF68F70044044F070042C81BDE8A8
:101BB000F081F0B504460D4616461F463B463246B8
:101BC00029462046FFF7CCFF208940F48040208141
:101BD000F0BD0185828270470A46002101884FF6D8
:101BE0008F731940114301807047F0B50C461546BC
:101BF0001E460021002200230189028B038C4FF630
:101C0000F877394021434FF6FC473A4040F201173C
:101C10003A434FF6DD773B404FF6FF7707EA06176A
:101C20002F433B43018102830384F0BD0A46002118
:101C3000018B4FF68F7319401143018370470A4699
:101C40000021018B48F6FF7319404FF6FF7303EA3A
:101C500002231943018370470A460021818B4FF606
:101C60008F7319401143818370470A460021818B8D
:101C700048F6FF7319404FF6FF7303EA0223194336
:101C80008183704721B1028842F08002028004E023
:101C900002884FF67F731A400280704721B1828814
:101CA00042F00402828004E082884FF6FB731A40FF
:101CB0008280704721B1828842F00802828004E06D
:101CC00082884FF6F7731A408280704721B182886C
:101CD00042F00102828004E082884FF6FE731A40CF
:101CE000828070470A460021018B4FF6F773194036
:101CF0001143018370470A460021018B4FF2FF73A5
:101D000019404FF6FF7303EA02231943018370471A
:101D10000A460021818B4FF6F773194011438183E6
:101D200070470A460021818B4FF2FF7319404FF62E
:101D3000FF7303EA02231943818370470A46002197
:101D4000018B4FF6FB7319401143018370470A461C
:101D50000021018B4FF6FF3319404FF6FF7303EA62
:101D600002231943018370470A460021818B4FF6F5
:101D7000FB7319401143818370470A460021818B10
:101D80004FF6FF3319404FF6FF7303EA022319435E
:101D9000818370470A460021018B4FF67F731940FB
:101DA0001143018370470A460021018BC1F30E01E4
:101DB0004FF6FF7303EA02231943018370470A4673
:101DC0000021818B4FF67F73194011438183704747
:101DD0000A460021818BC1F30E014FF6FF7303EA1F
:101DE00002231943818370470A460021018C4FF674
:101DF000FD7319401143018470470A460021018C8C
:101E00004FF6F77319401143018470470A460021C9
:101E1000018C4FF6DF7319404FF6FF7303EA02138C
:101E20001943018470470A460021018C4FF67F73E5
:101E300019404FF6FF7303EA0213194301847047F8
:101E40000A460021018C4FF6FF5319404FF6FF73ED
:101E500003EA02231943018470470A460021018CDA
:101E60004FF2FF7319404FF6FF7303EA0223194341
:101E7000018470470A460021018C4DF6FF7319401A
:101E80004FF6FF7303EA023319430184704730B5FC
:101E9000002301248C40A3B2048C9C430484048C52
:101EA00002FA01F5ADB22C43048430BD30B50023F5
:101EB00004248C40A3B2048C9C430484048C02FA56
:101EC00001F5ADB22C43048430BD70B5034600204B
:101ED00000241846183001258D40ACB21D8CA54356
:101EE0001D8409B1082909D100EB6100056825F0BE
:101EF000700505600568154305600EE00D1FC5F30C
:101F00004E052844056825F4E045056005684FF650
:101F1000FF7606EA02263543056070BD21B10288CE
:101F200042F00202028004E002884FF6FD731A407C
:101F30000280704721B1028842F00402028004E06E
:101F400002884FF6FB731A400280704721B18288E5
:101F500042F08002828004E082884FF67F731A404C
:101F60008280704702884FF6F7731A400280028819
:101F70000A430280704782884FF68F731A4082802E
:101F800082880A438280704702894FF6F8731A40AC
:101F9000028102890A430281704702894FF67F73EA
:101FA0001A40028102890A43028170478184704786
:101FB00081857047818670470187704781877047A8
:101FC000A0F84010704702884FF6FF431A40028085
:101FD00002880A43028070470146888E7047014696
:101FE000088F70470146888F70470146B1F840005E
:101FF00070470146888C70470146088D704702463D
:102000000020138A0B400BB1012000E00020704734
:10201000CA430282704730B50246002000230024E4
:10202000158A05EA0103958905EA010413B10CB18B
:10203000012000E0002030BDCA430282704700004A
:1020400010B50446FA48844208D101214015FEF734
:102050009FFD00216015FEF79BFD17E0F5488442C7
:1020600008D101210015FEF793FD00212015FEF790
:102070008FFD0BE0F048844208D10121C803FEF730
:1020800087FD00214FF40040FEF782FD10BD30B502
:102090000246002000235068E84C20400D790C686F
:1020A00044EA0524204350609068E54C2040D1E983
:1020B00002542C434D7944EA450420439060D06A91
:1020C00020F470000C7C641EE4B2234340EA035009
:1020D000D06230BD00210160017141718160C16039
:1020E00001210174704721B1826842F001028260CF
:1020F00003E0826822F001028260704721B18268A9
:1021000042F48072826003E0826822F4807282600E
:10211000704710B50023CBB21AB144681C43446029
:1021200002E044689C43446010BD816841F00801AE
:1021300081607047014600208A6802F008020AB1F7
:10214000012000E000207047816841F004018160B7
:102150007047014600208A6802F004020AB101209B
:1021600000E00020704721B1826842F4A002826042
:1021700003E0826822F4A0028260704701460020DA
:102180008A6802F480020AB1012000E00020704752
:1021900010B50A4600210023416821F46041531E16
:1021A00041EA4331416010BD21B1426842F400620E
:1021B000426003E0426822F4006242607047F0B57A
:1021C00004460D4600200021092D11DDE068A5F12F
:1021D0000A0606EB4607072606FA07F18843A5F12B
:1021E0000A0606EB460603FA06F10843E0600CE037
:1021F000206905EB4507072606FA07F1884305EB3A
:10220000450603FA06F108432061072A0FDA606BDE
:10221000561E06EB86071F2606FA07F18843561E50
:1022200006EB860605FA06F10843606322E00D2AF4
:102230000FDA206BD61F06EB86071F2606FA07F17A
:102240008843D61F06EB860605FA06F1084320638D
:1022500010E0E06AA2F10D0606EB86071F2606FADB
:1022600007F18843A2F10D0606EB860605FA06F192
:102270000843E062F0BD21B1826842F480128260BE
:1022800003E0826822F48012826070470146C86CC5
:1022900080B2704766484C300068704721B1426890
:1022A00042F48062426003E0426822F4806242604D
:1022B000704721B1426842F48052426003E04268B4
:1022C00022F48052426070470A460021816821F45E
:1022D000E04111438160704721B1826842F40042BD
:1022E000826003E0826822F400428260704721B17C
:1022F000826842F40212826003E0826822F40212D1
:1023000082607047014600208A6802F400120AB118
:10231000012000E000207047F0B50446154600207B
:1023200000220026092911DDE068A1F10A0707EB68
:10233000470C072707FA0CF29043A1F10A0707EBB5
:10234000470703FA07F21043E0600CE0206901EB55
:10235000410C072707FA0CF2904301EB410703FAFF
:1023600007F210432061A06BC0F30156EF1C06F189
:10237000010CA7EB0C0707EB870C1F2707FA0CF2E1
:102380009043EF1C06F1010CA7EB0C0707EB870746
:1023900001FA07F21043A063F0BD10B50A46002110
:1023A0000023816B21F44011531E41EA03518163E4
:1023B00010BD08B5002300930090009B0B440093D0
:1023C000009B1A6008BD08B50246002000900092EC
:1023D00001F12800009B184400900098006880B22A
:1023E00008BD0A4600214168164B1940114341605F
:1023F00070474162826270470A460021416821F0BD
:102400001F0111434160704740B109490831096813
:1024100041F40001064A0832116007E0044908311E
:10242000096821F40001024A083211607047000077
:102430000024014000280140003C0140FFFEF0FF65
:10244000FDF7F1FFFFFD3FFF0246002013680B4040
:102450000BB1012000E000207047CA4302607047C2
:1024600070B502460020002300240B125568CEB23E
:1024700005EA060415681D4015B10CB1012000E005
:10248000002070BD00220A12D34303607047000091
:1024900010B501214807FEF788FB00214FF00050DE
:1024A000FEF783FB10BD30B5002200235A4C226892
:1024B00040F6FE748440A243D1E900452C438D6868
:1024C0002C43CD6844EA050303FA00F42243524C3E
:1024D000226030BD0021016041608160C1607047B1
:1024E00039B14D4A1268012383401A434A4B1A609E
:1024F00006E0494A1268012383409A43464B1A601A
:10250000704741B1444A12684FF4805383401A43E4
:10251000414B1A6007E0404A12684FF480538340F1
:102520009A433D4B1A60704710B551B13A4A121D9B
:10253000126804090123A3401A43374B1B1D1A607C
:1025400009E0354A121D126804090123A3409A4389
:10255000314B1B1D1A6010BD40B12F49091D096880
:1025600041F003012C4A121D116007E02A49091DA0
:10257000096821F00301284A121D1160704710B547
:102580003AB1254B1B6801FA00F42343224C236027
:1025900006E0214B1B6801FA00F4A3431E4C2360A4
:1025A00010BD08B5002200921B4A009200F10802FB
:1025B000009B1A440092009A116008BD08B50022E1
:1025C0000092154A009200F11402009B1A440092F6
:1025D000009A116008BD30B500240023082802D1FC
:1025E00042EA012401E042EA01440B4B00F12005DC
:1025F0002B441C6030BD08B5014600200090064801
:1026000000902C2000EB9100009A1044009000985C
:10261000006880B208BD00000074004010B5044698
:10262000BE48844208D101218014FEF7B1FA00218E
:10263000A014FEF7ADFA16E0B948844208D1012192
:102640000014FEF7B2FA00212014FEF7AEFA0AE0F9
:10265000B448844207D10121C013FEF7A6FA002135
:10266000E013FEF7A2FA10BD10B50022028802F4B2
:1026700041520B884C8823438C882343CC882343C6
:102680000C8923434C8923438C892343CC892343DE
:102690001A430280838B4FF2FF74234083830B8A9B
:1026A000038210BD2DE9F04F85B005460C464FF072
:1026B000000902274FF000084FF0010B0026B24638
:1026C000A88B4FF240010840A88302202884B5F867
:1026D0001C90A068022801D100BF38E0A08810B982
:1026E0004FF0010B01E04FF0020B8D48854200D105
:1026F00000E000BF6846FEF7C4F9DDF800A0E088FE
:10270000B0F5007F0AD14FEA1A2000EB80004000AC
:10271000A168B0FBF1F0401D86B20BE04FEA4B1010
:10272000BAFBF0F000EB80004000A168B0FBF1F0D4
:10273000401D86B20A20B6FBF0F606F00108A6EBB3
:102740000800C0F34F074FF6FF7000EA0828022F79
:1027500001DBFF2F02DD02274FF00008E08840EA8E
:10276000080038432884A088A18908436188084369
:102770002188084340F4006040EA0909A5F81C904C
:1027800005B0BDE8F08F0021018041808180C180CB
:10279000018141818181C18107210182704700212E
:1027A000018041808180C18002218160002181817E
:1027B000704721B1028842F04002028004E00288A2
:1027C0004FF6BF731A400280704721B1828B42F4EA
:1027D0008062828304E0828B4FF6FF331A4082834B
:1027E000704730B5002400230C110125A540ABB281
:1027F0001AB185881D43858002E085889D438580C8
:1028000030BD1AB183880B43838002E083888B43F9
:1028100083807047818170470146888970474FF6F1
:10282000FF62914204D0028842F48072028004E088
:1028300002884FF6FF631A400280704721B18288F8
:1028400042F00402828004E082884FF6FB731A4053
:102850008280704702884FF2FF731A40028002881C
:102860000A4302807047018841F48051018070471B
:1028700021B1028842F40052028004E002884DF641
:10288000FF731A400280704702460020012901D0E0
:10289000108B00E0908A70470146088A7047B1F5B6
:1028A000804F04D1028842F48042028004E0028812
:1028B0004BF6FF731A4002807047024600201389CE
:1028C0000B400BB1012000E000207047CA43028199
:1028D0007047F0B50246002000240023002501F0D7
:1028E0000F070126BE40B4B20B1101269E40B3B2C1
:1028F000968806EA03051689264016B10DB1012017
:1029000000E00020F0BD10B5002201F00F0401230B
:10291000A3409AB2D343038110BD000000300140B0
:1029200000380040003C004001460020FE4A10688C
:1029300000F03800084310607047FB49096821F037
:102940000801F94A11601146096801431160704796
:10295000F549096821F01001F34A11601146096830
:10296000014311607047F148EF494860F048486002
:102970007047EE48EC494860ED4848607047EA48C7
:10298000006940F08000E84908617047E648006946
:1029900040F08000E449086170470420E249C968BA
:1029A00001F0010109B101200EE0DF49C96801F021
:1029B000040109B1022007E0DB49C96801F01001F8
:1029C00009B1032000E00420704700B5024604234B
:1029D000FFF7E3FF034603E0FFF7DFFF0346521E66
:1029E000012B01D1002AF7D102B90523184600BDF9
:1029F00030B5044604254FF43020FFF7E6FF0546C6
:102A0000042D17D1C848006940F00200C64908618A
:102A100008464461006940F0400008614FF43020EE
:102A2000FFF7D3FF0546C048006941F6FD71084035
:102A3000BD490861284630BD10B504244FF430204C
:102A4000FFF7C3FF0446042C16D1B748006940F0D5
:102A50000400B54908610846006940F0400008617B
:102A60004FF43020FFF7B1FF0446AF48006941F64C
:102A7000FB710840AC490861204610BD00B5024614
:102A80000423FFF78AFF034603E0FFF786FF0346B0
:102A9000521E012B01D1002AF7D102B90523184695
:102AA00000BD10B504244FF43020FFF7E7FF0446C3
:102AB000042C16D19C48006940F004009A49086132
:102AC0000846006940F0400008614FF43020FFF7ED
:102AD000D5FF04469448006941F6FB7108409249CD
:102AE0000861204610BD00208F49C96901F002012C
:102AF00009B1012000E00020704730B5A52504246D
:102B0000FFF7F1FF00B100254FF43020FFF75DFF24
:102B10000446042C3AD185488349886084488860FB
:102B20000846006940F0200008610846006940F04E
:102B3000400008614FF43020FFF747FF0446042CA3
:102B40001BD17948006941F6DF7108407649086178
:102B50000846006940F01000086176480580E002F0
:102B6000FFF733FF0446052C10D06F48006941F68B
:102B7000EF7108406C49086108E0052C06D06A48EE
:102B8000006941F6EF71084067490861204630BD91
:102B900078B506460C46042500200090E802FFF7B1
:102BA00014FF0546042D24D15F48006940F0010060
:102BB0005D4908613480E802FFF707FF0546042DF0
:102BC00010D1B01C0090200C00990880E802FFF79B
:102BD000FCFE05465448006941F6FE710840524922
:102BE000086106E05048006941F6FE7108404E4910
:102BF0000861284678BD70B504460D460426F002EB
:102C0000FFF7E3FE0646042E11D14748006940F065
:102C10000100454908612580F002FFF7D6FE06460F
:102C20004148006941F6FE7108403F49086130465D
:102C300070BD70B505460E460424E002FFF7C5FEE0
:102C40000446042C17D139483749886038488860D1
:102C50000846006940F0100008612E80E002FFF78E
:102C6000B4FE0446052C06D02F48006941F6EF71EA
:102C700008402D490861204670BD2DE9F043044607
:102C80004FF6FF763746B046B1460425E443E6B238
:102C9000C4F30727C4F307484FEA1469E802FFF7B3
:102CA00094FE0546042D49D120481F4988602048DC
:102CB00088600846006940F010000861FF2E06D0C9
:102CC0001C4808300680E802FFF77FFE0546042D09
:102CD00008D1FF2F06D017480A300780E802FFF717
:102CE00074FE0546042D0AD1B8F1FF0F07D0114834
:102CF0000C30A0F80080E802FFF767FE0546042DBF
:102D00000AD1B9F1FF0F07D00A480E30A0F80090A1
:102D1000E802FFF75AFE0546052D0FD0024800696C
:102D200041F6EF71084007E00020024023016745AB
:102D3000AB89EFCD00F8FF1F664908612846BDE862
:102D4000F08330B5054604244FF43020FFF73DFEF4
:102D50000446042C41D160485E4988605F48886021
:102D60000846006940F0200008610846006940F00C
:102D7000400008614FF43020FFF727FE0446042C82
:102D800022D15448006941F6DF7108405149086179
:102D90000846006940F0100008611DB1002050494C
:102DA000088002E0A5204E4908804FF43020FFF74C
:102DB0000CFE0446052C10D04648006941F6EF7120
:102DC00008404449086108E0052C06D041480069E4
:102DD00041F6DF7108403F490861204630BDF0B53B
:102DE00005460E46174604243B483A4988603B484E
:102DF0008860E002FFF7E9FD0446042C19D135484C
:102E0000006940F010003349086147F0F800304392
:102E100028433349891C0880E002FFF7D6FD0446A9
:102E2000052C06D02B48006941F6EF71084029496E
:102E300008612046F0BD2748C069800870472548D2
:102E4000006A704700202349096801F0200109B198
:102E5000012000E00020704729B11E4A1269024398
:102E60001C4B1A6104E01B4A12698243194B1A6118
:102E7000704701460020012908D1164AD26902F0A4
:102E800001020AB1012008E0002006E0114AD268E0
:102E90000A400AB1012000E0002070470D49C860D7
:102EA000704704200B49C96801F0010109B10120F4
:102EB0000EE00849C96801F0040109B1022007E0E9
:102EC0000449C96801F0100109B1032000E00420A1
:102ED000704700000020024023016745AB89EFCD19
:102EE00000F8FF1F00BF0100A0F10100FBD17047F7
:102EF00008B5FDF784FA01211020FDF72FFE4FF4ED
:102F00006040ADF8000010208DF8030003208DF81C
:102F1000020069462A48FDF765FB08BD00B501209F
:102F2000284908602848FFF7DDFF00202749C1F83D
:102F3000BC012548FFF7D6FF00BD10B500240BE00B
:102F40000120A040C04381B21D48FDF701FC20488C
:102F5000FFF7C8FF601CC4B2082CF1DB00240BE0B3
:102F600080202041C04381B21548FDF7F1FB18488D
:102F7000FFF7B8FF601CC4B2082CF1DB00240BE0A3
:102F80001120A040C04381B20D48FDF7E1FB10487D
:102F9000FFF7A8FF601CC4B2042CF1DB00240BE097
:102FA00088202041C04381B20548FDF7D1FB084885
:102FB000FFF798FF601CC4B2042CF1DB10BD0000C9
:102FC00000100140BC012242808D5B0000002242C3
:102FD00080841E00014601EBC1024FF0E0235A61DC
:102FE00001221A6100229A6100BF4FF0E0221069AD
:102FF00000F001021AB100F48032002AF5D000225C
:103000004FF0E0231A619A617047014642F228327C
:103010004A434FF0E0235A6101221A6100229A616B
:1030200000BF4FF0E022106900F001021AB100F475
:103030008032002AF5D000224FF0E0231A619A6115
:10304000704710B504466FF00400FEF73EF8E11734
:1030500004EB5171C1F3C701074A117010460078A3
:1030600000EB4001C1EBC0104FF6FF7101EAC00058
:103070000249088010BD00002C0000202E00002016
:1030800070B504460D46E1B23048FDF707FF00BFBA
:1030900080212E48FDF770FF0028F9D0204670BD32
:1030A00000B587B0012144F20500FDF757FD4FF44C
:1030B0000070ADF8180003208DF81A0018208DF864
:1030C0001B0006A92248FDF78DFA4FF48060ADF889
:1030D000180004208DF81B0006A91D48FDF782FA90
:1030E0004FF4C060FDF7A2FF25208DF814000020EA
:1030F0008DF8150001208DF816008DF8170005A831
:10310000FDF799FF4FF4165001900020ADF808002C
:10311000ADF80A00ADF80C00ADF810000C20ADF8C9
:103120000E0001A90948FDF7C0FD01210748FDF780
:1031300048FE012240F225510448FDF74EFE402191
:103140000248FDF726FF07B000BD0000003801402F
:103150000008014000B585B001210420FDF7FEFC08
:1031600001214807FDF707FD1020ADF810000020F1
:103170008DF8130003208DF8120004A92148FDF7F3
:1031800031FA10211F48FDF7DAFA00200090019073
:1031900002900220039069460020FFF784F9012184
:1031A0000020FFF79DF900210846FFF7FAF905B066
:1031B00000BD2DE9F0470446204603F0C5FB8146DB
:1031C0001149484603F0A1FA81464FF08B41484629
:1031D00003F069FA824603F0D0FB07464FF06632EF
:1031E0000A4B03F042FB054603F0DAFB81464846F2
:1031F00003F0AFFB85B229460020FFF7D2F9BDE806
:10320000F08700000008014000007A4466660A402A
:1032100000B587B0012140F20520FDF79FFC4FF477
:103220000040FDF7FFFB0120ADF8180000208DF8ED
:103230001B0003208DF81A0006A99748FDF7D2F964
:10324000002001908DF808008DF809004FF46020EF
:1032500003900020049001208DF8140001A98F48EC
:10326000FEF715FF01218D48FEF73DFF8B48FEF765
:103270005CFF00BF8948FEF75DFF0028FAD1874850
:10328000FEF762FF00BF8548FEF763FF0028FAD112
:10329000072301220A218148FEF791FF01217F487F
:1032A000FEF761FF0220ADF8180000208DF81B002A
:1032B00003208DF81A0006A97748FDF793F900203E
:1032C00001908DF808008DF809004FF460200390FC
:1032D0000020049001208DF8140001A96F48FEF72A
:1032E000D6FE01216D48FEF7FEFE6C48FEF71DFF7D
:1032F00000BF6A48FEF71EFF0028FAD16748FEF7B4
:1033000023FF00BF6548FEF724FF0028FAD10723FA
:1033100001220A216148FEF752FF01215F48FEF7B2
:1033200022FF0420ADF8180000208DF81B000320B8
:103330008DF81A0006A95848FDF754F900200190AD
:103340008DF808008DF809004FF4602003900020EC
:10335000049001208DF8140001A95048FEF797FE53
:1033600001214E48FEF7BFFE4C48FEF7DEFE00BFCF
:103370004A48FEF7DFFE0028FAD14848FEF7E4FE8F
:1033800000BF4648FEF7E5FE0028FAD107230122D8
:103390000A214248FEF713FF01214048FEF7E3FEF1
:1033A00007B000BD2DE9F04105460E460027072372
:1033B000012229463948FEF702FF002413E00121CB
:1033C0003648FEF7D0FE00BF02213448FFF73CF834
:1033D0000028F9D03148FEF759FF07440520FFF7D0
:1033E00014FE601CC4B2B442E9DB601CB7FBF0F011
:1033F00080B2BDE8F0812DE9E04F88B0284903C9CB
:10340000CDE90301C82004FB00F94846FFF7D1FECF
:1034100014210A20FFF7C6FF824614210B20FFF774
:10342000C1FF029014210C20FFF7BCFF0190504611
:1034300003F08AFA834603F0A0FA07464FF066329B
:10344000184B03F0A0F9054603F0AAFA059002987C
:1034500003F07AFA834603F090FA07464FF066329B
:10346000104B03F090F9054603F09AFA0690019884
:1034700003F06AFA834603F080FA07464FF066329B
:10348000084B03F080F9054603F08AFA079005A877
:1034900008B0BDE8E08F00000010014000240140AA
:1034A000C876000866664A3F70B505460E46144663
:1034B0003146284600F072FE204600F02EFE70BD18
:1034C0002DE9F05F04460D4616461F46301B401C92
:1034D0001FFA80FA781B401C1FFA80FB3B463246DD
:1034E0002946204600F030FE4FF000080FE04FF074
:1034F000000906E00A9800F010FE09F101001FFA29
:1035000080F9D145F6DB08F101001FFA80F8D845B3
:10351000EDDBFE484088401E83B2FC480088401E18
:1035200082B20021084600F00FFEBDE8F09F2DE9B1
:10353000FF4F85B081468A4600200490039007988B
:10354000A0EB09050898A0EB0A06CDF80890CDF885
:1035500004A0002D01DD012705E00DB9002702E0E0
:103560004FF0FF376D42002E02DD4FF0010806E0FC
:1035700016B94FF0000802E04FF0FF387642B5422E
:1035800001DD2C4600E034464FF0000B21E0019AAB
:1035900091B2029A90B200F00BFE04982844049075
:1035A0000398304403900498A04205DD0498001B62
:1035B00004900298384402900398A04205DD0398D5
:1035C000001B03900198404401900BF101001FFA89
:1035D00080FB601C8345DADD09B0BDE8F08F2DE982
:1035E000F04104460D4616461F462B4632462946F4
:1035F0002046FFF79CFF3B46224629462046FFF720
:1036000096FF3B46324639462046FFF790FF3B4641
:10361000324629463046FFF78AFFBDE8F081F8B50B
:1036200004460D4616461F46B94800883B463246BA
:10363000294600902046FFF743FFF8BD2DE9F041F1
:1036400004460D4616461F46DDF81880EA1991B269
:10365000A21990B24246FFF727FFEA1991B2A21BC6
:1036600090B24246FFF720FFEA1B91B2A21990B236
:103670004246FFF719FFEA1B91B2A21B90B24246E5
:10368000FFF712FFAA1991B2E21990B24246FFF772
:103690000BFFAA1991B2E21B90B24246FFF704FF5A
:1036A000AA1B91B2E21990B24246FFF7FDFEAA1B97
:1036B00091B2E21B90B24246FFF7F6FEBDE8F08100
:1036C0002DE9FF4F81B0824617469846DDF838B0A5
:1036D000002445464FEA4800C0F10306BBF1000F45
:1036E0001FD01BE0A14608E04B46224600975046FB
:1036F0000299FFF7A3FF09F10109A945F4DD002EA6
:1037000004DA042000FB0460861D06E0601B04212F
:1037100001FB006000F10A066D1E641CAC42E1DD95
:1037200018E015E02B462246009750460299FFF715
:1037300085FF002E04DA042000FB0460861D06E0ED
:10374000601B042101FB006000F10A066D1E641C71
:10375000AC42E7DD05B0BDE8F08F2DE9F047044647
:103760000D4616461F46DDE908893B463246294686
:103770002046FFF7DCFE4B46424639463046FFF70F
:10378000D6FE2B46224649464046FFF7D0FEBDE80E
:10379000F08702880B8803800A8070472DE9FF4F6D
:1037A00085B000260027BDF81800BDF8201088421B
:1037B00007DD08A906A8FFF7ECFF07A905A8FFF792
:1037C000E8FFBDF82000BDF84C10884207DD08A9CD
:1037D00013A8FFF7DEFF07A912A8FFF7DAFFBDF86D
:1037E0001800BDF82010884207DD08A906A8FFF7D9
:1037F000D0FF07A905A8FFF7CCFFBDF81800BDF85A
:103800004C10884238D1BDF8140003900490BDF8E4
:103810001C00BDF81010884203DABDF81C000490AB
:1038200008E0BDF81C00BDF80C10884202DDBDF8B0
:103830001C000390BDF84800BDF81010884203DA60
:10384000BDF84800049008E0BDF84800BDF80C1031
:10385000884202DDBDF8480003902D4800880090A2
:10386000BDF81830BDF80C201946BDF81000FFF760
:1038700027FE09B0BDE8F08FBDF81C00BDF814109C
:10388000A0EB010BBDF82000BDF81810401A029003
:10389000BDF84800BDF81410451ABDF84C00BDF83D
:1038A0001810A0EB0109BDF84800BDF81C10A0EBF2
:1038B000010ABDF84C00BDF82010401A0190BDF877
:1038C0002000BDF84C10884202D1BDF8208004E0F1
:1038D000BDF82000401E1FFA80F8BDF818402CE00B
:1038E000029896FBF0F0BDF81410084480B20490E2
:1038F00097FBF9F0BDF81410084480B203905E44C1
:103900002F44BDF81000BDF80C1003E0700000203B
:1039100030000020884203DD03A904A8FFF739FF27
:10392000FE48008823460090BDF80C202146BDF8D3
:103930001000FFF7C5FD601C84B24445D0DDBDF822
:103940002000201A00FB0AF6BDF81800201A00FB20
:1039500005F727E0019896FBF0F0BDF81C1008442D
:1039600080B2049097FBF9F0BDF81410084480B2BF
:10397000039056442F44BDF81000BDF80C10884247
:1039800003DD03A904A8FFF704FFE44800882346E9
:103990000090BDF80C202146BDF81000FFF790FD07
:1039A000601C84B2BDF84C008442D3DD00BF60E7E8
:1039B0002DE9FF4F83B081468A469346DDE91064C6
:1039C000D64800880290A6F12000C6B204EBD4705D
:1039D00009EB6000401E82B20AEB0400401E83B275
:1039E00051464846019400F0AFFB129850BB0025A9
:1039F00025E00C2C07D106EB4600C94901EB8000FD
:103A000010F8058004E0C74800EB061010F80580A8
:103A100000270DE008F0010018B1584600F07DFBCA
:103A200002E0069800F079FB4FEA6808781CC7B2FC
:103A300004EBD471B7EB610FECDB681CC5B2A54297
:103A4000D7DB2DE0002529E00C2C07D106EB460042
:103A5000B34901EB800010F8058004E0B14800EBA9
:103A6000061010F80580002711E0AC48A0F800B05F
:103A700008F0010038B10AEB050291B209EB070228
:103A800090B200F095FB4FEA6808781CC7B204EBCF
:103A9000D471B7EB610FE8DB681CC5B2A542D3DB7C
:103AA0009E4902980880A0484088401E83B29E48E4
:103AB0000088401E82B20021084600F045FB07B096
:103AC000BDE8F08F2DE9FE4306460F4615461C461D
:103AD000DDF828801DE094480088401EB04204DBD9
:103AE00091484088401EB84201DABDE8FE83207844
:103AF0008DE821018D480388884802883946304680
:103B0000FFF756FF284605EBD07106EB61018EB238
:103B1000641C20787E2802DC20782028DBDA00BFB5
:103B2000E3E710B50246012000E050430B00A1F18D
:103B30000104E1B2F9D110BD2DE9FF4F83B0074672
:103B400091461E46109C4FF0000A002543E0701B72
:103B5000401EC1B20A20FFF7E4FFB9FBF0F00A21D2
:103B6000B0FBF1F201FB1208BAF1000F1BD1701E7D
:103B7000A84218DDB8F1000F13D100202021A34680
:103B8000CDE90014029004EBDB71491001FB0571D3
:103B900088B266490B8861490A880499FFF708FFD3
:103BA00017E04FF0010A002108F13000C0B2A3462F
:103BB000CDE90141009004EBDB71491001FB057177
:103BC00088B25A490B8855490A880499FFF7F0FED4
:103BD00000BF681CC5B2B542B9DB07B0BDE8F08FC5
:103BE0002DE9FC5F0546884691469A46DDF830B0DF
:103BF00000953E20019000245FE004EB04104C4946
:103C000011F810009BF80010884253D104EB041007
:103C1000474901EB400040789BF80110884249D1A8
:103C200008F10F0083B205F10F0082B24146284629
:103C300000F08AFA00263BE0002734E00D9890B9A6
:103C400004EB04103A4901EB4000801C805D8021A8
:103C50003941084018B1484600F05FFA21E050466B
:103C600000F05BFA1DE02D48A0F8009004EB041072
:103C70002F4901EB4000801C805D802139410840C4
:103C800018B14146284600F093FA681C85B20098A6
:103C9000281A102805D1009D08F101001FFA80F8AC
:103CA00003E0781CC7B2082FC8DB00BF701CC6B287
:103CB000202EC1DB00BF601C84B2019884429CDBD3
:103CC00019484088401E83B217480088401E82B2BF
:103CD0000021084600F038FABDE8FC9F2DE9FC5FA2
:103CE0000546884691469A46DDF830B00095072093
:103CF0000190002476E004EB840000EB44100D49B1
:103D000011F810009BF80010884268D104EB840081
:103D100000EB4410074901EB40000DE030000020AB
:103D2000CE760008427B00087000002032000020A0
:103D3000328100086E89000840789BF801108842A3
:103D40004DD108F1170083B205F1170082B2414648
:103D5000284600F0F9F900263FE0002738E00D98EA
:103D6000A0B904EB840000EB4410CD4901EB400006
:103D7000801C805D80213941084018B1484600F020
:103D8000CCF923E0504600F0C8F91FE0C548A0F880
:103D9000009004EB840000EB4410C14901EB4000AB
:103DA000801C805D80213941084018B14146284679
:103DB00000F0FEF9681C85B20098281A182805D171
:103DC000009D08F101001FFA80F803E0781CC7B2DB
:103DD000082FC4DB00BF701CC6B2482EBDDB00BF7D
:103DE000601C84B20198844285DBAF484088401E45
:103DF00083B2AD480088401E82B20021084600F020
:103E0000A3F9BDE8FC9F2DE9FC5F05468846914675
:103E10009A46DDF830B000950420019000245FE060
:103E200004EB8410A14911F810009BF8001088429F
:103E300053D104EB84109D4901EB400040789BF87E
:103E40000110884249D108F11F0083B205F11F001B
:103E500082B24146284600F077F900263BE0002771
:103E600034E00D9890B904EB8410904901EB4000C8
:103E7000801C805D80213941084018B1484600F01F
:103E80004CF921E0504600F048F91DE08548A0F8C3
:103E9000009004EB8410854901EB4000801C805D9C
:103EA00080213941084018B14146284600F080F988
:103EB000681C85B20098281A202805D1009D08F1B9
:103EC00001001FFA80F803E0781CC7B2082FC8DB96
:103ED00000BF701CC6B2802EC1DB00BF601C84B264
:103EE000019884429CDB70484088401E83B26E4833
:103EF0000088401E82B20021084600F025F9BDE886
:103F0000FC9F2DE9FF4F83B0064688469146DDE9C8
:103F10001147109DB2464FF0000B71E0BBF1000F4E
:103F200040D104EBD471604A1288A2EB6101B14226
:103F300004DB5D494988091B414502DA07B0BDE849
:103F4000F08F2878802802DD4FF0010B58E02878A8
:103F50000D2806D108EB04001FFA80F856466D1CA8
:103F60001EE0102C0DDD102128788DE883004A46D4
:103F700041463046069BFFF71BFD06F1080086B25E
:103F80000EE028788DE891004A4641463046069B6F
:103F9000FFF70EFD204604EBD07106EB61018EB2F7
:103FA0006D1C2DE040480088001BB04204DB3E48F9
:103FB0004088001B404500DAC0E74FF0000B202C82
:103FC00008D1CDE900574A4641463046069BFFF7E7
:103FD0001AFF12E0182C08D1CDE900574A46414695
:103FE0003046069BFFF77AFE07E0CDE900574A46C8
:103FF00041463046069BFFF7F3FDAD1C301986B2F3
:10400000287800288AD100BF98E72DE9FE4F0E4698
:1040100017469846DDE90D9A0C9C204602F03CFBC1
:1040200085B221490988A1EBC50000EBD071C1F32D
:104030004F0B43463A46314658468DE81006FFF787
:1040400060FFBDE8FE8F2DE9F04706460F46154696
:1040500007F1270083B206F1270082B239463046C5
:1040600000F072F800240AE015F8149005EB440003
:1040700090F8018049EA082000F04FF8641CB4F57C
:10408000C86FF1DB08484088401E83B206480088AC
:10409000401E82B20021084600F056F8BDE8F087C5
:1040A0006E8900083000002070000020748B00082A
:1040B00010B504464FF40060FE49086040100860E7
:1040C0002146FD4801F096FA4FF40060F949091FB6
:1040D000086010BD10B504464FF40060F549086053
:1040E0004010091F08602146F34801F083FA4FF49D
:1040F0000060F049091F086010BD70B505460C4608
:104100002846FFF7D5FFE0B2FFF7E4FF70BD10B51A
:10411000EA49087AFFF7CCFF10BD10B504464FF40A
:104120000060E44908604010091F08602112E2485D
:1041300001F060FAE1B2E04801F05CFA4FF400608F
:10414000DC49091F086010BD2DE9F04104460D4609
:1041500016461F46D949887AFFF7AAFF2012FFF7B3
:10416000B9FFE0B2FFF7B6FF3012FFF7B3FFF0B2CE
:10417000FFF7B0FFD149087BFFF79AFF2812FFF73E
:10418000A9FFE8B2FFF7A6FF3812FFF7A3FFF8B2C6
:10419000FFF7A0FFFFF7BBFFBDE8F08170B5044655
:1041A0000D462B46224629462046FFF7CDFF70BD1F
:1041B00070B504460D4629462046FFF7EFFFC0487C
:1041C0000088FFF7AAFF70BD70B50646BB4840885F
:1041D000401E83B2B9480088401E82B200210846C2
:1041E000FFF7B2FF4FF40060B24908604010091FAA
:1041F000086000240AE0002503E03046FFF78DFF49
:104200006D1CAE480088A842F7D8641CAB484088B3
:10421000A042F0D84FF40060A649091F086070BDA5
:1042200008B501210820FCF799FC4FF4F050ADF8D7
:10423000000003208DF8020010208DF8030069466D
:104240009C481438FCF7CEF908BD10B54FF48050E7
:10425000984908606420FEF7D8FE4FF480509549D5
:10426000091F08603220FEF7D0FE10BD10B50446CD
:104270002A20924948812B2088812C20088134B142
:10428000012C0FD0022C18D0032C2CD120E0F020D0
:104290008A4908804FF4A070488008213620FFF733
:1042A0002CFF21E04FF4A07084490880F020488062
:1042B00068213620FFF721FF16E0F0207F490880B3
:1042C0004FF4A0704880C8213620FFF716FF0BE09E
:1042D0004FF4A07079490880F0204880A82136204A
:1042E000FFF70BFF00E000BF00BF10BD10B501F0ED
:1042F000A5F9FFF795FFFFF7A8FFCF20FFF7D8FE3E
:104300000020FFF7E7FEC120FFF7E4FE3020FFF7B3
:10431000E1FEED20FFF7CCFE6420FFF7DBFE03207B
:10432000FFF7D8FE1220FFF7D5FE8120FFF7D2FE5F
:10433000E820FFF7BDFE8520FFF7CCFE1020FFF739
:10434000C9FE7A20FFF7C6FECB20FFF7B1FE392069
:10435000FFF7C0FE2C20FFF7BDFE0020FFF7BAFEDE
:104360003420FFF7B7FE0220FFF7B4FEF720FFF777
:104370009FFE2020FFF7AEFEEA20FFF799FE002007
:10438000FFF7A8FE0020FFF7A5FEC020FFF790FE74
:104390001B20FFF79FFEC120FFF78AFE0120FFF7D9
:1043A00099FEC520FFF784FE3020FFF793FE3020F2
:1043B000FFF790FEC720FFF77BFEB720FFF78AFECE
:1043C0003620FFF775FE4820FFF784FE3A20FFF7FE
:1043D0006FFE5520FFF77EFEB120FFF769FE00203B
:1043E000FFF778FE1A20FFF775FEB620FFF760FE94
:1043F0000A20FFF76FFEA220FFF76CFEF220FFF706
:1044000057FE0020FFF766FE2620FFF751FE012031
:10441000FFF760FEE020FFF74BFE0F20FFF75AFE8C
:104420002A20FFF757FE2820FFF754FE0820FFF749
:1044300051FE0E20FFF74EFE0820FFF74BFE5420E2
:10444000FFF748FEA920FFF745FE4320FFF742FE95
:104450000A20FFF73FFE0F20FFF73CFE0020FFF78A
:1044600039FE0020FFF736FE0020FFF733FE002064
:10447000FFF730FEE120FFF71BFE0020FFF72AFECA
:104480001520FFF727FE1720FFF724FE0720FFF770
:1044900021FE1120FFF71EFE0620FFF71BFE2B203A
:1044A000FFF718FE5620FFF715FE3C20FFF712FE1F
:1044B000052007E0140C0140003800407000002087
:1044C00030000020FFF706FE1020FFF703FE0F204C
:1044D000FFF700FE3F20FFF7FDFD3F20FFF7FAFD4D
:1044E0000F20FFF7F7FD2B20FFF7E2FD0020FFF77D
:1044F000F1FD0020FFF7EEFD0120FFF7EBFD3F206F
:10450000FFF7E8FD2A20FFF7D3FD0020FFF7E2FDCB
:104510000020FFF7DFFD0020FFF7DCFDEF20FFF7B5
:10452000D9FD1120FFF7C4FD7820FEF76EFD29208C
:10453000FFF7BEFD0020FFF799FE01200349086048
:104540004FF6FF70FFF740FE10BD0000A48121422E
:104550003EB504464FF6FF70FFF736FE1F20009071
:10456000FB480288142300210846FEF7A9FF1F20FC
:104570000090F748438802884088143881B20020B0
:10458000FEF79EFF4FF6FF70F249088001201021D0
:104590001F234FF6FF72CDE9004102900221002057
:1045A000FFF733FD01201021EBA2CDE9002102909D
:1045B000E7484088123881B21F234FF6FF7200206F
:1045C000FFF723FD3EBDF0B593B005461422E84940
:1045D00004A802F04FF8002425E055F8240002F06A
:1045E000CCF9064604A832460B46E2A1009009A881
:1045F00002F0F8FB00200C2109AACDE9002102906D
:1046000004EB8400382202EB80014FF6FF73002296
:104610008220FFF776FC0A20FEF7F7FC0A20FEF75F
:10462000F4FC601CC4B2032CD7DB13B0F0BD3EB564
:104630004FF6FF70FFF7C8FD012450E0022C13DC99
:1046400004EB840000EBC4004FF6FF7202EA400363
:1046500004EB840000EBC40002EA40014FF48C72CA
:104660000020FEF764FF36E0062C11DC022C0FDD83
:1046700004EB84000C2202EB800083B204EB840084
:1046800002EB800081B2FA220020FEF750FF22E008
:10469000072C11D104EB84000C2202EB8000801D5A
:1046A00083B204EB840002EB8000801D81B2FA2209
:1046B0000020FEF73CFF0EE004EB8400122202EB28
:1046C000800083B204EB840002EB800081B2FA2206
:1046D0000020FEF72CFFA9A002F074FB641C0E2C36
:1046E000ACDB842378221A211046FEF720FF4FF41A
:1046F0008B7378229E211046FEF719FF00200C21B3
:10470000A0A24FF6FF73CDE90021029002460521D9
:104710000A20FFF7F6FB01200C21A3A24FF6FF733E
:10472000CDE900210290002221213C20FFF7E9FB86
:1047300001200C219FA24FF6FF73CDE900210290CA
:10474000002221218C20FFF7DCFB00200C219DA200
:104750004FF6E073CDE90021029002463821FFF7C1
:10476000D0FB00200C219AA24FF6E073CDE9002186
:10477000029002464E21FFF7C4FB00200C2197A2B5
:104780004FF6E073CDE90021029002466221FFF767
:10479000B8FB00200C2194A24FF6E073CDE9002174
:1047A000029002467621FFF7ACFB00200C2191A27B
:1047B0004FF6FF73CDE90021029002468B21502075
:1047C000FFF79FFB00200C218EA24FF6E073CDE98E
:1047D000002102900246A2210A20FFF792FB00204E
:1047E0000C218AA24FF6E073CDE900210290024627
:1047F000B6210A20FFF785FB00200C2185A24FF689
:10480000E073CDE9002102900246CA210A20FFF799
:1048100078FB00200C2181A24FF6E073CDE9002146
:1048200002900246DE210A20FFF76BFB00200C21DC
:104830007CA24FF6E073CDE9002102900246F221FE
:104840000A20FFF75EFB00200C2178A24FF6E073F0
:10485000CDE90021029002464FF483710A20FFF750
:1048600050FB00200C2173A24FF6E073CDE900212C
:1048700002900246A2218220FFF743FB00200C2178
:104880006EA24FF6E073CDE9002102900246B621F8
:104890008220FFF736FB00200C216AA24FF6E0735E
:1048A000CDE9002102900246CA218220FFF729FBB0
:1048B00000200C2165A24FF6E073CDE900210290A3
:1048C0000246DE218220FFF71CFB00200C2161A2A2
:1048D0004FF6E073CDE9002102900246F2218220DA
:1048E000FFF70FFB00200C215CA24FF6E073CDE92F
:1048F0000021029002464FF483718220FFF701FBF2
:104900003EBD38B5002400BF1BE001200090554893
:10491000028804EB8400A82303EB80010623B42063
:10492000FEF7CEFE012000904E48028804EB840082
:10493000A82303EB800106233220FEF7C1FE601C92
:10494000C4B2062CE1DB40F2DC50FEF75EFB38BD62
:104950007000002030000020687474703A2F2F77A8
:1049600077772E6C636477696B692E636F6D0000D7
:10497000FC9900082566252E3230730068656C6C42
:104980006F0000004761732053757070706C792060
:10499000416E642044656374656374696F6E20536F
:1049A000797374656D0000005365742056616C75F1
:1049B000650000004D6561737572652056616C7508
:1049C00065000000203134373941203A00000000F2
:1049D000203632374420203A00000000434447305C
:1049E0003235443A00000000202020505620203A62
:1049F000000000004761732056616C756520537498
:104A0000617465004E6F2E31000000004E6F2E3233
:104A1000000000004E6F2E33000000004E6F2E3459
:104A2000000000004E6F2E35000000004E6F2E3645
:104A3000000000004E6F2E37000000004E6F2E3831
:104A4000000000004E6F2E39000000004E6F2E3126
:104A5000300000004E6F2E31310000004E6F2E31BD
:104A600032000000360000203EB50546002400BF9D
:104A700040E0285D01281DD10090FE48428804EBEB
:104A80008400A82303EB800106233220FEF718FEE2
:104A900000200C21F8A2CDE90021029004EB840053
:104AA000A22202EB80014FF6E07300224120FFF7C3
:104AB00028FA1DE001200090EE48028804EB8400F3
:104AC000A82303EB800106233220FEF7F9FD002026
:104AD0000C21EAA2CDE90021029004EB8400A2227D
:104AE00002EB80014FF6E07300224120FFF709FA44
:104AF000601CC4B2062CBCDB062446E0285D0128FD
:104B000020D10090DB484288A01F00EB8000A82342
:104B100003EB80010623B420FEF7D2FD00200C2118
:104B2000D5A2CDE900210290A01F00EB8000A222B7
:104B300002EB800081B24FF6E0730022C320FFF742
:104B4000E0F920E001200090CA480288A01F00EB95
:104B50008000A82303EB80010623B420FEF7B0FDFC
:104B600000200C21C5A2CDE900210290A01F00EB7E
:104B70008000A22202EB800081B24FF6E073002297
:104B8000C320FFF7BEF9601CC4B20C2CB6DB40F2A8
:104B9000DC50FEF73AFA3EBD0EB5B9A0FFF7D8FCDF
:104BA00001201021BEA21F23CDE900210290DA02CC
:104BB0001E210020FFF729FA01201021BBA21F238C
:104BC000CDE900210290DA023C210020FFF71DFA16
:104BD00001201021B9A21F23CDE9002102904FF43A
:104BE000FC625A210020FFF710FA01201021B9A21F
:104BF0001F23CDE9002102901A4678210020FFF7FB
:104C000004FA40F2DC50FEF700FA40F2DC50FEF706
:104C1000FCF90EBD0EB54FF6FF700090B348438807
:104C2000028800210846FEF74BFC01201021B0A2AB
:104C30004FF6E073CDE9002102901F221E211420BF
:104C4000FFF75FF94FF44870FEF7DFF94FF4784053
:104C50000090A6484388028800210846FEF730FCF1
:104C600001201021A4A24FF6E073CDE900210290AB
:104C70001F221E211420FFF744F94FF44870FEF75D
:104C8000C4F94FF4FC6000909848438802880021E2
:104C90000846FEF715FC0120102199A24FF6E0739B
:104CA000CDE9002102901F221E211420FFF729F9CF
:104CB0004FF44870FEF7A9F91F2000908B484388F5
:104CC000028800210846FEF7FBFB012010218EA27E
:104CD0004FF6E073CDE9002102904FF478421E2197
:104CE0001420FFF70EF94FF44870FEF78EF90EBD51
:104CF0002DE9F843002486A0FFF72AFC4FF6FF7049
:104D000000907A484088143883B278480288142189
:104D10000020FEF7D5FB00BF48E0564830F81400ED
:104D200081490880DFF8C4C1BCF8025005EBD57C8E
:104D30004FEA6C0CACF1500CC4EB0419CC440CF1F0
:104D40003C0C1FFA8CF3DFF8A4C1BCF8006006EB42
:104D5000D67C4FEA6C0CACF1500CC4EB0419CC447B
:104D60000CF13C0C1FFA8CF2DFF880C1BCF8027029
:104D700007EBD77C4FEA6C0CACF1500CC4EB041978
:104D8000CC441FFA8CF1DFF864C1BCF8008008EB5A
:104D9000D87C4FEA6C0CACF1500CC4EB0419CC4439
:104DA0001FFA8CF0FEF71BFC601CC4B2052CB4DBB0
:104DB00040F2DC50FEF729F94FF6FF7000904B48A7
:104DC0004088143883B24948028814210020FEF735
:104DD00077FB002448E0274830F814005249088047
:104DE000DFF808C1BCF8026006EBD67C4FEA6C0C19
:104DF000ACF1500CC4EB0419CC440CF13C0C1FFA80
:104E00008CF3DFF8E8C0BCF8007007EBD77C4FEA02
:104E10006C0CACF1500CC4EB0419CC440CF13C0C00
:104E20001FFA8CF2DFF8C4C0BCF8028008EBD87C13
:104E30004FEA6C0CACF1500CC4EB0419CC441FFAD3
:104E40008CF1DFF8A8C0BCF8005005EBD57C4FEA28
:104E50006C0CACF1500CC4EB0419CC441FFA8CF070
:104E6000FEF7DDFB601CC4B2052CB4DB40F2DC5065
:104E70005CE00000360000204F4E20004F46460008
:104E8000C8ABB6AFB5E7D7D3D7DBBACFB2E2CAD497
:104E9000B3CCD0F25F5F77616E6773616900000029
:104EA000C8ABB6AFB5E77A6900000000D7DBBACF70
:104EB000B2E2CAD4B3CCD0F200000000332E3222CA
:104EC00020494C4939333431203234305833323070
:104ED00000000000507A78405144746563682032C5
:104EE0003031382D30382D32300000007000002075
:104EF000424C205465737400524544200000000069
:104F0000475245454E200000424C554520000000C8
:104F1000B2E2CAD4323A475549BED8D0CECCEEB36D
:104F2000E4B2E2CAD400000030000020FEF76DF8C1
:104F3000BDE8F883F8B50024F7A0FFF709FB4FF6AA
:104F4000FF700090FA484088143883B2F84802880D
:104F500014210020FEF7B4FA00BF1FE00020F44B3C
:104F600000905D8805EBD5735B10323B04EBC40702
:104F700007EB0417D919EE4B1E8806EBD6735B10AE
:104F8000503B04EBC40707EB0417D819E94B33F87F
:104F900014201E23FEF794FB601CC4B2052CDDDB3D
:104FA00040F2DC50FEF731F84FF6FF700090E04819
:104FB0004088143883B2DE48028814210020FEF7AE
:104FC0007FFA00241FE00120D94B00905D8805EB9B
:104FD000D5735B10323B04EBC40707EB0417D919F8
:104FE000D34B1E8806EBD6735B10503B04EBC40713
:104FF00007EB0417D819CF4B33F814201E23FEF704
:105000005FFB601CC4B2052CDDDB40F2DC50FDF719
:10501000FCFFF8BD0EB5C8A0FFF79AFA00200C21DE
:10502000CAA24FF6E073CDE9002102901F221E2193
:105030000A20FEF766FF01200C21CFA24FF6E07395
:10504000CDE9002102901F222D210A20FEF759FFF1
:1050500000200C21D3A24FF6E073CDE9002102908D
:105060001F223C210A20FEF74CFF00201021D5A270
:105070004FF6E073CDE9002102901F2250210A2053
:10508000FEF73FFF01201021D9A24FF6E073CDE9D2
:10509000002102901F2264210A20FEF732FF002027
:1050A0001021DEA24FF6E073CDE9002102901F220D
:1050B00078210A20FEF725FF4FF49660FDF7A5FF43
:1050C0000EBD2DE9FC5F0024DCA0FFF741FA4FF68E
:1050D000FF70009096484088143883B29448028844
:1050E00014210020FEF7ECF900BF5DE0914830F894
:1050F0001400D94908808E48458805EBD5704010CA
:105100001438C4EB0411084481B28948068806EBC0
:10511000D6704010153804EB840200EB820080B298
:10512000DFF80CC2CDE90001BCF8027007EBD77CB8
:105130004FEA6C0CACF1490CC4EB041BDC441FFAC5
:105140008CF3DFF8ECC1BCF8008008EBD87C4FEAA8
:105150006C0CACF1330C04EB840B0CEB8B0C1FFAD6
:105160008CF2DFF8CCC1BCF8029009EBD97C4FEA95
:105170006C0CACF1140CC4EB041BDC441FFA8CF176
:10518000DFF8ACC1BCF800A00AEBDA7C4FEA6C0C8B
:10519000ACF1500C04EB840B0CEB8B0C1FFA8CF075
:1051A000FEF7DBFA601CC4B2052C9FDB40F2DC503A
:1051B000FDF72BFF4FF6FF7000905D4840881438D4
:1051C00083B25B48028814210020FEF779F900249D
:1051D0005DE0584830F814009F49088054484588DD
:1051E00005EBD57040101438C4EB0411084481B2AB
:1051F0004F48068806EBD6704010153804EB840241
:1052000000EB820080B2DFF828C1CDE90001BCF8D4
:10521000027007EBD77C4FEA6C0CACF1490CC4EB85
:10522000041BDC441FFA8CF3DFF804C1BCF80080D7
:1052300008EBD87C4FEA6C0CACF1330C04EB840B1C
:105240000CEB8B0C1FFA8CF2DFF8E4C0BCF8029078
:1052500009EBD97C4FEA6C0CACF1140CC4EB041BC9
:10526000DC441FFA8CF1DFF8C8C0BCF800A00AEBE0
:10527000DA7C4FEA6C0CACF1500C04EB840B0CEBB9
:105280008B0C1FFA8CF0FEF789FA601CC4B2052C57
:105290009FDB40F2DC50FDF7B8FEBDE8FC9F0EB589
:1052A0006EA0FFF755F90020102171A24FF6E073B0
:1052B000CDE9002102901F221E210A20FEF721FEC7
:1052C0000020102173A24FF6E073CDE90021029077
:1052D0001F2232210A20FEF714FE0120182173A29A
:1052E0004FF6E073CDE9002102901F2246210A20EB
:1052F000FEF707FE0120202172A24FF6E073CDE9F0
:10530000002102901F2264210A20FEF7FAFD4FF4CB
:105310009660FDF77AFE0EBDB2E2CAD4333A475525
:1053200049BBADD4B2CCEEB3E4B2E2CAD4000000C3
:105330007000002036000020B2E2CAD4353AD3A271
:10534000CEC4CFD4CABEB2E2CAD40000365831327D
:105350003A6162636465666768696A6B6C6D6E6FFB
:10536000707172737475767778797A30313233343C
:105370003536373839000000365831323A41424329
:105380004445464748494A4B4C4D4E4F5051525365
:105390005455565758595A303132333435363738D8
:1053A00039000000365831323A7E21402324255EF0
:1053B000262A28295F2B7B7D3A3C3E3F2F7C2D2BD4
:1053C0002E000000385831363A61626364656667C2
:1053D00068696A6B6C6D6E6F7071727374757677D5
:1053E00078797A3031323334353637383900000045
:1053F000385831363A4142434445464748494A4B7A
:105400004C4D4E4F505152535455565758595A308F
:1054100031323334353637383900000038583136B8
:105420003A7E21402324255E262A28295F2B7B7D76
:105430003A3C3E3F2F7C2D2B2E000000B2E2CAD416
:10544000343A47554920547269616E676C65CCEEF9
:10545000B3E4B2E2CAD4000030000020B2E2CAD401
:10546000363AD6D0CEC4CFD4CABEB2E2CAD4000037
:1054700031365831363AC8ABB6AFB5E7D7D3BCBC36
:10548000CAF5D3D0CFDEB9ABCBBEBBB6D3ADC4FA71
:105490000000000031365831363A57656C636F6D45
:1054A00065C8ABB6AFB5E7D7D30000003234583289
:1054B000343AC9EEDBDACAD0D6D0CEC4B2E2CAD40E
:1054C0000000000033325833323AD7D6CCE5B2E28E
:1054D000CAD400000EB53AA0FFF73AF83D4A1E21A3
:1054E0000846FEF7B0FD012010213BA24FF6E07305
:1054F000CDE9002102901F224B212A20FEF701FD59
:10550000344A1E215A20FEF79EFD0120102132A2AE
:105510004FF6E073CDE9002102901F224B21662057
:10552000FEF7EFFC2B4A1E219620FEF78CFD012092
:10553000102129A24FF6E073CDE9002102901F222D
:105540004B21A220FEF7DDFC4FF49660FDF75DFDD8
:105550000EBD10B588B00024204B0FCBCDE906233B
:10556000CDE9040100BF23E02046FEF77FFE1CA02A
:10557000FEF7EEFF0121102204A850F824004FF698
:10558000E073CDE9012100901F221E211420FEF7B7
:10559000B8FC104A32211E20FEF755FD4FF47A70F8
:1055A000FDF733FD4FF47A70FDF72FFD601CC4B298
:1055B000042CD9DB0020FEF759FE08B010BD000016
:1055C000B2E2CAD4373ACDBCC6ACCFD4CABEB2E27E
:1055D000CAD400007C8D000851510000109A0008C8
:1055E000B2E2CAD4383AC6C1C4BBD0FDD7AAB2E22F
:1055F000CAD40000024600BF108900F00200002853
:10560000FAD0918100BF108900F001000028FAD083
:105610009089C0B2704702884FF6C7731A40028063
:10562000012902D10288028003E0028842F02002B0
:105630000280028842F040020280704700B587B0C5
:1056400001210920FBF78AFA4FF42040ADF804004D
:1056500003208DF8060018208DF8070001A91C48CA
:10566000FAF7C0FF4FF48040ADF8040048208DF8F1
:10567000070003208DF8060001A91548FAF7B2FFCC
:1056800001218803FBF777FA0020ADF808004FF4FA
:105690008270ADF80A000020ADF80C00ADF80E00E5
:1056A000ADF810004FF40070ADF812000020ADF816
:1056B0001400ADF816000720ADF8180002A905483F
:1056C000FCF7D2FF01210348FDF773F807B000BDD6
:1056D000000C01400038004008B5FAF790FE0121A7
:1056E0001C20FBF73BFAC320ADF8000010208DF81A
:1056F000030003208DF8020069467648FAF772FF2E
:10570000C120ADF8000010208DF8030003208DF8B3
:10571000020069467048FAF765FF4EF21800ADF8CE
:10572000000010208DF8030003208DF80200694668
:105730006A48FAF757FF08BD0178012902D1684A83
:10574000116002E00021664A11604178012903D10D
:10575000634A0832116003E00021614A0832116097
:105760008178012903D15E4A283A116003E00021C3
:105770005B4A283A1160C178012902D1594A116067
:1057800002E00021574A11600179012903D1554AED
:10579000121F116003E00021524A121F116041796B
:1057A000012903D14E4A121D116003E000214C4A29
:1057B000121D11608179012903D14A4A1832116002
:1057C00003E00021474A18321160C179012902D152
:1057D000454A116002E00021434A1160017A012923
:1057E00003D13F4A243A116003E000213C4A243AA5
:1057F0001160417A012903D13A4A1432116003E061
:105800000021384A14321160817A012903D1364AC5
:105810001C32116003E00021334A1C321160C17A4E
:10582000012903D1304A1832116003E000212E4AC9
:1058300018321160704710B54FF400512748FAF73D
:1058400071FF2A4908704FF400412448FAF76AFFB3
:105850002649487008212148FAF764FF23498870D7
:1058600002211C48FAF75EFF2049C870012119483F
:10587000FAF758FF1D4908714FF480411748FAF7AD
:1058800051FF1A49487180211248FAF74BFF174916
:10589000887101211048FAF745FF1449C871102199
:1058A0000E48FAF73FFF1149087240210948FAF7FC
:1058B00039FF0E49487280210748FAF733FF0B4938
:1058C000887240210448FAF72DFF0849C87208463B
:1058D00010BD000000080140000C01400010014014
:1058E000B401224284012142808121427E000020B5
:1058F00010B5FAF7C5FF4FF48030FAF7E1FFFBF778
:105900001EF80446012C2FD11020FDF721F80220AB
:10591000FDF70AF80020FBF758F80020FBF767F8BE
:10592000A002FBF75BF84FF4E0112004FBF730F81E
:105930000120FBF739F800BF3920FAF7E4FF00280F
:10594000FAD00220FBF733F800BFFBF739F808283C
:10595000FBD10120FBF73AF901210846FBF70BF9CF
:1059600001213D20FBF7FAF810BD08B517208DF88E
:10597000000000208DF8010001208DF802008DF854
:1059800003006846FBF757FB08BD08B500214FF040
:105990000060FBF782FB4FF4C060FBF747FB1C2065
:1059A0008DF8000000208DF801008DF80200012024
:1059B0008DF803006846FBF73EFBFFF7D6FF08BDF6
:1059C0000EB501210846FBF7D6F80920ADF8040012
:1059D00041F61F40ADF800000020ADF80600ADF81C
:1059E000020069464FF08040FBF7F0FC01221146AF
:1059F0009007FCF762F801218807FCF743F80EBD19
:105A000010B501218807FCF706FB01280DD1012103
:105A10008007FCF711FBFE480068401CFC49086049
:105A2000FC480068401CFB49086010BD0EB54FF4EF
:105A30008070ADF8080001208DF80A0010208DF864
:105A40000B0002A9F448FAF7CDFD4FF48071F2483B
:105A5000FAF777FE4FF40070ADF8080003208DF8D8
:105A60000A0048208DF80B0002A9EB48FAF7BAFDAE
:105A700009210120FAF7CCFE4FF4007000900020BD
:105A80008DF804000C208DF8050001208DF806002B
:105A90006846FBF747FB0EBD00B587B00121C80380
:105AA000FBF769F801210920FBF758F80121DB48D1
:105AB000FAF769FE0820ADF8180003208DF81A00E7
:105AC00018208DF81B0006A9D348FAF78BFD10208B
:105AD000ADF8180006A9D048FAF784FD2020ADF8EB
