:020000040800F2
:10000000881400208504000881010008830100088D
:100010006F02000873020008770200080000000069
:100020000000000000000000000000007B0200084B
:100030007D020008000000007F0200088102000825
:100040009F0400089F0400089F0400089F04000804
:100050009F0400089F0400089F0400089F040008F4
:10006000870100089F0400089F0400089F040008FF
:100070009F0400089F0400089F0400089F040008D4
:100080009F0400089F0400089F0400089F040008C4
:100090009F0400089F0400089F040008D946000838
:1000A0009F0400089F0400089F0400089F040008A4
:1000B000313C0008630200089F0400089F04000808
:1000C0009F0400089F0400089F0400089F04000884
:1000D0009F040008D30100080D0200089F040008D7
:1000E0009F0400089F0400089F0400089F04000864
:1000F0009F0400089F0400089F0400089F04000854
:100100009F0400089F0400089F0400089F04000843
:100110009F0400089F0400089F0400089F04000833
:100120009F0400089F0400089F0400089F04000823
:10013000DFF80CD004F012FF00480047450100082A
:10014000881400201CB50D4903C9CDE9000100F059
:1001500018F9482002F037FF03F032FA02F08AFE65
:1001600003F018F802F05EFF02F0B6FF0021084627
:1001700002F0D9F903F0C8FB00BFFEE7B858000849
:10018000704700BFFEE710B5042000F0F3FF012820
:100190001ED101F000F80A2002F0F9FE04213948CE
:1001A00000F075FA68B90121374800F07DFA20B9EE
:1001B0000121354800F085FA03E00121324800F0C2
:1001C00082FA00BF04212F4800F061FA0028F9D01C
:1001D00010BD10B540212D4800F09DFE40F2255184
:1001E0002A4800F0A1FE80B1284800F01DFE2849F1
:1001F000087008460178254800F012FE00BF8021F3
:10020000224800F07BFE0028F9D010BD10B5402137
:10021000204800F080FE40F225511E4800F084FE88
:10022000F0B11C4800F000FE1B49087008211B4873
:1002300000F047FA012002F0AAFE1748017815489D
:1002400000F0EEFD00BF8021124800F057FE0028AC
:10025000F9D0022002F09BFE0821104800F033FA8A
:1002600010BD10B501210E4801F0A8FE10BD00BF61
:10027000FEE700BFFEE700BFFEE77047704770472C
:100280007047000000180140001001400038014094
:100290000000002000440040010000200020014038
:1002A000000400400CB50020019000906C480068EC
:1002B00040F480306A49086000BF6948006800F473
:1002C000003000900198401C0190009818B90198E6
:1002D000B0F5A06FF1D16248006800F4003010B1B1
:1002E0000120009001E0002000900098012843D1F7
:1002F0005C48006840F010005A49086008460068F1
:1003000020F0030008600846006840F00200086022
:10031000534840685249486008464068486008466B
:10032000406840F4806048600846406820F47C10D3
:1003300048600846406840F4E81048600846006895
:1003400040F08070086000BF4548006800F0007011
:100350000028F9D04248406820F003004049486036
:100360000846406840F00200486000BF3C484068D2
:1003700000F00C000828F9D10CBD10B5FFF792FF72
:1003800010BD10B53648006840F0010034490860DF
:1003900008464068344908403149486008460068CA
:1003A000324908402E4908600846006820F4802041
:1003B00008600846406820F4FE0048604FF41F00C3
:1003C0008860FFF7DAFF4FF000602949086010BD30
:1003D00010B5002100200022214B5B6803F00C01C6
:1003E00021B1042906D0082928D107E0214B224C4D
:1003F000236027E01F4B204C236023E0184B5B68F1
:1004000003F47010164B5B6803F48032022303EB95
:10041000904022B9194B4343174C23600DE0104B19
:100420005B6803F4003323B1144B4343124C236045
:1004300003E0104B4343104C236003E00D4B0E4C84
:10044000236000BF00BF064B5B68C3F303130C4C73
:10045000E15C094B1B68CB40074C236010BD0000DA
:1004600000100240002002400000FFF8FFFFF6FEEF
:1004700008ED00E000127A000400002000093D00B1
:10048000080000200648804706480047FEE7FEE7D0
:10049000FEE7FEE7FEE7FEE7FEE7FEE7FEE7FEE734
:1004A000830300083101000810B50446CC4884429B
:1004B00008D10121042000F02DFB0021042000F0D0
:1004C00029FB46E0C748844208D10121082000F0FA
:1004D00021FB0021082000F01DFB3AE0C2488442C5
:1004E00008D10121102000F015FB0021102000F0A0
:1004F00011FB2EE0BD48844208D10121202000F0EC
:1005000009FB0021202000F005FB22E0B8488442CE
:1005100008D10121402000F0FDFA0021402000F028
:10052000F9FA16E0B348844208D10121802000F096
:10053000F1FA0021802000F0EDFA0AE0AE48844292
:1005400007D10121801500F0E5FA0021A01500F087
:10055000E1FA10BD10B50121084600F0DBFA0021D8
:10056000012000F0D7FA10BD2DE9F0410246002528
:100570000026002000230024002791F803C00CF07F
:100580000F0591F803C00CF0100CBCF1000F03D064
:1005900091F802C04CEA050591F800C0BCF1000FCB
:1005A00031D0146800202BE04FF0010C0CFA00F35E
:1005B000B1F800C00CEA03069E4220D183004FF040
:1005C0000F0C0CFA03F7BC4305FA03FC4CEA0404D5
:1005D00091F803C0BCF1280F06D14FF0010C0CFAC2
:1005E00000FCC2F814C00AE091F803C0BCF1480F47
:1005F00005D14FF0010C0CFA00FCC2F810C0401CF1
:100600000828D1D31460B1F800C0BCF1FF0F34DD6D
:10061000546800202EE000F1080C4FF0010808FAA1
:100620000CF3B1F800C00CEA03069E4221D183000E
:100630004FF00F0C0CFA03F7BC4305FA03FC4CEA2D
:10064000040491F803C0BCF1280F05D100F1080C97
:1006500008FA0CF8C2F8148091F803C0BCF1480FF6
:1006600007D100F1080C4FF0010808FA0CF8C2F8A5
:100670001080401C0828CED35460BDE8F0814FF6AE
:10068000FF710180022181700421C1707047024610
:10069000002093680B400BB1012000E00020704760
:1006A0000146886880B2704702460020D3680B403C
:1006B0000BB1012000E0002070470146C86880B2FD
:1006C000704701617047416170470AB1016100E004
:1006D00041617047C16070474FF480320A438261C4
:1006E0008161826182698269704702460020434BC2
:1006F00018684FF68073184040EA021008433F4BD9
:10070000186070473E49C8617047F0B50A4600233B
:1007100000240021002500F00046B6F1004F02D170
:10072000364EF16901E0354E7168C0F3034583B27E
:1007300000F44016B6F5401F08D121F070612F4E2D
:10074000766826F070662D4F7E6012E000F4801609
:10075000B6F5801F06D1032606FA05F4A14341F041
:10076000706106E0460D360103FA06F6B14341F02A
:10077000706122B1460D360103FA06F6314300F0EE
:100780000046B6F1004F02D11C4EF16101E01B4E54
:100790007160F0BD30B500228B071C0F0F2303FAE8
:1007A00004F2164B08338C1053F824309343134C47
:1007B00008348D1044F8253023468C1053F824302B
:1007C0008C07240F00FA04F423430C4C08348D10DA
:1007D00044F8253030BD0A49DC310860704700001C
:1007E00000080140000C01400010014000140140CD
:1007F00000180140001C01400020014000000140A1
:1008000000002042DF48006840F00100DD49086038
:1008100008464068DC490840DA49486008460068F4
:10082000DA490840D74908600846006820F480206B
:1008300008600846406820F4FE0048604FF41F003E
:1008400088607047CF49096821F48031CD4A116032
:100850001146096821F480211160B0F5803F03D072
:10086000B0F5802F0ED106E0C649096841F4803109
:10087000C44A116007E0C349096841F4A021C14A94
:10088000116000E000BF00BF704710B501460022B4
:10089000002300204A11012A02D1BA4C236806E045
:1008A000022A02D1B74C236A01E0B64C636A01F018
:1008B0001F02012494401C400CB1012000E00020E4
:1008C00010BD38B5002000900024002500BF312065
:1008D000FFF7DBFF05460098401C00900098B0F53C
:1008E000A06F01D0002DF2D03120FFF7CEFF08B16C
:1008F000012400E00024204638BD01460020A14A22
:10090000106820F0F80040EAC10010607047A0496C
:1009100008607047024600209A4B586820F47C100B
:1009200042EA01031843974B58607047984908669C
:10093000704701460020934A506820F003000843A6
:10094000506070478F48406800F00C0070470146C7
:1009500000208C4A506820F0F00008435060704737
:1009600001460020874A506820F4E0600843506048
:10097000704701460020834A506820F4605040EAE6
:10098000C1005060704729B17E4A527A02437D4BC4
:100990005A7204E07B4A527A82437A4B5A72704709
:1009A0007B49D8310860704701460020754A50687D
:1009B00020F440400843506070470021714A2032C3
:1009C0001170704A82F82010012802D004280AD140
:1009D00004E001216B4A2032117005E00521694ACB
:1009E0002032117000E000BF00BF70476949086005
:1009F00070476449096A0143624A11627047654958
:100A000044390860704730B50021002200240023DB
:100A10005C4D6D6805F00C0121B1042905D0082951
:100A200023D105E05C4D056022E05B4D05601FE0D1
:100A3000544D6D6805F47012524D6D6805F48034A4
:100A4000022505EB92421CB9544D554305600BE05D
:100A50004C4D6D6805F400351DB1504D5543056092
:100A600002E04D4D5543056002E04B4D056000BF6F
:100A700000BF444D6D6805F0F0010909484D6B5CFD
:100A80000568DD4045603F4D6D6805F4E061090A89
:100A9000434D6B5C4568DD4085603A4D6D6805F4FB
:100AA0006051C90A3E4D6B5C4568DD40C560354DFF
:100AB0006D6805F44041890B3A4D6B5CC568B5FB28
:100AC000F3F5056130BD29B12E4A526902432D4B21
:100AD0005A6104E02B4A526982432A4B5A6170479B
:100AE00029B1284A92690243264B9A6104E0254ABB
:100AF00092698243234B9A61704729B1214AD26996
:100B00000243204BDA6104E01E4AD26982431D4B46
:100B1000DA61704729B11B4AD2680243194BDA6087
:100B200004E0184AD2688243164BDA60704729B154
:100B3000144A12690243134B1A6104E0114A126904
:100B40008243104B1A617047124940390860704760
:100B50000F49C86470470B49C87170470948406A1B
:100B600040F0807007494862704701460020054AFE
:100B700092680A400AB1012000E000207047014954
:100B800088727047001002400000FFF8FFFFF6FE79
:100B9000000042428004424200127A0000093D00F7
:100BA000180000202800002010B50446FB488442AD
:100BB00009D101218803FFF7ADFF00214FF48040E8
:100BC000FFF7A8FF32E0F648844209D1012148042A
:100BD000FFF7ADFF00214FF40030FFF7A8FF25E03D
:100BE000F048844209D101218804FFF7A0FF0021C9
:100BF0004FF48020FFF79BFF18E0EB48844209D1B7
:100C00000121C804FFF793FF00214FF40020FFF7F4
:100C10008EFF0BE0E548844208D101210805FFF76B
:100C200086FF00214FF48010FFF781FF10BD2DE9F2
:100C3000F04786B005460E460024A24600BFA146F6
:100C40000027B08900B100BF2F462C8A4CF6FF70F8
:100C50000440F08804432C82AC894EF6F310044023
:100C6000B08831890843718908430443AC81AC8A58
:100C70004FF6FF400440B0890443AC8201A8FFF75F
:100C8000C2FEC648874202D1DDF810A001E0DDF8BF
:100C90000CA0A88900F4004040B10AEBCA0000EBA8
:100CA0000A1031684900B0FBF1F807E00AEBCA000E
:100CB00000EB0A1031688900B0FBF1F86420B8FB42
:100CC000F0F004012009642101FB1089A88900F4D7
:100CD000004040B1322000EBC900B0FBF1F000F061
:100CE0000700044308E0322000EB09106421B0FB48
:100CF000F1F000F00F0004432C8106B0BDE8F0874E
:100D00004FF41651016000218180C18001810C21C6
:100D1000418100218181704710B502460020108A70
:100D20004FF2FF0318400B884C8823438C882343E1
:100D3000CC8823431843108210BD002101804180DC
:100D40008180C180704721B1828942F40052828142
:100D500004E082894DF6FF731A4082817047F0B536
:100D60000346002400260025002040F66A17B942F9
:100D700000D100BF1846C1F3421401F01F0601273D
:100D800007FA06F5012C01D10C3004E0022C01D148
:100D9000103000E014301AB107682F43076002E0FA
:100DA0000768AF430760F0BD1AB1838A0B438382A3
:100DB00002E0838A8B4383827047028A4FF6F07386
:100DC0001A400282028A0A430282704782894FF2E5
:100DD000FF731A40828182890A438281704721B160
:100DE000828942F00202828104E082894FF6FD731B
:100DF0001A4082817047028A4FF6DF731A400282DE
:100E0000028A0A430282704721B1028A42F4804278
:100E1000028204E0028A4BF6FF731A400282704796
:100E2000C1F308028280704701468888C0F3080039
:100E30007047818941F0010181817047028BD2B2F4
:100E40000283028B42EA012202837047028B02F482
:100E50007F420283028B0A430283704721B1828A58
:100E600042F02002828204E0828A4FF6DF731A4049
:100E70008282704721B1828A42F01002828204E0AD
:100E8000828A4FF6EF731A408282704721B1828ABC
:100E900042F00802828204E0828A4FF6F7731A4019
:100EA0008282704721B1828942F40042828103E04C
:100EB0008289C2F30E028281704721B1828A42F494
:100EC0000062828204E0828A4FF2FF731A408282BB
:100ED0007047828A4FF6FB731A408282828A0A43E5
:100EE0008282704721B1828A42F00202828204E04B
:100EF000828A4FF6FD731A408282704702460020B4
:100F0000B1F5007F00D100BF13880B400BB1012069
:100F100000E00020704701F40072B2F5007F00D1BC
:100F200000BFCA430280704770B502460024002308
:100F30000025002040F66A16B14200D100BFC1F37F
:100F4000421501F01F03012606FA03F3012D02D119
:100F50009689334006E0022D02D1168A334001E023
:100F6000968A33400C12012606FA04F4168834409F
:100F700013B10CB1012000E0002070BD10B50022BB
:100F8000002340F66A14A14200D100BF0A120124D6
:100F90009440A3B2DC43048010BD0000003801403F
:100FA0000044004000480040004C00400050004019
:100FB00031490143314A1160704770B50021002367
:100FC0000F22C47804B32D4C246804F4E064C4F503
:100FD000E064210AC1F10403CA40447804FA03F131
:100FE0008478144021430901254C0678A1550478E2
:100FF00004F01F050124AC4005786D11AD0005F12A
:10100000E025C5F8004109E0047804F01F0501243B
:10101000AC401C4D0678761145F8264070BD1A4A42
:101020000A400243154B1B1F1A60704739B1134A1F
:10103000121D12680243114B1B1D1A6006E00F4A75
:10104000121D126882430D4B1B1D1A607047042845
:1010500008D14FF0E021096941F004014FF0E0228E
:10106000116107E04FF0E021096921F004014FF020
:10107000E0221161704700000000FA050CED00E06D
:1010800000E400E080E100E080FFFF1F0020444911
:101090000860091D0860091D0860091D08604148B5
:1010A0003F4914310860704700213D498279002A88
:1010B0003AD00A46126803689A430B461A600A1D22
:1010C000126803689A430B1D1A60027911440A687A
:1010D00003681A430A60324A0832126803689A4366
:1010E0002F4B08331A601A1D126803689A432C4B61
:1010F0000C331A604279102A0ED11A1F1268036845
:101100001A43274B08331A601A1D126803681A43E2
:10111000234B0C331A600DE02149427911440A68CF
:1011200003681A430A6005E0027911440A680368FB
:101130009A430A6070470021016001710C214171DE
:101140000021817170471649103109680143144A22
:1011500010321160704701460020114A14321268A3
:101160000A400AB1012000E0002070470C49143108
:1011700008607047014600200022094B1B6803EA03
:101180000102074B14331B680B4013B10AB1012055
:1011900000E00020704702491431086070470000E9
:1011A00000040140FFFF0F0010B50446FE488442D2
:1011B00008D10121C014FFF7ADFC0021E014FFF7B6
:1011C000A9FCC4E0B4F1804F08D101210846FFF723
:1011D000AEFC00210120FFF7AAFCB8E0F3488442EE
:1011E00008D101210220FFF7A2FC00210220FFF715
:1011F0009EFCACE0EE48844208D101210420FFF7B8
:1012000096FC00210420FFF792FCA0E0E94884420C
:1012100008D101210820FFF78AFC00210820FFF7F0
:1012200086FC94E0E448844208D101211020FFF7B5
:101230007EFC00211020FFF77AFC88E0DF48844222
:1012400008D101212020FFF772FC00212020FFF7A8
:101250006EFC7CE0DA48844208D101214014FFF79B
:1012600059FC00216014FFF755FC70E0D54884421A
:1012700009D10121C804FFF74DFC00214FF40020E3
:10128000FFF748FC63E0D048844209D101210805FA
:10129000FFF740FC00214FF48010FFF73BFC56E0C5
:1012A000CA48844209D101214805FFF733FC0021D7
:1012B0004FF40010FFF72EFC49E0C548844208D1E6
:1012C00001214020FFF733FC00214020FFF72FFCD5
:1012D0003DE0C048844208D101218020FFF727FC6F
:1012E00000218020FFF723FC31E0BB48844208D175
:1012F00001218015FFF71BFC0021A015FFF717FC4B
:1013000025E0B648844209D101210804FFF702FC18
:1013100000214FF48030FFF7FDFB18E0B048844215
:1013200009D101214804FFF7F5FB00214FF40030FB
:10133000FFF7F0FB0BE0AB48844208D101218804A1
:10134000FFF7E8FB00214FF48020FFF7E3FB10BD1F
:1013500000220288944B98420ED0994B98420BD0B1
:10136000B0F1804F08D0914B984205D0904B9842F5
:1013700002D0904B984204D14FF68F731A404B889D
:101380001A438D4B984207D08C4B984204D04FF6AD
:10139000FF431A40CB881A4302808B8883850B88D1
:1013A0000385814B98420BD0854B984208D08B4BDC
:1013B000984205D08A4B984202D08A4B984201D17C
:1013C0000B7A038601238382704770B500240022C4
:1013D0000023058C4FF6FE7635400584028C838809
:1013E000048B4FF68F752C40B51E2C400D882C4376
:1013F000751E2A400D892A434D882A436A4DA8420A
:101400000BD06F4DA84208D0744DA84205D0744D42
:10141000A84202D0734DA84213D14FF6F7752A4067
:101420004D892A434FF6FB752A408D882A434FF693
:10143000FF652B404FF6FF552B408D892B43CD89FF
:101440002B4383800483CD888586028470BD70B56C
:10145000002400220023058C4FF6EF7635400584EA
:10146000028C8388048B48F6FF752C404FF6FF45AD
:101470002C400D884FF6FF7606EA05252C434FF6E3
:10148000DF752A400D8906EA05152A434D8806EACC
:1014900005152A43444DA84202D0494DA8421DD10A
:1014A0004FF67F752A404D894FF6FF7606EA0515FF
:1014B0002A434FF6BF752A408D8806EA05152A4350
:1014C0004FF6FF352B404FF2FF752B408D8906EA12
:1014D00085052B43CD8906EA85052B43838004834C
:1014E000CD880587028470BD70B5002400220023DA
:1014F000058C4FF6FF6635400584028C8388848B0B
:101500004FF68F752C404FF6FC752C400D882C4300
:101510004FF6FF552A400D894FF6FF7606EA05255E
:101520002A434D8806EA05252A431F4DA84202D0CA
:10153000234DA8421DD14FF2FF752A404D894FF629
:10154000FF7606EA05252A434FF6FF352A408D88A7
:1015500006EA05252A434EF6FF752B404DF6FF752A
:101560002B408D8906EA05152B43CD8906EA051522
:101570002B4383808483CD888587028470BD70B5BA
:10158000002200230024058C4EF6FF7635400584AA
:10159000038C8488828B48F6FF752A404FF6FF45FE
:1015A0002A400D8820E00000002C0140000400408B
:1015B00000080040000C00400010004000140040F3
:1015C00000340140004C01400050014000540140F3
:1015D00000180040001C0040002000400040014076
:1015E00000440140004801404FF6FF7606EA052519
:1015F0002A434DF6FF752B400D8906EA05352B432E
:101600004D8806EA05352B43FA4DA84202D0FA4D23
:10161000A84208D14BF6FF752C408D894FF6FF7616
:1016200006EA85152C4384808283CD88A0F840503B
:10163000038470BD828B4FF2FF331A408283828B0A
:101640004FF6FF7303EA01231A4382837047F0B514
:101650000C461546002200210026078C4EF6FF7C22
:1016600007EA0C070784828B018C4FF6FF7707EAA5
:10167000043640F6FF473A404FF6FF7707EA052762
:101680003A434FF6FF7707EA03373A43D94FB84258
:101690000ED0D94FB8420BD0B0F1804F08D0D74F01
:1016A000B84205D0D64FB84202D0D64FB84206D184
:1016B0004DF6FF77394046F48057394305E047F649
:1016C000FF57394044F48057394382830184F0BD89
:1016D000828B4FF6F3731A408283828B0A43828394
:1016E0007047F0B50C461546002200210026078CF5
:1016F0004FF6FF6C07EA0C070784828B018C4FF6CC
:10170000FF7707EA04264FF60C773A404FF6FF774B
:1017100007EA03172F433A43B64FB8420ED0B64FED
:10172000B8420BD0B0F1804F08D0B44FB84205D0CA
:10173000B34FB84202D0B34FB84206D14FF6FF576D
:10174000394046F48077394305E04FF2FF5739407E
:1017500044F48077394382830184F0BD028B4FF2D9
:10176000FF331A400283028B4FF6FF7303EA012313
:101770001A4302837047F0B50C461546002200213B
:101780000026078C4FF6EF7C07EA0C070784028BD4
:10179000018C4FF6FF7707EA041640F6FF473A4000
:1017A0004FF6FF7707EA03373A434FF6FF7707EA2A
:1017B00005273A438F4FB8420ED08F4FB8420BD017
:1017C000B0F1804F08D08D4FB84205D08C4FB84251
:1017D00002D08C4FB84206D14FF6DF77394046F041
:1017E0001007394305E04FF65F77394044F01007A2
:1017F000394302830184F0BD028B4FF6F3731A4024
:101800000283028B0A4302837047F0B50C461546EB
:1018100000220021068C4FF6FE773E400684028BA4
:10182000018C4FF60C7632407E1C06EA03162E43DE
:101830003243704EB0420ED06F4EB0420BD0B0F17A
:10184000804F08D06D4EB04205D06D4EB04202D0F0
:101850006C4EB04206D14FF6FD76314044F00106A1
:10186000314305E04FF6F576314044F0010631434F
:1018700002830184F0BD70B505460C465D48854283
:101880000ED05D4885420BD0B5F1804F08D05B4843
:10189000854205D05A48854202D05A48854200D137
:1018A00000E000BF208850B92389A28861882846BB
:1018B000FFF7ABFFE1882846FFF79EFF25E0208871
:1018C00004280AD12389A28861882846FFF753FF9C
:1018D000E1882846FFF742FF17E0208808280AD150
:1018E0002389A28861882846FFF7FBFEE188284605
:1018F000FFF7EEFE09E02389A28861882846FFF7FA
:10190000A6FEE1882846FFF795FE70BD2DE9F0415F
:1019100005460C4600260127608808B9022600E02B
:101920000026A088012801D1022700E00127208895
:10193000A0B92389A28861882846FFF766FFE1885D
:101940002846FFF759FF23893A4631462846FFF7D4
:1019500012FFE1882846FFF701FF13E02389A288E0
:1019600061882846FFF707FFE1882846FFF7F6FE63
:1019700023893A4631462846FFF747FFE188284643
:10198000FFF73AFFBDE8F0810A884B881A438B883D
:101990001A43CB881A430B891A434B891A438B8904
:1019A0001A43A0F8442070474FF6FF718180002150
:1019B0000180C18041800172704700210180418017
:1019C0008180C180018141818181C1817047002175
:1019D00001804180012181800021C1800181704707
:1019E0000021018041808180C1800181418181810C
:1019F00070470000002C014000340140000400400A
:101A000000080040000C004021B1028842F00102B1
:101A1000028004E002884FF6FE731A40028070478D
:101A200031B1B0F8442042F40042A0F8442005E06F
:101A3000B0F84420C2F30E02A0F8442070471AB157
:101A400083890B43838102E083898B4383817047C1
:101A50008182704741EA0203A0F8483070471AB10A
:101A600083890B43838102E083898B4383817047A1
:101A700001894FF6F8721140018170470A46002132
:101A800001894FF68F73194011430181704730B5BA
:101A900004460D4629462046FFF7F0FF208940F016
:101AA0000700208130BD2DE9F04104460D46164661
:101AB0001F46602D06D13B46012231462046FFF7E6
:101AC0005AFE05E03B46012231462046FFF79DFEC7
:101AD00029462046FFF7D2FF208940F007002081E9
:101AE000BDE8F08130B50C4600210189C9B24FF63E
:101AF000FF7505EA0325154325432943018130BDC0
:101B00002DE9F04105460E46174698460024434607
:101B10003A4631462846FFF7E5FF2C894FF6F87024
:101B2000044044F007044FF68F70044044F0700402
:101B30002C81BDE8F081F0B504460D4616461F46DF
:101B40003B46324629462046FFF7CCFF208940F429
:101B500080402081F0BD0185828270470A460021C5
:101B600001884FF68F731940114301807047F0B51B
:101B70000C4615461E460021002200230189028BD7
:101B8000038C4FF6F877394021434FF6FC473A4033
:101B900040F201173A434FF6DD773B404FF6FF77AF
:101BA00007EA06172F433B43018102830384F0BDFC
:101BB0000A460021018B4FF68F73194011430183B0
:101BC00070470A460021018B48F6FF7319404FF613
:101BD000FF7303EA02231943018370470A46002179
:101BE000818B4FF68F7319401143818370470A46EA
:101BF0000021818B48F6FF7319404FF6FF7303EA0B
:101C0000022319438183704721B1028842F0800288
:101C1000028004E002884FF67F731A40028070470A
:101C200021B1828842F00402828004E082884FF66B
:101C3000FB731A408280704721B1828842F008020B
:101C4000828004E082884FF6F7731A4082807047E2
:101C500021B1828842F00102828004E082884FF63E
:101C6000FE731A40828070470A460021018B4FF6AE
:101C7000F77319401143018370470A460021018B15
:101C80004FF2FF7319404FF6FF7303EA0223194323
:101C9000018370470A460021818B4FF6F773194084
:101CA0001143818370470A460021818B4FF2FF73F5
:101CB00019404FF6FF7303EA0223194381837047EB
:101CC0000A460021018B4FF6FB7319401143018333
:101CD00070470A460021018B4FF6FF3319404FF63B
:101CE000FF7303EA02231943018370470A46002168
:101CF000818B4FF6FB7319401143818370470A466D
:101D00000021818B4FF6FF3319404FF6FF7303EA32
:101D100002231943818370470A460021018B4FF645
:101D20007F7319401143018370470A460021018BDC
:101D3000C1F30E014FF6FF7303EA02231943018337
:101D400070470A460021818B4FF67F73194011437B
:101D5000818370470A460021818BC1F30E014FF643
:101D6000FF7303EA02231943818370470A46002167
:101D7000018C4FF6FD7319401143018470470A46E8
:101D80000021018C4FF6F77319401143018470470D
:101D90000A460021018C4FF6DF7319404FF6FF739E
:101DA00003EA02131943018470470A460021018C9B
:101DB0004FF67F7319404FF6FF7303EA021319437E
:101DC000018470470A460021018C4FF6FF531940E9
:101DD0004FF6FF7303EA02231943018470470A4652
:101DE0000021018C4FF2FF7319404FF6FF7303EA95
:101DF00002231943018470470A460021018C4DF6E5
:101E0000FF7319404FF6FF7303EA0233194301844D
:101E1000704730B5002301248C40A3B2048C9C434E
:101E20000484048C02FA01F5ADB22C43048430BD65
:101E300030B5002304248C40A3B2048C9C4304845A
:101E4000048C02FA01F5ADB22C43048430BD70B5A8
:101E50000346002000241846183001258D40ACB2FE
:101E60001D8CA5431D8409B1082909D100EB61002F
:101E7000056825F0700505600568154305600EE0EE
:101E80000D1FC5F34E052844056825F4E04505609F
:101E900005684FF6FF7606EA02263543056070BDF9
:101EA00021B1028842F00202028004E002884FF66B
:101EB000FD731A400280704721B1028842F004028B
:101EC000028004E002884FF6FB731A4002807047DC
:101ED00021B1828842F08002828004E082884FF63D
:101EE0007F731A408280704702884FF6F7731A405A
:101EF000028002880A430280704782884FF68F73FF
:101F00001A40828082880A438280704702894FF695
:101F1000F8731A40028102890A43028170470289DC
:101F20004FF67F731A40028102890A43028170478B
:101F3000818470478185704781867047018770472B
:101F400081877047A0F84010704702884FF6FF4322
:101F50001A40028002880A43028070470146888E38
:101F600070470146088F70470146888F70470146C9
:101F7000B1F8400070470146888C70470146088DD3
:101F8000704702460020138A0B400BB1012000E08D
:101F900000207047CA430282704730B502460020D5
:101FA00000230024158A05EA0103958905EA010446
:101FB00013B10CB1012000E0002030BDCA43028201
:101FC0007047000010B50446FA48844208D1012148
:101FD0004015FEF79FFD00216015FEF79BFD17E001
:101FE000F548844208D101210015FEF793FD002138
:101FF0002015FEF78FFD0BE0F048844208D1012147
:10200000C803FEF787FD00214FF40040FEF782FD74
:1020100010BD30B50246002000235068E84C204037
:102020000D790C6844EA0524204350609068E54C23
:102030002040D1E902542C434D7944EA4504204321
:102040009060D06A20F470000C7C641EE4B22343DC
:1020500040EA0350D06230BD00210160017141713E
:102060008160C16001210174704721B1826842F032
:102070000102826003E0826822F001028260704700
:1020800021B1826842F48072826003E0826822F4A7
:1020900080728260704710B50023CBB21AB14468D9
:1020A0001C43446002E044689C43446010BD816866
:1020B00041F0080181607047014600208A6802F003
:1020C00008020AB1012000E000207047816841F059
:1020D000040181607047014600208A6802F0040212
:1020E0000AB1012000E00020704721B1826842F46B
:1020F000A002826003E0826822F4A002826070473E
:10210000014600208A6802F480020AB1012000E042
:102110000020704710B50A4600210023416821F4D1
:102120006041531E41EA4331416010BD21B1426814
:1021300042F40062426003E0426822F400624260BE
:102140007047F0B504460D4600200021092D11DD31
:10215000E068A5F10A0606EB4607072606FA07F12E
:102160008843A5F10A0606EB460603FA06F1084382
:10217000E0600CE0206905EB4507072606FA07F149
:10218000884305EB450603FA06F108432061072A58
:102190000FDA606B561E06EB86071F2606FA07F15C
:1021A0008843561E06EB860605FA06F1084360636F
:1021B00022E00D2A0FDA206BD61F06EB86071F26BA
:1021C00006FA07F18843D61F06EB860605FA06F1E4
:1021D0000843206310E0E06AA2F10D0606EB8607D3
:1021E0001F2606FA07F18843A2F10D0606EB8606C4
:1021F00005FA06F10843E062F0BD21B1826842F4BD
:102200008012826003E0826822F48012826070474C
:102210000146C86C80B2704766484C300068704711
:1022200021B1426842F48062426003E0426822F4D5
:1022300080624260704721B1426842F4805242603D
:1022400003E0426822F48052426070470A4600214F
:10225000816821F4E04111438160704721B18268B7
:1022600042F40042826003E0826822F4004282600D
:10227000704721B1826842F40212826003E08268F2
:1022800022F4021282607047014600208A6802F43C
:1022900000120AB1012000E000207047F0B50446AA
:1022A0001546002000220026092911DDE068A1F171
:1022B0000A0707EB470C072707FA0CF29043A1F136
:1022C0000A0707EB470703FA07F21043E0600CE048
:1022D000206901EB410C072707FA0CF2904301EB50
:1022E000410703FA07F210432061A06BC0F30156C7
:1022F000EF1C06F1010CA7EB0C0707EB870C1F275F
:1023000007FA0CF29043EF1C06F1010CA7EB0C0747
:1023100007EB870701FA07F21043A063F0BD10B581
:102320000A4600210023816B21F44011531E41EA2B
:102330000351816310BD08B5002300930090009BFA
:102340000B440093009B1A6008BD08B502460020AC
:102350000090009201F12800009B18440090009822
:10236000006880B208BD0A4600214168164B19403A
:102370001143416070474162826270470A46002102
:10238000416821F01F0111434160704740B1094984
:102390000831096841F40001064A0832116007E07B
:1023A00004490831096821F40001024A0832116029
:1023B000704700000024014000280140003C01401B
:1023C000FFFEF0FFFDF7F1FFFFFD3FFF024600209B
:1023D00013680B400BB1012000E000207047CA4396
:1023E0000260704770B502460020002300240B12E3
:1023F0005568CEB205EA060415681D4015B10CB14A
:10240000012000E0002070BD00220A12D3430360C7
:102410007047000010B501214807FEF788FB002136
:102420004FF00050FEF783FB10BD30B500220023B3
:102430005A4C226840F6FE748440A243D1E900451C
:102440002C438D682C43CD6844EA050303FA00F45D
:102450002243524C226030BD002101604160816006
:10246000C160704739B14D4A1268012383401A4355
:102470004A4B1A6006E0494A1268012383409A4396
:10248000464B1A60704741B1444A12684FF480537A
:1024900083401A43414B1A6007E0404A12684FF4E8
:1024A000805383409A433D4B1A60704710B551B139
:1024B0003A4A121D126804090123A3401A43374BFC
:1024C0001B1D1A6009E0354A121D12680409012318
:1024D000A3409A43314B1B1D1A6010BD40B12F49D8
:1024E000091D096841F003012C4A121D116007E023
:1024F0002A49091D096821F00301284A121D1160AB
:10250000704710B53AB1254B1B6801FA00F423431C
:10251000224C236006E0214B1B6801FA00F4A34320
:102520001E4C236010BD08B5002200921B4A009289
:1025300000F10802009B1A440092009A116008BD45
:1025400008B500220092154A009200F11402009B87
:102550001A440092009A116008BD30B5002400238F
:10256000082802D142EA012401E042EA01440B4B6F
:1025700000F120052B441C6030BD08B50146002049
:102580000090064800902C2000EB9100009A104427
:1025900000900098006880B208BD00000074004000
:1025A00010B50446BE48844208D101218014FEF7CC
:1025B000B1FA0021A014FEF7ADFA16E0B948844242
:1025C00008D101210014FEF7B2FA00212014FEF711
:1025D000AEFA0AE0B448844207D10121C013FEF7E5
:1025E000A6FA0021E013FEF7A2FA10BD10B50022F2
:1025F000028802F441520B884C8823438C88234381
:10260000CC8823430C8923434C8923438C8923435F
:10261000CC8923431A430280838B4FF2FF742340FB
:1026200083830B8A038210BD2DE9F04F85B00546E8
:102630000C464FF0000902274FF000084FF0010B45
:102640000026B246A88B4FF240010840A883022022
:102650002884B5F81C90A068022801D100BF38E09A
:10266000A08810B94FF0010B01E04FF0020B8D482C
:10267000854200D100E000BF6846FEF7C4F9DDF8EE
:1026800000A0E088B0F5007F0AD14FEA1A2000EBE5
:1026900080004000A168B0FBF1F0401D86B20BE065
:1026A0004FEA4B10BAFBF0F000EB80004000A1684D
:1026B000B0FBF1F0401D86B20A20B6FBF0F606F042
:1026C0000108A6EB0800C0F34F074FF6FF7000EAC1
:1026D0000828022F01DBFF2F02DD02274FF0000840
:1026E000E08840EA080038432884A088A18908438C
:1026F000618808432188084340F4006040EA0909E2
:10270000A5F81C9005B0BDE8F08F00210180418044
:102710008180C180018141818181C1810721018244
:1027200070470021018041808180C1800221816049
:1027300000218181704721B1028842F0400202806D
:1027400004E002884FF6BF731A400280704721B13F
:10275000828B42F48062828304E0828B4FF6FF33E7
:102760001A408283704730B5002400230C110125E4
:10277000A540ABB21AB185881D43858002E08588EB
:102780009D43858030BD1AB183880B43838002E06E
:1027900083888B4383807047818170470146888995
:1027A00070474FF6FF62914204D0028842F4807273
:1027B000028004E002884FF6FF631A4002807047EF
:1027C00021B1828842F00402828004E082884FF6C0
:1027D000FB731A408280704702884FF2FF731A40E1
:1027E000028002880A4302807047018841F48051C8
:1027F0000180704721B1028842F40052028004E057
:1028000002884DF6FF731A4002807047024600208E
:10281000012901D0108B00E0908A70470146088A98
:102820007047B1F5804F04D1028842F480420280A3
:1028300004E002884BF6FF731A400280704702469C
:10284000002013890B400BB1012000E000207047ED
:10285000CA4302817047F0B50246002000240023DD
:10286000002501F00F070126BE40B4B20B1101266E
:102870009E40B3B2968806EA03051689264016B133
:102880000DB1012000E00020F0BD10B5002201F0E4
:102890000F040123A3409AB2D343038110BD00006B
:1028A0000030014000380040003C0040014600205C
:1028B000FE4A106800F03800084310607047FB497A
:1028C000096821F00801F94A1160114609680143BD
:1028D00011607047F549096821F01001F34A116051
:1028E00011460968014311607047F148EF4948609B
:1028F000F04848607047EE48EC494860ED48486051
:102900007047EA48006940F08000E8490861704774
:10291000E648006940F08000E449086170470420FF
:10292000E249C96801F0010109B101200EE0DF4967
:10293000C96801F0040109B1022007E0DB49C96858
:1029400001F0100109B1032000E00420704700B538
:1029500002460423FFF7E3FF034603E0FFF7DFFF30
:102960000346521E012B01D1002AF7D102B90523DB
:10297000184600BD30B5044604254FF43020FFF75B
:10298000E6FF0546042D17D1C848006940F0020053
:10299000C649086108464461006940F0400008618A
:1029A0004FF43020FFF7D3FF0546C048006941F6D9
:1029B000FD710840BD490861284630BD10B50424AA
:1029C0004FF43020FFF7C3FF0446042C16D1B7485C
:1029D000006940F00400B54908610846006940F00C
:1029E000400008614FF43020FFF7B1FF0446AF48C4
:1029F000006941F6FB710840AC490861204610BDF2
:102A000000B502460423FFF78AFF034603E0FFF701
:102A100086FF0346521E012B01D1002AF7D102B9CD
:102A20000523184600BD10B504244FF43020FFF7ED
:102A3000E7FF0446042C16D19C48006940F00400CE
:102A40009A4908610846006940F0400008614FF467
:102A50003020FFF7D5FF04469448006941F6FB712A
:102A6000084092490861204610BD00208F49C9697D
:102A700001F0020109B1012000E00020704730B5EB
:102A8000A5250424FFF7F1FF00B100254FF4302005
:102A9000FFF75DFF0446042C3AD1854883498860DE
:102AA000844888600846006940F0200008610846B4
:102AB000006940F0400008614FF43020FFF747FF05
:102AC0000446042C1BD17948006941F6DF710840A7
:102AD000764908610846006940F0100008617648B0
:102AE0000580E002FFF733FF0446052C10D06F4845
:102AF000006941F6EF7108406C49086108E0052C57
:102B000006D06A48006941F6EF71084067490861DC
:102B1000204630BD78B506460C46042500200090BE
:102B2000E802FFF714FF0546042D24D15F48006931
:102B300040F001005D4908613480E802FFF707FFBB
:102B40000546042D10D1B01C0090200C009908807F
:102B5000E802FFF7FCFE05465448006941F6FE71A5
:102B600008405249086106E05048006941F6FE718C
:102B700008404E490861284678BD70B504460D46A8
:102B80000426F002FFF7E3FE0646042E11D1474863
:102B9000006940F00100454908612580F002FFF717
:102BA000D6FE06464148006941F6FE7108403F499D
:102BB0000861304670BD70B505460E460424E0023B
:102BC000FFF7C5FE0446042C17D139483749886001
:102BD000384888600846006940F0100008612E807F
:102BE000E002FFF7B4FE0446052C06D02F4800692A
:102BF00041F6EF7108402D490861204670BD2DE96E
:102C0000F04304464FF6FF763746B046B1460425FA
:102C1000E443E6B2C4F30727C4F307484FEA146954
:102C2000E802FFF794FE0546042D49D120481F49CC
:102C30008860204888600846006940F010000861FC
:102C4000FF2E06D01C4808300680E802FFF77FFE02
:102C50000546042D08D1FF2F06D017480A300780FB
:102C6000E802FFF774FE0546042D0AD1B8F1FF0F04
:102C700007D011480C30A0F80080E802FFF767FE8B
:102C80000546042D0AD1B9F1FF0F07D00A480E30CE
:102C9000A0F80090E802FFF75AFE0546052D0FD078
:102CA0000248006941F6EF71084007E00020024049
:102CB00023016745AB89EFCD00F8FF1F6649086126
:102CC0002846BDE8F08330B5054604244FF4302093
:102CD000FFF73DFE0446042C41D160485E49886000
:102CE0005F4888600846006940F020000861084697
:102CF000006940F0400008614FF43020FFF727FEE4
:102D00000446042C22D15448006941F6DF71084082
:102D1000514908610846006940F0100008611DB182
:102D200000205049088002E0A5204E4908804FF459
:102D30003020FFF70CFE0446052C10D046480069F1
:102D400041F6EF7108404449086108E0052C06D0BF
:102D50004148006941F6DF7108403F49086120465B
:102D600030BDF0B505460E46174604243B483A49A7
:102D700088603B488860E002FFF7E9FD0446042CC8
:102D800019D13548006940F010003349086147F017
:102D9000F800304328433349891C0880E002FFF7DC
:102DA000D6FD0446052C06D02B48006941F6EF718C
:102DB0000840294908612046F0BD2748C0698008BD
:102DC00070472548006A704700202349096801F0D0
:102DD000200109B1012000E00020704729B11E4AFE
:102DE000126902431C4B1A6104E01B4A12698243B8
:102DF000194B1A61704701460020012908D1164A73
:102E0000D26902F001020AB1012008E0002006E0C8
:102E1000114AD2680A400AB1012000E00020704740
:102E20000D49C860704704200B49C96801F00101D1
:102E300009B101200EE00849C96801F0040109B197
:102E4000022007E00449C96801F0100109B103201C
:102E500000E0042070470000002002402301674585
:102E6000AB89EFCD00F8FF1F00BF0100A0F101000A
:102E7000FBD1704708B5FDF784FA01211020FDF75A
:102E80002FFE4FF46040ADF8000010208DF80300D5
:102E900003208DF8020069462A48FDF765FB08BD4E
:102EA00000B50120284908602848FFF7DDFF002011
:102EB0002749C1F8BC012548FFF7D6FF00BD10B572
:102EC00000240BE00120A040C04381B21D48FDF763
:102ED00001FC2048FFF7C8FF601CC4B2082CF1DBDE
:102EE00000240BE080202041C04381B21548FDF74B
:102EF000F1FB1848FFF7B8FF601CC4B2082CF1DBE7
:102F000000240BE01120A040C04381B20D48FDF722
:102F1000E1FB1048FFF7A8FF601CC4B2042CF1DBF2
:102F200000240BE088202041C04381B20548FDF712
:102F3000D1FB0848FFF798FF601CC4B2042CF1DBFA
:102F400010BD000000100140BC012242808D5B00DA
:102F50000000224280841E00014601EBC1024FF0B6
:102F6000E0235A6101221A6100229A6100BF4FF0EA
:102F7000E022106900F001021AB100F48032002A48
:102F8000F5D000224FF0E0231A619A6170470146A4
:102F900042F228324A434FF0E0235A6101221A617B
:102FA00000229A6100BF4FF0E022106900F0010298
:102FB0001AB100F48032002AF5D000224FF0E0234D
:102FC0001A619A61704710B504466FF00400FEF76D
:102FD0003EF8E11704EB5171C1F3C701074A1170C4
:102FE0001046007800EB4001C1EBC0104FF6FF71B6
:102FF00001EAC0000249088010BD00002C0000203A
:103000002E00002070B504460D46E1B23048FDF7B1
:1030100007FF00BF80212E48FDF770FF0028F9D080
:10302000204670BD00B587B0012144F20500FDF7D0
:1030300057FD4FF40070ADF8180003208DF81A000A
:1030400018208DF81B0006A92248FDF78DFA4FF4D1
:103050008060ADF8180004208DF81B0006A91D48FB
:10306000FDF782FA4FF4C060FDF7A2FF25208DF82E
:10307000140000208DF8150001208DF816008DF841
:10308000170005A8FDF799FF4FF416500190002096
:10309000ADF80800ADF80A00ADF80C00ADF810006E
:1030A0000C20ADF80E0001A90948FDF7C0FD012173
:1030B0000748FDF748FE012240F225510448FDF77C
:1030C0004EFE40210248FDF726FF07B000BD00007C
:1030D000003801400008014000B585B001210420FE
:1030E000FDF7FEFC01214807FDF707FD1020ADF8B4
:1030F000100000208DF8130003208DF8120004A9A1
:103100002148FDF731FA10211F48FDF7DAFA0020B7
:103110000090019002900220039069460020FFF782
:1031200084F901210020FFF79DF900210846FFF7EF
:10313000FAF905B000BD2DE9F0470446204601F03C
:10314000A0FC81461149484601F0EEFB81464FF054
:103150008B41484601F0B6FB824601F0ABFC0746C6
:103160004FF066320A4B01F01DFC054601F0B5FC3C
:103170008146484601F08AFC85B229460020FFF7C7
:10318000D2F9BDE8F08700000008014000007A4451
:1031900066660A4000B587B0012140F20520FDF7C0
:1031A0009FFC4FF40040FDF7FFFB0120ADF8180035
:1031B00000208DF81B0003208DF81A0006A96F4827
:1031C000FDF7D2F9002001908DF808008DF8090074
:1031D0004FF4602003900020049001208DF814002B
:1031E00001A96748FEF715FF01216548FEF73DFF7D
:1031F0006348FEF75CFF00BF6148FEF75DFF0028F3
:10320000FAD15F48FEF762FF00BF5D48FEF763FF3B
:103210000028FAD1072301220A215948FEF791FF1D
:1032200001215748FEF761FF0220ADF81800002089
:103230008DF81B0003208DF81A0006A94F48FDF7F2
:1032400093F9002001908DF808008DF809004FF4E3
:10325000602003900020049001208DF8140001A943
:103260004748FEF7D6FE01214548FEF7FEFE4448DA
:10327000FEF71DFF00BF4248FEF71EFF0028FAD1EF
:103280003F48FEF723FF00BF3D48FEF724FF00281C
:10329000FAD1072301220A213948FEF752FF012102
:1032A0003748FEF722FF0420ADF8180000208DF803
:1032B0001B0003208DF81A0006A93048FDF754F9C9
:1032C000002001908DF808008DF809004FF460206F
:1032D00003900020049001208DF8140001A92848D3
:1032E000FEF797FE01212648FEF7BFFE2448FEF7B1
:1032F000DEFE00BF2248FEF7DFFE0028FAD120489C
:10330000FEF7E4FE00BF1E48FEF7E5FE0028FAD1F6
:10331000072301220A211A48FEF713FF012118484A
:10332000FEF7E3FE07B000BD2DE9F04105460E466D
:1033300000270723012229461148FEF702FF002437
:1033400013E001210E48FEF7D0FE00BF02210C4819
:10335000FFF73CF80028F9D00948FEF759FF074469
:103360000520FFF714FE601CC4B2B442E9DB601C08
:10337000B7FBF0F080B2BDE8F08100000010014022
:103380000024014010B504464FF40060FE49086077
:10339000401008602146FD4800F044FA4FF40060F8
:1033A000F949091F086010BD10B504464FF40060CC
:1033B000F54908604010091F08602146F34800F0F5
:1033C00031FA4FF40060F049091F086010BD70B574
:1033D00005460C462846FFF7D5FFE0B2FFF7E4FFAD
:1033E00070BD10B5EA49087AFFF7CCFF10BD10B5E3
:1033F00004464FF40060E44908604010091F08606B
:103400002112E24800F00EFAE1B2E04800F00AFAB8
:103410004FF40060DC49091F086010BD2DE9F04140
:1034200004460D4616461F46D949887AFFF7AAFF7B
:103430002012FFF7B9FFE0B2FFF7B6FF3012FFF737
:10344000B3FFF0B2FFF7B0FFD149087BFFF79AFF57
:103450002812FFF7A9FFE8B2FFF7A6FF3812FFF71F
:10346000A3FFF8B2FFF7A0FFFFF7BBFFBDE8F081B5
:1034700070B504460D462B46224629462046FFF7E6
:10348000CDFF70BD70B504460D4629462046FFF7B6
:10349000EFFFC0480088FFF7AAFF70BD70B5064671
:1034A000BB484088401E83B2B9480088401E82B2A3
:1034B00000210846FFF7B2FF4FF40060B2490860F0
:1034C0004010091F086000240AE0002503E0304690
:1034D000FFF78DFF6D1CAE480088A842F7D8641C2A
:1034E000AB484088A042F0D84FF40060A649091FBD
:1034F000086070BD08B501210820FDF7F1FA4FF40E
:10350000F050ADF8000003208DF8020010208DF877
:10351000030069469C481438FDF726F808BD10B52D
:103520004FF48050984908606420FFF730FD4FF455
:1035300080509549091F08603220FFF728FD10BD13
:1035400010B504462A20924948812B2088812C20DE
:10355000088134B1012C0FD0022C18D0032C2CD1AF
:1035600020E0F0208A4908804FF4A07048800821AC
:103570003620FFF72CFF21E04FF4A070844908802B
:10358000F020488068213620FFF721FF16E0F02068
:103590007F4908804FF4A0704880C8213620FFF78B
:1035A00016FF0BE04FF4A07079490880F0204880A6
:1035B000A8213620FFF70BFF00E000BF00BF10BDC1
:1035C00010B500F053F9FFF795FFFFF7A8FFCF20E4
:1035D000FFF7D8FE0020FFF7E7FEC120FFF7E4FE6B
:1035E0003020FFF7E1FEED20FFF7CCFE6420FFF76F
:1035F000DBFE0320FFF7D8FE1220FFF7D5FE812067
:10360000FFF7D2FEE820FFF7BDFE8520FFF7CCFED6
:103610001020FFF7C9FE7A20FFF7C6FECB20FFF788
:10362000B1FE3920FFF7C0FE2C20FFF7BDFE0020C1
:10363000FFF7BAFE3420FFF7B7FE0220FFF7B4FE13
:10364000F720FFF79FFE2020FFF7AEFEEA20FFF7EE
:1036500099FE0020FFF7A8FE0020FFF7A5FEC0207E
:10366000FFF790FE1B20FFF79FFEC120FFF78AFEA9
:103670000120FFF799FEC520FFF784FE3020FFF7F9
:1036800093FE3020FFF790FEC720FFF77BFEB720A8
:10369000FFF78AFE3620FFF775FE4820FFF784FE0D
:1036A0003A20FFF76FFE5520FFF77EFEB120FFF7AF
:1036B00069FE0020FFF778FE1A20FFF775FEB6209E
:1036C000FFF760FE0A20FFF76FFEA220FFF76CFEF7
:1036D000F220FFF757FE0020FFF766FE2620FFF7D7
:1036E00051FE0120FFF760FEE020FFF74BFE0F20A8
:1036F000FFF75AFE2A20FFF757FE2820FFF754FE57
:103700000820FFF751FE0E20FFF74EFE0820FFF7BE
:103710004BFE5420FFF748FEA920FFF745FE43204B
:10372000FFF742FE0A20FFF73FFE0F20FFF73CFEA7
:103730000020FFF739FE0020FFF736FE0020FFF7DC
:1037400033FE0020FFF730FEE120FFF71BFE0020D4
:10375000FFF72AFE1520FFF727FE1720FFF724FEAC
:103760000720FFF721FE1120FFF71EFE0620FFF7BE
:103770001BFE2B20FFF718FE5620FFF715FE3C20FE
:10378000FFF712FE052007E0140C0140003800404E
:103790006800002030000020FFF706FE1020FFF731
:1037A00003FE0F20FFF700FE3F20FFF7FDFD3F2047
:1037B000FFF7FAFD0F20FFF7F7FD2B20FFF7E2FDE3
:1037C0000020FFF7F1FD0020FFF7EEFD0120FFF7DD
:1037D000EBFD3F20FFF7E8FD2A20FFF7D3FD002097
:1037E000FFF7E2FD0020FFF7DFFD0020FFF7DCFD23
:1037F000EF20FFF7D9FD1120FFF7C4FD7820FFF778
:10380000C6FB2920FFF7BEFD0020FFF799FE01202F
:10381000034908604FF6FF70FFF740FE10BD00003F
:10382000A4812142024600BF108900F00200002856
:10383000FAD0918100BF108900F001000028FAD071
:103840009089C0B2704702884FF6C7731A40028051
:10385000012902D10288028003E0028842F020029E
:103860000280028842F040020280704700B587B0B3
:1038700001210920FDF734F94FF42040ADF8040090
:1038800003208DF8060018208DF8070001A91C48B8
:10389000FCF76AFE4FF48040ADF8040048208DF834
:1038A000070003208DF8060001A91548FCF75CFE0F
:1038B00001218803FDF721F90020ADF808004FF43D
:1038C0008270ADF80A000020ADF80C00ADF80E00D3
:1038D000ADF810004FF40070ADF812000020ADF804
:1038E0001400ADF816000720ADF8180002A905482D
:1038F000FEF77CFE01210348FEF71DFF07B000BD67
:10390000000C01400038004008B5FCF73AFD0121E9
:103910001C20FDF7E5F8C320ADF8000010208DF85D
:10392000030003208DF8020069467648FCF71CFE70
:10393000C120ADF8000010208DF8030003208DF8A1
:10394000020069467048FCF70FFE4EF21800ADF811
:10395000000010208DF8030003208DF80200694656
:103960006A48FCF701FE08BD0178012902D1684AC6
:10397000116002E00021664A11604178012903D1FB
:10398000634A0832116003E00021614A0832116085
:103990008178012903D15E4A283A116003E00021B1
:1039A0005B4A283A1160C178012902D1594A116055
:1039B00002E00021574A11600179012903D1554ADB
:1039C000121F116003E00021524A121F1160417959
:1039D000012903D14E4A121D116003E000214C4A17
:1039E000121D11608179012903D14A4A18321160F0
:1039F00003E00021474A18321160C179012902D140
:103A0000454A116002E00021434A1160017A012910
:103A100003D13F4A243A116003E000213C4A243A92
:103A20001160417A012903D13A4A1432116003E04E
:103A30000021384A14321160817A012903D1364AB3
:103A40001C32116003E00021334A1C321160C17A3C
:103A5000012903D1304A1832116003E000212E4AB7
:103A600018321160704710B54FF400512748FCF729
:103A70001BFE2A4908704FF400412448FCF714FE4D
:103A80002649487008212148FCF70EFE234988701A
:103A900002211C48FCF708FE2049C8700121194882
:103AA000FCF702FE1D4908714FF480411748FCF7EE
:103AB000FBFD1A49487180211248FCF7F5FD1749B2
:103AC000887101211048FCF7EFFD1449C8711021DD
:103AD0000E48FCF7E9FD1149087240210948FCF73E
:103AE000E3FD0E49487280210748FCF7DDFD0B49D4
:103AF000887240210448FCF7D7FD0849C87208467F
:103B000010BD000000080140000C01400010014001
:103B1000B4012242840121428081214276000020AA
:103B200010B5FCF76FFE4FF48030FCF78BFEFCF70E
:103B3000C8FE0446012C2FD11020FEF7CBFE022038
:103B4000FEF7B4FE0020FCF702FF0020FCF711FF97
:103B5000A002FCF705FF4FF4E0112004FCF7DAFEA9
:103B60000120FCF7E3FE00BF3920FCF78EFE0028A1
:103B7000FAD00220FCF7DDFE00BFFCF7E3FE0828C8
:103B8000FBD10120FCF7E4FF01210846FCF7B5FF5B
:103B900001213D20FCF7A4FF10BD08B517208DF8CA
:103BA000000000208DF8010001208DF802008DF842
:103BB00003006846FDF701FA08BD08B500214FF083
:103BC0000060FDF72CFA4FF4C060FDF7F1F91C20FE
:103BD0008DF8000000208DF801008DF80200012012
:103BE0008DF803006846FDF7E8F9FFF7D6FF08BD3A
:103BF0000EB501210846FCF780FF0920ADF804004E
:103C000041F61F40ADF800000020ADF80600ADF809
:103C1000020069464FF08040FDF79AFB01221146F1
:103C20009007FDF70CFF01218807FDF7EDFE0EBDA3
:103C300010B501218807FEF7B0F901280DD1012147
:103C40008007FEF7BBF9FE480068401CFC4908608D
:103C5000FC480068401CFB49086010BD0EB54FF4DD
:103C60008070ADF8080001208DF80A0010208DF852
:103C70000B0002A9F448FCF777FC4FF48071F2487E
:103C8000FCF721FD4FF40070ADF8080003208DF81B
:103C90000A0048208DF80B0002A9EB48FCF764FCF1
:103CA00009210120FCF776FD4FF400700090002000
:103CB0008DF804000C208DF8050001208DF8060019
:103CC0006846FDF7F1F90EBD00B587B00121C803C4
:103CD000FCF713FF01210920FCF702FF0121DB485B
:103CE000FCF713FD0820ADF8180003208DF81A002A
:103CF00018208DF81B0006A9D348FCF735FC1020CE
:103D0000ADF8180006A9D048FCF72EFC2020ADF82D
:103D1000180006A9CC48FCF727FC4FF40040ADF88A
:103D2000180003208DF81A0010208DF81B0006A93A
:103D3000C748FCF719FC4FF40041C548FCF7C1FC2B
:103D40000020ADF804004FF48270ADF806000020AA
:103D5000ADF80800ADF80A00ADF80C004FF40070A3
:103D6000ADF80E000820ADF810000020ADF81200EC
:103D70000720ADF8140001A9B648FEF737FC012171
:103D8000B448FEF7D8FC07B000BD10B5FFF7C8FE79
:103D9000FFF713FFFFF798FFFFF72AFFFFF75EFF1C
:103DA00010BD0021A64A116000BFA54909688142E3
:103DB000FBD3704710B504462146A648FEF7ECFC3D
:103DC00000BF8021A348FEF73AFD0128F9D010BDBD
:103DD00070B504462546E11704EB1161C1F30720D5
:103DE000FFF7E8FFE0B2FFF7E5FF70BD70B50446EE
:103DF0000D4616464FF400419548FCF764FC2846F2
:103E0000FFF7E6FF082101EB4411C9B241F00600BB
:103E1000FFF7D0FF3046FFF7DBFF4FF400418C483F
:103E2000FCF74FFC70BD10B5044640F2B4521221AD
:103E30000020FFF7DBFF082C17D2DFE804F0040FA7
:103E400010111213141584484178007801EB0020FA
:103E500082B204210020FFF7C9FF07E006E005E079
:103E600004E003E002E001E000E000BF00BF10BD9D
:103E700070B504460D4616464FF400417448FCF7F1
:103E800022FC2846FFF7A4FF082101EB4411C9B228
:103E900041F00500FFF78EFF3046FFF78BFF4FF430
:103EA00000416B48FCF70DFC70BD70B504460D4633
:103EB0004FF400416648FCF706FC2846FFF788FFF0
:103EC000082101EB4411C9B241F00100FFF772FF74
:103ED0006048FEF763FCC6B20020FFF76BFF5D4849
:103EE000FEF75CFCC6B24FF400415948FCF7E9FB11
:103EF000304670BD70B505460E4614464FF400417D
:103F00005348FCF7E0FB3046FFF762FF082101EB66
:103F10004511C9B241F00700FFF74CFF14F8010B3F
:103F2000FFF748FF14F8010BFFF744FF14F8010BEB
:103F3000FFF740FF14F8010BFFF73CFF4FF400417F
:103F40004348FCF7BEFB70BD38B544480078401CC0
:103F5000C0B28DF8000041484078401CC0B28DF8D6
:103F600001003E488078401CC0B28DF802003B48FA
:103F7000C078401CC0B28DF803006A460C210020B6
:103F8000FFF7B8FF012200210846FFF771FF012269
:103F900011460020FFF76CFF0520FFF702FF032109
:103FA0000020FFF782FF13280BD0102201210020F0
:103FB000FFF75EFF00202A4908602A49C1F8B801CE
:103FC00038BD042201210020FFF752FF00BF00246A
:103FD00002210020FFF769FF044624B12246022196
:103FE0000020FFF745FF0520FFF7DBFE04F0080087
:103FF000082801D10020E3E706210020FFF755FF44
:10400000FF2806D0102201210020FFF731FFFF20FA
:10401000D6E7DCE770B505460C464FF400410C4886
:10402000FCF751FB2846FFF7D3FE0520FFF7C2FE41
:104030002046FFF7BFFE4FF40041054814E00000A2
:104040005C00002060000020000C014000023000F5
:1040500000080140003C00404A00002046000020CB
:10406000BC01224200002242FCF72BFB70BD70B560
:1040700005460C464FF40041F748FCF724FB284660
:10408000FFF7A6FE0620FFF795FE2046FFF7A0FEED
:104090004FF40041F048FCF714FB70BD2DE9F041EE
:1040A00007460C4615464FF40041EB48FCF70BFB66
:1040B0003846FFF78DFE0420FFF77CFE002605E062
:1040C00014F8010BFFF776FE701C86B2AE42F7DBE8
:1040D0004FF40041E048FCF7F4FABDE8F08110B578
:1040E000002480210020FFF795FF0A20FFF759FEEA
:1040F0000422DA490120FFF7D1FF0422D849052024
:10410000FFF7CCFF0622D7490920FFF7C7FF04229B
:10411000D5490F20FFF7C2FF00BF0BE002221E218E
:104120002046FFF7A5FE02221F212046FFF7A0FE32
:10413000601CC4B2082CF1DB4FF4FA611920FFF7C0
:1041400096FF08211B20FFF765FFC0211620FFF70F
:1041500061FF01211820FFF75DFF1F222C210020A5
:10416000FFF786FE10BD10B5FFF7B9FFFFF7ECFEB5
:104170000020FFF758FE0120BC49086010BDC02098
:10418000B6490870A820487001208870C870FF20C8
:10419000B3490870487088700020C8700C20B1497D
:1041A000087029204870AB2088707C20C8700020DF
:1041B000087101204871C020AB490870A8204870E0
:1041C00001208870C620C8701320A9490870882073
:1041D00048700020A7490870704710B504460222B5
:1041E00000212046FFF744FE012211462046FFF73A
:1041F0003FFE0520FFF7D5FD03212046FFF755FEC2
:10420000222806D0102201212046FFF731FE00208F
:1042100010BDFF20FCE710B5044601220021204616
:10422000FFF726FE012211462046FFF721FE05205A
:10423000FFF7B7FD03212046FFF737FE132806D00E
:10424000102201212046FFF713FE002010BD04229A
:1042500001212046FFF70CFEFF20F7E710B50446CA
:10426000012200212046FFF703FE012211462046CD
:10427000FFF7FEFD0520FFF794FD03212046FFF721
:1042800014FE132806D0102201212046FFF7F0FD6E
:10429000002010BD022201212046FFF7E9FD052084
:1042A000FFF77FFD03212046FFF7FFFD142806D00E
:1042B000102201212046FFF7DBFD0020E9E7FF2067
:1042C000E7E710B56C480078F8B96A48007860B93B
:1042D0000020FFF7C3FFFF2803D1012066490870C3
:1042E00020E00020644908701CE062480078012842
:1042F0000CD10020FFF78FFFFF2803D101205E497A
:1043000008700FE000205C4908700BE00020FFF708
:1043100064FFFF2803D103205749087002E0002002
:104320005549087010BD70B505460E464FF4004162
:104330004948FCF7C8F93046FFF74AFD082101EB70
:104340004511C9B241F00200FFF734FD4B48FEF7BA
:1043500025FA04460020FFF72DFD4848FEF71EFA17
:1043600004460020FFF726FD4FF6FF7000EA042404
:104370004248FEF713FA204484B24FF40041364815
:10438000FCF79FF9204670BD2DE9F04707460D4622
:10439000904600213846FFF788FD00F00F002228E4
:1043A0000ED0374A0C213846FFF7A4FD3548417836
:1043B000007801EB002082B210213846FFF716FD8D
:1043C00024213846FFF7AFFF0646B146C6F30A067A
:1043D0004FF400412048FCF776F93046FFF7F8FC2F
:1043E000102101EB4711C9B241F00400FFF7E2FCD4
:1043F00006EB0800B0F5006F0ADA002405E015F8B6
:10440000010BFFF7D7FC601C84B24445F7DB43E0A7
:10441000C6F5006086B2002405E015F8010BFFF731
:10442000C9FC601C84B2B442F7DB4FF400410A4877
:10443000FCF747F94FF400410748FCF744F9002026
:10444000FFF7C6FC102101EB4711C9B241F004008F
:10445000FFF7B0FC1EE0000000080140380000201B
:104460003C0000204000002046000020B401224211
:104470004A0000205800002059000020003C004065
:10448000520000205600002015F8010BFFF792FCA7
:10449000601C84B24445F7DB4FF40041DF48FCF771
:1044A00010F909EB08001FFA80F94A462421384622
:1044B000FFF79CFC202201213846FFF7D9FCBDE81C
:1044C000F0872DE9F04780460D4626214046FFF74C
:1044D0002AFF064616B90020BDE8F08740F2B45026
:1044E000864200DD064628214046FFF71CFF0746AE
:1044F000B946C7F30A074FF40041C848FCF7E3F890
:104500003846FFF765FC182101EB4811C8B2FFF7E8
:1045100051FCC348FEF742F900F0FF0AB819B0F5A4
:10452000006F11DA00240CE00020FFF743FCBC48C8
:10453000FEF734F900F0FF0A85F800A06D1C601C3E
:1045400084B2B442F0DB3BE0C7F5006087B20024E0
:104550000CE00020FFF72EFCB148FEF71FF900F039
:10456000FF0A85F800A06D1C601C84B2BC42F0DB21
:104570004FF40041A948FCF7A4F84FF40041A748C4
:10458000FCF7A1F80020FFF723FC182101EB4811EC
:10459000C8B2FFF70FFCA248FEF700F900F0FF0ACF
:1045A0000CE00020FFF706FC9D48FEF7F7F800F04E
:1045B000FF0A85F800A06D1C601C84B2B442F0DBD9
:1045C0004FF400419548FCF77CF809EB06001FFA10
:1045D00080F94A4628214046FFF708FC4022012185
:1045E0004046FFF745FC304676E7FEB505468D4967
:1045F0002846FFF766FF064631468BA000F0F2FC26
:10460000324688498B4800F04BF98BA000F0EAFC59
:10461000844800F0E7FC8348007804285BD18AA036
:1046200000F0E0FC7F484078032802D0052842D102
:1046300005E032467F492846FFF7A6FE3CE088A009
:1046400000F0D0FC00240EE076480079204100F014
:10465000010018B101200DF8040002E000200DF85F
:104660000400601CC4B2082CEEDB002412E06D488C
:10467000C078204100F0010028B1012104F10800B8
:104680000DF8001004E0002104F108000DF80010FE
:10469000601CC4B2042CEADB002406E01DF8041000
:1046A00073A000F09FFC601CC4B20C2CF6DB6846C3
:1046B000FFF75AF900E000BF00BF5A480078012810
:1046C00009D132465B492846FFF75EFE17226CA1EE
:1046D0000020FFF759FEFEBD10B54FF40070FCF747
:1046E00049FD30B14FF40070FCF755FD01206849D9
:1046F000087010BD70B504464FF400414748FBF701
:10470000E2FF2046FFF764FB0120FFF753FB44481C
:10471000FEF744F8C5B20020FFF74CFB4048FEF717
:104720003DF8C5B24FF400413C48FBF7CAFF2846AC
:1047300070BD10B54FF480715648FBF7C4FF3220AE
:10474000FFF72FFB4FF480715248FBF7BAFFC820E8
:10475000FFF727FB00BF2E20FFF7CCFF00F0010082
:104760000028F8D010BD70B500BF0020484908707F
:104770001520FFF7BFFF054605F0F0011520FFF7F4
:1047800049FC1720FFF7B6FF054605F00100002899
:104790003DD002210020FFF788FB0446224602217B
:1047A0000020FFF765FB04F0010028B13A480078CB
:1047B00040F002003849087004F0020050B11022A5
:1047C00001210020FFF754FB0020FFF72CFB002005
:1047D0003149087004F0100028B13048007840F0EA
:1047E00002002E49087004F0040028B12B4800781C
:1047F00040F001002949087004F0080038B1102287
:1048000001210020FFF734FB002023490870172006
:10481000FFF770FF00B1A8E770BD0000000801407D
:10482000003C0040820000200D0A53495A453A25B9
:10483000640D0A00820800200D0A52585F42554656
:104840004645520D0A0000000D0A534C6F63616C1F
:104850002041646472657373206F6B210D0A000040
:104860000D53657456616C7565206F6B0D0A000001
:104870000D0A53657476616C75653A25640D0A00FE
:104880000D0A205448697320697320310D0A000015
:104890005B000020000C0140590000205A0000205D
:1048A00040EA01039B0703D009E008C9121F08C0B2
:1048B000042AFAD203E011F8013B00F8013B521E32
:1048C000F9D2704780EA010210B502F000434000BF
:1048D00022D04A001FD0010E01EB1261C0F3560036
:1048E000C2F3560240F4000042F40002A0FB022092
:1048F00000047F39140400D0401C50EA124001D457
:104900004000491EC2B20C0604EBD010401C400807
:10491000802A02D003E0002010BD20F00100002911
:1049200000DA0020184310BD30B480EA010202F022
:10493000004530F0004221F0004013D090B1C30D8B
:10494000D40DC2F31601C0F31600E41A41F40001BD
:1049500040F400027D34914201D3641C00E0490020
:10496000002C02DA30BC002070474FF40000002316
:10497000914201D3891A034340084FEA4101F7D11C
:1049800051B1914202D14FF0004105E002D24FF007
:10499000010101E06FF0010103EBC450284430BC79
:1049A00000F0FEB82DE9F04D81EA030404F0004B5D
:1049B00021F0004514464FF0000A23F0004150EA70
:1049C000050220D054EA01021DD0C5F30A57024661
:1049D000C5F31303C1F31300C1F30A5640F4801565
:1049E00043F48013A7EB0608101BD64608F2FD38E7
:1049F00073EB050002D308F1010801E092185B4156
:104A0000B8F1000F03DA00200146BDE8F08D002068
:104A10004FF48011064684460EE0171B73EB050722
:104A200005D3121B63EB050306434CEA010C49084E
:104A30004FEA300092185B4150EA0107EDD152EA8B
:104A4000030012D082EA040083EA0501084305D07E
:104A5000101BAB4106D20122002306E000224FF0DA
:104A6000004302E06FF0010253101AEB06004CEB1A
:104A7000085110EB0A0041EB0B01BDE8F04D00F0CE
:104A8000C6B896230022114600F093B820F00040EB
:104A9000C10DC0F3160040F400007F2901DA0020A8
:104AA0007047962903DCC1F19601C84070479639DA
:104AB0008840704700F0004230F000400AD0C10D3D
:104AC00001F56071C0F3160042EA0151C2084007C7
:104AD0001143704700200146704701F0004330B495
:104AE00021F0004150EA010206D00A0DA2F56072E1
:104AF000C1F31301002A02DC30BC00207047440FD0
:104B000044EAC104C100E01830BC00EBC25000F020
:104B100047B830B50B46014600202022012409E0A9
:104B200021FA02F59D4205D303FA02F5491B04FA66
:104B300002F52844151EA2F10102F1DC30BD2DE979
:104B4000F05F0546002092469B4688460646814611
:104B500040241BE0284641464746224600F01FFA03
:104B600053465A46C01A914110D311461846224660
:104B700000F006FA2D1A67EB01084F462246012085
:104B8000002100F0FDF917EB00094E41201EA4F1B1
:104B90000104DFDC484631462A464346BDE8F09F23
:104BA0000029A8BF7047401C490008BF20F0010041
:104BB000704710B4B0FA80FC00FA0CF050EA01041F
:104BC00004BF10BC704749B1CCF1200421FA04F4B1
:104BD00011FA0CF118BF012121430843A3EB0C018A
:104BE000CB1D4FEA00614FEA102042BF002010BCED
:104BF000704700EBC35010440029A4BF10BC70479D
:104C0000401C490008BF20F0010010BC704710B5DF
:104C1000141E73F1000408DA401C41F100019218DF
:104C20005B411A4301D120F0010010BD2DE9F04D88
:104C300092469B4611B1B1FA81F202E0B0FA80F2DD
:104C40002032904600F09CF904460F4640EA0A00E4
:104C500041EA0B0153465A46084313D0114653EA22
:104C6000010019D0C8F14002504600F098F90546FD
:104C70000E4650465946424600F082F9084305D098
:104C8000012004E020463946BDE8F08D00200543B0
:104C900046EAE0762C4337430A986305E40AA0EB22
:104CA00008000022FD0A44EA47540A3002D50020D9
:104CB0000146E9E7010510196941DDE908450019D8
:104CC0006941BDE8F04DA2E72DE9FE4F804681EA3B
:104CD0000300C00F0C46009021F0004123F0004576
:104CE000B8EB0200A94105D24046214690461C4639
:104CF0000B46024623F00040104347D0270DC7F370
:104D00000A00C3F30A510290401A019040286BDA5E
:104D1000C3F3130040F4801B0098924620B1002397
:104D2000D2EB030A63EB0B0B01985946C0F140022A
:104D3000504600F025F906460D4650465946019A60
:104D400000F03DF910EB08006141002487EA1152A0
:104D500084EAE7731A4340D0009A62B3019A012AA9
:104D60004FEA075215DC001B61EB02014FF00042D5
:104D700002EA0752CDE90042001C41F5801132469B
:104D80002B46FFF753FF03B0BDE8F08F40462146A6
:104D9000F9E7001B61EB0201001C41F580130018CC
:104DA0005B412018A2F5001747EB030140EAD570DC
:104DB000B6196D4111E06D084FEA360645EAC07537
:104DC0004FEA0752001B61EB0201001C41F5801104
:104DD00049084FEA30000019514132462B4603B0D2
:104DE000BDE8F04FFFF713BF0098012240000023F9
:104DF000D0EB020263EBE073009821464FEAE074C7
:104E0000B8EB000061EB0401E9E783F000435BE7E6
:104E100081F0004158E72DE9FE4F81EA030404F0D8
:104E2000004421F0004100944FF0000B23F00043B8
:104E300050EA01045ED052EA03045BD0C3F30A5483
:104E4000C1F30A552C44A4F2F3340194A0FB02549C
:104E5000C1F3130141F48011C3F3130343F480132E
:104E600001FB024400FB034E840A970A44EA815482
:104E700047EA8357A4FB076802958D0A05FB07855F
:104E80004FEA932C04FB0C542705029D4FEA065869
:104E900047EA1637B5EB08056EEB070C870E920E46
:104EA00047EA811742EA8312A7FB0201B6EB0B0126
:104EB00064EB00042B0D43EA0C335E1844EB1C50EA
:104EC000DA465146E7FB0201C5F313044FEA0B3300
:104ED00043EA14534FEA0432019C43EA0603A4F167
:104EE0000C040294009CCDE900B4FFF79FFE03B0D0
:104EF000BDE8F08F00200146F9E7C1F30A52C1F383
:104F0000130140F2FF3341F480119A4202DA00208B
:104F10000146704740F233439A42A2F2334202DC28
:104F2000524200F03CB800F02BB8000030B5041E2F
:104F300071F1000404DB4FF00044404264EB0101D6
:104F4000141E73F1000405DB1C464FF0004352426F
:104F500063EB0403994208BF904230BD064C074DF5
:104F600006E0E06840F0010394E807009847103439
:104F7000AC42F6D3FBF7E0F8C0580008E058000850
:104F8000202A04DB203A00FA02F100207047914009
:104F9000C2F1200320FA03F3194390407047202AFE
:104FA00004DB203A21FA02F00021704721FA02F3D3
:104FB000D040C2F120029140084319467047202A90
:104FC00006DBCB17203A41FA02F043EAE07306E031
:104FD00041FA02F3D040C2F1200291400843194641
:104FE000704700000FB4054B10B503A9044A02989E
:104FF00000F0CAF810BC5DF814FB00000530000892
:105000006400002002E008C8121F08C1002AFAD17B
:1050100070477047002001E001C1121F002AFBD138
:10502000704700002DE9FF5FDDE90220010DDDF88A
:1050300038B0024318D044F61050A1F2FF3141437A
:105040000D140F98012820D0A5EB0B00401C5FEA3F
:10505000000A4FF00004474EDFF81C91A04650466E
:1050600016D5CAF1000728E00F98012443A20128B1
:1050700008D0002100980F9BC0E90021C0E902433D
:10508000BDE8FF9F6FEA0B01F4E7CBF10000DEE71C
:10509000074612E0F80707D0224633464046494605
:1050A000FFF7B9FE80468946224633461046194628
:1050B000FFF7B1FE04460E467F10002FEAD1DDE96E
:1050C0000201BAF1000F42464B4602DAFFF7A3FE97
:1050D00001E0FFF767FC04460E460022284BFFF76D
:1050E00025FF03D84FF0FF30014607E00022254B93
:1050F00020463146FFF7E8FDFFF7FFFE102409E0E8
:10510000002C0ADB0A220023FFF719FD019B303235
:105110001A55641E50EA0102F2D1641C019AC4F1CE
:10512000110314440F9A012A03D0012208430DD120
:105130000AE0084304D000204FF0110B0F9080E7E5
:10514000A3EB0B056D1E0DE05B4504DD4FF0000287
:1051500005F1010504E003DA4FF00002A5F10105B5
:10516000002AECD000980F99C0E90231C0E900454F
:1051700086E70000000024400000F03F30000000FF
:105180000000F0430000E03F2DE9FF4F95B09B4643
:105190008946064600250FE2252877D100242746B8
:1051A000F84A0121059400E0044316F8013F203B32
:1051B00001FA03F01042F7D130782A2811D06FF0AD
:1051C0002F033078A0F13002092A16D8059A44F04E
:1051D000020402EB820203EB42021044761C0590AB
:1051E000EFE759F8042B0592002A03DA504244F401
:1051F0000054059044F00204761C30782E2816D115
:1052000016F8010F44F004042A280DD06FF02F0285
:105210003078A0F13003092B09D807EB870302EBA4
:105220004303C718761CF3E759F8047B761C3078E3
:105230006C280FD006DC4C2817D068280DD06A28BF
:1052400014D104E0742810D07A280FD10DE044F472
:1052500000140AE044F4801401E044F4401472782D
:10526000824202D104F58014761C761C30786628C0
:105270000BD013DC582877D009DC002875D04528DE
:10528000F6D04628F4D047281AD19DE118E06328CB
:1052900035D0642879D0652812D195E1702873D073
:1052A00008DC6728F1D069286FD06E280DD06F28F0
:1052B00006D1B5E073282CD0752875D0782874D025
:1052C0005A46179990476D1C75E1C4F302500228A5
:1052D00009D003280DD0D9F8001004280DD00D6096
:1052E00009F1040967E1D9F80010EA17C1E9005291
:1052F000F6E7D9F800100D80F2E70D70F0E719F825
:10530000041B8DF8001000208DF80100EA460120F2
:1053100003E059F804AB4FF0FF3061074FF0000194
:1053200002D40DE008F101018846B9420FDA804548
:10533000F8DB1AF808100029F4D108E008F101019F
:1053400088468142FADB1AF808100029F6D1059840
:105350005B46A0EB080721463846179A00F094FAFE
:10536000284400EB080507E04DE029E10DE01AF8BC
:10537000010B5A4617999047B8F10108F7D25B46DE
:1053800021463846179A13E142E00A220092C4F3FC
:1053900002524FF0000A022A08D059F804CB032A1F
:1053A0004FEAEC710AD00DE029E02AE009F107018B
:1053B00021F00702F2E802C1914609E00FFA8CFCE5
:1053C0004FEAEC71042A03D14FFA8CFC4FEAEC71DE
:1053D000002907DA0A460021DCF1000C61EB02012A
:1053E0002D2202E0220504D52B228DF80420012273
:1053F00003E0E20701D02022F7E7904659E00A21B6
:1054000002E010220DE010214FF0000A00910BE0A5
:1054100010224FF0000A44F004040827009203E031
:1054200008224FF0000A0092C4F30252022A05D06B
:1054300059F804CB0021032A08D009E009F107013B
:1054400021F00702F2E802C1914605E01FFA8CFC48
:10545000042A01D10CF0FF0C4FF00008220728D5D8
:10546000702806D0009B83F0100353EA0A0305D08E
:105470000EE040228DF80420012208E05CEA0102DF
:1054800006D030228DF804208DF8050002229046C7
:10549000009B83F0080353EA0A030AD15CEA010285
:1054A00001D1620705D530228DF804204FF00108A4
:1054B0007F1E582804D034A003900EA802900DE05F
:1054C00036A0F9E753466046009AFFF738FB84465A
:1054D0000398825C0298401E029002705CEA010010
:1054E000F0D1029806A9081A00F1200A600702D537
:1054F00024F4803400E00127574502DDA7EB0A00C1
:1055000000E0002000EB0A01009005984144401A99
:105510000590E00306D45B462146179A059800F0F3
:10552000B3F90544002706E001A85A46C05D179963
:1055300090476D1C7F1C4745F6DBE0030CD55B46AE
:105540002146179A059800F09FF9054404E03020A1
:105550005A46179990476D1C0099481E00900029E3
:10556000F5DC08E0029802995A460078491C02913D
:10557000179990476D1CBAF10001AAF1010AF1DCFC
:1055800065E1000009280100303132333435363707
:10559000383961626364656600000000303132337F
:1055A000343536373839414243444546000000001F
:1055B00000F058F90544761C307800287FF4ECADF3
:1055C00019B02846BDE8F08F620700D4062709F11C
:1055D000070222F0070CFCE80223E14603F0004832
:1055E0005FEA080C02D00FF2702C0DE05FEA045C59
:1055F00002D50FF2682C07E05FEAC47C02D00FF2FC
:10560000602C01E0AFF2700C4FF0FF3823F0004344
:10561000CDF850C065280CD006DC452809D04628B6
:105620001DD047283DD13DE0662818D067287ED19F
:1056300038E00021112F01DB112000E0781CCDE9BA
:10564000000106A90EA8FFF7EDFCDDE90F010E9A97
:1056500003910021009207F1010A04914DE04FF0FF
:1056600000400097CDE9011006A90EA8FFF7DAFC6B
:10567000DDE90F0203920E9B11990022DDF80CA0C8
:105680000093049211B9791C00EB010AB7EB0A00F0
:1056900004D4C0F1FF3007F1010A0490AAEB07001F
:1056A000019044E0012F00DA01270021112F01DDD4
:1056B000112000E03846CDE9000106A90EA8FFF749
:1056C000B1FCDDE90F010E9A0391002104910092D3
:1056D000BA4621070CD40399514500DA8A46BAF13B
:1056E000010F05DD009AAAF10101515C302908D0B3
:1056F000B84202DA10F1040F06DA0121CDE90110F7
:1057000015E0AAF10101E9E7002805DC049901444C
:105710000491AAEB000102E0411C514500DD8A46DC
:105720000499401A401C01904FF00040029020075D
:1057300004D40198504501DBCDF8048000208DF899
:105740004F0002980DF14F07B0F1004F25D02B20EC
:105750000E9002984FF0020800280CDA40420290A6
:105760002D200E9007E00A210298FFF7D2F9303180
:10577000029007F8011DB8F10001A8F10108F2DC60
:1057800002980028EFD1791E0E980870307800F04A
:10579000200040F0450007F8020D12A8C01B00F1E0
:1057A00007081498007800B1012000EB0A01019865
:1057B00001EBE07105984144401A401E0590E0035A
:1057C00006D45B462146179A059800F05DF805441B
:1057D0001498007818B15A46179990476D1CE00349
:1057E00024D55B462146179A059800F04DF80544EC
:1057F0001CE00498002807DBDDE90301884203DD93
:105800000098405C179901E0179930205A4690475C
:10581000049805F10105401C04900198401E019078
:1058200004D12E205A46179990476D1CBAF10001F9
:10583000AAF1010ADDDC05E017F8010B5A461799B9
:1058400090476D1CB8F10001A8F10108F4DC5B463B
:105850002146179A0598ABE62D0000002B000000AA
:10586000200000002DE9F041044600251E461746A1
:10587000880404D405E039462020B0476D1C641E1E
:10588000F9D52846BDE8F0812DE9F0410446002510
:105890001E469046C80301D5302700E02027880423
:1058A00004D505E041463846B0476D1C641EF9D565
:1058B0002846BDE8F08100000A000B000C00000043
:1058C000E0580008000000206800000004500008B4
:1058D00048590008680000202014000014500008F7
:1058E0000000000000A24A040000000000000000C8
:1058F0000102030406070809000000000102030476
:10590000010203040607080902040608000000005B
:105910000000FFFF00000000000000000000000089
:105920000000000000000000000000000000000077
:105930000000000000000000030000000000000064
:0859400000000000000000005F
:0400000508000131BD
:00000001FF
